{
    "contractName": "BridgeWrap",
    "abi": [
        {
            "inputs": [
                {
                    "internalType": "string",
                    "name": "_symbol",
                    "type": "string"
                },
                {
                    "internalType": "uint8",
                    "name": "_decimal",
                    "type": "uint8"
                },
                {
                    "internalType": "address[]",
                    "name": "_signers",
                    "type": "address[]"
                },
                {
                    "internalType": "uint8",
                    "name": "_requireCount",
                    "type": "uint8"
                }
            ],
            "stateMutability": "nonpayable",
            "type": "constructor"
        },
        {
            "anonymous": false,
            "inputs": [
                {
                    "indexed": true,
                    "internalType": "address",
                    "name": "owner",
                    "type": "address"
                },
                {
                    "indexed": true,
                    "internalType": "address",
                    "name": "spender",
                    "type": "address"
                },
                {
                    "indexed": false,
                    "internalType": "uint256",
                    "name": "value",
                    "type": "uint256"
                }
            ],
            "name": "Approval",
            "type": "event"
        },
        {
            "anonymous": false,
            "inputs": [
                {
                    "indexed": false,
                    "internalType": "uint8",
                    "name": "changeRequireCount",
                    "type": "uint8"
                }
            ],
            "name": "ChangeRequireCount",
            "type": "event"
        },
        {
            "anonymous": false,
            "inputs": [
                {
                    "indexed": true,
                    "internalType": "address",
                    "name": "signer",
                    "type": "address"
                }
            ],
            "name": "SignerAddition",
            "type": "event"
        },
        {
            "anonymous": false,
            "inputs": [
                {
                    "indexed": true,
                    "internalType": "address",
                    "name": "signer",
                    "type": "address"
                }
            ],
            "name": "SignerRemoval",
            "type": "event"
        },
        {
            "anonymous": false,
            "inputs": [
                {
                    "indexed": true,
                    "internalType": "address",
                    "name": "from",
                    "type": "address"
                },
                {
                    "indexed": true,
                    "internalType": "address",
                    "name": "to",
                    "type": "address"
                },
                {
                    "indexed": false,
                    "internalType": "uint256",
                    "name": "value",
                    "type": "uint256"
                }
            ],
            "name": "Transfer",
            "type": "event"
        },
        {
            "anonymous": false,
            "inputs": [
                {
                    "indexed": true,
                    "internalType": "address",
                    "name": "from",
                    "type": "address"
                },
                {
                    "indexed": true,
                    "internalType": "bytes32",
                    "name": "to",
                    "type": "bytes32"
                },
                {
                    "indexed": false,
                    "internalType": "bytes32",
                    "name": "symbol",
                    "type": "bytes32"
                },
                {
                    "indexed": false,
                    "internalType": "uint256",
                    "name": "amount",
                    "type": "uint256"
                }
            ],
            "name": "UnWrap",
            "type": "event"
        },
        {
            "anonymous": false,
            "inputs": [
                {
                    "indexed": true,
                    "internalType": "address",
                    "name": "to",
                    "type": "address"
                },
                {
                    "indexed": false,
                    "internalType": "uint256",
                    "name": "amount",
                    "type": "uint256"
                }
            ],
            "name": "Wrap",
            "type": "event"
        },
        {
            "inputs": [],
            "name": "FEE_DIV_CONST",
            "outputs": [
                {
                    "internalType": "uint24",
                    "name": "",
                    "type": "uint24"
                }
            ],
            "stateMutability": "view",
            "type": "function"
        },
        {
            "inputs": [],
            "name": "acceptSetter",
            "outputs": [],
            "stateMutability": "nonpayable",
            "type": "function"
        },
        {
            "inputs": [
                {
                    "internalType": "address",
                    "name": "signer",
                    "type": "address"
                }
            ],
            "name": "addSigner",
            "outputs": [],
            "stateMutability": "nonpayable",
            "type": "function"
        },
        {
            "inputs": [],
            "name": "addingCount",
            "outputs": [
                {
                    "internalType": "uint8",
                    "name": "",
                    "type": "uint8"
                }
            ],
            "stateMutability": "view",
            "type": "function"
        },
        {
            "inputs": [],
            "name": "addingSigner",
            "outputs": [
                {
                    "internalType": "address",
                    "name": "",
                    "type": "address"
                }
            ],
            "stateMutability": "view",
            "type": "function"
        },
        {
            "inputs": [
                {
                    "internalType": "address",
                    "name": "",
                    "type": "address"
                },
                {
                    "internalType": "address",
                    "name": "",
                    "type": "address"
                }
            ],
            "name": "allowance",
            "outputs": [
                {
                    "internalType": "uint256",
                    "name": "",
                    "type": "uint256"
                }
            ],
            "stateMutability": "view",
            "type": "function"
        },
        {
            "inputs": [
                {
                    "internalType": "address",
                    "name": "spender",
                    "type": "address"
                },
                {
                    "internalType": "uint256",
                    "name": "value",
                    "type": "uint256"
                }
            ],
            "name": "approve",
            "outputs": [
                {
                    "internalType": "bool",
                    "name": "",
                    "type": "bool"
                }
            ],
            "stateMutability": "nonpayable",
            "type": "function"
        },
        {
            "inputs": [
                {
                    "internalType": "address",
                    "name": "",
                    "type": "address"
                }
            ],
            "name": "balanceOf",
            "outputs": [
                {
                    "internalType": "uint256",
                    "name": "",
                    "type": "uint256"
                }
            ],
            "stateMutability": "view",
            "type": "function"
        },
        {
            "inputs": [
                {
                    "internalType": "uint8",
                    "name": "newCount",
                    "type": "uint8"
                }
            ],
            "name": "changeRequireCount",
            "outputs": [],
            "stateMutability": "nonpayable",
            "type": "function"
        },
        {
            "inputs": [],
            "name": "changingCount",
            "outputs": [
                {
                    "internalType": "uint8",
                    "name": "",
                    "type": "uint8"
                }
            ],
            "stateMutability": "view",
            "type": "function"
        },
        {
            "inputs": [],
            "name": "decimals",
            "outputs": [
                {
                    "internalType": "uint8",
                    "name": "",
                    "type": "uint8"
                }
            ],
            "stateMutability": "view",
            "type": "function"
        },
        {
            "inputs": [],
            "name": "feeRate",
            "outputs": [
                {
                    "internalType": "uint24",
                    "name": "",
                    "type": "uint24"
                }
            ],
            "stateMutability": "view",
            "type": "function"
        },
        {
            "inputs": [],
            "name": "feeSum",
            "outputs": [
                {
                    "internalType": "uint256",
                    "name": "",
                    "type": "uint256"
                }
            ],
            "stateMutability": "view",
            "type": "function"
        },
        {
            "inputs": [
                {
                    "internalType": "address",
                    "name": "",
                    "type": "address"
                },
                {
                    "internalType": "address",
                    "name": "",
                    "type": "address"
                }
            ],
            "name": "isAdded",
            "outputs": [
                {
                    "internalType": "bool",
                    "name": "",
                    "type": "bool"
                }
            ],
            "stateMutability": "view",
            "type": "function"
        },
        {
            "inputs": [
                {
                    "internalType": "address",
                    "name": "",
                    "type": "address"
                }
            ],
            "name": "isChangeCount",
            "outputs": [
                {
                    "internalType": "bool",
                    "name": "",
                    "type": "bool"
                }
            ],
            "stateMutability": "view",
            "type": "function"
        },
        {
            "inputs": [
                {
                    "internalType": "address",
                    "name": "",
                    "type": "address"
                },
                {
                    "internalType": "uint8",
                    "name": "",
                    "type": "uint8"
                }
            ],
            "name": "isRemoved",
            "outputs": [
                {
                    "internalType": "bool",
                    "name": "",
                    "type": "bool"
                }
            ],
            "stateMutability": "view",
            "type": "function"
        },
        {
            "inputs": [],
            "name": "name",
            "outputs": [
                {
                    "internalType": "string",
                    "name": "",
                    "type": "string"
                }
            ],
            "stateMutability": "view",
            "type": "function"
        },
        {
            "inputs": [],
            "name": "newRequireCount",
            "outputs": [
                {
                    "internalType": "uint8",
                    "name": "",
                    "type": "uint8"
                }
            ],
            "stateMutability": "view",
            "type": "function"
        },
        {
            "inputs": [],
            "name": "owner",
            "outputs": [
                {
                    "internalType": "address",
                    "name": "",
                    "type": "address"
                }
            ],
            "stateMutability": "view",
            "type": "function"
        },
        {
            "inputs": [
                {
                    "internalType": "uint8",
                    "name": "index",
                    "type": "uint8"
                }
            ],
            "name": "removeSigner",
            "outputs": [],
            "stateMutability": "nonpayable",
            "type": "function"
        },
        {
            "inputs": [],
            "name": "removingCount",
            "outputs": [
                {
                    "internalType": "uint8",
                    "name": "",
                    "type": "uint8"
                }
            ],
            "stateMutability": "view",
            "type": "function"
        },
        {
            "inputs": [],
            "name": "removingIndex",
            "outputs": [
                {
                    "internalType": "uint8",
                    "name": "",
                    "type": "uint8"
                }
            ],
            "stateMutability": "view",
            "type": "function"
        },
        {
            "inputs": [],
            "name": "requireCount",
            "outputs": [
                {
                    "internalType": "uint8",
                    "name": "",
                    "type": "uint8"
                }
            ],
            "stateMutability": "view",
            "type": "function"
        },
        {
            "inputs": [
                {
                    "internalType": "uint256",
                    "name": "",
                    "type": "uint256"
                }
            ],
            "name": "signers",
            "outputs": [
                {
                    "internalType": "address",
                    "name": "",
                    "type": "address"
                }
            ],
            "stateMutability": "view",
            "type": "function"
        },
        {
            "inputs": [],
            "name": "symbol",
            "outputs": [
                {
                    "internalType": "string",
                    "name": "",
                    "type": "string"
                }
            ],
            "stateMutability": "view",
            "type": "function"
        },
        {
            "inputs": [],
            "name": "totalSupply",
            "outputs": [
                {
                    "internalType": "uint256",
                    "name": "",
                    "type": "uint256"
                }
            ],
            "stateMutability": "view",
            "type": "function"
        },
        {
            "inputs": [
                {
                    "internalType": "address",
                    "name": "to",
                    "type": "address"
                },
                {
                    "internalType": "uint256",
                    "name": "value",
                    "type": "uint256"
                }
            ],
            "name": "transfer",
            "outputs": [
                {
                    "internalType": "bool",
                    "name": "",
                    "type": "bool"
                }
            ],
            "stateMutability": "nonpayable",
            "type": "function"
        },
        {
            "inputs": [
                {
                    "internalType": "address",
                    "name": "from",
                    "type": "address"
                },
                {
                    "internalType": "address",
                    "name": "to",
                    "type": "address"
                },
                {
                    "internalType": "uint256",
                    "name": "value",
                    "type": "uint256"
                }
            ],
            "name": "transferFrom",
            "outputs": [
                {
                    "internalType": "bool",
                    "name": "",
                    "type": "bool"
                }
            ],
            "stateMutability": "nonpayable",
            "type": "function"
        },
        {
            "inputs": [
                {
                    "internalType": "address",
                    "name": "_owner",
                    "type": "address"
                }
            ],
            "name": "transferOwner",
            "outputs": [],
            "stateMutability": "nonpayable",
            "type": "function"
        },
        {
            "inputs": [
                {
                    "internalType": "bytes32",
                    "name": "to",
                    "type": "bytes32"
                },
                {
                    "internalType": "bytes32",
                    "name": "symbol",
                    "type": "bytes32"
                },
                {
                    "internalType": "uint256",
                    "name": "amount",
                    "type": "uint256"
                }
            ],
            "name": "unWrap",
            "outputs": [],
            "stateMutability": "nonpayable",
            "type": "function"
        },
        {
            "inputs": [
                {
                    "internalType": "bytes32",
                    "name": "to",
                    "type": "bytes32"
                },
                {
                    "internalType": "bytes32",
                    "name": "symbol",
                    "type": "bytes32"
                },
                {
                    "internalType": "uint256",
                    "name": "fee",
                    "type": "uint256"
                }
            ],
            "name": "unWrapFee",
            "outputs": [],
            "stateMutability": "nonpayable",
            "type": "function"
        },
        {
            "inputs": [
                {
                    "internalType": "address",
                    "name": "to",
                    "type": "address"
                },
                {
                    "internalType": "uint256",
                    "name": "fee",
                    "type": "uint256"
                }
            ],
            "name": "withdrawFee",
            "outputs": [],
            "stateMutability": "nonpayable",
            "type": "function"
        },
        {
            "inputs": [
                {
                    "internalType": "bytes32",
                    "name": "txid",
                    "type": "bytes32"
                },
                {
                    "internalType": "uint256",
                    "name": "amount",
                    "type": "uint256"
                },
                {
                    "internalType": "address payable",
                    "name": "to",
                    "type": "address"
                }
            ],
            "name": "wrap",
            "outputs": [],
            "stateMutability": "nonpayable",
            "type": "function"
        }
    ],
    "bytecode": "60a06040523480156200001157600080fd5b5060405162001fa438038062001fa483398101604081905262000034916200037b565b8181858560006200004683826200050a565b5060ff166080525060005b82518160ff161015620001b15760076000848360ff16815181106200007a576200007a620005d6565b6020908102919091018101516001600160a01b031682528101919091526040016000205460ff16158015620000e1575060006001600160a01b0316838260ff1681518110620000cd57620000cd620005d6565b60200260200101516001600160a01b031614155b620001325760405162461bcd60e51b815260206004820152601c60248201527f696e76616c6964206f72206475706c696361746564207369676e657200000000604482015260640160405180910390fd5b6200013f81600162000602565b60076000858460ff16815181106200015b576200015b620005d6565b60200260200101516001600160a01b03166001600160a01b0316815260200190815260200160002060006101000a81548160ff021916908360ff1602179055508080620001a89062000624565b91505062000051565b508151620001c7906006906020850190620001fb565b506008805460ff90921660ff199092169190911790555050600480546001600160a01b031916331790555062000646915050565b82805482825590600052602060002090810192821562000253579160200282015b828111156200025357825182546001600160a01b0319166001600160a01b039091161782556020909201916001909101906200021c565b506200026192915062000265565b5090565b5b8082111562000261576000815560010162000266565b634e487b7160e01b600052604160045260246000fd5b604051601f8201601f191681016001600160401b0381118282101715620002bd57620002bd6200027c565b604052919050565b805160ff81168114620002d757600080fd5b919050565b600082601f830112620002ee57600080fd5b815160206001600160401b038211156200030c576200030c6200027c565b8160051b6200031d82820162000292565b92835284810182019282810190878511156200033857600080fd5b83870192505b84831015620003705782516001600160a01b0381168114620003605760008081fd5b825291830191908301906200033e565b979650505050505050565b600080600080608085870312156200039257600080fd5b84516001600160401b0380821115620003aa57600080fd5b818701915087601f830112620003bf57600080fd5b815181811115620003d457620003d46200027c565b6020620003ea601f8301601f1916820162000292565b8281528a82848701011115620003ff57600080fd5b60005b838110156200041f57858101830151828201840152820162000402565b506000818401830152975062000437898201620002c5565b9650505060408701519150808211156200045057600080fd5b506200045f87828801620002dc565b9250506200047060608601620002c5565b905092959194509250565b600181811c908216806200049057607f821691505b602082108103620004b157634e487b7160e01b600052602260045260246000fd5b50919050565b601f8211156200050557600081815260208120601f850160051c81016020861015620004e05750805b601f850160051c820191505b818110156200050157828155600101620004ec565b5050505b505050565b81516001600160401b038111156200052657620005266200027c565b6200053e816200053784546200047b565b84620004b7565b602080601f8311600181146200057657600084156200055d5750858301515b600019600386901b1c1916600185901b17855562000501565b600085815260208120601f198616915b82811015620005a75788860151825594840194600190910190840162000586565b5085821015620005c65787850151600019600388901b60f8161c191681555b5050505050600190811b01905550565b634e487b7160e01b600052603260045260246000fd5b634e487b7160e01b600052601160045260246000fd5b60ff81811683821601908111156200061e576200061e620005ec565b92915050565b600060ff821660ff81036200063d576200063d620005ec565b60010192915050565b60805161194262000662600039600061031a01526119426000f3fe608060405234801561001057600080fd5b50600436106101fb5760003560e01c80636561d53c1161011a5780639ca6ce12116100ad578063dd62ed3e1161007c578063dd62ed3e1461049f578063ea047fee146104ca578063eb12d61e146104dd578063f770a5db146104f0578063fd9be5221461051e57600080fd5b80639ca6ce1214610465578063a1ed637a1461046f578063a9059cbb14610483578063b44d4e5f1461049657600080fd5b80638da5cb5b116100e95780638da5cb5b1461041a57806395d89b411461042d578063978bbdb9146104355780639bc5362e1461045257600080fd5b80636561d53c146103ad57806368d02417146103db57806370a08231146103ed57806383051fde1461040d57600080fd5b806326fbcf93116101925780634fb2e45d116101615780634fb2e45d146103735780635003b3331461038657806354ca4416146103935780635f8e422f146103a557600080fd5b806326fbcf93146102f2578063313ce567146103155780633d5655f81461034e578063458a3add1461036657600080fd5b806318160ddd116101ce57806318160ddd1461028a5780632079fb9a146102a157806321725178146102cc57806323b872dd146102df57600080fd5b806306fdde031461020057806307a4145b1461023f578063095ea7b3146102545780630f2c0f5d14610277575b600080fd5b6102296040518060400160405280600a8152602001692bb930b8102a37b5b2b760b11b81525081565b60405161023691906115a1565b60405180910390f35b61025261024d366004611605565b610531565b005b61026761026236600461163c565b610713565b6040519015158152602001610236565b610252610285366004611668565b61072a565b61029360015481565b604051908152602001610236565b6102b46102af366004611694565b6107b6565b6040516001600160a01b039091168152602001610236565b6102526102da366004611668565b6107e0565b6102676102ed3660046116ad565b61086f565b6102676103003660046116ee565b600d6020526000908152604090205460ff1681565b61033c7f000000000000000000000000000000000000000000000000000000000000000081565b60405160ff9091168152602001610236565b6008546102b49061010090046001600160a01b031681565b600c5461033c9060ff1681565b6102526103813660046116ee565b6108e9565b600a5461033c9060ff1681565b600c5461033c90610100900460ff1681565b610252610935565b6102676103bb36600461170b565b600b60209081526000928352604080842090915290825290205460ff1681565b600a5461033c90610100900460ff1681565b6102936103fb3660046116ee565b60026020526000908152604090205481565b60085461033c9060ff1681565b6004546102b4906001600160a01b031681565b610229610986565b61043e6103e881565b60405162ffffff9091168152602001610236565b610252610460366004611605565b610a14565b61043e620186a081565b60085461033c90600160a81b900460ff1681565b61026761049136600461163c565b610d29565b610293600e5481565b6102936104ad366004611740565b600360209081526000928352604080842090915290825290205481565b6102526104d8366004611779565b610d36565b6102526104eb3660046116ee565b6110a0565b6102676104fe366004611740565b600960209081526000928352604080842090915290825290205460ff1681565b61025261052c36600461163c565b611349565b3360009081526007602052604090205460ff166105695760405162461bcd60e51b8152600401610560906117b2565b60405180910390fd5b600c5460ff166000036105f85760065460ff821611156105b95760405162461bcd60e51b815260206004820152600b60248201526a1ddc9bdb99c818dbdd5b9d60aa1b6044820152606401610560565b60005b60065460ff821610156105f257336000908152600d60205260409020805460ff19169055806105ea816117ec565b9150506105bc565b50610642565b600c5460ff8281169116146106425760405162461bcd60e51b815260206004820152601060248201526f1b5a5cdb585d18da19590818dbdd5b9d60821b6044820152606401610560565b336000908152600d602052604090205460ff166106a657336000908152600d60205260409020805460ff19166001908117909155600c8054610100900460ff169161068c836117ec565b91906101000a81548160ff021916908360ff160217905550505b600854600c5460ff91821661010090910490911610610710576008805460ff191660ff8316908117909155600c805461ffff191690556040519081527f971ed33ab126ac4c0a07a18b84ed2990cde2ae87b25cd5009c84e7e5c9c8cffd9060200160405180910390a15b50565b6000610720338484611399565b5060015b92915050565b61073433826113f2565b6000620186a06107466103e88461180b565b6107509190611822565b905080600e60008282546107649190611844565b90915550849050337f87a89f1cee7e883b59eca58c135072a63ce587ee1e3f72279d6fd24f2bce25f8856107988587611857565b6040805192835260208301919091520160405180910390a350505050565b600681815481106107c657600080fd5b6000918252602090912001546001600160a01b0316905081565b6004546001600160a01b0316331461080a5760405162461bcd60e51b81526004016105609061186a565b80600e600082825461081c9190611857565b9091555050600454604080518481526020810184905285926001600160a01b0316917f87a89f1cee7e883b59eca58c135072a63ce587ee1e3f72279d6fd24f2bce25f891015b60405180910390a3505050565b6001600160a01b0383166000908152600360209081526040808320338452909152812054600019146108d4576001600160a01b0384166000908152600360209081526040808320338452909152812080548492906108ce908490611857565b90915550505b6108df84848461147e565b5060019392505050565b6004546001600160a01b031633146109135760405162461bcd60e51b81526004016105609061186a565b600580546001600160a01b0319166001600160a01b0392909216919091179055565b6005546001600160a01b0316331461095f5760405162461bcd60e51b81526004016105609061186a565b60058054600480546001600160a01b03199081166001600160a01b03841617909155169055565b600080546109939061188d565b80601f01602080910402602001604051908101604052809291908181526020018280546109bf9061188d565b8015610a0c5780601f106109e157610100808354040283529160200191610a0c565b820191906000526020600020905b8154815290600101906020018083116109ef57829003601f168201915b505050505081565b3360009081526007602052604090205460ff16610a435760405162461bcd60e51b8152600401610560906117b2565b600a5460ff16600003610adf5760065460ff821610610a925760405162461bcd60e51b815260206004820152600b60248201526a0eee4dedcce40d2dcc8caf60ab1b6044820152606401610560565b60005b60065460ff82161015610ad957336000908152600b6020908152604080832060ff851684529091529020805460ff1916905580610ad1816117ec565b915050610a95565b50610b29565b600a5460ff828116911614610b295760405162461bcd60e51b815260206004820152601060248201526f0dad2e6dac2e8c6d0cac840d2dcc8caf60831b6044820152606401610560565b336000908152600b6020908152604080832060ff808616855292529091205416610baa57336000908152600b6020908152604080832060ff80861685529252909120805460ff19166001908117909155600a805461010090049092169190610b90836117ec565b91906101000a81548160ff021916908360ff160217905550505b600854600a5460ff9182166101009091049091161061071057600060068260ff1681548110610bdb57610bdb6118c7565b6000918252602082200154600680546001600160a01b03909216935090610c0490600190611857565b81548110610c1457610c146118c7565b600091825260209091200154600680546001600160a01b039092169250829160ff8616908110610c4657610c466118c7565b600091825260209091200180546001600160a01b0319166001600160a01b0392909216919091179055610c7a8360016118dd565b6001600160a01b03808316600090815260076020526040808220805460ff9590951660ff19958616179055918516815220805490911690556006805480610cc357610cc36118f6565b600082815260208120820160001990810180546001600160a01b0319169055909101909155600a805461ffff191690556040516001600160a01b038416917fa2a6e2b8f0cf0f627456034557b0149227a355af53f5bc8ce7e496bfbe73c0a991a2505050565b600061072033848461147e565b3360009081526007602052604090205460ff16610d655760405162461bcd60e51b8152600401610560906117b2565b6000838152600f6020526040902060010154600160a81b900460ff1615610dc15760405162461bcd60e51b815260206004820152601060248201526f1ddc985c1c195908199a5b9a5cda195960821b6044820152606401610560565b33600090815260106020908152604080832086845290915290205460ff1615610e1d5760405162461bcd60e51b815260206004820152600e60248201526d1cd95b99195c881ddc985c1c195960921b6044820152606401610560565b6000838152600f60205260409020600101546001600160a01b0316610ec757604080516080810182528381526001600160a01b0383811660208084019182526000848601818152606086018281528a8352600f90935295902093518455905160019093018054945191511515600160a81b0260ff60a81b1960ff909316600160a01b026001600160a81b031990961694909316939093179390931792909216919091179055610f3b565b6000838152600f602052604090205482148015610f0057506000838152600f60205260409020600101546001600160a01b038281169116145b610f3b5760405162461bcd60e51b815260206004820152600c60248201526b0696e76616c696420777261760a41b6044820152606401610560565b33600090815260106020908152604080832086845290915290205460ff16610fc0573360009081526010602090815260408083208684528252808320805460ff19166001908117909155600f909252909120018054600160a01b900460ff16906014610fa6836117ec565b91906101000a81548160ff021916908360ff160217905550505b6008546000848152600f602052604090206001015460ff918216600160a01b9091049091161061109b576000838152600f60205260408120600101805460ff60a81b1916600160a81b179055620186a061101c6103e88561180b565b6110269190611822565b905080600e600082825461103a9190611844565b9091555061104a90508184611857565b9250611056828461151f565b816001600160a01b03167fb61d00fdfee32467c7d81db64c811ae60c104c346debf36a14afe84b8fce59e58460405161109191815260200190565b60405180910390a2505b505050565b3360009081526007602052604090205460ff166110cf5760405162461bcd60e51b8152600401610560906117b2565b60085461010090046001600160a01b03166111b0576001600160a01b03811660009081526007602052604090205460ff161561113d5760405162461bcd60e51b815260206004820152600d60248201526c185b1c9958591e48195e1a5cdd609a1b6044820152606401610560565b60088054610100600160a81b0319166101006001600160a01b0384160217905560005b60065460ff821610156111aa573360009081526009602090815260408083206001600160a01b03861684529091529020805460ff19169055806111a2816117ec565b915050611160565b50611201565b6008546001600160a01b0382811661010090920416146112015760405162461bcd60e51b815260206004820152600c60248201526b3bb937b7339039b4b3b732b960a11b6044820152606401610560565b3360009081526009602090815260408083206001600160a01b038516845290915290205460ff1661128e573360009081526009602090815260408083206001600160a01b03851684529091529020805460ff1916600117905560088054600160a81b900460ff16906015611274836117ec565b91906101000a81548160ff021916908360ff160217905550505b60085460ff808216600160a81b909204161061071057600680546001810182557ff652222313e28459528d920b65115c16c04f3efc82aaedc97be59f3f377c0d3f0180546001600160a01b0319166001600160a01b0384169081179091559054600082815260076020526040808220805460ff191660ff9094169390931790925560088054610100600160b01b031916905590517f8191ca9d665b824fc53160f3727e7ec3a5330e4a67e1db6c4a86678956dfef199190a250565b6004546001600160a01b031633146113735760405162461bcd60e51b81526004016105609061186a565b80600e60008282546113859190611857565b909155506113959050828261151f565b5050565b6001600160a01b0383811660008181526003602090815260408083209487168084529482529182902085905590518481527f8c5be1e5ebec7d5bd14f71427d1e84f3dd0314c0f7b2291e5b200ac8c7c3b9259101610862565b6001600160a01b0382166000908152600260205260408120805483929061141a908490611857565b9250508190555080600160008282546114339190611857565b90915550506040518181526000906001600160a01b038416907fddf252ad1be2c89b69c2b068fc378daa952ba7f163c4a11628f55a4df523b3ef906020015b60405180910390a35050565b6001600160a01b038316600090815260026020526040812080548392906114a6908490611857565b90915550506001600160a01b038216600090815260026020526040812080548392906114d3908490611844565b92505081905550816001600160a01b0316836001600160a01b03167fddf252ad1be2c89b69c2b068fc378daa952ba7f163c4a11628f55a4df523b3ef8360405161086291815260200190565b80600160008282546115319190611844565b90915550506001600160a01b0382166000908152600260205260408120805483929061155e908490611844565b90915550506040518181526001600160a01b038316906000907fddf252ad1be2c89b69c2b068fc378daa952ba7f163c4a11628f55a4df523b3ef90602001611472565b600060208083528351808285015260005b818110156115ce578581018301518582016040015282016115b2565b506000604082860101526040601f19601f8301168501019250505092915050565b803560ff8116811461160057600080fd5b919050565b60006020828403121561161757600080fd5b611620826115ef565b9392505050565b6001600160a01b038116811461071057600080fd5b6000806040838503121561164f57600080fd5b823561165a81611627565b946020939093013593505050565b60008060006060848603121561167d57600080fd5b505081359360208301359350604090920135919050565b6000602082840312156116a657600080fd5b5035919050565b6000806000606084860312156116c257600080fd5b83356116cd81611627565b925060208401356116dd81611627565b929592945050506040919091013590565b60006020828403121561170057600080fd5b813561162081611627565b6000806040838503121561171e57600080fd5b823561172981611627565b9150611737602084016115ef565b90509250929050565b6000806040838503121561175357600080fd5b823561175e81611627565b9150602083013561176e81611627565b809150509250929050565b60008060006060848603121561178e57600080fd5b833592506020840135915060408401356117a781611627565b809150509250925092565b6020808252600a90820152693737ba1039b4b3b732b960b11b604082015260600190565b634e487b7160e01b600052601160045260246000fd5b600060ff821660ff8103611802576118026117d6565b60010192915050565b8082028115828204841417610724576107246117d6565b60008261183f57634e487b7160e01b600052601260045260246000fd5b500490565b80820180821115610724576107246117d6565b81810381811115610724576107246117d6565b6020808252600990820152683337b93134b23232b760b91b604082015260600190565b600181811c908216806118a157607f821691505b6020821081036118c157634e487b7160e01b600052602260045260246000fd5b50919050565b634e487b7160e01b600052603260045260246000fd5b60ff8181168382160190811115610724576107246117d6565b634e487b7160e01b600052603160045260246000fdfea26469706673582212201504e9a953f067bc68889a85dd6077d3af46bd39ccaad12edd5b47831033ee9c64736f6c63430008110033",
    "sourcePath": "/home/wy/gowork/bridge/wrap.sol",
    "compiler": {
        "name": "solc",
        "version": "0.8.17+commit.8df45f5f"
    },
    "functionHashes": {
        "FEE_DIV_CONST()": "9ca6ce12",
        "acceptSetter()": "5f8e422f",
        "addSigner(address)": "eb12d61e",
        "addingCount()": "a1ed637a",
        "addingSigner()": "3d5655f8",
        "allowance(address,address)": "dd62ed3e",
        "approve(address,uint256)": "095ea7b3",
        "balanceOf(address)": "70a08231",
        "changeRequireCount(uint8)": "07a4145b",
        "changingCount()": "54ca4416",
        "decimals()": "313ce567",
        "feeRate()": "978bbdb9",
        "feeSum()": "b44d4e5f",
        "isAdded(address,address)": "f770a5db",
        "isChangeCount(address)": "26fbcf93",
        "isRemoved(address,uint8)": "6561d53c",
        "name()": "06fdde03",
        "newRequireCount()": "458a3add",
        "owner()": "8da5cb5b",
        "removeSigner(uint8)": "9bc5362e",
        "removingCount()": "68d02417",
        "removingIndex()": "5003b333",
        "requireCount()": "83051fde",
        "signers(uint256)": "2079fb9a",
        "symbol()": "95d89b41",
        "totalSupply()": "18160ddd",
        "transfer(address,uint256)": "a9059cbb",
        "transferFrom(address,address,uint256)": "23b872dd",
        "transferOwner(address)": "4fb2e45d",
        "unWrap(bytes32,bytes32,uint256)": "0f2c0f5d",
        "unWrapFee(bytes32,bytes32,uint256)": "21725178",
        "withdrawFee(address,uint256)": "fd9be522",
        "wrap(bytes32,uint256,address)": "ea047fee"
    },
    "gasEstimates": {
        "creation": {
            "codeDepositCost": "1293200",
            "executionCost": "infinite",
            "totalCost": "infinite"
        },
        "external": {
            "FEE_DIV_CONST()": "249",
            "acceptSetter()": "50870",
            "addSigner(address)": "infinite",
            "addingCount()": "2397",
            "addingSigner()": "2438",
            "allowance(address,address)": "infinite",
            "approve(address,uint256)": "24624",
            "balanceOf(address)": "2603",
            "changeRequireCount(uint8)": "115746",
            "changingCount()": "2413",
            "decimals()": "infinite",
            "feeRate()": "293",
            "feeSum()": "2406",
            "isAdded(address,address)": "infinite",
            "isChangeCount(address)": "2571",
            "isRemoved(address,uint8)": "2733",
            "name()": "infinite",
            "newRequireCount()": "2425",
            "owner()": "2382",
            "removeSigner(uint8)": "infinite",
            "removingCount()": "2392",
            "removingIndex()": "2380",
            "requireCount()": "2425",
            "signers(uint256)": "4682",
            "symbol()": "infinite",
            "totalSupply()": "2341",
            "transfer(address,uint256)": "infinite",
            "transferFrom(address,address,uint256)": "infinite",
            "transferOwner(address)": "26750",
            "unWrap(bytes32,bytes32,uint256)": "infinite",
            "unWrapFee(bytes32,bytes32,uint256)": "31018",
            "withdrawFee(address,uint256)": "infinite",
            "wrap(bytes32,uint256,address)": "infinite"
        }
    }
}