{
    "contractName": "LockLp",
    "abi": [
        {
            "inputs": [
                {
                    "internalType": "address",
                    "name": "_wrapper",
                    "type": "address"
                }
            ],
            "stateMutability": "nonpayable",
            "type": "constructor"
        },
        {
            "anonymous": false,
            "inputs": [
                {
                    "indexed": true,
                    "internalType": "address",
                    "name": "from",
                    "type": "address"
                },
                {
                    "indexed": true,
                    "internalType": "bytes32",
                    "name": "to",
                    "type": "bytes32"
                },
                {
                    "indexed": false,
                    "internalType": "uint64",
                    "name": "amount",
                    "type": "uint64"
                }
            ],
            "name": "UnWrap",
            "type": "event"
        },
        {
            "anonymous": false,
            "inputs": [
                {
                    "indexed": true,
                    "internalType": "address",
                    "name": "to",
                    "type": "address"
                },
                {
                    "indexed": false,
                    "internalType": "uint64",
                    "name": "amount",
                    "type": "uint64"
                }
            ],
            "name": "Wrap",
            "type": "event"
        },
        {
            "inputs": [],
            "name": "FEE_DIV_CONST",
            "outputs": [
                {
                    "internalType": "uint24",
                    "name": "",
                    "type": "uint24"
                }
            ],
            "stateMutability": "view",
            "type": "function"
        },
        {
            "inputs": [],
            "name": "acceptFeeToSetter",
            "outputs": [],
            "stateMutability": "nonpayable",
            "type": "function"
        },
        {
            "inputs": [],
            "name": "acceptWrapper",
            "outputs": [],
            "stateMutability": "nonpayable",
            "type": "function"
        },
        {
            "inputs": [
                {
                    "internalType": "address",
                    "name": "",
                    "type": "address"
                },
                {
                    "internalType": "address",
                    "name": "",
                    "type": "address"
                }
            ],
            "name": "allowance",
            "outputs": [
                {
                    "internalType": "uint256",
                    "name": "",
                    "type": "uint256"
                }
            ],
            "stateMutability": "view",
            "type": "function"
        },
        {
            "inputs": [],
            "name": "decimals",
            "outputs": [
                {
                    "internalType": "uint8",
                    "name": "",
                    "type": "uint8"
                }
            ],
            "stateMutability": "view",
            "type": "function"
        },
        {
            "inputs": [],
            "name": "feeRate",
            "outputs": [
                {
                    "internalType": "uint24",
                    "name": "",
                    "type": "uint24"
                }
            ],
            "stateMutability": "view",
            "type": "function"
        },
        {
            "inputs": [],
            "name": "feeSum",
            "outputs": [
                {
                    "internalType": "uint64",
                    "name": "",
                    "type": "uint64"
                }
            ],
            "stateMutability": "view",
            "type": "function"
        },
        {
            "inputs": [],
            "name": "name",
            "outputs": [
                {
                    "internalType": "string",
                    "name": "",
                    "type": "string"
                }
            ],
            "stateMutability": "view",
            "type": "function"
        },
        {
            "inputs": [],
            "name": "owner",
            "outputs": [
                {
                    "internalType": "address",
                    "name": "",
                    "type": "address"
                }
            ],
            "stateMutability": "view",
            "type": "function"
        },
        {
            "inputs": [
                {
                    "internalType": "address",
                    "name": "_owner",
                    "type": "address"
                }
            ],
            "name": "setOwner",
            "outputs": [],
            "stateMutability": "nonpayable",
            "type": "function"
        },
        {
            "inputs": [
                {
                    "internalType": "address",
                    "name": "_wrapper",
                    "type": "address"
                }
            ],
            "name": "setWrapper",
            "outputs": [],
            "stateMutability": "nonpayable",
            "type": "function"
        },
        {
            "inputs": [],
            "name": "symbol",
            "outputs": [
                {
                    "internalType": "string",
                    "name": "",
                    "type": "string"
                }
            ],
            "stateMutability": "view",
            "type": "function"
        },
        {
            "inputs": [],
            "name": "totalSupply",
            "outputs": [
                {
                    "internalType": "uint256",
                    "name": "",
                    "type": "uint256"
                }
            ],
            "stateMutability": "view",
            "type": "function"
        },
        {
            "inputs": [],
            "name": "wrapper",
            "outputs": [
                {
                    "internalType": "address",
                    "name": "",
                    "type": "address"
                }
            ],
            "stateMutability": "view",
            "type": "function"
        }
    ],
    "bytecode": "60c060405260096080908152685772617020496f746160b81b60a0526000906100289082610171565b50604080518082019091526006815265736d494f544160d01b60208201526001906100539082610171565b506002805460ff1916600617905534801561006d57600080fd5b5060405161082138038061082183398101604081905261008c91610230565b600480546001600160a01b039092166801000000000000000002600160401b600160e01b0319909216919091179055600680546001600160a01b03191633179055610260565b634e487b7160e01b600052604160045260246000fd5b600181811c908216806100fc57607f821691505b60208210810361011c57634e487b7160e01b600052602260045260246000fd5b50919050565b601f82111561016c57600081815260208120601f850160051c810160208610156101495750805b601f850160051c820191505b8181101561016857828155600101610155565b5050505b505050565b81516001600160401b0381111561018a5761018a6100d2565b61019e8161019884546100e8565b84610122565b602080601f8311600181146101d357600084156101bb5750858301515b600019600386901b1c1916600185901b178555610168565b600085815260208120601f198616915b82811015610202578886015182559484019460019091019084016101e3565b50858210156102205787850151600019600388901b60f8161c191681555b5050505050600190811b01905550565b60006020828403121561024257600080fd5b81516001600160a01b038116811461025957600080fd5b9392505050565b6105b28061026f6000396000f3fe608060405234801561001057600080fd5b50600436106100ea5760003560e01c8063978bbdb91161008c578063b44d4e5f11610066578063b44d4e5f146101d4578063b88f136314610201578063c2167d9314610209578063dd62ed3e1461021c57600080fd5b8063978bbdb9146101935780639ca6ce12146101b0578063ac210cc7146101ba57600080fd5b80632dd072a0116100c85780632dd072a014610139578063313ce567146101415780638da5cb5b1461016057806395d89b411461018b57600080fd5b806306fdde03146100ef57806313af40351461010d57806318160ddd14610122575b600080fd5b6100f7610247565b6040516101049190610457565b60405180910390f35b61012061011b3660046104c1565b6102d5565b005b61012b60035481565b604051908152602001610104565b61012061034a565b60025461014e9060ff1681565b60405160ff9091168152602001610104565b600654610173906001600160a01b031681565b6040516001600160a01b039091168152602001610104565b6100f761039b565b61019c6103e881565b60405162ffffff9091168152602001610104565b61019c620186a081565b60045461017390600160401b90046001600160a01b031681565b6004546101e89067ffffffffffffffff1681565b60405167ffffffffffffffff9091168152602001610104565b6101206103a8565b6101206102173660046104c1565b61040d565b61012b61022a3660046104e3565b600b60209081526000928352604080842090915290825290205481565b6000805461025490610516565b80601f016020809104026020016040519081016040528092919081815260200182805461028090610516565b80156102cd5780601f106102a2576101008083540402835291602001916102cd565b820191906000526020600020905b8154815290600101906020018083116102b057829003601f168201915b505050505081565b6006546001600160a01b031633146103285760405162461bcd60e51b8152602060048201526011602482015270313934b233b29d102327a92124a22222a760791b60448201526064015b60405180910390fd5b600780546001600160a01b0319166001600160a01b0392909216919091179055565b6007546001600160a01b031633146103745760405162461bcd60e51b815260040161031f90610550565b60078054600680546001600160a01b03199081166001600160a01b03841617909155169055565b6001805461025490610516565b6005546001600160a01b031633146103d25760405162461bcd60e51b815260040161031f90610550565b600580546004805468010000000000000000600160e01b0319166001600160a01b038316600160401b021790556001600160a01b0319169055565b336001600160a01b038216146104355760405162461bcd60e51b815260040161031f90610550565b600580546001600160a01b0319166001600160a01b0392909216919091179055565b600060208083528351808285015260005b8181101561048457858101830151858201604001528201610468565b506000604082860101526040601f19601f8301168501019250505092915050565b80356001600160a01b03811681146104bc57600080fd5b919050565b6000602082840312156104d357600080fd5b6104dc826104a5565b9392505050565b600080604083850312156104f657600080fd5b6104ff836104a5565b915061050d602084016104a5565b90509250929050565b600181811c9082168061052a57607f821691505b60208210810361054a57634e487b7160e01b600052602260045260246000fd5b50919050565b602080825260129082015271313934b233b2901d102327a92124a22222a760711b60408201526060019056fea26469706673582212202d65c0b9bc5e25cf5bc10f2d948bf71a5665f3283138cd2d5d20252b4ee70b7664736f6c63430008110033",
    "sourcePath": "d:/contract/bridge/lockLp.sol",
    "compiler": {
        "name": "solc",
        "version": "0.8.17+commit.8df45f5f"
    },
    "functionHashes": {
        "FEE_DIV_CONST()": "9ca6ce12",
        "acceptFeeToSetter()": "2dd072a0",
        "acceptWrapper()": "b88f1363",
        "allowance(address,address)": "dd62ed3e",
        "decimals()": "313ce567",
        "feeRate()": "978bbdb9",
        "feeSum()": "b44d4e5f",
        "name()": "06fdde03",
        "owner()": "8da5cb5b",
        "setOwner(address)": "13af4035",
        "setWrapper(address)": "c2167d93",
        "symbol()": "95d89b41",
        "totalSupply()": "18160ddd",
        "wrapper()": "ac210cc7"
    },
    "gasEstimates": {
        "creation": {
            "codeDepositCost": "291600",
            "executionCost": "infinite",
            "totalCost": "infinite"
        },
        "external": {
            "FEE_DIV_CONST()": "249",
            "acceptFeeToSetter()": "50782",
            "acceptWrapper()": "50826",
            "allowance(address,address)": "infinite",
            "decimals()": "2358",
            "feeRate()": "227",
            "feeSum()": "2335",
            "name()": "infinite",
            "owner()": "2404",
            "setOwner(address)": "26757",
            "setWrapper(address)": "24677",
            "symbol()": "infinite",
            "totalSupply()": "2363",
            "wrapper()": "2421"
        }
    }
}