{
    "contractName": "MultiSignERC20Wallet",
    "abi": [
        {
            "inputs": [
                {
                    "internalType": "address[]",
                    "name": "_signers",
                    "type": "address[]"
                },
                {
                    "internalType": "uint8",
                    "name": "_requireCount",
                    "type": "uint8"
                },
                {
                    "internalType": "address",
                    "name": "_token",
                    "type": "address"
                }
            ],
            "stateMutability": "nonpayable",
            "type": "constructor"
        },
        {
            "anonymous": false,
            "inputs": [
                {
                    "indexed": false,
                    "internalType": "uint8",
                    "name": "changeRequireCount",
                    "type": "uint8"
                }
            ],
            "name": "ChangeRequireCount",
            "type": "event"
        },
        {
            "anonymous": false,
            "inputs": [
                {
                    "indexed": true,
                    "internalType": "address",
                    "name": "signer",
                    "type": "address"
                }
            ],
            "name": "SignerAddition",
            "type": "event"
        },
        {
            "anonymous": false,
            "inputs": [
                {
                    "indexed": true,
                    "internalType": "address",
                    "name": "signer",
                    "type": "address"
                }
            ],
            "name": "SignerRemoval",
            "type": "event"
        },
        {
            "anonymous": false,
            "inputs": [
                {
                    "indexed": true,
                    "internalType": "address",
                    "name": "sender",
                    "type": "address"
                },
                {
                    "indexed": true,
                    "internalType": "address",
                    "name": "to",
                    "type": "address"
                },
                {
                    "indexed": false,
                    "internalType": "bytes32",
                    "name": "symbol",
                    "type": "bytes32"
                },
                {
                    "indexed": false,
                    "internalType": "uint256",
                    "name": "amount",
                    "type": "uint256"
                }
            ],
            "name": "Wrap",
            "type": "event"
        },
        {
            "inputs": [
                {
                    "internalType": "address",
                    "name": "signer",
                    "type": "address"
                }
            ],
            "name": "addSigner",
            "outputs": [],
            "stateMutability": "nonpayable",
            "type": "function"
        },
        {
            "inputs": [],
            "name": "addingCount",
            "outputs": [
                {
                    "internalType": "uint8",
                    "name": "",
                    "type": "uint8"
                }
            ],
            "stateMutability": "view",
            "type": "function"
        },
        {
            "inputs": [],
            "name": "addingSigner",
            "outputs": [
                {
                    "internalType": "address",
                    "name": "",
                    "type": "address"
                }
            ],
            "stateMutability": "view",
            "type": "function"
        },
        {
            "inputs": [
                {
                    "internalType": "uint8",
                    "name": "newCount",
                    "type": "uint8"
                }
            ],
            "name": "changeRequireCount",
            "outputs": [],
            "stateMutability": "nonpayable",
            "type": "function"
        },
        {
            "inputs": [],
            "name": "changingCount",
            "outputs": [
                {
                    "internalType": "uint8",
                    "name": "",
                    "type": "uint8"
                }
            ],
            "stateMutability": "view",
            "type": "function"
        },
        {
            "inputs": [
                {
                    "internalType": "address",
                    "name": "",
                    "type": "address"
                },
                {
                    "internalType": "address",
                    "name": "",
                    "type": "address"
                }
            ],
            "name": "isAdded",
            "outputs": [
                {
                    "internalType": "bool",
                    "name": "",
                    "type": "bool"
                }
            ],
            "stateMutability": "view",
            "type": "function"
        },
        {
            "inputs": [
                {
                    "internalType": "address",
                    "name": "",
                    "type": "address"
                }
            ],
            "name": "isChangeCount",
            "outputs": [
                {
                    "internalType": "bool",
                    "name": "",
                    "type": "bool"
                }
            ],
            "stateMutability": "view",
            "type": "function"
        },
        {
            "inputs": [
                {
                    "internalType": "address",
                    "name": "",
                    "type": "address"
                },
                {
                    "internalType": "uint8",
                    "name": "",
                    "type": "uint8"
                }
            ],
            "name": "isRemoved",
            "outputs": [
                {
                    "internalType": "bool",
                    "name": "",
                    "type": "bool"
                }
            ],
            "stateMutability": "view",
            "type": "function"
        },
        {
            "inputs": [],
            "name": "newRequireCount",
            "outputs": [
                {
                    "internalType": "uint8",
                    "name": "",
                    "type": "uint8"
                }
            ],
            "stateMutability": "view",
            "type": "function"
        },
        {
            "inputs": [
                {
                    "internalType": "uint8",
                    "name": "index",
                    "type": "uint8"
                }
            ],
            "name": "removeSigner",
            "outputs": [],
            "stateMutability": "nonpayable",
            "type": "function"
        },
        {
            "inputs": [],
            "name": "removingCount",
            "outputs": [
                {
                    "internalType": "uint8",
                    "name": "",
                    "type": "uint8"
                }
            ],
            "stateMutability": "view",
            "type": "function"
        },
        {
            "inputs": [],
            "name": "removingIndex",
            "outputs": [
                {
                    "internalType": "uint8",
                    "name": "",
                    "type": "uint8"
                }
            ],
            "stateMutability": "view",
            "type": "function"
        },
        {
            "inputs": [],
            "name": "requireCount",
            "outputs": [
                {
                    "internalType": "uint8",
                    "name": "",
                    "type": "uint8"
                }
            ],
            "stateMutability": "view",
            "type": "function"
        },
        {
            "inputs": [
                {
                    "internalType": "bytes32",
                    "name": "txid",
                    "type": "bytes32"
                },
                {
                    "internalType": "uint256",
                    "name": "amount",
                    "type": "uint256"
                },
                {
                    "internalType": "address payable",
                    "name": "to",
                    "type": "address"
                }
            ],
            "name": "send",
            "outputs": [],
            "stateMutability": "nonpayable",
            "type": "function"
        },
        {
            "inputs": [
                {
                    "internalType": "uint256",
                    "name": "",
                    "type": "uint256"
                }
            ],
            "name": "signers",
            "outputs": [
                {
                    "internalType": "address",
                    "name": "",
                    "type": "address"
                }
            ],
            "stateMutability": "view",
            "type": "function"
        },
        {
            "inputs": [],
            "name": "token",
            "outputs": [
                {
                    "internalType": "contract IERC20",
                    "name": "",
                    "type": "address"
                }
            ],
            "stateMutability": "view",
            "type": "function"
        },
        {
            "inputs": [
                {
                    "internalType": "address",
                    "name": "to",
                    "type": "address"
                },
                {
                    "internalType": "bytes32",
                    "name": "symbol",
                    "type": "bytes32"
                },
                {
                    "internalType": "uint256",
                    "name": "amount",
                    "type": "uint256"
                }
            ],
            "name": "wrap",
            "outputs": [],
            "stateMutability": "nonpayable",
            "type": "function"
        }
    ],
    "bytecode": "60a06040523480156200001157600080fd5b506040516200150d3803806200150d8339810160408190526200003491620002a0565b828260005b82518160ff161015620001995760016000848360ff168151811062000062576200006262000398565b6020908102919091018101516001600160a01b031682528101919091526040016000205460ff16158015620000c9575060006001600160a01b0316838260ff1681518110620000b557620000b562000398565b60200260200101516001600160a01b031614155b6200011a5760405162461bcd60e51b815260206004820152601c60248201527f696e76616c6964206f72206475706c696361746564207369676e657200000000604482015260640160405180910390fd5b62000127816001620003c4565b60016000858460ff168151811062000143576200014362000398565b60200260200101516001600160a01b03166001600160a01b0316815260200190815260200160002060006101000a81548160ff021916908360ff16021790555080806200019090620003e6565b91505062000039565b508151620001af906000906020850190620001da565b506002805460ff191660ff92909216919091179055506001600160a01b031660805250620004089050565b82805482825590600052602060002090810192821562000232579160200282015b828111156200023257825182546001600160a01b0319166001600160a01b03909116178255602090920191600190910190620001fb565b506200024092915062000244565b5090565b5b8082111562000240576000815560010162000245565b634e487b7160e01b600052604160045260246000fd5b80516001600160a01b03811681146200028957600080fd5b919050565b805160ff811681146200028957600080fd5b600080600060608486031215620002b657600080fd5b83516001600160401b0380821115620002ce57600080fd5b818601915086601f830112620002e357600080fd5b8151602082821115620002fa57620002fa6200025b565b8160051b604051601f19603f830116810181811086821117156200032257620003226200025b565b60405292835281830193508481018201928a8411156200034157600080fd5b948201945b838610156200036a576200035a8662000271565b8552948201949382019362000346565b97506200037b90508882016200028e565b9550505050506200038f6040850162000271565b90509250925092565b634e487b7160e01b600052603260045260246000fd5b634e487b7160e01b600052601160045260246000fd5b60ff8181168382160190811115620003e057620003e0620003ae565b92915050565b600060ff821660ff8103620003ff57620003ff620003ae565b60010192915050565b6080516110db62000432600039600081816102be0152818161071501526107ab01526110db6000f3fe608060405234801561001057600080fd5b506004361061010b5760003560e01c806354ca4416116100a25780639bc5362e116100715780639bc5362e14610251578063a1ed637a14610264578063eb12d61e14610278578063f770a5db1461028b578063fc0c546a146102b957600080fd5b806354ca4416146101f25780636561d53c1461020457806368d024171461023257806383051fde1461024457600080fd5b806326fbcf93116100de57806326fbcf931461017b5780633d5655f8146101ae578063458a3add146101c65780635003b333146101e557600080fd5b806307a4145b14610110578063092d1148146101255780631df7de0e146101385780632079fb9a1461014b575b600080fd5b61012361011e366004610e6a565b6102e0565b005b610123610133366004610ea1565b6104c2565b610123610146366004610eda565b610789565b61015e610159366004610f0f565b61086c565b6040516001600160a01b0390911681526020015b60405180910390f35b61019e610189366004610f28565b60076020526000908152604090205460ff1681565b6040519015158152602001610172565b60025461015e9061010090046001600160a01b031681565b6006546101d39060ff1681565b60405160ff9091168152602001610172565b6004546101d39060ff1681565b6006546101d390610100900460ff1681565b61019e610212366004610f45565b600560209081526000928352604080842090915290825290205460ff1681565b6004546101d390610100900460ff1681565b6002546101d39060ff1681565b61012361025f366004610e6a565b610896565b6002546101d390600160a81b900460ff1681565b610123610286366004610f28565b610ba8565b61019e610299366004610f7a565b600360209081526000928352604080842090915290825290205460ff1681565b61015e7f000000000000000000000000000000000000000000000000000000000000000081565b3360009081526001602052604090205460ff166103185760405162461bcd60e51b815260040161030f90610fb3565b60405180910390fd5b60065460ff166000036103a75760005460ff821611156103685760405162461bcd60e51b815260206004820152600b60248201526a1ddc9bdb99c818dbdd5b9d60aa1b604482015260640161030f565b60005b60005460ff821610156103a157336000908152600760205260409020805460ff191690558061039981610fed565b91505061036b565b506103f1565b60065460ff8281169116146103f15760405162461bcd60e51b815260206004820152601060248201526f1b5a5cdb585d18da19590818dbdd5b9d60821b604482015260640161030f565b3360009081526007602052604090205460ff1661045557336000908152600760205260409020805460ff1916600190811790915560068054610100900460ff169161043b83610fed565b91906101000a81548160ff021916908360ff160217905550505b60025460065460ff918216610100909104909116106104bf576002805460ff191660ff83169081179091556006805461ffff191690556040519081527f971ed33ab126ac4c0a07a18b84ed2990cde2ae87b25cd5009c84e7e5c9c8cffd9060200160405180910390a15b50565b3360009081526001602052604090205460ff166104f15760405162461bcd60e51b815260040161030f90610fb3565b60008381526008602052604090206003015460ff161561053f5760405162461bcd60e51b815260206004820152600960248201526839b2b73a1037bb32b960b91b604482015260640161030f565b6000838152600860205260409020600101546001600160a01b03166105d857604080516080810182528381526001600160a01b0383811660208084019182526000848601818152606086018281528a835260089093529590209351845590516001840180546001600160a01b03191691909316179091559151600282015590516003909101805460ff1916911515919091179055610650565b6000838152600860205260409020548214801561061157506000838152600860205260409020600101546001600160a01b038281169116145b6106505760405162461bcd60e51b815260206004820152601060248201526f34b73b30b634b2103a3930b739b332b960811b604482015260640161030f565b33600090815260096020908152604080832086845290915290205460ff166106b3573360009081526009602090815260408083208684528252808320805460ff19166001179055600890915281206002018054916106ad8361100c565b91905055505b6002805460008581526008602052604090209091015460ff909116116107845760008381526008602052604090819020600301805460ff191660011790555163a9059cbb60e01b81526001600160a01b038281166004830152602482018490527f0000000000000000000000000000000000000000000000000000000000000000169063a9059cbb906044016020604051808303816000875af115801561075e573d6000803e3d6000fd5b505050506040513d601f19601f820116820180604052508101906107829190611025565b505b505050565b6040516323b872dd60e01b8152336004820152306024820152604481018290527f00000000000000000000000000000000000000000000000000000000000000006001600160a01b0316906323b872dd906064016020604051808303816000875af11580156107fc573d6000803e3d6000fd5b505050506040513d601f19601f820116820180604052508101906108209190611025565b5060408051838152602081018390526001600160a01b0385169133917fc07a5330986048e0e2b01e559656897bc3dca20f6d8a2d10bae879bf626835f5910160405180910390a3505050565b6000818154811061087c57600080fd5b6000918252602090912001546001600160a01b0316905081565b3360009081526001602052604090205460ff166108c55760405162461bcd60e51b815260040161030f90610fb3565b60045460ff166000036109615760005460ff8216106109145760405162461bcd60e51b815260206004820152600b60248201526a0eee4dedcce40d2dcc8caf60ab1b604482015260640161030f565b60005b60005460ff8216101561095b5733600090815260056020908152604080832060ff851684529091529020805460ff191690558061095381610fed565b915050610917565b506109ab565b60045460ff8281169116146109ab5760405162461bcd60e51b815260206004820152601060248201526f0dad2e6dac2e8c6d0cac840d2dcc8caf60831b604482015260640161030f565b33600090815260056020908152604080832060ff808616855292529091205416610a2c5733600090815260056020908152604080832060ff80861685529252909120805460ff191660019081179091556004805461010090049092169190610a1283610fed565b91906101000a81548160ff021916908360ff160217905550505b60025460045460ff918216610100909104909116106104bf576000808260ff1681548110610a5c57610a5c611047565b600091825260208220015481546001600160a01b0390911692508190610a849060019061105d565b81548110610a9457610a94611047565b600091825260208220015481546001600160a01b03909116925082919060ff8616908110610ac457610ac4611047565b600091825260209091200180546001600160a01b0319166001600160a01b0392909216919091179055610af8836001611076565b6001600160a01b03808316600090815260016020526040808220805460ff9590951660ff1995861617905591851681529081208054909216909155805480610b4257610b4261108f565b600082815260208120820160001990810180546001600160a01b03191690559091019091556004805461ffff191690556040516001600160a01b038416917fa2a6e2b8f0cf0f627456034557b0149227a355af53f5bc8ce7e496bfbe73c0a991a2505050565b3360009081526001602052604090205460ff16610bd75760405162461bcd60e51b815260040161030f90610fb3565b60025461010090046001600160a01b0316610cb8576001600160a01b03811660009081526001602052604090205460ff1615610c455760405162461bcd60e51b815260206004820152600d60248201526c185b1c9958591e48195e1a5cdd609a1b604482015260640161030f565b60028054610100600160a81b0319166101006001600160a01b0384160217905560005b60005460ff82161015610cb2573360009081526003602090815260408083206001600160a01b03861684529091529020805460ff1916905580610caa81610fed565b915050610c68565b50610d09565b6002546001600160a01b038281166101009092041614610d095760405162461bcd60e51b815260206004820152600c60248201526b3bb937b7339039b4b3b732b960a11b604482015260640161030f565b3360009081526003602090815260408083206001600160a01b038516845290915290205460ff16610d96573360009081526003602090815260408083206001600160a01b03851684529091529020805460ff1916600117905560028054600160a81b900460ff16906015610d7c83610fed565b91906101000a81548160ff021916908360ff160217905550505b60025460ff808216600160a81b90920416106104bf5760008054600180820183557f290decd9548b62a8d60345a988386fc84ba6bc95484008f6362f93160ef3e56390910180546001600160a01b0319166001600160a01b03851690811790915582548184526020929092526040808420805460ff191660ff9094169390931790925560028054610100600160b01b0319169055905190917f8191ca9d665b824fc53160f3727e7ec3a5330e4a67e1db6c4a86678956dfef1991a250565b803560ff81168114610e6557600080fd5b919050565b600060208284031215610e7c57600080fd5b610e8582610e54565b9392505050565b6001600160a01b03811681146104bf57600080fd5b600080600060608486031215610eb657600080fd5b83359250602084013591506040840135610ecf81610e8c565b809150509250925092565b600080600060608486031215610eef57600080fd5b8335610efa81610e8c565b95602085013595506040909401359392505050565b600060208284031215610f2157600080fd5b5035919050565b600060208284031215610f3a57600080fd5b8135610e8581610e8c565b60008060408385031215610f5857600080fd5b8235610f6381610e8c565b9150610f7160208401610e54565b90509250929050565b60008060408385031215610f8d57600080fd5b8235610f9881610e8c565b91506020830135610fa881610e8c565b809150509250929050565b6020808252600a90820152693737ba1039b4b3b732b960b11b604082015260600190565b634e487b7160e01b600052601160045260246000fd5b600060ff821660ff810361100357611003610fd7565b60010192915050565b60006001820161101e5761101e610fd7565b5060010190565b60006020828403121561103757600080fd5b81518015158114610e8557600080fd5b634e487b7160e01b600052603260045260246000fd5b8181038181111561107057611070610fd7565b92915050565b60ff818116838216019081111561107057611070610fd7565b634e487b7160e01b600052603160045260246000fdfea2646970667358221220ea64e15f70409c5b744bc4db9641bf685f02fdab4cb7bac51019fa83e2043b6a64736f6c63430008110033",
    "sourcePath": "/home/wy/gowork/bridge/multiSignERC20Wallet.sol",
    "compiler": {
        "name": "solc",
        "version": "0.8.17+commit.8df45f5f"
    },
    "functionHashes": {
        "addSigner(address)": "eb12d61e",
        "addingCount()": "a1ed637a",
        "addingSigner()": "3d5655f8",
        "changeRequireCount(uint8)": "07a4145b",
        "changingCount()": "54ca4416",
        "isAdded(address,address)": "f770a5db",
        "isChangeCount(address)": "26fbcf93",
        "isRemoved(address,uint8)": "6561d53c",
        "newRequireCount()": "458a3add",
        "removeSigner(uint8)": "9bc5362e",
        "removingCount()": "68d02417",
        "removingIndex()": "5003b333",
        "requireCount()": "83051fde",
        "send(bytes32,uint256,address)": "092d1148",
        "signers(uint256)": "2079fb9a",
        "token()": "fc0c546a",
        "wrap(address,bytes32,uint256)": "1df7de0e"
    },
    "gasEstimates": {
        "creation": {
            "codeDepositCost": "863000",
            "executionCost": "infinite",
            "totalCost": "infinite"
        },
        "external": {
            "addSigner(address)": "infinite",
            "addingCount()": "2374",
            "addingSigner()": "2382",
            "changeRequireCount(uint8)": "115701",
            "changingCount()": "2347",
            "isAdded(address,address)": "infinite",
            "isChangeCount(address)": "2548",
            "isRemoved(address,uint8)": "2732",
            "newRequireCount()": "2380",
            "removeSigner(uint8)": "infinite",
            "removingCount()": "2391",
            "removingIndex()": "2402",
            "requireCount()": "2402",
            "send(bytes32,uint256,address)": "infinite",
            "signers(uint256)": "4693",
            "token()": "infinite",
            "wrap(address,bytes32,uint256)": "infinite"
        }
    }
}