{
    "contractName": "MultiSignWallet",
    "abi": [
        {
            "inputs": [
                {
                    "internalType": "address[]",
                    "name": "_signers",
                    "type": "address[]"
                },
                {
                    "internalType": "uint8",
                    "name": "_requireCount",
                    "type": "uint8"
                }
            ],
            "stateMutability": "nonpayable",
            "type": "constructor"
        },
        {
            "anonymous": false,
            "inputs": [
                {
                    "indexed": false,
                    "internalType": "uint8",
                    "name": "changeRequireCount",
                    "type": "uint8"
                }
            ],
            "name": "ChangeRequireCount",
            "type": "event"
        },
        {
            "anonymous": false,
            "inputs": [
                {
                    "indexed": true,
                    "internalType": "address",
                    "name": "signer",
                    "type": "address"
                }
            ],
            "name": "SignerAddition",
            "type": "event"
        },
        {
            "anonymous": false,
            "inputs": [
                {
                    "indexed": true,
                    "internalType": "address",
                    "name": "signer",
                    "type": "address"
                }
            ],
            "name": "SignerRemoval",
            "type": "event"
        },
        {
            "anonymous": false,
            "inputs": [
                {
                    "indexed": true,
                    "internalType": "address",
                    "name": "sender",
                    "type": "address"
                },
                {
                    "indexed": true,
                    "internalType": "address",
                    "name": "to",
                    "type": "address"
                },
                {
                    "indexed": false,
                    "internalType": "bytes32",
                    "name": "symbol",
                    "type": "bytes32"
                },
                {
                    "indexed": false,
                    "internalType": "uint256",
                    "name": "amount",
                    "type": "uint256"
                }
            ],
            "name": "Wrap",
            "type": "event"
        },
        {
            "inputs": [
                {
                    "internalType": "address",
                    "name": "signer",
                    "type": "address"
                }
            ],
            "name": "addSigner",
            "outputs": [],
            "stateMutability": "nonpayable",
            "type": "function"
        },
        {
            "inputs": [],
            "name": "addingCount",
            "outputs": [
                {
                    "internalType": "uint8",
                    "name": "",
                    "type": "uint8"
                }
            ],
            "stateMutability": "view",
            "type": "function"
        },
        {
            "inputs": [],
            "name": "addingSigner",
            "outputs": [
                {
                    "internalType": "address",
                    "name": "",
                    "type": "address"
                }
            ],
            "stateMutability": "view",
            "type": "function"
        },
        {
            "inputs": [
                {
                    "internalType": "uint8",
                    "name": "newCount",
                    "type": "uint8"
                }
            ],
            "name": "changeRequireCount",
            "outputs": [],
            "stateMutability": "nonpayable",
            "type": "function"
        },
        {
            "inputs": [],
            "name": "changingCount",
            "outputs": [
                {
                    "internalType": "uint8",
                    "name": "",
                    "type": "uint8"
                }
            ],
            "stateMutability": "view",
            "type": "function"
        },
        {
            "inputs": [
                {
                    "internalType": "address",
                    "name": "",
                    "type": "address"
                },
                {
                    "internalType": "address",
                    "name": "",
                    "type": "address"
                }
            ],
            "name": "isAdded",
            "outputs": [
                {
                    "internalType": "bool",
                    "name": "",
                    "type": "bool"
                }
            ],
            "stateMutability": "view",
            "type": "function"
        },
        {
            "inputs": [
                {
                    "internalType": "address",
                    "name": "",
                    "type": "address"
                }
            ],
            "name": "isChangeCount",
            "outputs": [
                {
                    "internalType": "bool",
                    "name": "",
                    "type": "bool"
                }
            ],
            "stateMutability": "view",
            "type": "function"
        },
        {
            "inputs": [
                {
                    "internalType": "address",
                    "name": "",
                    "type": "address"
                },
                {
                    "internalType": "uint8",
                    "name": "",
                    "type": "uint8"
                }
            ],
            "name": "isRemoved",
            "outputs": [
                {
                    "internalType": "bool",
                    "name": "",
                    "type": "bool"
                }
            ],
            "stateMutability": "view",
            "type": "function"
        },
        {
            "inputs": [],
            "name": "newRequireCount",
            "outputs": [
                {
                    "internalType": "uint8",
                    "name": "",
                    "type": "uint8"
                }
            ],
            "stateMutability": "view",
            "type": "function"
        },
        {
            "inputs": [
                {
                    "internalType": "uint8",
                    "name": "index",
                    "type": "uint8"
                }
            ],
            "name": "removeSigner",
            "outputs": [],
            "stateMutability": "nonpayable",
            "type": "function"
        },
        {
            "inputs": [],
            "name": "removingCount",
            "outputs": [
                {
                    "internalType": "uint8",
                    "name": "",
                    "type": "uint8"
                }
            ],
            "stateMutability": "view",
            "type": "function"
        },
        {
            "inputs": [],
            "name": "removingIndex",
            "outputs": [
                {
                    "internalType": "uint8",
                    "name": "",
                    "type": "uint8"
                }
            ],
            "stateMutability": "view",
            "type": "function"
        },
        {
            "inputs": [],
            "name": "requireCount",
            "outputs": [
                {
                    "internalType": "uint8",
                    "name": "",
                    "type": "uint8"
                }
            ],
            "stateMutability": "view",
            "type": "function"
        },
        {
            "inputs": [
                {
                    "internalType": "bytes32",
                    "name": "txid",
                    "type": "bytes32"
                },
                {
                    "internalType": "uint256",
                    "name": "amount",
                    "type": "uint256"
                },
                {
                    "internalType": "address payable",
                    "name": "to",
                    "type": "address"
                }
            ],
            "name": "send",
            "outputs": [],
            "stateMutability": "nonpayable",
            "type": "function"
        },
        {
            "inputs": [
                {
                    "internalType": "uint256",
                    "name": "",
                    "type": "uint256"
                }
            ],
            "name": "signers",
            "outputs": [
                {
                    "internalType": "address",
                    "name": "",
                    "type": "address"
                }
            ],
            "stateMutability": "view",
            "type": "function"
        },
        {
            "inputs": [
                {
                    "internalType": "address",
                    "name": "to",
                    "type": "address"
                },
                {
                    "internalType": "bytes32",
                    "name": "symbol",
                    "type": "bytes32"
                }
            ],
            "name": "wrap",
            "outputs": [],
            "stateMutability": "payable",
            "type": "function"
        }
    ],
    "bytecode": "60806040523480156200001157600080fd5b506040516200149038038062001490833981016040819052620000349162000294565b818160005b82518160ff161015620001995760016000848360ff16815181106200006257620000626200037a565b6020908102919091018101516001600160a01b031682528101919091526040016000205460ff16158015620000c9575060006001600160a01b0316838260ff1681518110620000b557620000b56200037a565b60200260200101516001600160a01b031614155b6200011a5760405162461bcd60e51b815260206004820152601c60248201527f696e76616c6964206f72206475706c696361746564207369676e657200000000604482015260640160405180910390fd5b62000127816001620003a6565b60016000858460ff16815181106200014357620001436200037a565b60200260200101516001600160a01b03166001600160a01b0316815260200190815260200160002060006101000a81548160ff021916908360ff16021790555080806200019090620003c8565b91505062000039565b508151620001af906000906020850190620001ce565b506002805460ff191660ff9290921691909117905550620003ea915050565b82805482825590600052602060002090810192821562000226579160200282015b828111156200022657825182546001600160a01b0319166001600160a01b03909116178255602090920191600190910190620001ef565b506200023492915062000238565b5090565b5b8082111562000234576000815560010162000239565b634e487b7160e01b600052604160045260246000fd5b80516001600160a01b03811681146200027d57600080fd5b919050565b805160ff811681146200027d57600080fd5b60008060408385031215620002a857600080fd5b82516001600160401b0380821115620002c057600080fd5b818501915085601f830112620002d557600080fd5b8151602082821115620002ec57620002ec6200024f565b8160051b604051601f19603f830116810181811086821117156200031457620003146200024f565b6040529283528183019350848101820192898411156200033357600080fd5b948201945b838610156200035c576200034c8662000265565b8552948201949382019362000338565b96506200036d905087820162000282565b9450505050509250929050565b634e487b7160e01b600052603260045260246000fd5b634e487b7160e01b600052601160045260246000fd5b60ff8181168382160190811115620003c257620003c262000390565b92915050565b600060ff821660ff8103620003e157620003e162000390565b60010192915050565b61109680620003fa6000396000f3fe6080604052600436106100f35760003560e01c80636561d53c1161008a578063a1ed637a11610059578063a1ed637a146102d5578063b04e670d146102f6578063eb12d61e14610309578063f770a5db1461032957600080fd5b80636561d53c1461024157806368d024171461027c57806383051fde1461029b5780639bc5362e146102b557600080fd5b80633d5655f8116100c65780633d5655f8146101b7578063458a3add146101dc5780635003b3331461020857806354ca44161461022257600080fd5b806307a4145b146100f8578063092d11481461011a5780632079fb9a1461013a57806326fbcf9314610177575b600080fd5b34801561010457600080fd5b50610118610113366004610e50565b610364565b005b34801561012657600080fd5b50610118610135366004610e87565b610546565b34801561014657600080fd5b5061015a610155366004610ec0565b610809565b6040516001600160a01b0390911681526020015b60405180910390f35b34801561018357600080fd5b506101a7610192366004610ed9565b60076020526000908152604090205460ff1681565b604051901515815260200161016e565b3480156101c357600080fd5b5060025461015a9061010090046001600160a01b031681565b3480156101e857600080fd5b506006546101f69060ff1681565b60405160ff909116815260200161016e565b34801561021457600080fd5b506004546101f69060ff1681565b34801561022e57600080fd5b506006546101f690610100900460ff1681565b34801561024d57600080fd5b506101a761025c366004610ef6565b600560209081526000928352604080842090915290825290205460ff1681565b34801561028857600080fd5b506004546101f690610100900460ff1681565b3480156102a757600080fd5b506002546101f69060ff1681565b3480156102c157600080fd5b506101186102d0366004610e50565b610833565b3480156102e157600080fd5b506002546101f690600160a81b900460ff1681565b610118610304366004610f2b565b610b45565b34801561031557600080fd5b50610118610324366004610ed9565b610b8e565b34801561033557600080fd5b506101a7610344366004610f57565b600360209081526000928352604080842090915290825290205460ff1681565b3360009081526001602052604090205460ff1661039c5760405162461bcd60e51b815260040161039390610f90565b60405180910390fd5b60065460ff1660000361042b5760005460ff821611156103ec5760405162461bcd60e51b815260206004820152600b60248201526a1ddc9bdb99c818dbdd5b9d60aa1b6044820152606401610393565b60005b60005460ff8216101561042557336000908152600760205260409020805460ff191690558061041d81610fca565b9150506103ef565b50610475565b60065460ff8281169116146104755760405162461bcd60e51b815260206004820152601060248201526f1b5a5cdb585d18da19590818dbdd5b9d60821b6044820152606401610393565b3360009081526007602052604090205460ff166104d957336000908152600760205260409020805460ff1916600190811790915560068054610100900460ff16916104bf83610fca565b91906101000a81548160ff021916908360ff160217905550505b60025460065460ff91821661010090910490911610610543576002805460ff191660ff83169081179091556006805461ffff191690556040519081527f971ed33ab126ac4c0a07a18b84ed2990cde2ae87b25cd5009c84e7e5c9c8cffd9060200160405180910390a15b50565b3360009081526001602052604090205460ff166105755760405162461bcd60e51b815260040161039390610f90565b60008381526008602052604090206003015460ff16156105c35760405162461bcd60e51b815260206004820152600960248201526839b2b73a1037bb32b960b91b6044820152606401610393565b6000838152600860205260409020600101546001600160a01b031661065c57604080516080810182528381526001600160a01b0383811660208084019182526000848601818152606086018281528a835260089093529590209351845590516001840180546001600160a01b03191691909316179091559151600282015590516003909101805460ff19169115159190911790556106d4565b6000838152600860205260409020548214801561069557506000838152600860205260409020600101546001600160a01b038281169116145b6106d45760405162461bcd60e51b815260206004820152601060248201526f34b73b30b634b2103a3930b739b332b960811b6044820152606401610393565b33600090815260096020908152604080832086845290915290205460ff16610737573360009081526009602090815260408083208684528252808320805460ff191660011790556008909152812060020180549161073183610fe9565b91905055505b6002805460008581526008602052604090209091015460ff9091161161080457600083815260086020526040808220600301805460ff19166001179055516001600160a01b0383169084908381818185875af1925050503d80600081146107ba576040519150601f19603f3d011682016040523d82523d6000602084013e6107bf565b606091505b50509050806108025760405162461bcd60e51b815260206004820152600f60248201526e1d1c985b9cd9995c8819985a5b1959608a1b6044820152606401610393565b505b505050565b6000818154811061081957600080fd5b6000918252602090912001546001600160a01b0316905081565b3360009081526001602052604090205460ff166108625760405162461bcd60e51b815260040161039390610f90565b60045460ff166000036108fe5760005460ff8216106108b15760405162461bcd60e51b815260206004820152600b60248201526a0eee4dedcce40d2dcc8caf60ab1b6044820152606401610393565b60005b60005460ff821610156108f85733600090815260056020908152604080832060ff851684529091529020805460ff19169055806108f081610fca565b9150506108b4565b50610948565b60045460ff8281169116146109485760405162461bcd60e51b815260206004820152601060248201526f0dad2e6dac2e8c6d0cac840d2dcc8caf60831b6044820152606401610393565b33600090815260056020908152604080832060ff8086168552925290912054166109c95733600090815260056020908152604080832060ff80861685529252909120805460ff1916600190811790915560048054610100900490921691906109af83610fca565b91906101000a81548160ff021916908360ff160217905550505b60025460045460ff91821661010090910490911610610543576000808260ff16815481106109f9576109f9611002565b600091825260208220015481546001600160a01b0390911692508190610a2190600190611018565b81548110610a3157610a31611002565b600091825260208220015481546001600160a01b03909116925082919060ff8616908110610a6157610a61611002565b600091825260209091200180546001600160a01b0319166001600160a01b0392909216919091179055610a95836001611031565b6001600160a01b03808316600090815260016020526040808220805460ff9590951660ff1995861617905591851681529081208054909216909155805480610adf57610adf61104a565b600082815260208120820160001990810180546001600160a01b03191690559091019091556004805461ffff191690556040516001600160a01b038416917fa2a6e2b8f0cf0f627456034557b0149227a355af53f5bc8ce7e496bfbe73c0a991a2505050565b604080518281523460208201526001600160a01b0384169133917fc07a5330986048e0e2b01e559656897bc3dca20f6d8a2d10bae879bf626835f5910160405180910390a35050565b3360009081526001602052604090205460ff16610bbd5760405162461bcd60e51b815260040161039390610f90565b60025461010090046001600160a01b0316610c9e576001600160a01b03811660009081526001602052604090205460ff1615610c2b5760405162461bcd60e51b815260206004820152600d60248201526c185b1c9958591e48195e1a5cdd609a1b6044820152606401610393565b60028054610100600160a81b0319166101006001600160a01b0384160217905560005b60005460ff82161015610c98573360009081526003602090815260408083206001600160a01b03861684529091529020805460ff1916905580610c9081610fca565b915050610c4e565b50610cef565b6002546001600160a01b038281166101009092041614610cef5760405162461bcd60e51b815260206004820152600c60248201526b3bb937b7339039b4b3b732b960a11b6044820152606401610393565b3360009081526003602090815260408083206001600160a01b038516845290915290205460ff16610d7c573360009081526003602090815260408083206001600160a01b03851684529091529020805460ff1916600117905560028054600160a81b900460ff16906015610d6283610fca565b91906101000a81548160ff021916908360ff160217905550505b60025460ff808216600160a81b90920416106105435760008054600180820183557f290decd9548b62a8d60345a988386fc84ba6bc95484008f6362f93160ef3e56390910180546001600160a01b0319166001600160a01b03851690811790915582548184526020929092526040808420805460ff191660ff9094169390931790925560028054610100600160b01b0319169055905190917f8191ca9d665b824fc53160f3727e7ec3a5330e4a67e1db6c4a86678956dfef1991a250565b803560ff81168114610e4b57600080fd5b919050565b600060208284031215610e6257600080fd5b610e6b82610e3a565b9392505050565b6001600160a01b038116811461054357600080fd5b600080600060608486031215610e9c57600080fd5b83359250602084013591506040840135610eb581610e72565b809150509250925092565b600060208284031215610ed257600080fd5b5035919050565b600060208284031215610eeb57600080fd5b8135610e6b81610e72565b60008060408385031215610f0957600080fd5b8235610f1481610e72565b9150610f2260208401610e3a565b90509250929050565b60008060408385031215610f3e57600080fd5b8235610f4981610e72565b946020939093013593505050565b60008060408385031215610f6a57600080fd5b8235610f7581610e72565b91506020830135610f8581610e72565b809150509250929050565b6020808252600a90820152693737ba1039b4b3b732b960b11b604082015260600190565b634e487b7160e01b600052601160045260246000fd5b600060ff821660ff8103610fe057610fe0610fb4565b60010192915050565b600060018201610ffb57610ffb610fb4565b5060010190565b634e487b7160e01b600052603260045260246000fd5b8181038181111561102b5761102b610fb4565b92915050565b60ff818116838216019081111561102b5761102b610fb4565b634e487b7160e01b600052603160045260246000fdfea2646970667358221220d8acd55f525f97fb52a46a7418eb07154231b3f1c24e7ad332ce5c5a9e903be564736f6c63430008110033",
    "sourcePath": "/home/wy/gowork/bridge/multiSignWallet.sol",
    "compiler": {
        "name": "solc",
        "version": "0.8.17+commit.8df45f5f"
    },
    "functionHashes": {
        "addSigner(address)": "eb12d61e",
        "addingCount()": "a1ed637a",
        "addingSigner()": "3d5655f8",
        "changeRequireCount(uint8)": "07a4145b",
        "changingCount()": "54ca4416",
        "isAdded(address,address)": "f770a5db",
        "isChangeCount(address)": "26fbcf93",
        "isRemoved(address,uint8)": "6561d53c",
        "newRequireCount()": "458a3add",
        "removeSigner(uint8)": "9bc5362e",
        "removingCount()": "68d02417",
        "removingIndex()": "5003b333",
        "requireCount()": "83051fde",
        "send(bytes32,uint256,address)": "092d1148",
        "signers(uint256)": "2079fb9a",
        "wrap(address,bytes32)": "b04e670d"
    },
    "gasEstimates": {
        "creation": {
            "codeDepositCost": "849200",
            "executionCost": "infinite",
            "totalCost": "infinite"
        },
        "external": {
            "addSigner(address)": "infinite",
            "addingCount()": "2352",
            "addingSigner()": "2360",
            "changeRequireCount(uint8)": "115701",
            "changingCount()": "2413",
            "isAdded(address,address)": "infinite",
            "isChangeCount(address)": "2615",
            "isRemoved(address,uint8)": "2710",
            "newRequireCount()": "2358",
            "removeSigner(uint8)": "infinite",
            "removingCount()": "2369",
            "removingIndex()": "2380",
            "requireCount()": "2380",
            "send(bytes32,uint256,address)": "infinite",
            "signers(uint256)": "4671",
            "wrap(address,bytes32)": "2450"
        }
    }
}