{
    "contractName": "MultiSign",
    "abi": [
        {
            "inputs": [
                {
                    "internalType": "address[]",
                    "name": "_signers",
                    "type": "address[]"
                },
                {
                    "internalType": "uint8",
                    "name": "_requireCount",
                    "type": "uint8"
                }
            ],
            "stateMutability": "nonpayable",
            "type": "constructor"
        },
        {
            "anonymous": false,
            "inputs": [
                {
                    "indexed": false,
                    "internalType": "uint8",
                    "name": "changeRequireCount",
                    "type": "uint8"
                }
            ],
            "name": "ChangeRequireCount",
            "type": "event"
        },
        {
            "anonymous": false,
            "inputs": [
                {
                    "indexed": true,
                    "internalType": "address",
                    "name": "signer",
                    "type": "address"
                }
            ],
            "name": "SignerAddition",
            "type": "event"
        },
        {
            "anonymous": false,
            "inputs": [
                {
                    "indexed": true,
                    "internalType": "address",
                    "name": "signer",
                    "type": "address"
                }
            ],
            "name": "SignerRemoval",
            "type": "event"
        },
        {
            "inputs": [
                {
                    "internalType": "address",
                    "name": "signer",
                    "type": "address"
                }
            ],
            "name": "addSigner",
            "outputs": [],
            "stateMutability": "nonpayable",
            "type": "function"
        },
        {
            "inputs": [],
            "name": "addingCount",
            "outputs": [
                {
                    "internalType": "uint8",
                    "name": "",
                    "type": "uint8"
                }
            ],
            "stateMutability": "view",
            "type": "function"
        },
        {
            "inputs": [],
            "name": "addingSigner",
            "outputs": [
                {
                    "internalType": "address",
                    "name": "",
                    "type": "address"
                }
            ],
            "stateMutability": "view",
            "type": "function"
        },
        {
            "inputs": [
                {
                    "internalType": "uint8",
                    "name": "newCount",
                    "type": "uint8"
                }
            ],
            "name": "changeRequireCount",
            "outputs": [],
            "stateMutability": "nonpayable",
            "type": "function"
        },
        {
            "inputs": [],
            "name": "changingCount",
            "outputs": [
                {
                    "internalType": "uint8",
                    "name": "",
                    "type": "uint8"
                }
            ],
            "stateMutability": "view",
            "type": "function"
        },
        {
            "inputs": [
                {
                    "internalType": "address",
                    "name": "",
                    "type": "address"
                },
                {
                    "internalType": "address",
                    "name": "",
                    "type": "address"
                }
            ],
            "name": "isAdded",
            "outputs": [
                {
                    "internalType": "bool",
                    "name": "",
                    "type": "bool"
                }
            ],
            "stateMutability": "view",
            "type": "function"
        },
        {
            "inputs": [
                {
                    "internalType": "address",
                    "name": "",
                    "type": "address"
                }
            ],
            "name": "isChangeCount",
            "outputs": [
                {
                    "internalType": "bool",
                    "name": "",
                    "type": "bool"
                }
            ],
            "stateMutability": "view",
            "type": "function"
        },
        {
            "inputs": [
                {
                    "internalType": "address",
                    "name": "",
                    "type": "address"
                },
                {
                    "internalType": "uint8",
                    "name": "",
                    "type": "uint8"
                }
            ],
            "name": "isRemoved",
            "outputs": [
                {
                    "internalType": "bool",
                    "name": "",
                    "type": "bool"
                }
            ],
            "stateMutability": "view",
            "type": "function"
        },
        {
            "inputs": [],
            "name": "newRequireCount",
            "outputs": [
                {
                    "internalType": "uint8",
                    "name": "",
                    "type": "uint8"
                }
            ],
            "stateMutability": "view",
            "type": "function"
        },
        {
            "inputs": [
                {
                    "internalType": "uint8",
                    "name": "index",
                    "type": "uint8"
                }
            ],
            "name": "removeSigner",
            "outputs": [],
            "stateMutability": "nonpayable",
            "type": "function"
        },
        {
            "inputs": [],
            "name": "removingCount",
            "outputs": [
                {
                    "internalType": "uint8",
                    "name": "",
                    "type": "uint8"
                }
            ],
            "stateMutability": "view",
            "type": "function"
        },
        {
            "inputs": [],
            "name": "removingIndex",
            "outputs": [
                {
                    "internalType": "uint8",
                    "name": "",
                    "type": "uint8"
                }
            ],
            "stateMutability": "view",
            "type": "function"
        },
        {
            "inputs": [],
            "name": "requireCount",
            "outputs": [
                {
                    "internalType": "uint8",
                    "name": "",
                    "type": "uint8"
                }
            ],
            "stateMutability": "view",
            "type": "function"
        },
        {
            "inputs": [
                {
                    "internalType": "uint256",
                    "name": "",
                    "type": "uint256"
                }
            ],
            "name": "signers",
            "outputs": [
                {
                    "internalType": "address",
                    "name": "",
                    "type": "address"
                }
            ],
            "stateMutability": "view",
            "type": "function"
        }
    ],
    "bytecode": "60806040523480156200001157600080fd5b5060405162000ffe38038062000ffe83398101604081905262000034916200028f565b60005b82518160ff161015620001975760016000848360ff168151811062000060576200006062000375565b6020908102919091018101516001600160a01b031682528101919091526040016000205460ff16158015620000c7575060006001600160a01b0316838260ff1681518110620000b357620000b362000375565b60200260200101516001600160a01b031614155b620001185760405162461bcd60e51b815260206004820152601c60248201527f696e76616c6964206f72206475706c696361746564207369676e657200000000604482015260640160405180910390fd5b62000125816001620003a1565b60016000858460ff168151811062000141576200014162000375565b60200260200101516001600160a01b03166001600160a01b0316815260200190815260200160002060006101000a81548160ff021916908360ff16021790555080806200018e90620003c3565b91505062000037565b508151620001ad906000906020850190620001c9565b506002805460ff191660ff9290921691909117905550620003e5565b82805482825590600052602060002090810192821562000221579160200282015b828111156200022157825182546001600160a01b0319166001600160a01b03909116178255602090920191600190910190620001ea565b506200022f92915062000233565b5090565b5b808211156200022f576000815560010162000234565b634e487b7160e01b600052604160045260246000fd5b80516001600160a01b03811681146200027857600080fd5b919050565b805160ff811681146200027857600080fd5b60008060408385031215620002a357600080fd5b82516001600160401b0380821115620002bb57600080fd5b818501915085601f830112620002d057600080fd5b8151602082821115620002e757620002e76200024a565b8160051b604051601f19603f830116810181811086821117156200030f576200030f6200024a565b6040529283528183019350848101820192898411156200032e57600080fd5b948201945b838610156200035757620003478662000260565b8552948201949382019362000333565b96506200036890508782016200027d565b9450505050509250929050565b634e487b7160e01b600052603260045260246000fd5b634e487b7160e01b600052601160045260246000fd5b60ff8181168382160190811115620003bd57620003bd6200038b565b92915050565b600060ff821660ff8103620003dc57620003dc6200038b565b60010192915050565b610c0980620003f56000396000f3fe608060405234801561001057600080fd5b50600436106100ea5760003560e01c80636561d53c1161008c5780639bc5362e116100665780639bc5362e1461020a578063a1ed637a1461021d578063eb12d61e14610231578063f770a5db1461024457600080fd5b80636561d53c146101bd57806368d02417146101eb57806383051fde146101fd57600080fd5b80633d5655f8116100c85780633d5655f814610167578063458a3add1461017f5780635003b3331461019e57806354ca4416146101ab57600080fd5b806307a4145b146100ef5780632079fb9a1461010457806326fbcf9314610134575b600080fd5b6101026100fd366004610a52565b610272565b005b610117610112366004610a74565b610454565b6040516001600160a01b0390911681526020015b60405180910390f35b610157610142366004610aa4565b60076020526000908152604090205460ff1681565b604051901515815260200161012b565b6002546101179061010090046001600160a01b031681565b60065461018c9060ff1681565b60405160ff909116815260200161012b565b60045461018c9060ff1681565b60065461018c90610100900460ff1681565b6101576101cb366004610abf565b600560209081526000928352604080842090915290825290205460ff1681565b60045461018c90610100900460ff1681565b60025461018c9060ff1681565b610102610218366004610a52565b61047e565b60025461018c90600160a81b900460ff1681565b61010261023f366004610aa4565b610790565b610157610252366004610af2565b600360209081526000928352604080842090915290825290205460ff1681565b3360009081526001602052604090205460ff166102aa5760405162461bcd60e51b81526004016102a190610b1c565b60405180910390fd5b60065460ff166000036103395760005460ff821611156102fa5760405162461bcd60e51b815260206004820152600b60248201526a1ddc9bdb99c818dbdd5b9d60aa1b60448201526064016102a1565b60005b60005460ff8216101561033357336000908152600760205260409020805460ff191690558061032b81610b56565b9150506102fd565b50610383565b60065460ff8281169116146103835760405162461bcd60e51b815260206004820152601060248201526f1b5a5cdb585d18da19590818dbdd5b9d60821b60448201526064016102a1565b3360009081526007602052604090205460ff166103e757336000908152600760205260409020805460ff1916600190811790915560068054610100900460ff16916103cd83610b56565b91906101000a81548160ff021916908360ff160217905550505b60025460065460ff91821661010090910490911610610451576002805460ff191660ff83169081179091556006805461ffff191690556040519081527f971ed33ab126ac4c0a07a18b84ed2990cde2ae87b25cd5009c84e7e5c9c8cffd9060200160405180910390a15b50565b6000818154811061046457600080fd5b6000918252602090912001546001600160a01b0316905081565b3360009081526001602052604090205460ff166104ad5760405162461bcd60e51b81526004016102a190610b1c565b60045460ff166000036105495760005460ff8216106104fc5760405162461bcd60e51b815260206004820152600b60248201526a0eee4dedcce40d2dcc8caf60ab1b60448201526064016102a1565b60005b60005460ff821610156105435733600090815260056020908152604080832060ff851684529091529020805460ff191690558061053b81610b56565b9150506104ff565b50610593565b60045460ff8281169116146105935760405162461bcd60e51b815260206004820152601060248201526f0dad2e6dac2e8c6d0cac840d2dcc8caf60831b60448201526064016102a1565b33600090815260056020908152604080832060ff8086168552925290912054166106145733600090815260056020908152604080832060ff80861685529252909120805460ff1916600190811790915560048054610100900490921691906105fa83610b56565b91906101000a81548160ff021916908360ff160217905550505b60025460045460ff91821661010090910490911610610451576000808260ff168154811061064457610644610b75565b600091825260208220015481546001600160a01b039091169250819061066c90600190610b8b565b8154811061067c5761067c610b75565b600091825260208220015481546001600160a01b03909116925082919060ff86169081106106ac576106ac610b75565b600091825260209091200180546001600160a01b0319166001600160a01b03929092169190911790556106e0836001610ba4565b6001600160a01b03808316600090815260016020526040808220805460ff9590951660ff199586161790559185168152908120805490921690915580548061072a5761072a610bbd565b600082815260208120820160001990810180546001600160a01b03191690559091019091556004805461ffff191690556040516001600160a01b038416917fa2a6e2b8f0cf0f627456034557b0149227a355af53f5bc8ce7e496bfbe73c0a991a2505050565b3360009081526001602052604090205460ff166107bf5760405162461bcd60e51b81526004016102a190610b1c565b60025461010090046001600160a01b03166108a0576001600160a01b03811660009081526001602052604090205460ff161561082d5760405162461bcd60e51b815260206004820152600d60248201526c185b1c9958591e48195e1a5cdd609a1b60448201526064016102a1565b60028054610100600160a81b0319166101006001600160a01b0384160217905560005b60005460ff8216101561089a573360009081526003602090815260408083206001600160a01b03861684529091529020805460ff191690558061089281610b56565b915050610850565b506108f1565b6002546001600160a01b0382811661010090920416146108f15760405162461bcd60e51b815260206004820152600c60248201526b3bb937b7339039b4b3b732b960a11b60448201526064016102a1565b3360009081526003602090815260408083206001600160a01b038516845290915290205460ff1661097e573360009081526003602090815260408083206001600160a01b03851684529091529020805460ff1916600117905560028054600160a81b900460ff1690601561096483610b56565b91906101000a81548160ff021916908360ff160217905550505b60025460ff808216600160a81b90920416106104515760008054600180820183557f290decd9548b62a8d60345a988386fc84ba6bc95484008f6362f93160ef3e56390910180546001600160a01b0319166001600160a01b03851690811790915582548184526020929092526040808420805460ff191660ff9094169390931790925560028054610100600160b01b0319169055905190917f8191ca9d665b824fc53160f3727e7ec3a5330e4a67e1db6c4a86678956dfef1991a250565b803560ff81168114610a4d57600080fd5b919050565b600060208284031215610a6457600080fd5b610a6d82610a3c565b9392505050565b600060208284031215610a8657600080fd5b5035919050565b80356001600160a01b0381168114610a4d57600080fd5b600060208284031215610ab657600080fd5b610a6d82610a8d565b60008060408385031215610ad257600080fd5b610adb83610a8d565b9150610ae960208401610a3c565b90509250929050565b60008060408385031215610b0557600080fd5b610b0e83610a8d565b9150610ae960208401610a8d565b6020808252600a90820152693737ba1039b4b3b732b960b11b604082015260600190565b634e487b7160e01b600052601160045260246000fd5b600060ff821660ff8103610b6c57610b6c610b40565b60010192915050565b634e487b7160e01b600052603260045260246000fd5b81810381811115610b9e57610b9e610b40565b92915050565b60ff8181168382160190811115610b9e57610b9e610b40565b634e487b7160e01b600052603160045260246000fdfea2646970667358221220c0a4008cd8ef906bf2688e6962224ca27f89abc4b99ad9bc54ad87eca0310e4964736f6c63430008110033",
    "sourcePath": "/home/wy/gowork/bridge/multiSign.sol",
    "compiler": {
        "name": "solc",
        "version": "0.8.17+commit.8df45f5f"
    },
    "functionHashes": {
        "addSigner(address)": "eb12d61e",
        "addingCount()": "a1ed637a",
        "addingSigner()": "3d5655f8",
        "changeRequireCount(uint8)": "07a4145b",
        "changingCount()": "54ca4416",
        "isAdded(address,address)": "f770a5db",
        "isChangeCount(address)": "26fbcf93",
        "isRemoved(address,uint8)": "6561d53c",
        "newRequireCount()": "458a3add",
        "removeSigner(uint8)": "9bc5362e",
        "removingCount()": "68d02417",
        "removingIndex()": "5003b333",
        "requireCount()": "83051fde",
        "signers(uint256)": "2079fb9a"
    },
    "gasEstimates": {
        "creation": {
            "codeDepositCost": "616200",
            "executionCost": "infinite",
            "totalCost": "infinite"
        },
        "external": {
            "addSigner(address)": "infinite",
            "addingCount()": "2374",
            "addingSigner()": "2360",
            "changeRequireCount(uint8)": "115701",
            "changingCount()": "2413",
            "isAdded(address,address)": "infinite",
            "isChangeCount(address)": "2599",
            "isRemoved(address,uint8)": "infinite",
            "newRequireCount()": "2358",
            "removeSigner(uint8)": "infinite",
            "removingCount()": "2369",
            "removingIndex()": "2380",
            "requireCount()": "2380",
            "signers(uint256)": "4649"
        }
    }
}