{
    "contractName": "sIota",
    "abi": [
        {
            "inputs": [
                {
                    "internalType": "address",
                    "name": "_wrapper",
                    "type": "address"
                }
            ],
            "stateMutability": "nonpayable",
            "type": "constructor"
        },
        {
            "anonymous": false,
            "inputs": [
                {
                    "indexed": true,
                    "internalType": "address",
                    "name": "owner",
                    "type": "address"
                },
                {
                    "indexed": true,
                    "internalType": "address",
                    "name": "spender",
                    "type": "address"
                },
                {
                    "indexed": false,
                    "internalType": "uint256",
                    "name": "value",
                    "type": "uint256"
                }
            ],
            "name": "Approval",
            "type": "event"
        },
        {
            "anonymous": false,
            "inputs": [
                {
                    "indexed": true,
                    "internalType": "address",
                    "name": "from",
                    "type": "address"
                },
                {
                    "indexed": true,
                    "internalType": "address",
                    "name": "to",
                    "type": "address"
                },
                {
                    "indexed": false,
                    "internalType": "uint256",
                    "name": "value",
                    "type": "uint256"
                }
            ],
            "name": "Transfer",
            "type": "event"
        },
        {
            "anonymous": false,
            "inputs": [
                {
                    "indexed": true,
                    "internalType": "address",
                    "name": "from",
                    "type": "address"
                },
                {
                    "indexed": true,
                    "internalType": "bytes32",
                    "name": "to",
                    "type": "bytes32"
                },
                {
                    "indexed": false,
                    "internalType": "uint64",
                    "name": "amount",
                    "type": "uint64"
                }
            ],
            "name": "UnWrap",
            "type": "event"
        },
        {
            "anonymous": false,
            "inputs": [
                {
                    "indexed": true,
                    "internalType": "address",
                    "name": "to",
                    "type": "address"
                },
                {
                    "indexed": false,
                    "internalType": "uint64",
                    "name": "amount",
                    "type": "uint64"
                }
            ],
            "name": "Wrap",
            "type": "event"
        },
        {
            "inputs": [],
            "name": "FEE_DIV_CONST",
            "outputs": [
                {
                    "internalType": "uint24",
                    "name": "",
                    "type": "uint24"
                }
            ],
            "stateMutability": "view",
            "type": "function"
        },
        {
            "inputs": [],
            "name": "acceptFeeToSetter",
            "outputs": [],
            "stateMutability": "nonpayable",
            "type": "function"
        },
        {
            "inputs": [],
            "name": "acceptWrapper",
            "outputs": [],
            "stateMutability": "nonpayable",
            "type": "function"
        },
        {
            "inputs": [
                {
                    "internalType": "address",
                    "name": "",
                    "type": "address"
                },
                {
                    "internalType": "address",
                    "name": "",
                    "type": "address"
                }
            ],
            "name": "allowance",
            "outputs": [
                {
                    "internalType": "uint256",
                    "name": "",
                    "type": "uint256"
                }
            ],
            "stateMutability": "view",
            "type": "function"
        },
        {
            "inputs": [
                {
                    "internalType": "address",
                    "name": "spender",
                    "type": "address"
                },
                {
                    "internalType": "uint256",
                    "name": "value",
                    "type": "uint256"
                }
            ],
            "name": "approve",
            "outputs": [
                {
                    "internalType": "bool",
                    "name": "",
                    "type": "bool"
                }
            ],
            "stateMutability": "nonpayable",
            "type": "function"
        },
        {
            "inputs": [
                {
                    "internalType": "address",
                    "name": "",
                    "type": "address"
                }
            ],
            "name": "balanceOf",
            "outputs": [
                {
                    "internalType": "uint256",
                    "name": "",
                    "type": "uint256"
                }
            ],
            "stateMutability": "view",
            "type": "function"
        },
        {
            "inputs": [],
            "name": "decimals",
            "outputs": [
                {
                    "internalType": "uint8",
                    "name": "",
                    "type": "uint8"
                }
            ],
            "stateMutability": "view",
            "type": "function"
        },
        {
            "inputs": [],
            "name": "feeRate",
            "outputs": [
                {
                    "internalType": "uint24",
                    "name": "",
                    "type": "uint24"
                }
            ],
            "stateMutability": "view",
            "type": "function"
        },
        {
            "inputs": [],
            "name": "feeSum",
            "outputs": [
                {
                    "internalType": "uint64",
                    "name": "",
                    "type": "uint64"
                }
            ],
            "stateMutability": "view",
            "type": "function"
        },
        {
            "inputs": [],
            "name": "name",
            "outputs": [
                {
                    "internalType": "string",
                    "name": "",
                    "type": "string"
                }
            ],
            "stateMutability": "view",
            "type": "function"
        },
        {
            "inputs": [],
            "name": "owner",
            "outputs": [
                {
                    "internalType": "address",
                    "name": "",
                    "type": "address"
                }
            ],
            "stateMutability": "view",
            "type": "function"
        },
        {
            "inputs": [
                {
                    "internalType": "address",
                    "name": "_owner",
                    "type": "address"
                }
            ],
            "name": "setOwner",
            "outputs": [],
            "stateMutability": "nonpayable",
            "type": "function"
        },
        {
            "inputs": [
                {
                    "internalType": "address",
                    "name": "_wrapper",
                    "type": "address"
                }
            ],
            "name": "setWrapper",
            "outputs": [],
            "stateMutability": "nonpayable",
            "type": "function"
        },
        {
            "inputs": [],
            "name": "symbol",
            "outputs": [
                {
                    "internalType": "string",
                    "name": "",
                    "type": "string"
                }
            ],
            "stateMutability": "view",
            "type": "function"
        },
        {
            "inputs": [],
            "name": "totalSupply",
            "outputs": [
                {
                    "internalType": "uint256",
                    "name": "",
                    "type": "uint256"
                }
            ],
            "stateMutability": "view",
            "type": "function"
        },
        {
            "inputs": [
                {
                    "internalType": "address",
                    "name": "to",
                    "type": "address"
                },
                {
                    "internalType": "uint256",
                    "name": "value",
                    "type": "uint256"
                }
            ],
            "name": "transfer",
            "outputs": [
                {
                    "internalType": "bool",
                    "name": "",
                    "type": "bool"
                }
            ],
            "stateMutability": "nonpayable",
            "type": "function"
        },
        {
            "inputs": [
                {
                    "internalType": "address",
                    "name": "from",
                    "type": "address"
                },
                {
                    "internalType": "address",
                    "name": "to",
                    "type": "address"
                },
                {
                    "internalType": "uint256",
                    "name": "value",
                    "type": "uint256"
                }
            ],
            "name": "transferFrom",
            "outputs": [
                {
                    "internalType": "bool",
                    "name": "",
                    "type": "bool"
                }
            ],
            "stateMutability": "nonpayable",
            "type": "function"
        },
        {
            "inputs": [
                {
                    "internalType": "bytes32",
                    "name": "to",
                    "type": "bytes32"
                },
                {
                    "internalType": "uint64",
                    "name": "amount",
                    "type": "uint64"
                }
            ],
            "name": "unWrap",
            "outputs": [],
            "stateMutability": "nonpayable",
            "type": "function"
        },
        {
            "inputs": [
                {
                    "internalType": "bytes32",
                    "name": "txid",
                    "type": "bytes32"
                },
                {
                    "internalType": "address",
                    "name": "to",
                    "type": "address"
                },
                {
                    "internalType": "uint64",
                    "name": "amount",
                    "type": "uint64"
                }
            ],
            "name": "wrap",
            "outputs": [],
            "stateMutability": "nonpayable",
            "type": "function"
        },
        {
            "inputs": [],
            "name": "wrapper",
            "outputs": [
                {
                    "internalType": "address",
                    "name": "",
                    "type": "address"
                }
            ],
            "stateMutability": "view",
            "type": "function"
        }
    ],
    "bytecode": "60c060405260096080908152685772617020496f746160b81b60a0526000906200002a908262000181565b50604080518082019091526006815265736d494f544160d01b602082015260019062000057908262000181565b506002805460ff191660061790553480156200007257600080fd5b5060405162000f0b38038062000f0b83398101604081905262000095916200024d565b600480546001600160a01b039092166801000000000000000002600160401b600160e01b0319909216919091179055600680546001600160a01b031916331790556200027f565b634e487b7160e01b600052604160045260246000fd5b600181811c908216806200010757607f821691505b6020821081036200012857634e487b7160e01b600052602260045260246000fd5b50919050565b601f8211156200017c57600081815260208120601f850160051c81016020861015620001575750805b601f850160051c820191505b81811015620001785782815560010162000163565b5050505b505050565b81516001600160401b038111156200019d576200019d620000dc565b620001b581620001ae8454620000f2565b846200012e565b602080601f831160018114620001ed5760008415620001d45750858301515b600019600386901b1c1916600185901b17855562000178565b600085815260208120601f198616915b828110156200021e57888601518255948401946001909101908401620001fd565b50858210156200023d5787850151600019600388901b60f8161c191681555b5050505050600190811b01905550565b6000602082840312156200026057600080fd5b81516001600160a01b03811681146200027857600080fd5b9392505050565b610c7c806200028f6000396000f3fe608060405234801561001057600080fd5b506004361061012c5760003560e01c8063978bbdb9116100ad578063b859736f11610071578063b859736f146102aa578063b88f1363146102bd578063bae21537146102c5578063c2167d93146102d8578063dd62ed3e146102eb57600080fd5b8063978bbdb91461022b5780639ca6ce1214610248578063a9059cbb14610252578063ac210cc714610265578063b44d4e5f1461027f57600080fd5b80632dd072a0116100f45780632dd072a0146101b1578063313ce567146101b957806370a08231146101d85780638da5cb5b146101f857806395d89b411461022357600080fd5b806306fdde0314610131578063095ea7b31461014f57806313af40351461017257806318160ddd1461018757806323b872dd1461019e575b600080fd5b610139610316565b604051610146919061095d565b60405180910390f35b61016261015d3660046109c7565b6103a4565b6040519015158152602001610146565b6101856101803660046109f1565b6103bb565b005b61019060035481565b604051908152602001610146565b6101626101ac366004610a13565b610430565b6101856104aa565b6002546101c69060ff1681565b60405160ff9091168152602001610146565b6101906101e63660046109f1565b60096020526000908152604090205481565b60065461020b906001600160a01b031681565b6040516001600160a01b039091168152602001610146565b6101396104fb565b6102346103e881565b60405162ffffff9091168152602001610146565b610234620186a081565b6101626102603660046109c7565b610508565b60045461020b90600160401b90046001600160a01b031681565b600454610292906001600160401b031681565b6040516001600160401b039091168152602001610146565b6101856102b8366004610a66565b610515565b6101856106c4565b6101856102d3366004610aa2565b610729565b6101856102e63660046109f1565b610819565b6101906102f9366004610ace565b600a60209081526000928352604080842090915290825290205481565b6000805461032390610af8565b80601f016020809104026020016040519081016040528092919081815260200182805461034f90610af8565b801561039c5780601f106103715761010080835404028352916020019161039c565b820191906000526020600020905b81548152906001019060200180831161037f57829003601f168201915b505050505081565b60006103b1338484610863565b5060015b92915050565b6006546001600160a01b0316331461040e5760405162461bcd60e51b8152602060048201526011602482015270313934b233b29d102327a92124a22222a760791b60448201526064015b60405180910390fd5b600780546001600160a01b0319166001600160a01b0392909216919091179055565b6001600160a01b0383166000908152600a6020908152604080832033845290915281205460001914610495576001600160a01b0384166000908152600a602090815260408083203384529091528120805484929061048f908490610b48565b90915550505b6104a08484846108bc565b5060019392505050565b6007546001600160a01b031633146104d45760405162461bcd60e51b815260040161040590610b5b565b60078054600680546001600160a01b03199081166001600160a01b03841617909155169055565b6001805461032390610af8565b60006103b13384846108bc565b600454600160401b90046001600160a01b031633146105645760405162461bcd60e51b815260206004820152600b60248201526a3737ba103bb930b83832b960a91b6044820152606401610405565b60008381526008602052604090205460ff16156105b05760405162461bcd60e51b815260206004820152600a6024820152691d1e1a5908195e1a5cdd60b21b6044820152606401610405565b6000838152600860205260408120805460ff19166001179055620186a06105e26103e86001600160401b038516610b87565b6105ec9190610bb5565b60048054919250829160009061060c9084906001600160401b0316610bec565b92506101000a8154816001600160401b0302191690836001600160401b03160217905550808261063c9190610c13565b6001600160a01b038416600090815260096020526040812080549294506001600160401b03851692909190610672908490610c33565b90915550506040516001600160401b03831681526001600160a01b038416907f20925aeb4fb032b41fb6819a065d482a8e6c281370fc218281522cc25182536b9060200160405180910390a250505050565b6005546001600160a01b031633146106ee5760405162461bcd60e51b815260040161040590610b5b565b600580546004805468010000000000000000600160e01b0319166001600160a01b038316600160401b021790556001600160a01b0319169055565b33600090815260096020526040812080546001600160401b0384169290610751908490610b48565b9091555060009050620186a06107726103e86001600160401b038516610b87565b61077c9190610bb5565b60048054919250829160009061079c9084906001600160401b0316610bec565b92506101000a8154816001600160401b0302191690836001600160401b0316021790555082336001600160a01b03167fbefad7194adb21495dbf01004f00fa0765aef438c2f3526afbe36cb229514ee283856107f89190610c13565b6040516001600160401b0390911681526020015b60405180910390a3505050565b336001600160a01b038216146108415760405162461bcd60e51b815260040161040590610b5b565b600580546001600160a01b0319166001600160a01b0392909216919091179055565b6001600160a01b038381166000818152600a602090815260408083209487168084529482529182902085905590518481527f8c5be1e5ebec7d5bd14f71427d1e84f3dd0314c0f7b2291e5b200ac8c7c3b925910161080c565b6001600160a01b038316600090815260096020526040812080548392906108e4908490610b48565b90915550506001600160a01b03821660009081526009602052604081208054839290610911908490610c33565b92505081905550816001600160a01b0316836001600160a01b03167fddf252ad1be2c89b69c2b068fc378daa952ba7f163c4a11628f55a4df523b3ef8360405161080c91815260200190565b600060208083528351808285015260005b8181101561098a5785810183015185820160400152820161096e565b506000604082860101526040601f19601f8301168501019250505092915050565b80356001600160a01b03811681146109c257600080fd5b919050565b600080604083850312156109da57600080fd5b6109e3836109ab565b946020939093013593505050565b600060208284031215610a0357600080fd5b610a0c826109ab565b9392505050565b600080600060608486031215610a2857600080fd5b610a31846109ab565b9250610a3f602085016109ab565b9150604084013590509250925092565b80356001600160401b03811681146109c257600080fd5b600080600060608486031215610a7b57600080fd5b83359250610a8b602085016109ab565b9150610a9960408501610a4f565b90509250925092565b60008060408385031215610ab557600080fd5b82359150610ac560208401610a4f565b90509250929050565b60008060408385031215610ae157600080fd5b610aea836109ab565b9150610ac5602084016109ab565b600181811c90821680610b0c57607f821691505b602082108103610b2c57634e487b7160e01b600052602260045260246000fd5b50919050565b634e487b7160e01b600052601160045260246000fd5b818103818111156103b5576103b5610b32565b602080825260129082015271313934b233b2901d102327a92124a22222a760711b604082015260600190565b69ffffffffffffffffffff818116838216028082169190828114610bad57610bad610b32565b505092915050565b600069ffffffffffffffffffff80841680610be057634e487b7160e01b600052601260045260246000fd5b92169190910492915050565b6001600160401b03818116838216019080821115610c0c57610c0c610b32565b5092915050565b6001600160401b03828116828216039080821115610c0c57610c0c610b32565b808201808211156103b5576103b5610b3256fea2646970667358221220f96ced77de218dcd327aec0e5b43ab120c5f50d5d42f7175aac94f00c0d0632164736f6c63430008110033",
    "sourcePath": "d:/contract/bridge/sIota.sol",
    "compiler": {
        "name": "solc",
        "version": "0.8.17+commit.8df45f5f"
    },
    "functionHashes": {
        "FEE_DIV_CONST()": "9ca6ce12",
        "acceptFeeToSetter()": "2dd072a0",
        "acceptWrapper()": "b88f1363",
        "allowance(address,address)": "dd62ed3e",
        "approve(address,uint256)": "095ea7b3",
        "balanceOf(address)": "70a08231",
        "decimals()": "313ce567",
        "feeRate()": "978bbdb9",
        "feeSum()": "b44d4e5f",
        "name()": "06fdde03",
        "owner()": "8da5cb5b",
        "setOwner(address)": "13af4035",
        "setWrapper(address)": "c2167d93",
        "symbol()": "95d89b41",
        "totalSupply()": "18160ddd",
        "transfer(address,uint256)": "a9059cbb",
        "transferFrom(address,address,uint256)": "23b872dd",
        "unWrap(bytes32,uint64)": "bae21537",
        "wrap(bytes32,address,uint64)": "b859736f",
        "wrapper()": "ac210cc7"
    },
    "gasEstimates": {
        "creation": {
            "codeDepositCost": "639200",
            "executionCost": "infinite",
            "totalCost": "infinite"
        },
        "external": {
            "FEE_DIV_CONST()": "249",
            "acceptFeeToSetter()": "50782",
            "acceptWrapper()": "50826",
            "allowance(address,address)": "infinite",
            "approve(address,uint256)": "24585",
            "balanceOf(address)": "2586",
            "decimals()": "2358",
            "feeRate()": "227",
            "feeSum()": "2448",
            "name()": "infinite",
            "owner()": "2426",
            "setOwner(address)": "26779",
            "setWrapper(address)": "24699",
            "symbol()": "infinite",
            "totalSupply()": "2385",
            "transfer(address,uint256)": "infinite",
            "transferFrom(address,address,uint256)": "infinite",
            "unWrap(bytes32,uint64)": "infinite",
            "wrap(bytes32,address,uint64)": "infinite",
            "wrapper()": "2443"
        },
        "internal": {
            "_approve(address,address,uint256)": "infinite",
            "_transfer(address,address,uint256)": "infinite"
        }
    }
}