{
    "contractName": "StakeLiquidity",
    "abi": [
        {
            "inputs": [
                {
                    "internalType": "address",
                    "name": "token",
                    "type": "address"
                }
            ],
            "stateMutability": "nonpayable",
            "type": "constructor"
        },
        {
            "anonymous": false,
            "inputs": [
                {
                    "indexed": true,
                    "internalType": "address",
                    "name": "user",
                    "type": "address"
                },
                {
                    "indexed": true,
                    "internalType": "address",
                    "name": "token",
                    "type": "address"
                },
                {
                    "indexed": false,
                    "internalType": "uint256",
                    "name": "fdNo",
                    "type": "uint256"
                },
                {
                    "indexed": false,
                    "internalType": "uint24",
                    "name": "rewardNo",
                    "type": "uint24"
                }
            ],
            "name": "ClaimReward",
            "type": "event"
        },
        {
            "anonymous": false,
            "inputs": [
                {
                    "indexed": true,
                    "internalType": "address",
                    "name": "user",
                    "type": "address"
                },
                {
                    "indexed": true,
                    "internalType": "address",
                    "name": "token",
                    "type": "address"
                },
                {
                    "indexed": false,
                    "internalType": "uint256",
                    "name": "amount",
                    "type": "uint256"
                }
            ],
            "name": "Deposit",
            "type": "event"
        },
        {
            "anonymous": false,
            "inputs": [
                {
                    "indexed": true,
                    "internalType": "address",
                    "name": "user",
                    "type": "address"
                },
                {
                    "indexed": true,
                    "internalType": "address",
                    "name": "token",
                    "type": "address"
                },
                {
                    "indexed": false,
                    "internalType": "uint256",
                    "name": "rewardNo",
                    "type": "uint256"
                }
            ],
            "name": "SetReward",
            "type": "event"
        },
        {
            "anonymous": false,
            "inputs": [
                {
                    "indexed": true,
                    "internalType": "address",
                    "name": "user",
                    "type": "address"
                },
                {
                    "indexed": true,
                    "internalType": "address",
                    "name": "token",
                    "type": "address"
                },
                {
                    "indexed": false,
                    "internalType": "uint256",
                    "name": "nonce",
                    "type": "uint256"
                }
            ],
            "name": "Stake",
            "type": "event"
        },
        {
            "anonymous": false,
            "inputs": [
                {
                    "indexed": true,
                    "internalType": "address",
                    "name": "user",
                    "type": "address"
                },
                {
                    "indexed": true,
                    "internalType": "address",
                    "name": "token",
                    "type": "address"
                },
                {
                    "indexed": false,
                    "internalType": "uint256",
                    "name": "nonce",
                    "type": "uint256"
                }
            ],
            "name": "UnStake",
            "type": "event"
        },
        {
            "anonymous": false,
            "inputs": [
                {
                    "indexed": true,
                    "internalType": "address",
                    "name": "user",
                    "type": "address"
                },
                {
                    "indexed": true,
                    "internalType": "address",
                    "name": "token",
                    "type": "address"
                },
                {
                    "indexed": false,
                    "internalType": "uint256",
                    "name": "amount",
                    "type": "uint256"
                }
            ],
            "name": "Withdraw",
            "type": "event"
        },
        {
            "inputs": [],
            "name": "acceptOwner",
            "outputs": [],
            "stateMutability": "nonpayable",
            "type": "function"
        },
        {
            "inputs": [
                {
                    "internalType": "address",
                    "name": "",
                    "type": "address"
                },
                {
                    "internalType": "address",
                    "name": "",
                    "type": "address"
                }
            ],
            "name": "balanceOf",
            "outputs": [
                {
                    "internalType": "uint256",
                    "name": "",
                    "type": "uint256"
                }
            ],
            "stateMutability": "view",
            "type": "function"
        },
        {
            "inputs": [
                {
                    "internalType": "uint256",
                    "name": "fdNo",
                    "type": "uint256"
                },
                {
                    "internalType": "uint24",
                    "name": "rewardNo",
                    "type": "uint24"
                }
            ],
            "name": "claimReward",
            "outputs": [],
            "stateMutability": "nonpayable",
            "type": "function"
        },
        {
            "inputs": [
                {
                    "internalType": "uint256",
                    "name": "",
                    "type": "uint256"
                },
                {
                    "internalType": "uint24",
                    "name": "",
                    "type": "uint24"
                }
            ],
            "name": "claimRewardOf",
            "outputs": [
                {
                    "internalType": "bool",
                    "name": "",
                    "type": "bool"
                }
            ],
            "stateMutability": "view",
            "type": "function"
        },
        {
            "inputs": [
                {
                    "internalType": "address",
                    "name": "token",
                    "type": "address"
                },
                {
                    "internalType": "uint256",
                    "name": "amount",
                    "type": "uint256"
                }
            ],
            "name": "deposit",
            "outputs": [],
            "stateMutability": "nonpayable",
            "type": "function"
        },
        {
            "inputs": [],
            "name": "divConst",
            "outputs": [
                {
                    "internalType": "uint32",
                    "name": "",
                    "type": "uint32"
                }
            ],
            "stateMutability": "view",
            "type": "function"
        },
        {
            "inputs": [],
            "name": "owner",
            "outputs": [
                {
                    "internalType": "address",
                    "name": "",
                    "type": "address"
                }
            ],
            "stateMutability": "view",
            "type": "function"
        },
        {
            "inputs": [],
            "name": "rewardToken",
            "outputs": [
                {
                    "internalType": "address",
                    "name": "",
                    "type": "address"
                }
            ],
            "stateMutability": "view",
            "type": "function"
        },
        {
            "inputs": [
                {
                    "internalType": "uint24",
                    "name": "",
                    "type": "uint24"
                }
            ],
            "name": "rewards",
            "outputs": [
                {
                    "internalType": "address",
                    "name": "token",
                    "type": "address"
                },
                {
                    "internalType": "uint256",
                    "name": "perAmount",
                    "type": "uint256"
                },
                {
                    "internalType": "uint256",
                    "name": "divConst",
                    "type": "uint256"
                },
                {
                    "internalType": "uint32",
                    "name": "timestamp",
                    "type": "uint32"
                }
            ],
            "stateMutability": "view",
            "type": "function"
        },
        {
            "inputs": [
                {
                    "internalType": "address",
                    "name": "_owner",
                    "type": "address"
                }
            ],
            "name": "setOwner",
            "outputs": [],
            "stateMutability": "nonpayable",
            "type": "function"
        },
        {
            "inputs": [
                {
                    "internalType": "uint24",
                    "name": "rewardNo",
                    "type": "uint24"
                },
                {
                    "internalType": "address",
                    "name": "token",
                    "type": "address"
                },
                {
                    "internalType": "uint256",
                    "name": "amount",
                    "type": "uint256"
                },
                {
                    "internalType": "uint256",
                    "name": "per",
                    "type": "uint256"
                },
                {
                    "internalType": "uint256",
                    "name": "div",
                    "type": "uint256"
                },
                {
                    "internalType": "uint32",
                    "name": "timestamp",
                    "type": "uint32"
                }
            ],
            "name": "setReward",
            "outputs": [],
            "stateMutability": "nonpayable",
            "type": "function"
        },
        {
            "inputs": [
                {
                    "internalType": "address",
                    "name": "token",
                    "type": "address"
                },
                {
                    "internalType": "uint256",
                    "name": "amount",
                    "type": "uint256"
                },
                {
                    "internalType": "uint8",
                    "name": "k",
                    "type": "uint8"
                }
            ],
            "name": "stakeToken",
            "outputs": [
                {
                    "internalType": "uint256",
                    "name": "",
                    "type": "uint256"
                }
            ],
            "stateMutability": "nonpayable",
            "type": "function"
        },
        {
            "inputs": [
                {
                    "internalType": "uint256",
                    "name": "",
                    "type": "uint256"
                }
            ],
            "name": "stakingDepositOf",
            "outputs": [
                {
                    "internalType": "address",
                    "name": "token",
                    "type": "address"
                },
                {
                    "internalType": "address",
                    "name": "staker",
                    "type": "address"
                },
                {
                    "internalType": "uint256",
                    "name": "amount",
                    "type": "uint256"
                },
                {
                    "internalType": "uint8",
                    "name": "k",
                    "type": "uint8"
                },
                {
                    "internalType": "uint32",
                    "name": "timestamp",
                    "type": "uint32"
                }
            ],
            "stateMutability": "view",
            "type": "function"
        },
        {
            "inputs": [
                {
                    "internalType": "address",
                    "name": "",
                    "type": "address"
                },
                {
                    "internalType": "uint256",
                    "name": "",
                    "type": "uint256"
                }
            ],
            "name": "stakingDepositsOf",
            "outputs": [
                {
                    "internalType": "uint256",
                    "name": "",
                    "type": "uint256"
                }
            ],
            "stateMutability": "view",
            "type": "function"
        },
        {
            "inputs": [],
            "name": "stakingNonce",
            "outputs": [
                {
                    "internalType": "uint256",
                    "name": "",
                    "type": "uint256"
                }
            ],
            "stateMutability": "view",
            "type": "function"
        },
        {
            "inputs": [
                {
                    "internalType": "uint256",
                    "name": "no",
                    "type": "uint256"
                }
            ],
            "name": "unstakeToken",
            "outputs": [
                {
                    "internalType": "uint256",
                    "name": "",
                    "type": "uint256"
                }
            ],
            "stateMutability": "nonpayable",
            "type": "function"
        },
        {
            "inputs": [
                {
                    "internalType": "address",
                    "name": "token",
                    "type": "address"
                },
                {
                    "internalType": "uint256",
                    "name": "amount",
                    "type": "uint256"
                }
            ],
            "name": "withdraw",
            "outputs": [],
            "stateMutability": "nonpayable",
            "type": "function"
        }
    ],
    "bytecode": "608060405234801561001057600080fd5b506040516113be3803806113be83398101604081905261002f91610067565b60078054336001600160a01b031991821617909155600580549091166001600160a01b03929092169190911790556000600155610097565b60006020828403121561007957600080fd5b81516001600160a01b038116811461009057600080fd5b9392505050565b611318806100a66000396000f3fe608060405234801561001057600080fd5b506004361061010b5760003560e01c80638da5cb5b116100a2578063c4d5ef4011610071578063c4d5ef40146102cc578063ebbc496514610341578063f3fef3a314610349578063f7888aec1461035c578063f7c618c11461038457600080fd5b80638da5cb5b146101ea5780639519fc0f14610215578063a78ca84d14610228578063c295eccf146102b957600080fd5b80636acdf789116100de5780636acdf789146101715780637e4856c41461017a5780637eb999d0146101995780638572acec146101d757600080fd5b806313af4035146101105780632cfb66881461012557806347e7ef241461014b5780636430d7b51461015e575b600080fd5b61012361011e366004610ff9565b610397565b005b61013861013336600461101b565b610404565b6040519081526020015b60405180910390f35b610123610159366004611034565b6105ce565b61013861016c366004611034565b610655565b61013860015481565b610184620f424081565b60405163ffffffff9091168152602001610142565b6101c76101a7366004611071565b600460209081526000928352604080842090915290825290205460ff1681565b6040519015158152602001610142565b6101386101e536600461109d565b610686565b6007546101fd906001600160a01b031681565b6040516001600160a01b039091168152602001610142565b6101236102233660046110e3565b610836565b61027d61023636600461101b565b600260208190526000918252604090912080546001820154928201546003909201546001600160a01b0391821693909116919060ff81169063ffffffff6101009091041685565b604080516001600160a01b0396871681529590941660208601529284019190915260ff16606083015263ffffffff16608082015260a001610142565b6101236102c7366004611071565b610966565b6103116102da36600461114f565b60066020526000908152604090208054600182015460028301546003909301546001600160a01b0390921692909163ffffffff1684565b604080516001600160a01b03909516855260208501939093529183015263ffffffff166060820152608001610142565b610123610c6b565b610123610357366004611034565b610cd9565b61013861036a36600461116a565b600060208181529281526040808220909352908152205481565b6005546101fd906001600160a01b031681565b6007546001600160a01b031633146103e25760405162461bcd60e51b81526020600482015260096024820152682327a92124a22222a760b91b60448201526064015b60405180910390fd5b600880546001600160a01b0319166001600160a01b0392909216919091179055565b600081815260026020526040812060018101546001600160a01b0316331461045a5760405162461bcd60e51b81526020600482015260096024820152683337b9313134b232b760b91b60448201526064016103d9565b60008160020154116104ae5760405162461bcd60e51b815260206004820152601760248201527f6e6f74206578697374206669786564206465706f73697400000000000000000060448201526064016103d9565b60038101544261010090910463ffffffff16106104fe5760405162461bcd60e51b815260206004820152600e60248201526d756e657870697265642074696d6560901b60448201526064016103d9565b600281015481546001600160a01b0316600090815260208181526040808320338452909152812080549091906105359084906111aa565b9091555050600060028281018290558482526020818152604080842080546001600160a01b031990811682556001820180549091169055928301939093556003909101805464ffffffffff19169055825491518581526001600160a01b039092169133917f99039fcf0a98f484616c5196ee8b2ecfa971babf0b519848289ea4db381f85f7910160405180910390a36002015492915050565b6105da82333084610db6565b6001600160a01b0382166000908152602081815260408083203384529091528120805483929061060b9084906111aa565b90915550506040518181526001600160a01b0383169033907f5548c837ab068cf56a2c2479df0882a4922fd203edb7517321831d95078c5f62906020015b60405180910390a35050565b6003602052816000526040600020818154811061067157600080fd5b90600052602060002001600091509150505481565b6000808260ff1611801561069d575060358260ff16105b6106d25760405162461bcd60e51b81526004016103d99060208082526004908201526318bf1a9960e11b604082015260600190565b6001600160a01b038416600090815260208181526040808320338452909152812080548592906107039084906111c3565b909155505060018054906000610718836111d6565b90915550506040805160a0810182526001600160a01b038616815233602082015290810184905260ff831660608201819052608082019061075c9062093a806111ef565b6107669042611217565b63ffffffff90811690915260018054600090815260026020818152604092839020865181546001600160a01b039182166001600160a01b03199182161783558884015183880180549184169190921617905587850151938201939093556060870151600390910180546080909801519096166101000264ffffffffff1990971660ff9091161795909517909355905490519081529086169133917f99039fcf0a98f484616c5196ee8b2ecfa971babf0b519848289ea4db381f85f7910160405180910390a3506001549392505050565b428163ffffffff161061084857600080fd5b6007546001600160a01b0316331461088e5760405162461bcd60e51b81526020600482015260096024820152683337b93134b23232b760b91b60448201526064016103d9565b6005546108a6906001600160a01b0316333087610db6565b604080516080810182526001600160a01b03878116808352602080840188815284860188815263ffffffff8881166060880190815262ffffff8f166000818152600687528a9020985189546001600160a01b0319169816979097178855925160018801559051600287015590516003909501805463ffffffff19169590911694909417909355925190815233917f81d31d795338386488957042facf712d8e09a03b4710287ef1e7820dee848f86910160405180910390a3505050505050565b600082815260046020908152604080832062ffffff8516845290915290205460ff16156109c75760405162461bcd60e51b815260206004820152600f60248201526e3430bb32903132b2b7103a30b5b2b760891b60448201526064016103d9565b600082815260026020818152604092839020835160a08101855281546001600160a01b039081168252600183015416928101839052928101549383019390935260039092015460ff81166060830152610100900463ffffffff166080820152903314610a615760405162461bcd60e51b81526020600482015260096024820152683337b9313134b232b760b91b60448201526064016103d9565b6000816060015160ff1662093a80610a7991906111ef565b8260800151610a88919061123b565b62ffffff841660009081526006602052604090206003015490915063ffffffff90811690821681118015610acc57508063ffffffff16836080015163ffffffff1610155b610b075760405162461bcd60e51b815260206004820152600c60248201526b657870697265642074696d6560a01b60448201526064016103d9565b600085815260046020908152604080832062ffffff881684528252808320805460ff1916600190811790915560068352818420825160808101845281546001600160a01b03168152918101549382019390935260028301549181019190915260039091015463ffffffff16606082015290610b86620f424060346111ef565b63ffffffff16610b9a620f424060346111ef565b6060870151610baf9060ff16620f42406111ef565b610bb99190611217565b63ffffffff168660400151610bce9190611258565b610bd8919061126f565b905060008260400151836020015183610bf19190611258565b610bfb919061126f565b600554909150610c15906001600160a01b03163383610ed0565b8551604080518a815262ffffff8a1660208201526001600160a01b039092169133917e1e8de8c43a172e03b3c48c7a66d5912c3ca54b6690eeb75a6458cf1b186508910160405180910390a35050505050505050565b6008546001600160a01b03163314610cb25760405162461bcd60e51b815260206004820152600a602482015269102327a92124a22222a760b11b60448201526064016103d9565b60088054600780546001600160a01b03199081166001600160a01b03841617909155169055565b6001600160a01b038216600090815260208181526040808320338452909152902054811115610d375760405162461bcd60e51b815260206004820152600a6024820152690dcdee840cadcdeeaced60b31b60448201526064016103d9565b6001600160a01b03821660009081526020818152604080832033845290915281208054839290610d689084906111c3565b90915550610d799050823383610ed0565b6040518181526001600160a01b0383169033907f9b1bfa7fa9ee420a16e124f794c35ac9f90472acc99140eb2f6447c714cad8eb90602001610649565b604080516001600160a01b0385811660248301528481166044830152606480830185905283518084039091018152608490920183526020820180516001600160e01b03166323b872dd60e01b1790529151600092839290881691610e1a9190611291565b6000604051808303816000865af19150503d8060008114610e57576040519150601f19603f3d011682016040523d82523d6000602084013e610e5c565b606091505b5091509150818015610e86575080511580610e86575080806020019051810190610e8691906112c0565b610ec85760405162461bcd60e51b81526020600482015260136024820152721d1c985b9cd9995c919c9bdb4819985a5b1959606a1b60448201526064016103d9565b505050505050565b604080516001600160a01b038481166024830152604480830185905283518084039091018152606490920183526020820180516001600160e01b031663a9059cbb60e01b1790529151600092839290871691610f2c9190611291565b6000604051808303816000865af19150503d8060008114610f69576040519150601f19603f3d011682016040523d82523d6000602084013e610f6e565b606091505b5091509150818015610f98575080511580610f98575080806020019051810190610f9891906112c0565b610fd65760405162461bcd60e51b815260206004820152600f60248201526e1514905394d1915497d19052531151608a1b60448201526064016103d9565b5050505050565b80356001600160a01b0381168114610ff457600080fd5b919050565b60006020828403121561100b57600080fd5b61101482610fdd565b9392505050565b60006020828403121561102d57600080fd5b5035919050565b6000806040838503121561104757600080fd5b61105083610fdd565b946020939093013593505050565b803562ffffff81168114610ff457600080fd5b6000806040838503121561108457600080fd5b823591506110946020840161105e565b90509250929050565b6000806000606084860312156110b257600080fd5b6110bb84610fdd565b925060208401359150604084013560ff811681146110d857600080fd5b809150509250925092565b60008060008060008060c087890312156110fc57600080fd5b6111058761105e565b955061111360208801610fdd565b945060408701359350606087013592506080870135915060a087013563ffffffff8116811461114157600080fd5b809150509295509295509295565b60006020828403121561116157600080fd5b6110148261105e565b6000806040838503121561117d57600080fd5b61118683610fdd565b915061109460208401610fdd565b634e487b7160e01b600052601160045260246000fd5b808201808211156111bd576111bd611194565b92915050565b818103818111156111bd576111bd611194565b6000600182016111e8576111e8611194565b5060010190565b63ffffffff81811683821602808216919082811461120f5761120f611194565b505092915050565b63ffffffff81811683821601908082111561123457611234611194565b5092915050565b63ffffffff82811682821603908082111561123457611234611194565b80820281158282048414176111bd576111bd611194565b60008261128c57634e487b7160e01b600052601260045260246000fd5b500490565b6000825160005b818110156112b25760208186018101518583015201611298565b506000920191825250919050565b6000602082840312156112d257600080fd5b8151801515811461101457600080fdfea2646970667358221220c52592b900545921cc7712d96d654072fb8e3d2931ac31c5f92fa7788618ccf364736f6c63430008110033",
    "sourcePath": "d:/contract/bridge/lockLp.sol",
    "compiler": {
        "name": "solc",
        "version": "0.8.17+commit.8df45f5f"
    },
    "functionHashes": {
        "acceptOwner()": "ebbc4965",
        "balanceOf(address,address)": "f7888aec",
        "claimReward(uint256,uint24)": "c295eccf",
        "claimRewardOf(uint256,uint24)": "7eb999d0",
        "deposit(address,uint256)": "47e7ef24",
        "divConst()": "7e4856c4",
        "owner()": "8da5cb5b",
        "rewardToken()": "f7c618c1",
        "rewards(uint24)": "c4d5ef40",
        "setOwner(address)": "13af4035",
        "setReward(uint24,address,uint256,uint256,uint256,uint32)": "9519fc0f",
        "stakeToken(address,uint256,uint8)": "8572acec",
        "stakingDepositOf(uint256)": "a78ca84d",
        "stakingDepositsOf(address,uint256)": "6430d7b5",
        "stakingNonce()": "6acdf789",
        "unstakeToken(uint256)": "2cfb6688",
        "withdraw(address,uint256)": "f3fef3a3"
    },
    "gasEstimates": {
        "creation": {
            "codeDepositCost": "977600",
            "executionCost": "infinite",
            "totalCost": "infinite"
        },
        "external": {
            "acceptOwner()": "50803",
            "balanceOf(address,address)": "infinite",
            "claimReward(uint256,uint24)": "infinite",
            "claimRewardOf(uint256,uint24)": "2684",
            "deposit(address,uint256)": "infinite",
            "divConst()": "249",
            "owner()": "2360",
            "rewardToken()": "2447",
            "rewards(uint24)": "8985",
            "setOwner(address)": "26735",
            "setReward(uint24,address,uint256,uint256,uint256,uint32)": "infinite",
            "stakeToken(address,uint256,uint8)": "152866",
            "stakingDepositOf(uint256)": "9038",
            "stakingDepositsOf(address,uint256)": "4823",
            "stakingNonce()": "2307",
            "unstakeToken(uint256)": "124316",
            "withdraw(address,uint256)": "infinite"
        },
        "internal": {
            "_safeTransfer(address,address,uint256)": "infinite",
            "_safeTransferFrom(address,address,address,uint256)": "infinite"
        }
    }
}