{
  "_format": "hh-sol-artifact-1",
  "contractName": "MultiSignWallet",
  "sourceName": "contracts/multiSignWallet.sol",
  "abi": [
    {
      "inputs": [
        {
          "internalType": "address[]",
          "name": "_signers",
          "type": "address[]"
        },
        {
          "internalType": "uint8",
          "name": "_requireCount",
          "type": "uint8"
        }
      ],
      "stateMutability": "nonpayable",
      "type": "constructor"
    },
    {
      "anonymous": false,
      "inputs": [
        {
          "indexed": false,
          "internalType": "uint8",
          "name": "changeRequireCount",
          "type": "uint8"
        }
      ],
      "name": "ChangeRequireCount",
      "type": "event"
    },
    {
      "anonymous": false,
      "inputs": [
        {
          "indexed": true,
          "internalType": "address",
          "name": "signer",
          "type": "address"
        }
      ],
      "name": "SignerAddition",
      "type": "event"
    },
    {
      "anonymous": false,
      "inputs": [
        {
          "indexed": true,
          "internalType": "address",
          "name": "signer",
          "type": "address"
        }
      ],
      "name": "SignerRemoval",
      "type": "event"
    },
    {
      "anonymous": false,
      "inputs": [
        {
          "indexed": true,
          "internalType": "address",
          "name": "sender",
          "type": "address"
        },
        {
          "indexed": true,
          "internalType": "address",
          "name": "to",
          "type": "address"
        },
        {
          "indexed": false,
          "internalType": "bytes32",
          "name": "symbol",
          "type": "bytes32"
        },
        {
          "indexed": false,
          "internalType": "uint256",
          "name": "amount",
          "type": "uint256"
        }
      ],
      "name": "Wrap",
      "type": "event"
    },
    {
      "inputs": [
        {
          "internalType": "address",
          "name": "signer",
          "type": "address"
        }
      ],
      "name": "addSigner",
      "outputs": [],
      "stateMutability": "nonpayable",
      "type": "function"
    },
    {
      "inputs": [],
      "name": "addingCount",
      "outputs": [
        {
          "internalType": "uint8",
          "name": "",
          "type": "uint8"
        }
      ],
      "stateMutability": "view",
      "type": "function"
    },
    {
      "inputs": [],
      "name": "addingSigner",
      "outputs": [
        {
          "internalType": "address",
          "name": "",
          "type": "address"
        }
      ],
      "stateMutability": "view",
      "type": "function"
    },
    {
      "inputs": [
        {
          "internalType": "uint8",
          "name": "newCount",
          "type": "uint8"
        }
      ],
      "name": "changeRequireCount",
      "outputs": [],
      "stateMutability": "nonpayable",
      "type": "function"
    },
    {
      "inputs": [],
      "name": "changingCount",
      "outputs": [
        {
          "internalType": "uint8",
          "name": "",
          "type": "uint8"
        }
      ],
      "stateMutability": "view",
      "type": "function"
    },
    {
      "inputs": [
        {
          "internalType": "address",
          "name": "",
          "type": "address"
        },
        {
          "internalType": "address",
          "name": "",
          "type": "address"
        }
      ],
      "name": "isAdded",
      "outputs": [
        {
          "internalType": "bool",
          "name": "",
          "type": "bool"
        }
      ],
      "stateMutability": "view",
      "type": "function"
    },
    {
      "inputs": [
        {
          "internalType": "address",
          "name": "",
          "type": "address"
        }
      ],
      "name": "isChangeCount",
      "outputs": [
        {
          "internalType": "bool",
          "name": "",
          "type": "bool"
        }
      ],
      "stateMutability": "view",
      "type": "function"
    },
    {
      "inputs": [
        {
          "internalType": "address",
          "name": "",
          "type": "address"
        },
        {
          "internalType": "uint8",
          "name": "",
          "type": "uint8"
        }
      ],
      "name": "isRemoved",
      "outputs": [
        {
          "internalType": "bool",
          "name": "",
          "type": "bool"
        }
      ],
      "stateMutability": "view",
      "type": "function"
    },
    {
      "inputs": [],
      "name": "newRequireCount",
      "outputs": [
        {
          "internalType": "uint8",
          "name": "",
          "type": "uint8"
        }
      ],
      "stateMutability": "view",
      "type": "function"
    },
    {
      "inputs": [
        {
          "internalType": "uint8",
          "name": "index",
          "type": "uint8"
        }
      ],
      "name": "removeSigner",
      "outputs": [],
      "stateMutability": "nonpayable",
      "type": "function"
    },
    {
      "inputs": [],
      "name": "removingCount",
      "outputs": [
        {
          "internalType": "uint8",
          "name": "",
          "type": "uint8"
        }
      ],
      "stateMutability": "view",
      "type": "function"
    },
    {
      "inputs": [],
      "name": "removingIndex",
      "outputs": [
        {
          "internalType": "uint8",
          "name": "",
          "type": "uint8"
        }
      ],
      "stateMutability": "view",
      "type": "function"
    },
    {
      "inputs": [],
      "name": "requireCount",
      "outputs": [
        {
          "internalType": "uint8",
          "name": "",
          "type": "uint8"
        }
      ],
      "stateMutability": "view",
      "type": "function"
    },
    {
      "inputs": [
        {
          "internalType": "bytes32",
          "name": "txid",
          "type": "bytes32"
        },
        {
          "internalType": "uint256",
          "name": "amount",
          "type": "uint256"
        },
        {
          "internalType": "address payable",
          "name": "to",
          "type": "address"
        }
      ],
      "name": "send",
      "outputs": [],
      "stateMutability": "nonpayable",
      "type": "function"
    },
    {
      "inputs": [
        {
          "internalType": "uint256",
          "name": "",
          "type": "uint256"
        }
      ],
      "name": "signers",
      "outputs": [
        {
          "internalType": "address",
          "name": "",
          "type": "address"
        }
      ],
      "stateMutability": "view",
      "type": "function"
    },
    {
      "inputs": [
        {
          "internalType": "address",
          "name": "to",
          "type": "address"
        },
        {
          "internalType": "bytes32",
          "name": "symbol",
          "type": "bytes32"
        }
      ],
      "name": "wrap",
      "outputs": [],
      "stateMutability": "payable",
      "type": "function"
    }
  ],
  "bytecode": "0x60806040523480156200001157600080fd5b5060405162002a5238038062002a5283398181016040528101906200003791906200050d565b818160005b82518160ff161015620001f457600060016000858460ff168151811062000068576200006762000573565b5b602002602001015173ffffffffffffffffffffffffffffffffffffffff1673ffffffffffffffffffffffffffffffffffffffff16815260200190815260200160002060009054906101000a900460ff1660ff16148015620001165750600073ffffffffffffffffffffffffffffffffffffffff16838260ff1681518110620000f557620000f462000573565b5b602002602001015173ffffffffffffffffffffffffffffffffffffffff1614155b62000158576040517f08c379a00000000000000000000000000000000000000000000000000000000081526004016200014f9062000603565b60405180910390fd5b60018162000167919062000654565b60016000858460ff168151811062000184576200018362000573565b5b602002602001015173ffffffffffffffffffffffffffffffffffffffff1673ffffffffffffffffffffffffffffffffffffffff16815260200190815260200160002060006101000a81548160ff021916908360ff1602179055508080620001eb9062000690565b9150506200003c565b5081600090805190602001906200020d92919062000233565b5080600260006101000a81548160ff021916908360ff16021790555050505050620006be565b828054828255906000526020600020908101928215620002af579160200282015b82811115620002ae5782518260006101000a81548173ffffffffffffffffffffffffffffffffffffffff021916908373ffffffffffffffffffffffffffffffffffffffff1602179055509160200191906001019062000254565b5b509050620002be9190620002c2565b5090565b5b80821115620002dd576000816000905550600101620002c3565b5090565b6000604051905090565b600080fd5b600080fd5b600080fd5b6000601f19601f8301169050919050565b7f4e487b7100000000000000000000000000000000000000000000000000000000600052604160045260246000fd5b6200034582620002fa565b810181811067ffffffffffffffff821117156200036757620003666200030b565b5b80604052505050565b60006200037c620002e1565b90506200038a82826200033a565b919050565b600067ffffffffffffffff821115620003ad57620003ac6200030b565b5b602082029050602081019050919050565b600080fd5b600073ffffffffffffffffffffffffffffffffffffffff82169050919050565b6000620003f082620003c3565b9050919050565b6200040281620003e3565b81146200040e57600080fd5b50565b6000815190506200042281620003f7565b92915050565b60006200043f62000439846200038f565b62000370565b90508083825260208201905060208402830185811115620004655762000464620003be565b5b835b818110156200049257806200047d888262000411565b84526020840193505060208101905062000467565b5050509392505050565b600082601f830112620004b457620004b3620002f5565b5b8151620004c684826020860162000428565b91505092915050565b600060ff82169050919050565b620004e781620004cf565b8114620004f357600080fd5b50565b6000815190506200050781620004dc565b92915050565b60008060408385031215620005275762000526620002eb565b5b600083015167ffffffffffffffff811115620005485762000547620002f0565b5b62000556858286016200049c565b92505060206200056985828601620004f6565b9150509250929050565b7f4e487b7100000000000000000000000000000000000000000000000000000000600052603260045260246000fd5b600082825260208201905092915050565b7f696e76616c6964206f72206475706c696361746564207369676e657200000000600082015250565b6000620005eb601c83620005a2565b9150620005f882620005b3565b602082019050919050565b600060208201905081810360008301526200061e81620005dc565b9050919050565b7f4e487b7100000000000000000000000000000000000000000000000000000000600052601160045260246000fd5b60006200066182620004cf565b91506200066e83620004cf565b9250828201905060ff8111156200068a576200068962000625565b5b92915050565b60006200069d82620004cf565b915060ff8203620006b357620006b262000625565b5b600182019050919050565b61238480620006ce6000396000f3fe6080604052600436106100f35760003560e01c80636561d53c1161008a578063a1ed637a11610059578063a1ed637a1461032c578063b04e670d14610357578063eb12d61e14610373578063f770a5db1461039c576100f3565b80636561d53c1461027057806368d02417146102ad57806383051fde146102d85780639bc5362e14610303576100f3565b80633d5655f8116100c65780633d5655f8146101c4578063458a3add146101ef5780635003b3331461021a57806354ca441614610245576100f3565b806307a4145b146100f8578063092d1148146101215780632079fb9a1461014a57806326fbcf9314610187575b600080fd5b34801561010457600080fd5b5061011f600480360381019061011a91906119e5565b6103d9565b005b34801561012d57600080fd5b5061014860048036038101906101439190611adc565b610751565b005b34801561015657600080fd5b50610171600480360381019061016c9190611b2f565b610c56565b60405161017e9190611b7d565b60405180910390f35b34801561019357600080fd5b506101ae60048036038101906101a99190611bc4565b610c95565b6040516101bb9190611c0c565b60405180910390f35b3480156101d057600080fd5b506101d9610cb5565b6040516101e69190611b7d565b60405180910390f35b3480156101fb57600080fd5b50610204610cdb565b6040516102119190611c36565b60405180910390f35b34801561022657600080fd5b5061022f610cee565b60405161023c9190611c36565b60405180910390f35b34801561025157600080fd5b5061025a610d01565b6040516102679190611c36565b60405180910390f35b34801561027c57600080fd5b5061029760048036038101906102929190611c51565b610d14565b6040516102a49190611c0c565b60405180910390f35b3480156102b957600080fd5b506102c2610d43565b6040516102cf9190611c36565b60405180910390f35b3480156102e457600080fd5b506102ed610d56565b6040516102fa9190611c36565b60405180910390f35b34801561030f57600080fd5b5061032a600480360381019061032591906119e5565b610d69565b005b34801561033857600080fd5b5061034161130a565b60405161034e9190611c36565b60405180910390f35b610371600480360381019061036c9190611c91565b61131d565b005b34801561037f57600080fd5b5061039a60048036038101906103959190611bc4565b611388565b005b3480156103a857600080fd5b506103c360048036038101906103be9190611cd1565b611978565b6040516103d09190611c0c565b60405180910390f35b6000600160003373ffffffffffffffffffffffffffffffffffffffff1673ffffffffffffffffffffffffffffffffffffffff16815260200190815260200160002060009054906101000a900460ff1660ff161161046b576040517f08c379a000000000000000000000000000000000000000000000000000000000815260040161046290611d6e565b60405180910390fd5b6000600660009054906101000a900460ff1660ff160361055e576000805490508160ff1611156104d0576040517f08c379a00000000000000000000000000000000000000000000000000000000081526004016104c790611dda565b60405180910390fd5b8060ff16600660009054906101000a9050505060005b6000805490508160ff16101561055857600760003373ffffffffffffffffffffffffffffffffffffffff1673ffffffffffffffffffffffffffffffffffffffff16815260200190815260200160002060006101000a81549060ff0219169055808061055090611e29565b9150506104e6565b506105b6565b600660009054906101000a900460ff1660ff168160ff16146105b5576040517f08c379a00000000000000000000000000000000000000000000000000000000081526004016105ac90611e9e565b60405180910390fd5b5b600760003373ffffffffffffffffffffffffffffffffffffffff1673ffffffffffffffffffffffffffffffffffffffff16815260200190815260200160002060009054906101000a900460ff16610698576001600760003373ffffffffffffffffffffffffffffffffffffffff1673ffffffffffffffffffffffffffffffffffffffff16815260200190815260200160002060006101000a81548160ff0219169083151502179055506006600181819054906101000a900460ff168092919061067e90611e29565b91906101000a81548160ff021916908360ff160217905550505b600260009054906101000a900460ff1660ff16600660019054906101000a900460ff1660ff161061074e5780600260006101000a81548160ff021916908360ff1602179055506000600660006101000a81548160ff021916908360ff1602179055506000600660016101000a81548160ff021916908360ff1602179055507f971ed33ab126ac4c0a07a18b84ed2990cde2ae87b25cd5009c84e7e5c9c8cffd816040516107459190611c36565b60405180910390a15b50565b6000600160003373ffffffffffffffffffffffffffffffffffffffff1673ffffffffffffffffffffffffffffffffffffffff16815260200190815260200160002060009054906101000a900460ff1660ff16116107e3576040517f08c379a00000000000000000000000000000000000000000000000000000000081526004016107da90611d6e565b60405180910390fd5b6008600084815260200190815260200160002060030160009054906101000a900460ff1615610847576040517f08c379a000000000000000000000000000000000000000000000000000000000815260040161083e90611f0a565b60405180910390fd5b600073ffffffffffffffffffffffffffffffffffffffff166008600085815260200190815260200160002060010160009054906101000a900473ffffffffffffffffffffffffffffffffffffffff1673ffffffffffffffffffffffffffffffffffffffff16036109825760405180608001604052808381526020018273ffffffffffffffffffffffffffffffffffffffff1681526020016000815260200160001515815250600860008581526020019081526020016000206000820151816000015560208201518160010160006101000a81548173ffffffffffffffffffffffffffffffffffffffff021916908373ffffffffffffffffffffffffffffffffffffffff1602179055506040820151816002015560608201518160030160006101000a81548160ff021916908315150217905550905050610a48565b816008600085815260200190815260200160002060000154148015610a0857508073ffffffffffffffffffffffffffffffffffffffff166008600085815260200190815260200160002060010160009054906101000a900473ffffffffffffffffffffffffffffffffffffffff1673ffffffffffffffffffffffffffffffffffffffff16145b610a47576040517f08c379a0000000000000000000000000000000000000000000000000000000008152600401610a3e90611f76565b60405180910390fd5b5b600960003373ffffffffffffffffffffffffffffffffffffffff1673ffffffffffffffffffffffffffffffffffffffff168152602001908152602001600020600084815260200190815260200160002060009054906101000a900460ff16610b40576001600960003373ffffffffffffffffffffffffffffffffffffffff1673ffffffffffffffffffffffffffffffffffffffff168152602001908152602001600020600085815260200190815260200160002060006101000a81548160ff021916908315150217905550600860008481526020019081526020016000206002016000815480929190610b3a90611f96565b91905055505b600260009054906101000a900460ff1660ff16600860008581526020019081526020016000206002015410610c505760016008600085815260200190815260200160002060030160006101000a81548160ff02191690831515021790555060008173ffffffffffffffffffffffffffffffffffffffff1683604051610bc49061200f565b60006040518083038185875af1925050503d8060008114610c01576040519150601f19603f3d011682016040523d82523d6000602084013e610c06565b606091505b5050905080610c4a576040517f08c379a0000000000000000000000000000000000000000000000000000000008152600401610c4190612070565b60405180910390fd5b50610c51565b5b505050565b60008181548110610c6657600080fd5b906000526020600020016000915054906101000a900473ffffffffffffffffffffffffffffffffffffffff1681565b60076020528060005260406000206000915054906101000a900460ff1681565b600260019054906101000a900473ffffffffffffffffffffffffffffffffffffffff1681565b600660009054906101000a900460ff1681565b600460009054906101000a900460ff1681565b600660019054906101000a900460ff1681565b60056020528160005260406000206020528060005260406000206000915091509054906101000a900460ff1681565b600460019054906101000a900460ff1681565b600260009054906101000a900460ff1681565b6000600160003373ffffffffffffffffffffffffffffffffffffffff1673ffffffffffffffffffffffffffffffffffffffff16815260200190815260200160002060009054906101000a900460ff1660ff1611610dfb576040517f08c379a0000000000000000000000000000000000000000000000000000000008152600401610df290611d6e565b60405180910390fd5b6000600460009054906101000a900460ff1660ff1603610f04576000805490508160ff1610610e5f576040517f08c379a0000000000000000000000000000000000000000000000000000000008152600401610e56906120dc565b60405180910390fd5b8060ff16600460009054906101000a9050505060005b6000805490508160ff161015610efe57600560003373ffffffffffffffffffffffffffffffffffffffff1673ffffffffffffffffffffffffffffffffffffffff16815260200190815260200160002060008260ff1660ff16815260200190815260200160002060006101000a81549060ff02191690558080610ef690611e29565b915050610e75565b50610f5c565b8060ff16600460009054906101000a900460ff1660ff1614610f5b576040517f08c379a0000000000000000000000000000000000000000000000000000000008152600401610f5290612148565b60405180910390fd5b5b600560003373ffffffffffffffffffffffffffffffffffffffff1673ffffffffffffffffffffffffffffffffffffffff16815260200190815260200160002060008260ff1660ff16815260200190815260200160002060009054906101000a900460ff1661106c576001600560003373ffffffffffffffffffffffffffffffffffffffff1673ffffffffffffffffffffffffffffffffffffffff16815260200190815260200160002060008360ff1660ff16815260200190815260200160002060006101000a81548160ff0219169083151502179055506004600181819054906101000a900460ff168092919061105290611e29565b91906101000a81548160ff021916908360ff160217905550505b600260009054906101000a900460ff1660ff16600460019054906101000a900460ff1660ff1610611307576000808260ff16815481106110af576110ae612168565b5b9060005260206000200160009054906101000a900473ffffffffffffffffffffffffffffffffffffffff16905060008060016000805490506110f19190612197565b8154811061110257611101612168565b5b9060005260206000200160009054906101000a900473ffffffffffffffffffffffffffffffffffffffff1690508060008460ff168154811061114757611146612168565b5b9060005260206000200160006101000a81548173ffffffffffffffffffffffffffffffffffffffff021916908373ffffffffffffffffffffffffffffffffffffffff16021790555060018361119c91906121cb565b600160008373ffffffffffffffffffffffffffffffffffffffff1673ffffffffffffffffffffffffffffffffffffffff16815260200190815260200160002060006101000a81548160ff021916908360ff160217905550600160008373ffffffffffffffffffffffffffffffffffffffff1673ffffffffffffffffffffffffffffffffffffffff16815260200190815260200160002060006101000a81549060ff0219169055600080548061125457611253612200565b5b6001900381819060005260206000200160006101000a81549073ffffffffffffffffffffffffffffffffffffffff021916905590556000600460006101000a81548160ff021916908360ff1602179055506000600460016101000a81548160ff021916908360ff1602179055508173ffffffffffffffffffffffffffffffffffffffff167fa2a6e2b8f0cf0f627456034557b0149227a355af53f5bc8ce7e496bfbe73c0a960405160405180910390a250505b50565b600260159054906101000a900460ff1681565b8173ffffffffffffffffffffffffffffffffffffffff163373ffffffffffffffffffffffffffffffffffffffff167fc07a5330986048e0e2b01e559656897bc3dca20f6d8a2d10bae879bf626835f5833460405161137c92919061224d565b60405180910390a35050565b6000600160003373ffffffffffffffffffffffffffffffffffffffff1673ffffffffffffffffffffffffffffffffffffffff16815260200190815260200160002060009054906101000a900460ff1660ff161161141a576040517f08c379a000000000000000000000000000000000000000000000000000000000815260040161141190611d6e565b60405180910390fd5b600073ffffffffffffffffffffffffffffffffffffffff16600260019054906101000a900473ffffffffffffffffffffffffffffffffffffffff1673ffffffffffffffffffffffffffffffffffffffff16036115fb576000600160008373ffffffffffffffffffffffffffffffffffffffff1673ffffffffffffffffffffffffffffffffffffffff16815260200190815260200160002060009054906101000a900460ff1660ff1614611502576040517f08c379a00000000000000000000000000000000000000000000000000000000081526004016114f9906122c2565b60405180910390fd5b80600260016101000a81548173ffffffffffffffffffffffffffffffffffffffff021916908373ffffffffffffffffffffffffffffffffffffffff16021790555060005b6000805490508160ff1610156115f557600360003373ffffffffffffffffffffffffffffffffffffffff1673ffffffffffffffffffffffffffffffffffffffff16815260200190815260200160002060008373ffffffffffffffffffffffffffffffffffffffff1673ffffffffffffffffffffffffffffffffffffffff16815260200190815260200160002060006101000a81549060ff021916905580806115ed90611e29565b915050611546565b5061168c565b8073ffffffffffffffffffffffffffffffffffffffff16600260019054906101000a900473ffffffffffffffffffffffffffffffffffffffff1673ffffffffffffffffffffffffffffffffffffffff161461168b576040517f08c379a00000000000000000000000000000000000000000000000000000000081526004016116829061232e565b60405180910390fd5b5b600360003373ffffffffffffffffffffffffffffffffffffffff1673ffffffffffffffffffffffffffffffffffffffff16815260200190815260200160002060008273ffffffffffffffffffffffffffffffffffffffff1673ffffffffffffffffffffffffffffffffffffffff16815260200190815260200160002060009054906101000a900460ff166117e8576001600360003373ffffffffffffffffffffffffffffffffffffffff1673ffffffffffffffffffffffffffffffffffffffff16815260200190815260200160002060008373ffffffffffffffffffffffffffffffffffffffff1673ffffffffffffffffffffffffffffffffffffffff16815260200190815260200160002060006101000a81548160ff0219169083151502179055506002601581819054906101000a900460ff16809291906117ce90611e29565b91906101000a81548160ff021916908360ff160217905550505b600260009054906101000a900460ff1660ff16600260159054906101000a900460ff1660ff1610611975576000819080600181540180825580915050600190039060005260206000200160009091909190916101000a81548173ffffffffffffffffffffffffffffffffffffffff021916908373ffffffffffffffffffffffffffffffffffffffff160217905550600080549050600160008373ffffffffffffffffffffffffffffffffffffffff1673ffffffffffffffffffffffffffffffffffffffff16815260200190815260200160002060006101000a81548160ff021916908360ff1602179055506000600260016101000a81548173ffffffffffffffffffffffffffffffffffffffff021916908373ffffffffffffffffffffffffffffffffffffffff1602179055506000600260156101000a81548160ff021916908360ff1602179055508073ffffffffffffffffffffffffffffffffffffffff167f8191ca9d665b824fc53160f3727e7ec3a5330e4a67e1db6c4a86678956dfef1960405160405180910390a25b50565b60036020528160005260406000206020528060005260406000206000915091509054906101000a900460ff1681565b600080fd5b600060ff82169050919050565b6119c2816119ac565b81146119cd57600080fd5b50565b6000813590506119df816119b9565b92915050565b6000602082840312156119fb576119fa6119a7565b5b6000611a09848285016119d0565b91505092915050565b6000819050919050565b611a2581611a12565b8114611a3057600080fd5b50565b600081359050611a4281611a1c565b92915050565b6000819050919050565b611a5b81611a48565b8114611a6657600080fd5b50565b600081359050611a7881611a52565b92915050565b600073ffffffffffffffffffffffffffffffffffffffff82169050919050565b6000611aa982611a7e565b9050919050565b611ab981611a9e565b8114611ac457600080fd5b50565b600081359050611ad681611ab0565b92915050565b600080600060608486031215611af557611af46119a7565b5b6000611b0386828701611a33565b9350506020611b1486828701611a69565b9250506040611b2586828701611ac7565b9150509250925092565b600060208284031215611b4557611b446119a7565b5b6000611b5384828501611a69565b91505092915050565b6000611b6782611a7e565b9050919050565b611b7781611b5c565b82525050565b6000602082019050611b926000830184611b6e565b92915050565b611ba181611b5c565b8114611bac57600080fd5b50565b600081359050611bbe81611b98565b92915050565b600060208284031215611bda57611bd96119a7565b5b6000611be884828501611baf565b91505092915050565b60008115159050919050565b611c0681611bf1565b82525050565b6000602082019050611c216000830184611bfd565b92915050565b611c30816119ac565b82525050565b6000602082019050611c4b6000830184611c27565b92915050565b60008060408385031215611c6857611c676119a7565b5b6000611c7685828601611baf565b9250506020611c87858286016119d0565b9150509250929050565b60008060408385031215611ca857611ca76119a7565b5b6000611cb685828601611baf565b9250506020611cc785828601611a33565b9150509250929050565b60008060408385031215611ce857611ce76119a7565b5b6000611cf685828601611baf565b9250506020611d0785828601611baf565b9150509250929050565b600082825260208201905092915050565b7f6e6f74207369676e657200000000000000000000000000000000000000000000600082015250565b6000611d58600a83611d11565b9150611d6382611d22565b602082019050919050565b60006020820190508181036000830152611d8781611d4b565b9050919050565b7f77726f6e6720636f756e74000000000000000000000000000000000000000000600082015250565b6000611dc4600b83611d11565b9150611dcf82611d8e565b602082019050919050565b60006020820190508181036000830152611df381611db7565b9050919050565b7f4e487b7100000000000000000000000000000000000000000000000000000000600052601160045260246000fd5b6000611e34826119ac565b915060ff8203611e4757611e46611dfa565b5b600182019050919050565b7f6d69736d61746368656420636f756e7400000000000000000000000000000000600082015250565b6000611e88601083611d11565b9150611e9382611e52565b602082019050919050565b60006020820190508181036000830152611eb781611e7b565b9050919050565b7f73656e74206f7665720000000000000000000000000000000000000000000000600082015250565b6000611ef4600983611d11565b9150611eff82611ebe565b602082019050919050565b60006020820190508181036000830152611f2381611ee7565b9050919050565b7f696e76616c6964207472616e7366657200000000000000000000000000000000600082015250565b6000611f60601083611d11565b9150611f6b82611f2a565b602082019050919050565b60006020820190508181036000830152611f8f81611f53565b9050919050565b6000611fa182611a48565b91507fffffffffffffffffffffffffffffffffffffffffffffffffffffffffffffffff8203611fd357611fd2611dfa565b5b600182019050919050565b600081905092915050565b50565b6000611ff9600083611fde565b915061200482611fe9565b600082019050919050565b600061201a82611fec565b9150819050919050565b7f7472616e73666572206661696c65640000000000000000000000000000000000600082015250565b600061205a600f83611d11565b915061206582612024565b602082019050919050565b600060208201905081810360008301526120898161204d565b9050919050565b7f77726f6e6720696e646578000000000000000000000000000000000000000000600082015250565b60006120c6600b83611d11565b91506120d182612090565b602082019050919050565b600060208201905081810360008301526120f5816120b9565b9050919050565b7f6d69736d61746368656420696e64657800000000000000000000000000000000600082015250565b6000612132601083611d11565b915061213d826120fc565b602082019050919050565b6000602082019050818103600083015261216181612125565b9050919050565b7f4e487b7100000000000000000000000000000000000000000000000000000000600052603260045260246000fd5b60006121a282611a48565b91506121ad83611a48565b92508282039050818111156121c5576121c4611dfa565b5b92915050565b60006121d6826119ac565b91506121e1836119ac565b9250828201905060ff8111156121fa576121f9611dfa565b5b92915050565b7f4e487b7100000000000000000000000000000000000000000000000000000000600052603160045260246000fd5b61223881611a12565b82525050565b61224781611a48565b82525050565b6000604082019050612262600083018561222f565b61226f602083018461223e565b9392505050565b7f616c726561647920657869737400000000000000000000000000000000000000600082015250565b60006122ac600d83611d11565b91506122b782612276565b602082019050919050565b600060208201905081810360008301526122db8161229f565b9050919050565b7f77726f6e67207369676e65720000000000000000000000000000000000000000600082015250565b6000612318600c83611d11565b9150612323826122e2565b602082019050919050565b600060208201905081810360008301526123478161230b565b905091905056fea2646970667358221220d3067bfc72990dc7fa7b60041c12cade6c7cdb72dd5fb475adf84f4f16cf205a64736f6c63430008110033",
  "linkReferences": {},
  "deployedLinkReferences": {}
}