{
  "_format": "hh-sol-artifact-1",
  "contractName": "MultiSignWallet",
  "sourceName": "contracts/multiSignWallet.sol",
  "abi": [
    {
      "inputs": [
        {
          "internalType": "address[]",
          "name": "_signers",
          "type": "address[]"
        },
        {
          "internalType": "uint8",
          "name": "_requireCount",
          "type": "uint8"
        }
      ],
      "stateMutability": "nonpayable",
      "type": "constructor"
    },
    {
      "anonymous": false,
      "inputs": [
        {
          "indexed": false,
          "internalType": "uint8",
          "name": "changeRequireCount",
          "type": "uint8"
        }
      ],
      "name": "ChangeRequireCount",
      "type": "event"
    },
    {
      "anonymous": false,
      "inputs": [
        {
          "indexed": true,
          "internalType": "address",
          "name": "signer",
          "type": "address"
        }
      ],
      "name": "SignerAddition",
      "type": "event"
    },
    {
      "anonymous": false,
      "inputs": [
        {
          "indexed": true,
          "internalType": "address",
          "name": "signer",
          "type": "address"
        }
      ],
      "name": "SignerRemoval",
      "type": "event"
    },
    {
      "anonymous": false,
      "inputs": [
        {
          "indexed": true,
          "internalType": "address",
          "name": "sender",
          "type": "address"
        },
        {
          "indexed": true,
          "internalType": "address",
          "name": "to",
          "type": "address"
        },
        {
          "indexed": false,
          "internalType": "bytes32",
          "name": "symbol",
          "type": "bytes32"
        },
        {
          "indexed": false,
          "internalType": "uint256",
          "name": "amount",
          "type": "uint256"
        }
      ],
      "name": "Wrap",
      "type": "event"
    },
    {
      "inputs": [
        {
          "internalType": "uint256",
          "name": "number",
          "type": "uint256"
        },
        {
          "internalType": "uint8",
          "name": "newCount",
          "type": "uint8"
        }
      ],
      "name": "agreeCountProposal",
      "outputs": [],
      "stateMutability": "nonpayable",
      "type": "function"
    },
    {
      "inputs": [
        {
          "internalType": "uint256",
          "name": "number",
          "type": "uint256"
        },
        {
          "internalType": "int8",
          "name": "d",
          "type": "int8"
        },
        {
          "internalType": "address",
          "name": "signer",
          "type": "address"
        }
      ],
      "name": "agreeSignerProposal",
      "outputs": [],
      "stateMutability": "nonpayable",
      "type": "function"
    },
    {
      "inputs": [
        {
          "internalType": "uint256",
          "name": "",
          "type": "uint256"
        }
      ],
      "name": "countProposals",
      "outputs": [
        {
          "internalType": "uint8",
          "name": "newCount",
          "type": "uint8"
        },
        {
          "internalType": "uint8",
          "name": "agreedCount",
          "type": "uint8"
        },
        {
          "internalType": "uint256",
          "name": "overTime",
          "type": "uint256"
        }
      ],
      "stateMutability": "view",
      "type": "function"
    },
    {
      "inputs": [
        {
          "internalType": "uint256",
          "name": "",
          "type": "uint256"
        },
        {
          "internalType": "address",
          "name": "",
          "type": "address"
        }
      ],
      "name": "isCountProposalAgreed",
      "outputs": [
        {
          "internalType": "bool",
          "name": "",
          "type": "bool"
        }
      ],
      "stateMutability": "view",
      "type": "function"
    },
    {
      "inputs": [
        {
          "internalType": "uint256",
          "name": "",
          "type": "uint256"
        },
        {
          "internalType": "address",
          "name": "",
          "type": "address"
        }
      ],
      "name": "isSignerProposalAgreed",
      "outputs": [
        {
          "internalType": "bool",
          "name": "",
          "type": "bool"
        }
      ],
      "stateMutability": "view",
      "type": "function"
    },
    {
      "inputs": [],
      "name": "overTime",
      "outputs": [
        {
          "internalType": "uint256",
          "name": "",
          "type": "uint256"
        }
      ],
      "stateMutability": "view",
      "type": "function"
    },
    {
      "inputs": [],
      "name": "requireCount",
      "outputs": [
        {
          "internalType": "uint8",
          "name": "",
          "type": "uint8"
        }
      ],
      "stateMutability": "view",
      "type": "function"
    },
    {
      "inputs": [
        {
          "internalType": "bytes32",
          "name": "txid",
          "type": "bytes32"
        },
        {
          "internalType": "uint256",
          "name": "amount",
          "type": "uint256"
        },
        {
          "internalType": "address payable",
          "name": "to",
          "type": "address"
        }
      ],
      "name": "send",
      "outputs": [],
      "stateMutability": "nonpayable",
      "type": "function"
    },
    {
      "inputs": [
        {
          "internalType": "uint256",
          "name": "",
          "type": "uint256"
        }
      ],
      "name": "signerProposals",
      "outputs": [
        {
          "internalType": "int8",
          "name": "d",
          "type": "int8"
        },
        {
          "internalType": "address",
          "name": "signer",
          "type": "address"
        },
        {
          "internalType": "uint8",
          "name": "agreedCount",
          "type": "uint8"
        },
        {
          "internalType": "uint256",
          "name": "overTime",
          "type": "uint256"
        }
      ],
      "stateMutability": "view",
      "type": "function"
    },
    {
      "inputs": [
        {
          "internalType": "uint256",
          "name": "",
          "type": "uint256"
        }
      ],
      "name": "signers",
      "outputs": [
        {
          "internalType": "address",
          "name": "",
          "type": "address"
        }
      ],
      "stateMutability": "view",
      "type": "function"
    },
    {
      "inputs": [
        {
          "internalType": "uint8",
          "name": "newCount",
          "type": "uint8"
        }
      ],
      "name": "submitCountProposal",
      "outputs": [
        {
          "internalType": "uint256",
          "name": "",
          "type": "uint256"
        }
      ],
      "stateMutability": "nonpayable",
      "type": "function"
    },
    {
      "inputs": [
        {
          "internalType": "int8",
          "name": "d",
          "type": "int8"
        },
        {
          "internalType": "address",
          "name": "signer",
          "type": "address"
        }
      ],
      "name": "submitSignerProposal",
      "outputs": [
        {
          "internalType": "uint256",
          "name": "",
          "type": "uint256"
        }
      ],
      "stateMutability": "nonpayable",
      "type": "function"
    },
    {
      "inputs": [
        {
          "internalType": "address",
          "name": "to",
          "type": "address"
        },
        {
          "internalType": "bytes32",
          "name": "symbol",
          "type": "bytes32"
        }
      ],
      "name": "wrap",
      "outputs": [],
      "stateMutability": "payable",
      "type": "function"
    }
  ],
  "bytecode": "0x60806040523480156200001157600080fd5b5060405162002dbb38038062002dbb833981810160405281019062000037919062000568565b818160005b82518160ff161015620001f457600060016000858460ff1681518110620000685762000067620005ce565b5b602002602001015173ffffffffffffffffffffffffffffffffffffffff1673ffffffffffffffffffffffffffffffffffffffff16815260200190815260200160002060009054906101000a900460ff1660ff16148015620001165750600073ffffffffffffffffffffffffffffffffffffffff16838260ff1681518110620000f557620000f4620005ce565b5b602002602001015173ffffffffffffffffffffffffffffffffffffffff1614155b62000158576040517f08c379a00000000000000000000000000000000000000000000000000000000081526004016200014f906200065e565b60405180910390fd5b600181620001679190620006af565b60016000858460ff1681518110620001845762000183620005ce565b5b602002602001015173ffffffffffffffffffffffffffffffffffffffff1673ffffffffffffffffffffffffffffffffffffffff16815260200190815260200160002060006101000a81548160ff021916908360ff1602179055508080620001eb90620006eb565b9150506200003c565b5081600090805190602001906200020d9291906200028e565b50600260008054905062000222919062000752565b8160ff161162000269576040517f08c379a00000000000000000000000000000000000000000000000000000000081526004016200026090620007da565b60405180910390fd5b80600260006101000a81548160ff021916908360ff16021790555050505050620007fc565b8280548282559060005260206000209081019282156200030a579160200282015b82811115620003095782518260006101000a81548173ffffffffffffffffffffffffffffffffffffffff021916908373ffffffffffffffffffffffffffffffffffffffff16021790555091602001919060010190620002af565b5b5090506200031991906200031d565b5090565b5b80821115620003385760008160009055506001016200031e565b5090565b6000604051905090565b600080fd5b600080fd5b600080fd5b6000601f19601f8301169050919050565b7f4e487b7100000000000000000000000000000000000000000000000000000000600052604160045260246000fd5b620003a08262000355565b810181811067ffffffffffffffff82111715620003c257620003c162000366565b5b80604052505050565b6000620003d76200033c565b9050620003e5828262000395565b919050565b600067ffffffffffffffff82111562000408576200040762000366565b5b602082029050602081019050919050565b600080fd5b600073ffffffffffffffffffffffffffffffffffffffff82169050919050565b60006200044b826200041e565b9050919050565b6200045d816200043e565b81146200046957600080fd5b50565b6000815190506200047d8162000452565b92915050565b60006200049a6200049484620003ea565b620003cb565b90508083825260208201905060208402830185811115620004c057620004bf62000419565b5b835b81811015620004ed5780620004d888826200046c565b845260208401935050602081019050620004c2565b5050509392505050565b600082601f8301126200050f576200050e62000350565b5b81516200052184826020860162000483565b91505092915050565b600060ff82169050919050565b62000542816200052a565b81146200054e57600080fd5b50565b600081519050620005628162000537565b92915050565b6000806040838503121562000582576200058162000346565b5b600083015167ffffffffffffffff811115620005a357620005a26200034b565b5b620005b185828601620004f7565b9250506020620005c48582860162000551565b9150509250929050565b7f4e487b7100000000000000000000000000000000000000000000000000000000600052603260045260246000fd5b600082825260208201905092915050565b7f696e76616c6964206f72206475706c696361746564207369676e657200000000600082015250565b600062000646601c83620005fd565b915062000653826200060e565b602082019050919050565b60006020820190508181036000830152620006798162000637565b9050919050565b7f4e487b7100000000000000000000000000000000000000000000000000000000600052601160045260246000fd5b6000620006bc826200052a565b9150620006c9836200052a565b9250828201905060ff811115620006e557620006e462000680565b5b92915050565b6000620006f8826200052a565b915060ff82036200070e576200070d62000680565b5b600182019050919050565b6000819050919050565b7f4e487b7100000000000000000000000000000000000000000000000000000000600052601260045260246000fd5b60006200075f8262000719565b91506200076c8362000719565b9250826200077f576200077e62000723565b5b828204905092915050565b7f746f6f20736d616c6c2072657175697265436f756e7400000000000000000000600082015250565b6000620007c2601683620005fd565b9150620007cf826200078a565b602082019050919050565b60006020820190508181036000830152620007f581620007b3565b9050919050565b6125af806200080c6000396000f3fe6080604052600436106100c25760003560e01c8063b04e670d1161007f578063cb1c8f6811610059578063cb1c8f681461027f578063e019ca7c146102bf578063ee6c829b146102fc578063fe6931b71461033b576100c2565b8063b04e670d146101fb578063bc2c1e7714610217578063c34bc92814610242576100c2565b8063092d1148146100c757806318a922a7146100f05780632079fb9a1461012d57806323c92f241461016a5780636647c269146101a757806383051fde146101d0575b600080fd5b3480156100d357600080fd5b506100ee60048036038101906100e99190611ac8565b610364565b005b3480156100fc57600080fd5b5061011760048036038101906101129190611b92565b610869565b6040516101249190611be1565b60405180910390f35b34801561013957600080fd5b50610154600480360381019061014f9190611bfc565b610c88565b6040516101619190611c38565b60405180910390f35b34801561017657600080fd5b50610191600480360381019061018c9190611c53565b610cc7565b60405161019e9190611cae565b60405180910390f35b3480156101b357600080fd5b506101ce60048036038101906101c99190611d02565b610cf6565b005b3480156101dc57600080fd5b506101e5610fc3565b6040516101f29190611d51565b60405180910390f35b61021560048036038101906102109190611d6c565b610fd6565b005b34801561022357600080fd5b5061022c611041565b6040516102399190611be1565b60405180910390f35b34801561024e57600080fd5b5061026960048036038101906102649190611dac565b611048565b6040516102769190611be1565b60405180910390f35b34801561028b57600080fd5b506102a660048036038101906102a19190611bfc565b6112b1565b6040516102b69493929190611de8565b60405180910390f35b3480156102cb57600080fd5b506102e660048036038101906102e19190611c53565b61131b565b6040516102f39190611cae565b60405180910390f35b34801561030857600080fd5b50610323600480360381019061031e9190611bfc565b61134a565b60405161033293929190611e2d565b60405180910390f35b34801561034757600080fd5b50610362600480360381019061035d9190611e64565b61138e565b005b6000600160003373ffffffffffffffffffffffffffffffffffffffff1673ffffffffffffffffffffffffffffffffffffffff16815260200190815260200160002060009054906101000a900460ff1660ff16116103f6576040517f08c379a00000000000000000000000000000000000000000000000000000000081526004016103ed90611f14565b60405180910390fd5b6007600084815260200190815260200160002060030160009054906101000a900460ff161561045a576040517f08c379a000000000000000000000000000000000000000000000000000000000815260040161045190611f80565b60405180910390fd5b600073ffffffffffffffffffffffffffffffffffffffff166007600085815260200190815260200160002060010160009054906101000a900473ffffffffffffffffffffffffffffffffffffffff1673ffffffffffffffffffffffffffffffffffffffff16036105955760405180608001604052808381526020018273ffffffffffffffffffffffffffffffffffffffff1681526020016000815260200160001515815250600760008581526020019081526020016000206000820151816000015560208201518160010160006101000a81548173ffffffffffffffffffffffffffffffffffffffff021916908373ffffffffffffffffffffffffffffffffffffffff1602179055506040820151816002015560608201518160030160006101000a81548160ff02191690831515021790555090505061065b565b81600760008581526020019081526020016000206000015414801561061b57508073ffffffffffffffffffffffffffffffffffffffff166007600085815260200190815260200160002060010160009054906101000a900473ffffffffffffffffffffffffffffffffffffffff1673ffffffffffffffffffffffffffffffffffffffff16145b61065a576040517f08c379a000000000000000000000000000000000000000000000000000000000815260040161065190611fec565b60405180910390fd5b5b600860003373ffffffffffffffffffffffffffffffffffffffff1673ffffffffffffffffffffffffffffffffffffffff168152602001908152602001600020600084815260200190815260200160002060009054906101000a900460ff16610753576001600860003373ffffffffffffffffffffffffffffffffffffffff1673ffffffffffffffffffffffffffffffffffffffff168152602001908152602001600020600085815260200190815260200160002060006101000a81548160ff02191690831515021790555060076000848152602001908152602001600020600201600081548092919061074d9061203b565b91905055505b600260009054906101000a900460ff1660ff166007600085815260200190815260200160002060020154106108635760016007600085815260200190815260200160002060030160006101000a81548160ff02191690831515021790555060008173ffffffffffffffffffffffffffffffffffffffff16836040516107d7906120b4565b60006040518083038185875af1925050503d8060008114610814576040519150601f19603f3d011682016040523d82523d6000602084013e610819565b606091505b505090508061085d576040517f08c379a000000000000000000000000000000000000000000000000000000000815260040161085490612115565b60405180910390fd5b50610864565b5b505050565b600080600160003373ffffffffffffffffffffffffffffffffffffffff1673ffffffffffffffffffffffffffffffffffffffff16815260200190815260200160002060009054906101000a900460ff1660ff16116108fc576040517f08c379a00000000000000000000000000000000000000000000000000000000081526004016108f390611f14565b60405180910390fd5b60006003600043815260200190815260200160002060000160009054906101000a900460000b60000b14610965576040517f08c379a000000000000000000000000000000000000000000000000000000000815260040161095c90612181565b60405180910390fd5b7fffffffffffffffffffffffffffffffffffffffffffffffffffffffffffffffff8360000b03610a7f576000600160008473ffffffffffffffffffffffffffffffffffffffff1673ffffffffffffffffffffffffffffffffffffffff16815260200190815260200160002060009054906101000a900460ff1660ff1611610a21576040517f08c379a0000000000000000000000000000000000000000000000000000000008152600401610a18906121ed565b60405180910390fd5b600080549050600260009054906101000a900460ff1660ff1610610a7a576040517f08c379a0000000000000000000000000000000000000000000000000000000008152600401610a7190612259565b60405180910390fd5b610b1e565b60018360000b03610b1d576000600160008473ffffffffffffffffffffffffffffffffffffffff1673ffffffffffffffffffffffffffffffffffffffff16815260200190815260200160002060009054906101000a900460ff1660ff1614610b1c576040517f08c379a0000000000000000000000000000000000000000000000000000000008152600401610b13906122c5565b60405180910390fd5b5b5b60405180608001604052808460000b81526020018373ffffffffffffffffffffffffffffffffffffffff168152602001600160ff1681526020016201518042610b6791906122e5565b8152506003600043815260200190815260200160002060008201518160000160006101000a81548160ff021916908360000b60ff16021790555060208201518160000160016101000a81548173ffffffffffffffffffffffffffffffffffffffff021916908373ffffffffffffffffffffffffffffffffffffffff16021790555060408201518160000160156101000a81548160ff021916908360ff1602179055506060820151816001015590505060016004600043815260200190815260200160002060003373ffffffffffffffffffffffffffffffffffffffff1673ffffffffffffffffffffffffffffffffffffffff16815260200190815260200160002060006101000a81548160ff02191690831515021790555043905092915050565b60008181548110610c9857600080fd5b906000526020600020016000915054906101000a900473ffffffffffffffffffffffffffffffffffffffff1681565b60046020528160005260406000206020528060005260406000206000915091509054906101000a900460ff1681565b6000600160003373ffffffffffffffffffffffffffffffffffffffff1673ffffffffffffffffffffffffffffffffffffffff16815260200190815260200160002060009054906101000a900460ff1660ff1611610d88576040517f08c379a0000000000000000000000000000000000000000000000000000000008152600401610d7f90611f14565b60405180910390fd5b8060ff166005600084815260200190815260200160002060000160009054906101000a900460ff1660ff16148015610dd6575042600560008481526020019081526020016000206001015410155b610e15576040517f08c379a0000000000000000000000000000000000000000000000000000000008152600401610e0c90612365565b60405180910390fd5b6006600083815260200190815260200160002060003373ffffffffffffffffffffffffffffffffffffffff1673ffffffffffffffffffffffffffffffffffffffff16815260200190815260200160002060009054906101000a900460ff16610f2d5760016006600084815260200190815260200160002060003373ffffffffffffffffffffffffffffffffffffffff1673ffffffffffffffffffffffffffffffffffffffff16815260200190815260200160002060006101000a81548160ff02191690831515021790555060056000838152602001908152602001600020600001600181819054906101000a900460ff1680929190610f1390612385565b91906101000a81548160ff021916908360ff160217905550505b600260009054906101000a900460ff1660ff166005600084815260200190815260200160002060000160019054906101000a900460ff1660ff1610610fbf5780600260006101000a81548160ff021916908360ff1602179055507f971ed33ab126ac4c0a07a18b84ed2990cde2ae87b25cd5009c84e7e5c9c8cffd81604051610fb69190611d51565b60405180910390a15b5050565b600260009054906101000a900460ff1681565b8173ffffffffffffffffffffffffffffffffffffffff163373ffffffffffffffffffffffffffffffffffffffff167fc07a5330986048e0e2b01e559656897bc3dca20f6d8a2d10bae879bf626835f583346040516110359291906123bd565b60405180910390a35050565b6201518081565b600080600160003373ffffffffffffffffffffffffffffffffffffffff1673ffffffffffffffffffffffffffffffffffffffff16815260200190815260200160002060009054906101000a900460ff1660ff16116110db576040517f08c379a00000000000000000000000000000000000000000000000000000000081526004016110d290611f14565b60405180910390fd5b60006005600043815260200190815260200160002060000160009054906101000a900460ff1660ff1614611144576040517f08c379a000000000000000000000000000000000000000000000000000000000815260040161113b90612181565b60405180910390fd5b60026000805490506111569190612415565b8260ff1611801561116f57506000805490508260ff1611155b6111ae576040517f08c379a00000000000000000000000000000000000000000000000000000000081526004016111a590612492565b60405180910390fd5b60405180606001604052808360ff168152602001600160ff16815260200162015180426111db91906122e5565b8152506005600043815260200190815260200160002060008201518160000160006101000a81548160ff021916908360ff16021790555060208201518160000160016101000a81548160ff021916908360ff1602179055506040820151816001015590505060016006600043815260200190815260200160002060003373ffffffffffffffffffffffffffffffffffffffff1673ffffffffffffffffffffffffffffffffffffffff16815260200190815260200160002060006101000a81548160ff021916908315150217905550439050919050565b60036020528060005260406000206000915090508060000160009054906101000a900460000b908060000160019054906101000a900473ffffffffffffffffffffffffffffffffffffffff16908060000160159054906101000a900460ff16908060010154905084565b60066020528160005260406000206020528060005260406000206000915091509054906101000a900460ff1681565b60056020528060005260406000206000915090508060000160009054906101000a900460ff16908060000160019054906101000a900460ff16908060010154905083565b6000600160003373ffffffffffffffffffffffffffffffffffffffff1673ffffffffffffffffffffffffffffffffffffffff16815260200190815260200160002060009054906101000a900460ff1660ff1611611420576040517f08c379a000000000000000000000000000000000000000000000000000000000815260040161141790611f14565b60405180910390fd5b8160000b6003600085815260200190815260200160002060000160009054906101000a900460000b60000b1480156114b957508073ffffffffffffffffffffffffffffffffffffffff166003600085815260200190815260200160002060000160019054906101000a900473ffffffffffffffffffffffffffffffffffffffff1673ffffffffffffffffffffffffffffffffffffffff16145b80156114db575042600360008581526020019081526020016000206001015410155b61151a576040517f08c379a000000000000000000000000000000000000000000000000000000000815260040161151190612365565b60405180910390fd5b6004600084815260200190815260200160002060003373ffffffffffffffffffffffffffffffffffffffff1673ffffffffffffffffffffffffffffffffffffffff16815260200190815260200160002060009054906101000a900460ff166116325760016004600085815260200190815260200160002060003373ffffffffffffffffffffffffffffffffffffffff1673ffffffffffffffffffffffffffffffffffffffff16815260200190815260200160002060006101000a81548160ff02191690831515021790555060036000848152602001908152602001600020600001601581819054906101000a900460ff168092919061161890612385565b91906101000a81548160ff021916908360ff160217905550505b600260009054906101000a900460ff1660ff166003600085815260200190815260200160002060000160159054906101000a900460ff1660ff16106119f45760018260000b03611784576000819080600181540180825580915050600190039060005260206000200160009091909190916101000a81548173ffffffffffffffffffffffffffffffffffffffff021916908373ffffffffffffffffffffffffffffffffffffffff160217905550600080549050600160008373ffffffffffffffffffffffffffffffffffffffff1673ffffffffffffffffffffffffffffffffffffffff16815260200190815260200160002060006101000a81548160ff021916908360ff1602179055508073ffffffffffffffffffffffffffffffffffffffff167f8191ca9d665b824fc53160f3727e7ec3a5330e4a67e1db6c4a86678956dfef1960405160405180910390a26119f3565b7fffffffffffffffffffffffffffffffffffffffffffffffffffffffffffffffff8260000b036119f2576000600160008373ffffffffffffffffffffffffffffffffffffffff1673ffffffffffffffffffffffffffffffffffffffff16815260200190815260200160002060009054906101000a900460ff169050600080600160008054905061181491906124b2565b81548110611825576118246124e6565b5b9060005260206000200160009054906101000a900473ffffffffffffffffffffffffffffffffffffffff1690508060006001846118629190612515565b60ff1681548110611876576118756124e6565b5b9060005260206000200160006101000a81548173ffffffffffffffffffffffffffffffffffffffff021916908373ffffffffffffffffffffffffffffffffffffffff16021790555081600160008373ffffffffffffffffffffffffffffffffffffffff1673ffffffffffffffffffffffffffffffffffffffff16815260200190815260200160002060006101000a81548160ff021916908360ff160217905550600160008473ffffffffffffffffffffffffffffffffffffffff1673ffffffffffffffffffffffffffffffffffffffff16815260200190815260200160002060006101000a81549060ff021916905560008054806119775761197661254a565b5b6001900381819060005260206000200160006101000a81549073ffffffffffffffffffffffffffffffffffffffff021916905590558273ffffffffffffffffffffffffffffffffffffffff167fa2a6e2b8f0cf0f627456034557b0149227a355af53f5bc8ce7e496bfbe73c0a960405160405180910390a250505b5b5b505050565b600080fd5b6000819050919050565b611a11816119fe565b8114611a1c57600080fd5b50565b600081359050611a2e81611a08565b92915050565b6000819050919050565b611a4781611a34565b8114611a5257600080fd5b50565b600081359050611a6481611a3e565b92915050565b600073ffffffffffffffffffffffffffffffffffffffff82169050919050565b6000611a9582611a6a565b9050919050565b611aa581611a8a565b8114611ab057600080fd5b50565b600081359050611ac281611a9c565b92915050565b600080600060608486031215611ae157611ae06119f9565b5b6000611aef86828701611a1f565b9350506020611b0086828701611a55565b9250506040611b1186828701611ab3565b9150509250925092565b60008160000b9050919050565b611b3181611b1b565b8114611b3c57600080fd5b50565b600081359050611b4e81611b28565b92915050565b6000611b5f82611a6a565b9050919050565b611b6f81611b54565b8114611b7a57600080fd5b50565b600081359050611b8c81611b66565b92915050565b60008060408385031215611ba957611ba86119f9565b5b6000611bb785828601611b3f565b9250506020611bc885828601611b7d565b9150509250929050565b611bdb81611a34565b82525050565b6000602082019050611bf66000830184611bd2565b92915050565b600060208284031215611c1257611c116119f9565b5b6000611c2084828501611a55565b91505092915050565b611c3281611b54565b82525050565b6000602082019050611c4d6000830184611c29565b92915050565b60008060408385031215611c6a57611c696119f9565b5b6000611c7885828601611a55565b9250506020611c8985828601611b7d565b9150509250929050565b60008115159050919050565b611ca881611c93565b82525050565b6000602082019050611cc36000830184611c9f565b92915050565b600060ff82169050919050565b611cdf81611cc9565b8114611cea57600080fd5b50565b600081359050611cfc81611cd6565b92915050565b60008060408385031215611d1957611d186119f9565b5b6000611d2785828601611a55565b9250506020611d3885828601611ced565b9150509250929050565b611d4b81611cc9565b82525050565b6000602082019050611d666000830184611d42565b92915050565b60008060408385031215611d8357611d826119f9565b5b6000611d9185828601611b7d565b9250506020611da285828601611a1f565b9150509250929050565b600060208284031215611dc257611dc16119f9565b5b6000611dd084828501611ced565b91505092915050565b611de281611b1b565b82525050565b6000608082019050611dfd6000830187611dd9565b611e0a6020830186611c29565b611e176040830185611d42565b611e246060830184611bd2565b95945050505050565b6000606082019050611e426000830186611d42565b611e4f6020830185611d42565b611e5c6040830184611bd2565b949350505050565b600080600060608486031215611e7d57611e7c6119f9565b5b6000611e8b86828701611a55565b9350506020611e9c86828701611b3f565b9250506040611ead86828701611b7d565b9150509250925092565b600082825260208201905092915050565b7f6e6f74207369676e657200000000000000000000000000000000000000000000600082015250565b6000611efe600a83611eb7565b9150611f0982611ec8565b602082019050919050565b60006020820190508181036000830152611f2d81611ef1565b9050919050565b7f73656e74206f7665720000000000000000000000000000000000000000000000600082015250565b6000611f6a600983611eb7565b9150611f7582611f34565b602082019050919050565b60006020820190508181036000830152611f9981611f5d565b9050919050565b7f696e76616c6964207472616e7366657200000000000000000000000000000000600082015250565b6000611fd6601083611eb7565b9150611fe182611fa0565b602082019050919050565b6000602082019050818103600083015261200581611fc9565b9050919050565b7f4e487b7100000000000000000000000000000000000000000000000000000000600052601160045260246000fd5b600061204682611a34565b91507fffffffffffffffffffffffffffffffffffffffffffffffffffffffffffffffff82036120785761207761200c565b5b600182019050919050565b600081905092915050565b50565b600061209e600083612083565b91506120a98261208e565b600082019050919050565b60006120bf82612091565b9150819050919050565b7f7472616e73666572206661696c65640000000000000000000000000000000000600082015250565b60006120ff600f83611eb7565b915061210a826120c9565b602082019050919050565b6000602082019050818103600083015261212e816120f2565b9050919050565b7f65786973742070726f706f73616c000000000000000000000000000000000000600082015250565b600061216b600e83611eb7565b915061217682612135565b602082019050919050565b6000602082019050818103600083015261219a8161215e565b9050919050565b7f61646472657373206e6f74206578697374000000000000000000000000000000600082015250565b60006121d7601183611eb7565b91506121e2826121a1565b602082019050919050565b60006020820190508181036000830152612206816121ca565b9050919050565b7f72657175697265436f756e74206572726f720000000000000000000000000000600082015250565b6000612243601283611eb7565b915061224e8261220d565b602082019050919050565b6000602082019050818103600083015261227281612236565b9050919050565b7f6164647265737320657869737400000000000000000000000000000000000000600082015250565b60006122af600d83611eb7565b91506122ba82612279565b602082019050919050565b600060208201905081810360008301526122de816122a2565b9050919050565b60006122f082611a34565b91506122fb83611a34565b92508282019050808211156123135761231261200c565b5b92915050565b7f6d69736d61746368000000000000000000000000000000000000000000000000600082015250565b600061234f600883611eb7565b915061235a82612319565b602082019050919050565b6000602082019050818103600083015261237e81612342565b9050919050565b600061239082611cc9565b915060ff82036123a3576123a261200c565b5b600182019050919050565b6123b7816119fe565b82525050565b60006040820190506123d260008301856123ae565b6123df6020830184611bd2565b9392505050565b7f4e487b7100000000000000000000000000000000000000000000000000000000600052601260045260246000fd5b600061242082611a34565b915061242b83611a34565b92508261243b5761243a6123e6565b5b828204905092915050565b7f636f756e74206572726f72000000000000000000000000000000000000000000600082015250565b600061247c600b83611eb7565b915061248782612446565b602082019050919050565b600060208201905081810360008301526124ab8161246f565b9050919050565b60006124bd82611a34565b91506124c883611a34565b92508282039050818111156124e0576124df61200c565b5b92915050565b7f4e487b7100000000000000000000000000000000000000000000000000000000600052603260045260246000fd5b600061252082611cc9565b915061252b83611cc9565b9250828203905060ff8111156125445761254361200c565b5b92915050565b7f4e487b7100000000000000000000000000000000000000000000000000000000600052603160045260246000fdfea264697066735822122098ddc48fbf23459c4aa725d6fbbb98e4d9b89860790844324517707edba6391964736f6c63430008110033",
  "linkReferences": {},
  "deployedLinkReferences": {}
}