{
  "_format": "hh-sol-artifact-1",
  "contractName": "MultiSignWallet",
  "sourceName": "contracts/multiSignWallet.sol",
  "abi": [
    {
      "inputs": [
        {
          "internalType": "address[]",
          "name": "_signers",
          "type": "address[]"
        },
        {
          "internalType": "uint8",
          "name": "_requireCount",
          "type": "uint8"
        }
      ],
      "stateMutability": "nonpayable",
      "type": "constructor"
    },
    {
      "anonymous": false,
      "inputs": [
        {
          "indexed": false,
          "internalType": "uint8",
          "name": "changeRequireCount",
          "type": "uint8"
        }
      ],
      "name": "ChangeRequireCount",
      "type": "event"
    },
    {
      "anonymous": false,
      "inputs": [
        {
          "indexed": true,
          "internalType": "address",
          "name": "signer",
          "type": "address"
        }
      ],
      "name": "SignerAddition",
      "type": "event"
    },
    {
      "anonymous": false,
      "inputs": [
        {
          "indexed": true,
          "internalType": "address",
          "name": "signer",
          "type": "address"
        }
      ],
      "name": "SignerRemoval",
      "type": "event"
    },
    {
      "anonymous": false,
      "inputs": [
        {
          "indexed": true,
          "internalType": "address",
          "name": "sender",
          "type": "address"
        },
        {
          "indexed": true,
          "internalType": "address",
          "name": "to",
          "type": "address"
        },
        {
          "indexed": false,
          "internalType": "bytes32",
          "name": "symbol",
          "type": "bytes32"
        },
        {
          "indexed": false,
          "internalType": "uint256",
          "name": "amount",
          "type": "uint256"
        }
      ],
      "name": "Wrap",
      "type": "event"
    },
    {
      "inputs": [
        {
          "internalType": "uint256",
          "name": "number",
          "type": "uint256"
        },
        {
          "internalType": "uint8",
          "name": "newCount",
          "type": "uint8"
        }
      ],
      "name": "agreeCountProposal",
      "outputs": [],
      "stateMutability": "nonpayable",
      "type": "function"
    },
    {
      "inputs": [
        {
          "internalType": "uint256",
          "name": "number",
          "type": "uint256"
        },
        {
          "internalType": "int8",
          "name": "d",
          "type": "int8"
        },
        {
          "internalType": "address",
          "name": "signer",
          "type": "address"
        }
      ],
      "name": "agreeSignerProposal",
      "outputs": [],
      "stateMutability": "nonpayable",
      "type": "function"
    },
    {
      "inputs": [
        {
          "internalType": "uint256",
          "name": "",
          "type": "uint256"
        }
      ],
      "name": "countProposals",
      "outputs": [
        {
          "internalType": "uint8",
          "name": "newCount",
          "type": "uint8"
        },
        {
          "internalType": "uint8",
          "name": "agreedCount",
          "type": "uint8"
        },
        {
          "internalType": "uint256",
          "name": "overTime",
          "type": "uint256"
        }
      ],
      "stateMutability": "view",
      "type": "function"
    },
    {
      "inputs": [
        {
          "internalType": "uint256",
          "name": "",
          "type": "uint256"
        },
        {
          "internalType": "address",
          "name": "",
          "type": "address"
        }
      ],
      "name": "isCountProposalAgreed",
      "outputs": [
        {
          "internalType": "bool",
          "name": "",
          "type": "bool"
        }
      ],
      "stateMutability": "view",
      "type": "function"
    },
    {
      "inputs": [
        {
          "internalType": "uint256",
          "name": "",
          "type": "uint256"
        },
        {
          "internalType": "address",
          "name": "",
          "type": "address"
        }
      ],
      "name": "isSignerProposalAgreed",
      "outputs": [
        {
          "internalType": "bool",
          "name": "",
          "type": "bool"
        }
      ],
      "stateMutability": "view",
      "type": "function"
    },
    {
      "inputs": [],
      "name": "overTime",
      "outputs": [
        {
          "internalType": "uint256",
          "name": "",
          "type": "uint256"
        }
      ],
      "stateMutability": "view",
      "type": "function"
    },
    {
      "inputs": [],
      "name": "requireCount",
      "outputs": [
        {
          "internalType": "uint8",
          "name": "",
          "type": "uint8"
        }
      ],
      "stateMutability": "view",
      "type": "function"
    },
    {
      "inputs": [
        {
          "internalType": "bytes32",
          "name": "txid",
          "type": "bytes32"
        },
        {
          "internalType": "uint256",
          "name": "amount",
          "type": "uint256"
        },
        {
          "internalType": "address payable",
          "name": "to",
          "type": "address"
        }
      ],
      "name": "send",
      "outputs": [],
      "stateMutability": "nonpayable",
      "type": "function"
    },
    {
      "inputs": [
        {
          "internalType": "uint256",
          "name": "",
          "type": "uint256"
        }
      ],
      "name": "signerProposals",
      "outputs": [
        {
          "internalType": "int8",
          "name": "d",
          "type": "int8"
        },
        {
          "internalType": "address",
          "name": "signer",
          "type": "address"
        },
        {
          "internalType": "uint8",
          "name": "agreedCount",
          "type": "uint8"
        },
        {
          "internalType": "uint256",
          "name": "overTime",
          "type": "uint256"
        }
      ],
      "stateMutability": "view",
      "type": "function"
    },
    {
      "inputs": [
        {
          "internalType": "uint256",
          "name": "",
          "type": "uint256"
        }
      ],
      "name": "signers",
      "outputs": [
        {
          "internalType": "address",
          "name": "",
          "type": "address"
        }
      ],
      "stateMutability": "view",
      "type": "function"
    },
    {
      "inputs": [
        {
          "internalType": "uint8",
          "name": "newCount",
          "type": "uint8"
        }
      ],
      "name": "submitCountProposal",
      "outputs": [
        {
          "internalType": "uint256",
          "name": "",
          "type": "uint256"
        }
      ],
      "stateMutability": "nonpayable",
      "type": "function"
    },
    {
      "inputs": [
        {
          "internalType": "int8",
          "name": "d",
          "type": "int8"
        },
        {
          "internalType": "address",
          "name": "signer",
          "type": "address"
        }
      ],
      "name": "submitSignerProposal",
      "outputs": [
        {
          "internalType": "uint256",
          "name": "",
          "type": "uint256"
        }
      ],
      "stateMutability": "nonpayable",
      "type": "function"
    },
    {
      "inputs": [
        {
          "internalType": "address",
          "name": "to",
          "type": "address"
        },
        {
          "internalType": "bytes32",
          "name": "symbol",
          "type": "bytes32"
        }
      ],
      "name": "wrap",
      "outputs": [],
      "stateMutability": "payable",
      "type": "function"
    }
  ],
  "bytecode": "0x60806040523480156200001157600080fd5b5060405162002ce238038062002ce2833981810160405281019062000037919062000568565b818160005b82518160ff161015620001f457600060016000858460ff1681518110620000685762000067620005ce565b5b602002602001015173ffffffffffffffffffffffffffffffffffffffff1673ffffffffffffffffffffffffffffffffffffffff16815260200190815260200160002060009054906101000a900460ff1660ff16148015620001165750600073ffffffffffffffffffffffffffffffffffffffff16838260ff1681518110620000f557620000f4620005ce565b5b602002602001015173ffffffffffffffffffffffffffffffffffffffff1614155b62000158576040517f08c379a00000000000000000000000000000000000000000000000000000000081526004016200014f906200065e565b60405180910390fd5b600181620001679190620006af565b60016000858460ff1681518110620001845762000183620005ce565b5b602002602001015173ffffffffffffffffffffffffffffffffffffffff1673ffffffffffffffffffffffffffffffffffffffff16815260200190815260200160002060006101000a81548160ff021916908360ff1602179055508080620001eb90620006eb565b9150506200003c565b5081600090805190602001906200020d9291906200028e565b50600260008054905062000222919062000752565b8160ff161162000269576040517f08c379a00000000000000000000000000000000000000000000000000000000081526004016200026090620007da565b60405180910390fd5b80600260006101000a81548160ff021916908360ff16021790555050505050620007fc565b8280548282559060005260206000209081019282156200030a579160200282015b82811115620003095782518260006101000a81548173ffffffffffffffffffffffffffffffffffffffff021916908373ffffffffffffffffffffffffffffffffffffffff16021790555091602001919060010190620002af565b5b5090506200031991906200031d565b5090565b5b80821115620003385760008160009055506001016200031e565b5090565b6000604051905090565b600080fd5b600080fd5b600080fd5b6000601f19601f8301169050919050565b7f4e487b7100000000000000000000000000000000000000000000000000000000600052604160045260246000fd5b620003a08262000355565b810181811067ffffffffffffffff82111715620003c257620003c162000366565b5b80604052505050565b6000620003d76200033c565b9050620003e5828262000395565b919050565b600067ffffffffffffffff82111562000408576200040762000366565b5b602082029050602081019050919050565b600080fd5b600073ffffffffffffffffffffffffffffffffffffffff82169050919050565b60006200044b826200041e565b9050919050565b6200045d816200043e565b81146200046957600080fd5b50565b6000815190506200047d8162000452565b92915050565b60006200049a6200049484620003ea565b620003cb565b90508083825260208201905060208402830185811115620004c057620004bf62000419565b5b835b81811015620004ed5780620004d888826200046c565b845260208401935050602081019050620004c2565b5050509392505050565b600082601f8301126200050f576200050e62000350565b5b81516200052184826020860162000483565b91505092915050565b600060ff82169050919050565b62000542816200052a565b81146200054e57600080fd5b50565b600081519050620005628162000537565b92915050565b6000806040838503121562000582576200058162000346565b5b600083015167ffffffffffffffff811115620005a357620005a26200034b565b5b620005b185828601620004f7565b9250506020620005c48582860162000551565b9150509250929050565b7f4e487b7100000000000000000000000000000000000000000000000000000000600052603260045260246000fd5b600082825260208201905092915050565b7f696e76616c6964206f72206475706c696361746564207369676e657200000000600082015250565b600062000646601c83620005fd565b915062000653826200060e565b602082019050919050565b60006020820190508181036000830152620006798162000637565b9050919050565b7f4e487b7100000000000000000000000000000000000000000000000000000000600052601160045260246000fd5b6000620006bc826200052a565b9150620006c9836200052a565b9250828201905060ff811115620006e557620006e462000680565b5b92915050565b6000620006f8826200052a565b915060ff82036200070e576200070d62000680565b5b600182019050919050565b6000819050919050565b7f4e487b7100000000000000000000000000000000000000000000000000000000600052601260045260246000fd5b60006200075f8262000719565b91506200076c8362000719565b9250826200077f576200077e62000723565b5b828204905092915050565b7f746f6f20736d616c6c2072657175697265436f756e7400000000000000000000600082015250565b6000620007c2601683620005fd565b9150620007cf826200078a565b602082019050919050565b60006020820190508181036000830152620007f581620007b3565b9050919050565b6124d6806200080c6000396000f3fe6080604052600436106100c25760003560e01c8063b04e670d1161007f578063cb1c8f6811610059578063cb1c8f681461027f578063e019ca7c146102bf578063ee6c829b146102fc578063fe6931b71461033b576100c2565b8063b04e670d146101fb578063bc2c1e7714610217578063c34bc92814610242576100c2565b8063092d1148146100c757806318a922a7146100f05780632079fb9a1461012d57806323c92f241461016a5780636647c269146101a757806383051fde146101d0575b600080fd5b3480156100d357600080fd5b506100ee60048036038101906100e99190611a5b565b610364565b005b3480156100fc57600080fd5b5061011760048036038101906101129190611b25565b610869565b6040516101249190611b74565b60405180910390f35b34801561013957600080fd5b50610154600480360381019061014f9190611b8f565b610c2f565b6040516101619190611bcb565b60405180910390f35b34801561017657600080fd5b50610191600480360381019061018c9190611be6565b610c6e565b60405161019e9190611c41565b60405180910390f35b3480156101b357600080fd5b506101ce60048036038101906101c99190611c95565b610c9d565b005b3480156101dc57600080fd5b506101e5610f6a565b6040516101f29190611ce4565b60405180910390f35b61021560048036038101906102109190611cff565b610f7d565b005b34801561022357600080fd5b5061022c610fe8565b6040516102399190611b74565b60405180910390f35b34801561024e57600080fd5b5061026960048036038101906102649190611d3f565b610fef565b6040516102769190611b74565b60405180910390f35b34801561028b57600080fd5b506102a660048036038101906102a19190611b8f565b611244565b6040516102b69493929190611d7b565b60405180910390f35b3480156102cb57600080fd5b506102e660048036038101906102e19190611be6565b6112ae565b6040516102f39190611c41565b60405180910390f35b34801561030857600080fd5b50610323600480360381019061031e9190611b8f565b6112dd565b60405161033293929190611dc0565b60405180910390f35b34801561034757600080fd5b50610362600480360381019061035d9190611df7565b611321565b005b6000600160003373ffffffffffffffffffffffffffffffffffffffff1673ffffffffffffffffffffffffffffffffffffffff16815260200190815260200160002060009054906101000a900460ff1660ff16116103f6576040517f08c379a00000000000000000000000000000000000000000000000000000000081526004016103ed90611ea7565b60405180910390fd5b6007600084815260200190815260200160002060030160009054906101000a900460ff161561045a576040517f08c379a000000000000000000000000000000000000000000000000000000000815260040161045190611f13565b60405180910390fd5b600073ffffffffffffffffffffffffffffffffffffffff166007600085815260200190815260200160002060010160009054906101000a900473ffffffffffffffffffffffffffffffffffffffff1673ffffffffffffffffffffffffffffffffffffffff16036105955760405180608001604052808381526020018273ffffffffffffffffffffffffffffffffffffffff1681526020016000815260200160001515815250600760008581526020019081526020016000206000820151816000015560208201518160010160006101000a81548173ffffffffffffffffffffffffffffffffffffffff021916908373ffffffffffffffffffffffffffffffffffffffff1602179055506040820151816002015560608201518160030160006101000a81548160ff02191690831515021790555090505061065b565b81600760008581526020019081526020016000206000015414801561061b57508073ffffffffffffffffffffffffffffffffffffffff166007600085815260200190815260200160002060010160009054906101000a900473ffffffffffffffffffffffffffffffffffffffff1673ffffffffffffffffffffffffffffffffffffffff16145b61065a576040517f08c379a000000000000000000000000000000000000000000000000000000000815260040161065190611f7f565b60405180910390fd5b5b600860003373ffffffffffffffffffffffffffffffffffffffff1673ffffffffffffffffffffffffffffffffffffffff168152602001908152602001600020600084815260200190815260200160002060009054906101000a900460ff16610753576001600860003373ffffffffffffffffffffffffffffffffffffffff1673ffffffffffffffffffffffffffffffffffffffff168152602001908152602001600020600085815260200190815260200160002060006101000a81548160ff02191690831515021790555060076000848152602001908152602001600020600201600081548092919061074d90611fce565b91905055505b600260009054906101000a900460ff1660ff166007600085815260200190815260200160002060020154106108635760016007600085815260200190815260200160002060030160006101000a81548160ff02191690831515021790555060008173ffffffffffffffffffffffffffffffffffffffff16836040516107d790612047565b60006040518083038185875af1925050503d8060008114610814576040519150601f19603f3d011682016040523d82523d6000602084013e610819565b606091505b505090508061085d576040517f08c379a0000000000000000000000000000000000000000000000000000000008152600401610854906120a8565b60405180910390fd5b50610864565b5b505050565b600080600160003373ffffffffffffffffffffffffffffffffffffffff1673ffffffffffffffffffffffffffffffffffffffff16815260200190815260200160002060009054906101000a900460ff1660ff16116108fc576040517f08c379a00000000000000000000000000000000000000000000000000000000081526004016108f390611ea7565b60405180910390fd5b60006003600043815260200190815260200160002060000160009054906101000a900460000b60000b14610965576040517f08c379a000000000000000000000000000000000000000000000000000000000815260040161095c90612114565b60405180910390fd5b7fffffffffffffffffffffffffffffffffffffffffffffffffffffffffffffffff8360000b03610a26576000600160008473ffffffffffffffffffffffffffffffffffffffff1673ffffffffffffffffffffffffffffffffffffffff16815260200190815260200160002060009054906101000a900460ff1660ff1611610a21576040517f08c379a0000000000000000000000000000000000000000000000000000000008152600401610a1890612180565b60405180910390fd5b610ac5565b60018360000b03610ac4576000600160008473ffffffffffffffffffffffffffffffffffffffff1673ffffffffffffffffffffffffffffffffffffffff16815260200190815260200160002060009054906101000a900460ff1660ff1614610ac3576040517f08c379a0000000000000000000000000000000000000000000000000000000008152600401610aba906121ec565b60405180910390fd5b5b5b60405180608001604052808460000b81526020018373ffffffffffffffffffffffffffffffffffffffff168152602001600160ff1681526020016201518042610b0e919061220c565b8152506003600043815260200190815260200160002060008201518160000160006101000a81548160ff021916908360000b60ff16021790555060208201518160000160016101000a81548173ffffffffffffffffffffffffffffffffffffffff021916908373ffffffffffffffffffffffffffffffffffffffff16021790555060408201518160000160156101000a81548160ff021916908360ff1602179055506060820151816001015590505060016004600043815260200190815260200160002060003373ffffffffffffffffffffffffffffffffffffffff1673ffffffffffffffffffffffffffffffffffffffff16815260200190815260200160002060006101000a81548160ff02191690831515021790555043905092915050565b60008181548110610c3f57600080fd5b906000526020600020016000915054906101000a900473ffffffffffffffffffffffffffffffffffffffff1681565b60046020528160005260406000206020528060005260406000206000915091509054906101000a900460ff1681565b6000600160003373ffffffffffffffffffffffffffffffffffffffff1673ffffffffffffffffffffffffffffffffffffffff16815260200190815260200160002060009054906101000a900460ff1660ff1611610d2f576040517f08c379a0000000000000000000000000000000000000000000000000000000008152600401610d2690611ea7565b60405180910390fd5b8060ff166005600084815260200190815260200160002060000160009054906101000a900460ff1660ff16148015610d7d575042600560008481526020019081526020016000206001015410155b610dbc576040517f08c379a0000000000000000000000000000000000000000000000000000000008152600401610db39061228c565b60405180910390fd5b6006600083815260200190815260200160002060003373ffffffffffffffffffffffffffffffffffffffff1673ffffffffffffffffffffffffffffffffffffffff16815260200190815260200160002060009054906101000a900460ff16610ed45760016006600084815260200190815260200160002060003373ffffffffffffffffffffffffffffffffffffffff1673ffffffffffffffffffffffffffffffffffffffff16815260200190815260200160002060006101000a81548160ff02191690831515021790555060056000838152602001908152602001600020600001600181819054906101000a900460ff1680929190610eba906122ac565b91906101000a81548160ff021916908360ff160217905550505b600260009054906101000a900460ff1660ff166005600084815260200190815260200160002060000160019054906101000a900460ff1660ff1610610f665780600260006101000a81548160ff021916908360ff1602179055507f971ed33ab126ac4c0a07a18b84ed2990cde2ae87b25cd5009c84e7e5c9c8cffd81604051610f5d9190611ce4565b60405180910390a15b5050565b600260009054906101000a900460ff1681565b8173ffffffffffffffffffffffffffffffffffffffff163373ffffffffffffffffffffffffffffffffffffffff167fc07a5330986048e0e2b01e559656897bc3dca20f6d8a2d10bae879bf626835f58334604051610fdc9291906122e4565b60405180910390a35050565b6201518081565b600080600160003373ffffffffffffffffffffffffffffffffffffffff1673ffffffffffffffffffffffffffffffffffffffff16815260200190815260200160002060009054906101000a900460ff1660ff1611611082576040517f08c379a000000000000000000000000000000000000000000000000000000000815260040161107990611ea7565b60405180910390fd5b60006005600043815260200190815260200160002060000160009054906101000a900460ff1660ff16146110eb576040517f08c379a00000000000000000000000000000000000000000000000000000000081526004016110e290612114565b60405180910390fd5b60026000805490506110fd919061233c565b8260ff1611611141576040517f08c379a0000000000000000000000000000000000000000000000000000000008152600401611138906123b9565b60405180910390fd5b60405180606001604052808360ff168152602001600160ff168152602001620151804261116e919061220c565b8152506005600043815260200190815260200160002060008201518160000160006101000a81548160ff021916908360ff16021790555060208201518160000160016101000a81548160ff021916908360ff1602179055506040820151816001015590505060016006600043815260200190815260200160002060003373ffffffffffffffffffffffffffffffffffffffff1673ffffffffffffffffffffffffffffffffffffffff16815260200190815260200160002060006101000a81548160ff021916908315150217905550439050919050565b60036020528060005260406000206000915090508060000160009054906101000a900460000b908060000160019054906101000a900473ffffffffffffffffffffffffffffffffffffffff16908060000160159054906101000a900460ff16908060010154905084565b60066020528160005260406000206020528060005260406000206000915091509054906101000a900460ff1681565b60056020528060005260406000206000915090508060000160009054906101000a900460ff16908060000160019054906101000a900460ff16908060010154905083565b6000600160003373ffffffffffffffffffffffffffffffffffffffff1673ffffffffffffffffffffffffffffffffffffffff16815260200190815260200160002060009054906101000a900460ff1660ff16116113b3576040517f08c379a00000000000000000000000000000000000000000000000000000000081526004016113aa90611ea7565b60405180910390fd5b8160000b6003600085815260200190815260200160002060000160009054906101000a900460000b60000b14801561144c57508073ffffffffffffffffffffffffffffffffffffffff166003600085815260200190815260200160002060000160019054906101000a900473ffffffffffffffffffffffffffffffffffffffff1673ffffffffffffffffffffffffffffffffffffffff16145b801561146e575042600360008581526020019081526020016000206001015410155b6114ad576040517f08c379a00000000000000000000000000000000000000000000000000000000081526004016114a49061228c565b60405180910390fd5b6004600084815260200190815260200160002060003373ffffffffffffffffffffffffffffffffffffffff1673ffffffffffffffffffffffffffffffffffffffff16815260200190815260200160002060009054906101000a900460ff166115c55760016004600085815260200190815260200160002060003373ffffffffffffffffffffffffffffffffffffffff1673ffffffffffffffffffffffffffffffffffffffff16815260200190815260200160002060006101000a81548160ff02191690831515021790555060036000848152602001908152602001600020600001601581819054906101000a900460ff16809291906115ab906122ac565b91906101000a81548160ff021916908360ff160217905550505b600260009054906101000a900460ff1660ff166003600085815260200190815260200160002060000160159054906101000a900460ff1660ff16106119875760018260000b03611717576000819080600181540180825580915050600190039060005260206000200160009091909190916101000a81548173ffffffffffffffffffffffffffffffffffffffff021916908373ffffffffffffffffffffffffffffffffffffffff160217905550600080549050600160008373ffffffffffffffffffffffffffffffffffffffff1673ffffffffffffffffffffffffffffffffffffffff16815260200190815260200160002060006101000a81548160ff021916908360ff1602179055508073ffffffffffffffffffffffffffffffffffffffff167f8191ca9d665b824fc53160f3727e7ec3a5330e4a67e1db6c4a86678956dfef1960405160405180910390a2611986565b7fffffffffffffffffffffffffffffffffffffffffffffffffffffffffffffffff8260000b03611985576000600160008373ffffffffffffffffffffffffffffffffffffffff1673ffffffffffffffffffffffffffffffffffffffff16815260200190815260200160002060009054906101000a900460ff16905060008060016000805490506117a791906123d9565b815481106117b8576117b761240d565b5b9060005260206000200160009054906101000a900473ffffffffffffffffffffffffffffffffffffffff1690508060006001846117f5919061243c565b60ff16815481106118095761180861240d565b5b9060005260206000200160006101000a81548173ffffffffffffffffffffffffffffffffffffffff021916908373ffffffffffffffffffffffffffffffffffffffff16021790555081600160008373ffffffffffffffffffffffffffffffffffffffff1673ffffffffffffffffffffffffffffffffffffffff16815260200190815260200160002060006101000a81548160ff021916908360ff160217905550600160008473ffffffffffffffffffffffffffffffffffffffff1673ffffffffffffffffffffffffffffffffffffffff16815260200190815260200160002060006101000a81549060ff0219169055600080548061190a57611909612471565b5b6001900381819060005260206000200160006101000a81549073ffffffffffffffffffffffffffffffffffffffff021916905590558273ffffffffffffffffffffffffffffffffffffffff167fa2a6e2b8f0cf0f627456034557b0149227a355af53f5bc8ce7e496bfbe73c0a960405160405180910390a250505b5b5b505050565b600080fd5b6000819050919050565b6119a481611991565b81146119af57600080fd5b50565b6000813590506119c18161199b565b92915050565b6000819050919050565b6119da816119c7565b81146119e557600080fd5b50565b6000813590506119f7816119d1565b92915050565b600073ffffffffffffffffffffffffffffffffffffffff82169050919050565b6000611a28826119fd565b9050919050565b611a3881611a1d565b8114611a4357600080fd5b50565b600081359050611a5581611a2f565b92915050565b600080600060608486031215611a7457611a7361198c565b5b6000611a82868287016119b2565b9350506020611a93868287016119e8565b9250506040611aa486828701611a46565b9150509250925092565b60008160000b9050919050565b611ac481611aae565b8114611acf57600080fd5b50565b600081359050611ae181611abb565b92915050565b6000611af2826119fd565b9050919050565b611b0281611ae7565b8114611b0d57600080fd5b50565b600081359050611b1f81611af9565b92915050565b60008060408385031215611b3c57611b3b61198c565b5b6000611b4a85828601611ad2565b9250506020611b5b85828601611b10565b9150509250929050565b611b6e816119c7565b82525050565b6000602082019050611b896000830184611b65565b92915050565b600060208284031215611ba557611ba461198c565b5b6000611bb3848285016119e8565b91505092915050565b611bc581611ae7565b82525050565b6000602082019050611be06000830184611bbc565b92915050565b60008060408385031215611bfd57611bfc61198c565b5b6000611c0b858286016119e8565b9250506020611c1c85828601611b10565b9150509250929050565b60008115159050919050565b611c3b81611c26565b82525050565b6000602082019050611c566000830184611c32565b92915050565b600060ff82169050919050565b611c7281611c5c565b8114611c7d57600080fd5b50565b600081359050611c8f81611c69565b92915050565b60008060408385031215611cac57611cab61198c565b5b6000611cba858286016119e8565b9250506020611ccb85828601611c80565b9150509250929050565b611cde81611c5c565b82525050565b6000602082019050611cf96000830184611cd5565b92915050565b60008060408385031215611d1657611d1561198c565b5b6000611d2485828601611b10565b9250506020611d35858286016119b2565b9150509250929050565b600060208284031215611d5557611d5461198c565b5b6000611d6384828501611c80565b91505092915050565b611d7581611aae565b82525050565b6000608082019050611d906000830187611d6c565b611d9d6020830186611bbc565b611daa6040830185611cd5565b611db76060830184611b65565b95945050505050565b6000606082019050611dd56000830186611cd5565b611de26020830185611cd5565b611def6040830184611b65565b949350505050565b600080600060608486031215611e1057611e0f61198c565b5b6000611e1e868287016119e8565b9350506020611e2f86828701611ad2565b9250506040611e4086828701611b10565b9150509250925092565b600082825260208201905092915050565b7f6e6f74207369676e657200000000000000000000000000000000000000000000600082015250565b6000611e91600a83611e4a565b9150611e9c82611e5b565b602082019050919050565b60006020820190508181036000830152611ec081611e84565b9050919050565b7f73656e74206f7665720000000000000000000000000000000000000000000000600082015250565b6000611efd600983611e4a565b9150611f0882611ec7565b602082019050919050565b60006020820190508181036000830152611f2c81611ef0565b9050919050565b7f696e76616c6964207472616e7366657200000000000000000000000000000000600082015250565b6000611f69601083611e4a565b9150611f7482611f33565b602082019050919050565b60006020820190508181036000830152611f9881611f5c565b9050919050565b7f4e487b7100000000000000000000000000000000000000000000000000000000600052601160045260246000fd5b6000611fd9826119c7565b91507fffffffffffffffffffffffffffffffffffffffffffffffffffffffffffffffff820361200b5761200a611f9f565b5b600182019050919050565b600081905092915050565b50565b6000612031600083612016565b915061203c82612021565b600082019050919050565b600061205282612024565b9150819050919050565b7f7472616e73666572206661696c65640000000000000000000000000000000000600082015250565b6000612092600f83611e4a565b915061209d8261205c565b602082019050919050565b600060208201905081810360008301526120c181612085565b9050919050565b7f65786973742070726f706f73616c000000000000000000000000000000000000600082015250565b60006120fe600e83611e4a565b9150612109826120c8565b602082019050919050565b6000602082019050818103600083015261212d816120f1565b9050919050565b7f61646472657373206e6f74206578697374000000000000000000000000000000600082015250565b600061216a601183611e4a565b915061217582612134565b602082019050919050565b600060208201905081810360008301526121998161215d565b9050919050565b7f6164647265737320657869737400000000000000000000000000000000000000600082015250565b60006121d6600d83611e4a565b91506121e1826121a0565b602082019050919050565b60006020820190508181036000830152612205816121c9565b9050919050565b6000612217826119c7565b9150612222836119c7565b925082820190508082111561223a57612239611f9f565b5b92915050565b7f6d69736d61746368000000000000000000000000000000000000000000000000600082015250565b6000612276600883611e4a565b915061228182612240565b602082019050919050565b600060208201905081810360008301526122a581612269565b9050919050565b60006122b782611c5c565b915060ff82036122ca576122c9611f9f565b5b600182019050919050565b6122de81611991565b82525050565b60006040820190506122f960008301856122d5565b6123066020830184611b65565b9392505050565b7f4e487b7100000000000000000000000000000000000000000000000000000000600052601260045260246000fd5b6000612347826119c7565b9150612352836119c7565b9250826123625761236161230d565b5b828204905092915050565b7f636f756e7420746f6f20736d616c6c0000000000000000000000000000000000600082015250565b60006123a3600f83611e4a565b91506123ae8261236d565b602082019050919050565b600060208201905081810360008301526123d281612396565b9050919050565b60006123e4826119c7565b91506123ef836119c7565b925082820390508181111561240757612406611f9f565b5b92915050565b7f4e487b7100000000000000000000000000000000000000000000000000000000600052603260045260246000fd5b600061244782611c5c565b915061245283611c5c565b9250828203905060ff81111561246b5761246a611f9f565b5b92915050565b7f4e487b7100000000000000000000000000000000000000000000000000000000600052603160045260246000fdfea2646970667358221220d83713183ac02d8e12e052c6b93bd311836f24f73402af833211233c5616456864736f6c63430008110033",
  "linkReferences": {},
  "deployedLinkReferences": {}
}