{
  "_format": "hh-sol-artifact-1",
  "contractName": "WBTC",
  "sourceName": "contracts/WBTC.sol",
  "abi": [
    {
      "inputs": [
        {
          "internalType": "string",
          "name": "_name",
          "type": "string"
        },
        {
          "internalType": "string",
          "name": "_symbol",
          "type": "string"
        },
        {
          "internalType": "uint8",
          "name": "_decimal",
          "type": "uint8"
        }
      ],
      "stateMutability": "nonpayable",
      "type": "constructor"
    },
    {
      "anonymous": false,
      "inputs": [
        {
          "indexed": true,
          "internalType": "address",
          "name": "owner",
          "type": "address"
        },
        {
          "indexed": true,
          "internalType": "address",
          "name": "spender",
          "type": "address"
        },
        {
          "indexed": false,
          "internalType": "uint256",
          "name": "value",
          "type": "uint256"
        }
      ],
      "name": "Approval",
      "type": "event"
    },
    {
      "anonymous": false,
      "inputs": [
        {
          "indexed": true,
          "internalType": "address",
          "name": "sender",
          "type": "address"
        },
        {
          "indexed": true,
          "internalType": "address",
          "name": "to",
          "type": "address"
        },
        {
          "indexed": false,
          "internalType": "uint256",
          "name": "amount",
          "type": "uint256"
        }
      ],
      "name": "Faucet",
      "type": "event"
    },
    {
      "anonymous": false,
      "inputs": [
        {
          "indexed": true,
          "internalType": "address",
          "name": "from",
          "type": "address"
        },
        {
          "indexed": true,
          "internalType": "address",
          "name": "to",
          "type": "address"
        },
        {
          "indexed": false,
          "internalType": "uint256",
          "name": "value",
          "type": "uint256"
        }
      ],
      "name": "Transfer",
      "type": "event"
    },
    {
      "inputs": [],
      "name": "acceptOwner",
      "outputs": [],
      "stateMutability": "nonpayable",
      "type": "function"
    },
    {
      "inputs": [
        {
          "internalType": "address",
          "name": "",
          "type": "address"
        },
        {
          "internalType": "address",
          "name": "",
          "type": "address"
        }
      ],
      "name": "allowance",
      "outputs": [
        {
          "internalType": "uint256",
          "name": "",
          "type": "uint256"
        }
      ],
      "stateMutability": "view",
      "type": "function"
    },
    {
      "inputs": [
        {
          "internalType": "address",
          "name": "spender",
          "type": "address"
        },
        {
          "internalType": "uint256",
          "name": "value",
          "type": "uint256"
        }
      ],
      "name": "approve",
      "outputs": [
        {
          "internalType": "bool",
          "name": "",
          "type": "bool"
        }
      ],
      "stateMutability": "nonpayable",
      "type": "function"
    },
    {
      "inputs": [
        {
          "internalType": "address",
          "name": "",
          "type": "address"
        }
      ],
      "name": "balanceOf",
      "outputs": [
        {
          "internalType": "uint256",
          "name": "",
          "type": "uint256"
        }
      ],
      "stateMutability": "view",
      "type": "function"
    },
    {
      "inputs": [],
      "name": "decimals",
      "outputs": [
        {
          "internalType": "uint8",
          "name": "",
          "type": "uint8"
        }
      ],
      "stateMutability": "view",
      "type": "function"
    },
    {
      "inputs": [
        {
          "internalType": "address",
          "name": "to",
          "type": "address"
        }
      ],
      "name": "faucet",
      "outputs": [
        {
          "internalType": "bool",
          "name": "",
          "type": "bool"
        }
      ],
      "stateMutability": "nonpayable",
      "type": "function"
    },
    {
      "inputs": [],
      "name": "faucetAmount",
      "outputs": [
        {
          "internalType": "uint256",
          "name": "",
          "type": "uint256"
        }
      ],
      "stateMutability": "view",
      "type": "function"
    },
    {
      "inputs": [
        {
          "internalType": "address",
          "name": "",
          "type": "address"
        }
      ],
      "name": "faucetLastOf",
      "outputs": [
        {
          "internalType": "uint256",
          "name": "",
          "type": "uint256"
        }
      ],
      "stateMutability": "view",
      "type": "function"
    },
    {
      "inputs": [],
      "name": "name",
      "outputs": [
        {
          "internalType": "string",
          "name": "",
          "type": "string"
        }
      ],
      "stateMutability": "view",
      "type": "function"
    },
    {
      "inputs": [],
      "name": "owner",
      "outputs": [
        {
          "internalType": "address",
          "name": "",
          "type": "address"
        }
      ],
      "stateMutability": "view",
      "type": "function"
    },
    {
      "inputs": [
        {
          "internalType": "uint256",
          "name": "amount",
          "type": "uint256"
        }
      ],
      "name": "setFaucetAmount",
      "outputs": [
        {
          "internalType": "bool",
          "name": "",
          "type": "bool"
        }
      ],
      "stateMutability": "nonpayable",
      "type": "function"
    },
    {
      "inputs": [],
      "name": "symbol",
      "outputs": [
        {
          "internalType": "string",
          "name": "",
          "type": "string"
        }
      ],
      "stateMutability": "view",
      "type": "function"
    },
    {
      "inputs": [],
      "name": "totalSupply",
      "outputs": [
        {
          "internalType": "uint256",
          "name": "",
          "type": "uint256"
        }
      ],
      "stateMutability": "view",
      "type": "function"
    },
    {
      "inputs": [
        {
          "internalType": "address",
          "name": "to",
          "type": "address"
        },
        {
          "internalType": "uint256",
          "name": "value",
          "type": "uint256"
        }
      ],
      "name": "transfer",
      "outputs": [
        {
          "internalType": "bool",
          "name": "",
          "type": "bool"
        }
      ],
      "stateMutability": "nonpayable",
      "type": "function"
    },
    {
      "inputs": [
        {
          "internalType": "address",
          "name": "from",
          "type": "address"
        },
        {
          "internalType": "address",
          "name": "to",
          "type": "address"
        },
        {
          "internalType": "uint256",
          "name": "value",
          "type": "uint256"
        }
      ],
      "name": "transferFrom",
      "outputs": [
        {
          "internalType": "bool",
          "name": "",
          "type": "bool"
        }
      ],
      "stateMutability": "nonpayable",
      "type": "function"
    },
    {
      "inputs": [
        {
          "internalType": "address",
          "name": "_owner",
          "type": "address"
        }
      ],
      "name": "transferOwner",
      "outputs": [],
      "stateMutability": "nonpayable",
      "type": "function"
    }
  ],
  "bytecode": "0x60a060405260646008553480156200001657600080fd5b5060405162001d8c38038062001d8c83398181016040528101906200003c919062000301565b8282828260009081620000509190620005e6565b508160019081620000629190620005e6565b508060ff1660808160ff168152505050505033600560006101000a81548173ffffffffffffffffffffffffffffffffffffffff021916908373ffffffffffffffffffffffffffffffffffffffff16021790555060805160ff16600a620000c9919062000850565b6402540be400620000db9190620008a1565b600281905550600254600360003373ffffffffffffffffffffffffffffffffffffffff1673ffffffffffffffffffffffffffffffffffffffff16815260200190815260200160002081905550505050620008ec565b6000604051905090565b600080fd5b600080fd5b600080fd5b600080fd5b6000601f19601f8301169050919050565b7f4e487b7100000000000000000000000000000000000000000000000000000000600052604160045260246000fd5b62000199826200014e565b810181811067ffffffffffffffff82111715620001bb57620001ba6200015f565b5b80604052505050565b6000620001d062000130565b9050620001de82826200018e565b919050565b600067ffffffffffffffff8211156200020157620002006200015f565b5b6200020c826200014e565b9050602081019050919050565b60005b83811015620002395780820151818401526020810190506200021c565b60008484015250505050565b60006200025c6200025684620001e3565b620001c4565b9050828152602081018484840111156200027b576200027a62000149565b5b6200028884828562000219565b509392505050565b600082601f830112620002a857620002a762000144565b5b8151620002ba84826020860162000245565b91505092915050565b600060ff82169050919050565b620002db81620002c3565b8114620002e757600080fd5b50565b600081519050620002fb81620002d0565b92915050565b6000806000606084860312156200031d576200031c6200013a565b5b600084015167ffffffffffffffff8111156200033e576200033d6200013f565b5b6200034c8682870162000290565b935050602084015167ffffffffffffffff81111562000370576200036f6200013f565b5b6200037e8682870162000290565b92505060406200039186828701620002ea565b9150509250925092565b600081519050919050565b7f4e487b7100000000000000000000000000000000000000000000000000000000600052602260045260246000fd5b60006002820490506001821680620003ee57607f821691505b602082108103620004045762000403620003a6565b5b50919050565b60008190508160005260206000209050919050565b60006020601f8301049050919050565b600082821b905092915050565b6000600883026200046e7fffffffffffffffffffffffffffffffffffffffffffffffffffffffffffffffff826200042f565b6200047a86836200042f565b95508019841693508086168417925050509392505050565b6000819050919050565b6000819050919050565b6000620004c7620004c1620004bb8462000492565b6200049c565b62000492565b9050919050565b6000819050919050565b620004e383620004a6565b620004fb620004f282620004ce565b8484546200043c565b825550505050565b600090565b6200051262000503565b6200051f818484620004d8565b505050565b5b8181101562000547576200053b60008262000508565b60018101905062000525565b5050565b601f821115620005965762000560816200040a565b6200056b846200041f565b810160208510156200057b578190505b620005936200058a856200041f565b83018262000524565b50505b505050565b600082821c905092915050565b6000620005bb600019846008026200059b565b1980831691505092915050565b6000620005d68383620005a8565b9150826002028217905092915050565b620005f1826200039b565b67ffffffffffffffff8111156200060d576200060c6200015f565b5b620006198254620003d5565b620006268282856200054b565b600060209050601f8311600181146200065e576000841562000649578287015190505b620006558582620005c8565b865550620006c5565b601f1984166200066e866200040a565b60005b82811015620006985784890151825560018201915060208501945060208101905062000671565b86831015620006b85784890151620006b4601f891682620005a8565b8355505b6001600288020188555050505b505050505050565b7f4e487b7100000000000000000000000000000000000000000000000000000000600052601160045260246000fd5b60008160011c9050919050565b6000808291508390505b60018511156200075b57808604811115620007335762000732620006cd565b5b6001851615620007435780820291505b80810290506200075385620006fc565b945062000713565b94509492505050565b60008262000776576001905062000849565b8162000786576000905062000849565b81600181146200079f5760028114620007aa57620007e0565b600191505062000849565b60ff841115620007bf57620007be620006cd565b5b8360020a915084821115620007d957620007d8620006cd565b5b5062000849565b5060208310610133831016604e8410600b84101617156200081a5782820a905083811115620008145762000813620006cd565b5b62000849565b62000829848484600162000709565b92509050818404811115620008435762000842620006cd565b5b81810290505b9392505050565b60006200085d8262000492565b91506200086a8362000492565b9250620008997fffffffffffffffffffffffffffffffffffffffffffffffffffffffffffffffff848462000764565b905092915050565b6000620008ae8262000492565b9150620008bb8362000492565b9250828202620008cb8162000492565b91508282048414831517620008e557620008e4620006cd565b5b5092915050565b60805161147d6200090f6000396000818161055b0152610852015261147d6000f3fe608060405234801561001057600080fd5b50600436106101005760003560e01c806381d2fd9c11610097578063a9059cbb11610066578063a9059cbb146102c5578063b86d1d63146102f5578063dd62ed3e14610325578063ebbc49651461035557610100565b806381d2fd9c1461023b5780638da5cb5b1461026b57806395d89b41146102895780639c281430146102a757610100565b8063313ce567116100d3578063313ce567146101a15780634fb2e45d146101bf57806370a08231146101db5780637dd8786f1461020b57610100565b806306fdde0314610105578063095ea7b31461012357806318160ddd1461015357806323b872dd14610171575b600080fd5b61010d61035f565b60405161011a9190610e0f565b60405180910390f35b61013d60048036038101906101389190610eca565b6103ed565b60405161014a9190610f25565b60405180910390f35b61015b610404565b6040516101689190610f4f565b60405180910390f35b61018b60048036038101906101869190610f6a565b61040a565b6040516101989190610f25565b60405180910390f35b6101a9610559565b6040516101b69190610fd9565b60405180910390f35b6101d960048036038101906101d49190610ff4565b61057d565b005b6101f560048036038101906101f09190610ff4565b610651565b6040516102029190610f4f565b60405180910390f35b61022560048036038101906102209190610ff4565b610669565b6040516102329190610f4f565b60405180910390f35b61025560048036038101906102509190611021565b610681565b6040516102629190610f25565b60405180910390f35b6102736106ed565b604051610280919061105d565b60405180910390f35b610291610713565b60405161029e9190610e0f565b60405180910390f35b6102af6107a1565b6040516102bc9190610f4f565b60405180910390f35b6102df60048036038101906102da9190610eca565b6107a7565b6040516102ec9190610f25565b60405180910390f35b61030f600480360381019061030a9190610ff4565b6107be565b60405161031c9190610f25565b60405180910390f35b61033f600480360381019061033a9190611078565b610949565b60405161034c9190610f4f565b60405180910390f35b61035d61096e565b005b6000805461036c906110e7565b80601f0160208091040260200160405190810160405280929190818152602001828054610398906110e7565b80156103e55780601f106103ba576101008083540402835291602001916103e5565b820191906000526020600020905b8154815290600101906020018083116103c857829003601f168201915b505050505081565b60006103fa338484610aa5565b6001905092915050565b60025481565b60007fffffffffffffffffffffffffffffffffffffffffffffffffffffffffffffffff600460008673ffffffffffffffffffffffffffffffffffffffff1673ffffffffffffffffffffffffffffffffffffffff16815260200190815260200160002060003373ffffffffffffffffffffffffffffffffffffffff1673ffffffffffffffffffffffffffffffffffffffff16815260200190815260200160002054146105435781600460008673ffffffffffffffffffffffffffffffffffffffff1673ffffffffffffffffffffffffffffffffffffffff16815260200190815260200160002060003373ffffffffffffffffffffffffffffffffffffffff1673ffffffffffffffffffffffffffffffffffffffff168152602001908152602001600020600082825461053b9190611147565b925050819055505b61054e848484610b90565b600190509392505050565b7f000000000000000000000000000000000000000000000000000000000000000081565b600560009054906101000a900473ffffffffffffffffffffffffffffffffffffffff1673ffffffffffffffffffffffffffffffffffffffff163373ffffffffffffffffffffffffffffffffffffffff161461060d576040517f08c379a0000000000000000000000000000000000000000000000000000000008152600401610604906111c7565b60405180910390fd5b80600660006101000a81548173ffffffffffffffffffffffffffffffffffffffff021916908373ffffffffffffffffffffffffffffffffffffffff16021790555050565b60036020528060005260406000206000915090505481565b60076020528060005260406000206000915090505481565b60003373ffffffffffffffffffffffffffffffffffffffff16600560009054906101000a900473ffffffffffffffffffffffffffffffffffffffff1673ffffffffffffffffffffffffffffffffffffffff16146106dd57600080fd5b8160088190555060019050919050565b600560009054906101000a900473ffffffffffffffffffffffffffffffffffffffff1681565b60018054610720906110e7565b80601f016020809104026020016040519081016040528092919081815260200182805461074c906110e7565b80156107995780601f1061076e57610100808354040283529160200191610799565b820191906000526020600020905b81548152906001019060200180831161077c57829003601f168201915b505050505081565b60085481565b60006107b4338484610b90565b6001905092915050565b6000610258600760008473ffffffffffffffffffffffffffffffffffffffff1673ffffffffffffffffffffffffffffffffffffffff1681526020019081526020016000205461080d91906111e7565b421161084e576040517f08c379a000000000000000000000000000000000000000000000000000000000815260040161084590611267565b60405180910390fd5b60007f0000000000000000000000000000000000000000000000000000000000000000600a61087d91906113ba565b60085461088a9190611405565b90506108968382610ca6565b42600760008573ffffffffffffffffffffffffffffffffffffffff1673ffffffffffffffffffffffffffffffffffffffff168152602001908152602001600020819055508273ffffffffffffffffffffffffffffffffffffffff163373ffffffffffffffffffffffffffffffffffffffff167f8df9ef7404c42e7288b0a32e4eabb433f845a4bbdf35bec2b0aebf43ca498d0c836040516109379190610f4f565b60405180910390a36001915050919050565b6004602052816000526040600020602052806000526040600020600091509150505481565b600660009054906101000a900473ffffffffffffffffffffffffffffffffffffffff1673ffffffffffffffffffffffffffffffffffffffff163373ffffffffffffffffffffffffffffffffffffffff16146109fe576040517f08c379a00000000000000000000000000000000000000000000000000000000081526004016109f5906111c7565b60405180910390fd5b600660009054906101000a900473ffffffffffffffffffffffffffffffffffffffff16600560006101000a81548173ffffffffffffffffffffffffffffffffffffffff021916908373ffffffffffffffffffffffffffffffffffffffff1602179055506000600660006101000a81548173ffffffffffffffffffffffffffffffffffffffff021916908373ffffffffffffffffffffffffffffffffffffffff160217905550565b80600460008573ffffffffffffffffffffffffffffffffffffffff1673ffffffffffffffffffffffffffffffffffffffff16815260200190815260200160002060008473ffffffffffffffffffffffffffffffffffffffff1673ffffffffffffffffffffffffffffffffffffffff168152602001908152602001600020819055508173ffffffffffffffffffffffffffffffffffffffff168373ffffffffffffffffffffffffffffffffffffffff167f8c5be1e5ebec7d5bd14f71427d1e84f3dd0314c0f7b2291e5b200ac8c7c3b92583604051610b839190610f4f565b60405180910390a3505050565b80600360008573ffffffffffffffffffffffffffffffffffffffff1673ffffffffffffffffffffffffffffffffffffffff1681526020019081526020016000206000828254610bdf9190611147565b9250508190555080600360008473ffffffffffffffffffffffffffffffffffffffff1673ffffffffffffffffffffffffffffffffffffffff1681526020019081526020016000206000828254610c3591906111e7565b925050819055508173ffffffffffffffffffffffffffffffffffffffff168373ffffffffffffffffffffffffffffffffffffffff167fddf252ad1be2c89b69c2b068fc378daa952ba7f163c4a11628f55a4df523b3ef83604051610c999190610f4f565b60405180910390a3505050565b8060026000828254610cb891906111e7565b9250508190555080600360008473ffffffffffffffffffffffffffffffffffffffff1673ffffffffffffffffffffffffffffffffffffffff1681526020019081526020016000206000828254610d0e91906111e7565b925050819055508173ffffffffffffffffffffffffffffffffffffffff16600073ffffffffffffffffffffffffffffffffffffffff167fddf252ad1be2c89b69c2b068fc378daa952ba7f163c4a11628f55a4df523b3ef83604051610d739190610f4f565b60405180910390a35050565b600081519050919050565b600082825260208201905092915050565b60005b83811015610db9578082015181840152602081019050610d9e565b60008484015250505050565b6000601f19601f8301169050919050565b6000610de182610d7f565b610deb8185610d8a565b9350610dfb818560208601610d9b565b610e0481610dc5565b840191505092915050565b60006020820190508181036000830152610e298184610dd6565b905092915050565b600080fd5b600073ffffffffffffffffffffffffffffffffffffffff82169050919050565b6000610e6182610e36565b9050919050565b610e7181610e56565b8114610e7c57600080fd5b50565b600081359050610e8e81610e68565b92915050565b6000819050919050565b610ea781610e94565b8114610eb257600080fd5b50565b600081359050610ec481610e9e565b92915050565b60008060408385031215610ee157610ee0610e31565b5b6000610eef85828601610e7f565b9250506020610f0085828601610eb5565b9150509250929050565b60008115159050919050565b610f1f81610f0a565b82525050565b6000602082019050610f3a6000830184610f16565b92915050565b610f4981610e94565b82525050565b6000602082019050610f646000830184610f40565b92915050565b600080600060608486031215610f8357610f82610e31565b5b6000610f9186828701610e7f565b9350506020610fa286828701610e7f565b9250506040610fb386828701610eb5565b9150509250925092565b600060ff82169050919050565b610fd381610fbd565b82525050565b6000602082019050610fee6000830184610fca565b92915050565b60006020828403121561100a57611009610e31565b5b600061101884828501610e7f565b91505092915050565b60006020828403121561103757611036610e31565b5b600061104584828501610eb5565b91505092915050565b61105781610e56565b82525050565b6000602082019050611072600083018461104e565b92915050565b6000806040838503121561108f5761108e610e31565b5b600061109d85828601610e7f565b92505060206110ae85828601610e7f565b9150509250929050565b7f4e487b7100000000000000000000000000000000000000000000000000000000600052602260045260246000fd5b600060028204905060018216806110ff57607f821691505b602082108103611112576111116110b8565b5b50919050565b7f4e487b7100000000000000000000000000000000000000000000000000000000600052601160045260246000fd5b600061115282610e94565b915061115d83610e94565b925082820390508181111561117557611174611118565b5b92915050565b7f666f7262696464656e0000000000000000000000000000000000000000000000600082015250565b60006111b1600983610d8a565b91506111bc8261117b565b602082019050919050565b600060208201905081810360008301526111e0816111a4565b9050919050565b60006111f282610e94565b91506111fd83610e94565b925082820190508082111561121557611214611118565b5b92915050565b7f74696d6520776169740000000000000000000000000000000000000000000000600082015250565b6000611251600983610d8a565b915061125c8261121b565b602082019050919050565b6000602082019050818103600083015261128081611244565b9050919050565b60008160011c9050919050565b6000808291508390505b60018511156112de578086048111156112ba576112b9611118565b5b60018516156112c95780820291505b80810290506112d785611287565b945061129e565b94509492505050565b6000826112f757600190506113b3565b8161130557600090506113b3565b816001811461131b576002811461132557611354565b60019150506113b3565b60ff84111561133757611336611118565b5b8360020a91508482111561134e5761134d611118565b5b506113b3565b5060208310610133831016604e8410600b84101617156113895782820a90508381111561138457611383611118565b5b6113b3565b6113968484846001611294565b925090508184048111156113ad576113ac611118565b5b81810290505b9392505050565b60006113c582610e94565b91506113d083610fbd565b92506113fd7fffffffffffffffffffffffffffffffffffffffffffffffffffffffffffffffff84846112e7565b905092915050565b600061141082610e94565b915061141b83610e94565b925082820261142981610e94565b915082820484148315176114405761143f611118565b5b509291505056fea2646970667358221220ccce802059fbf6c451023cc34b17f47f082636beca1abb7ad87629b853b44d2864736f6c63430008110033",
  "linkReferences": {},
  "deployedLinkReferences": {}
}