{
  "_format": "hh-sol-artifact-1",
  "contractName": "WBTC",
  "sourceName": "contracts/WBTC.sol",
  "abi": [
    {
      "inputs": [
        {
          "internalType": "string",
          "name": "_name",
          "type": "string"
        },
        {
          "internalType": "string",
          "name": "_symbol",
          "type": "string"
        },
        {
          "internalType": "uint8",
          "name": "_decimal",
          "type": "uint8"
        }
      ],
      "stateMutability": "nonpayable",
      "type": "constructor"
    },
    {
      "anonymous": false,
      "inputs": [
        {
          "indexed": true,
          "internalType": "address",
          "name": "owner",
          "type": "address"
        },
        {
          "indexed": true,
          "internalType": "address",
          "name": "spender",
          "type": "address"
        },
        {
          "indexed": false,
          "internalType": "uint256",
          "name": "value",
          "type": "uint256"
        }
      ],
      "name": "Approval",
      "type": "event"
    },
    {
      "anonymous": false,
      "inputs": [
        {
          "indexed": true,
          "internalType": "address",
          "name": "sender",
          "type": "address"
        },
        {
          "indexed": true,
          "internalType": "address",
          "name": "to",
          "type": "address"
        },
        {
          "indexed": false,
          "internalType": "uint256",
          "name": "amount",
          "type": "uint256"
        }
      ],
      "name": "Faucet",
      "type": "event"
    },
    {
      "anonymous": false,
      "inputs": [
        {
          "indexed": true,
          "internalType": "address",
          "name": "from",
          "type": "address"
        },
        {
          "indexed": true,
          "internalType": "address",
          "name": "to",
          "type": "address"
        },
        {
          "indexed": false,
          "internalType": "uint256",
          "name": "value",
          "type": "uint256"
        }
      ],
      "name": "Transfer",
      "type": "event"
    },
    {
      "inputs": [],
      "name": "acceptSetter",
      "outputs": [],
      "stateMutability": "nonpayable",
      "type": "function"
    },
    {
      "inputs": [
        {
          "internalType": "address",
          "name": "",
          "type": "address"
        },
        {
          "internalType": "address",
          "name": "",
          "type": "address"
        }
      ],
      "name": "allowance",
      "outputs": [
        {
          "internalType": "uint256",
          "name": "",
          "type": "uint256"
        }
      ],
      "stateMutability": "view",
      "type": "function"
    },
    {
      "inputs": [
        {
          "internalType": "address",
          "name": "spender",
          "type": "address"
        },
        {
          "internalType": "uint256",
          "name": "value",
          "type": "uint256"
        }
      ],
      "name": "approve",
      "outputs": [
        {
          "internalType": "bool",
          "name": "",
          "type": "bool"
        }
      ],
      "stateMutability": "nonpayable",
      "type": "function"
    },
    {
      "inputs": [
        {
          "internalType": "address",
          "name": "",
          "type": "address"
        }
      ],
      "name": "balanceOf",
      "outputs": [
        {
          "internalType": "uint256",
          "name": "",
          "type": "uint256"
        }
      ],
      "stateMutability": "view",
      "type": "function"
    },
    {
      "inputs": [],
      "name": "decimals",
      "outputs": [
        {
          "internalType": "uint8",
          "name": "",
          "type": "uint8"
        }
      ],
      "stateMutability": "view",
      "type": "function"
    },
    {
      "inputs": [
        {
          "internalType": "address",
          "name": "to",
          "type": "address"
        }
      ],
      "name": "faucet",
      "outputs": [
        {
          "internalType": "bool",
          "name": "",
          "type": "bool"
        }
      ],
      "stateMutability": "nonpayable",
      "type": "function"
    },
    {
      "inputs": [],
      "name": "faucetAmount",
      "outputs": [
        {
          "internalType": "uint256",
          "name": "",
          "type": "uint256"
        }
      ],
      "stateMutability": "view",
      "type": "function"
    },
    {
      "inputs": [
        {
          "internalType": "address",
          "name": "",
          "type": "address"
        }
      ],
      "name": "faucetLastOf",
      "outputs": [
        {
          "internalType": "uint256",
          "name": "",
          "type": "uint256"
        }
      ],
      "stateMutability": "view",
      "type": "function"
    },
    {
      "inputs": [],
      "name": "name",
      "outputs": [
        {
          "internalType": "string",
          "name": "",
          "type": "string"
        }
      ],
      "stateMutability": "view",
      "type": "function"
    },
    {
      "inputs": [],
      "name": "owner",
      "outputs": [
        {
          "internalType": "address",
          "name": "",
          "type": "address"
        }
      ],
      "stateMutability": "view",
      "type": "function"
    },
    {
      "inputs": [
        {
          "internalType": "uint256",
          "name": "amount",
          "type": "uint256"
        }
      ],
      "name": "setFaucetAmount",
      "outputs": [
        {
          "internalType": "bool",
          "name": "",
          "type": "bool"
        }
      ],
      "stateMutability": "nonpayable",
      "type": "function"
    },
    {
      "inputs": [],
      "name": "symbol",
      "outputs": [
        {
          "internalType": "string",
          "name": "",
          "type": "string"
        }
      ],
      "stateMutability": "view",
      "type": "function"
    },
    {
      "inputs": [],
      "name": "totalSupply",
      "outputs": [
        {
          "internalType": "uint256",
          "name": "",
          "type": "uint256"
        }
      ],
      "stateMutability": "view",
      "type": "function"
    },
    {
      "inputs": [
        {
          "internalType": "address",
          "name": "to",
          "type": "address"
        },
        {
          "internalType": "uint256",
          "name": "value",
          "type": "uint256"
        }
      ],
      "name": "transfer",
      "outputs": [
        {
          "internalType": "bool",
          "name": "",
          "type": "bool"
        }
      ],
      "stateMutability": "nonpayable",
      "type": "function"
    },
    {
      "inputs": [
        {
          "internalType": "address",
          "name": "from",
          "type": "address"
        },
        {
          "internalType": "address",
          "name": "to",
          "type": "address"
        },
        {
          "internalType": "uint256",
          "name": "value",
          "type": "uint256"
        }
      ],
      "name": "transferFrom",
      "outputs": [
        {
          "internalType": "bool",
          "name": "",
          "type": "bool"
        }
      ],
      "stateMutability": "nonpayable",
      "type": "function"
    },
    {
      "inputs": [
        {
          "internalType": "address",
          "name": "_owner",
          "type": "address"
        }
      ],
      "name": "transferOwner",
      "outputs": [],
      "stateMutability": "nonpayable",
      "type": "function"
    }
  ],
  "bytecode": "0x60a060405260646008553480156200001657600080fd5b5060405162001cff38038062001cff83398181016040528101906200003c919062000301565b8282828260009081620000509190620005e6565b508160019081620000629190620005e6565b508060ff1660808160ff168152505050505033600560006101000a81548173ffffffffffffffffffffffffffffffffffffffff021916908373ffffffffffffffffffffffffffffffffffffffff16021790555060805160ff16600a620000c9919062000850565b6402540be400620000db9190620008a1565b600281905550600254600360003373ffffffffffffffffffffffffffffffffffffffff1673ffffffffffffffffffffffffffffffffffffffff16815260200190815260200160002081905550505050620008ec565b6000604051905090565b600080fd5b600080fd5b600080fd5b600080fd5b6000601f19601f8301169050919050565b7f4e487b7100000000000000000000000000000000000000000000000000000000600052604160045260246000fd5b62000199826200014e565b810181811067ffffffffffffffff82111715620001bb57620001ba6200015f565b5b80604052505050565b6000620001d062000130565b9050620001de82826200018e565b919050565b600067ffffffffffffffff8211156200020157620002006200015f565b5b6200020c826200014e565b9050602081019050919050565b60005b83811015620002395780820151818401526020810190506200021c565b60008484015250505050565b60006200025c6200025684620001e3565b620001c4565b9050828152602081018484840111156200027b576200027a62000149565b5b6200028884828562000219565b509392505050565b600082601f830112620002a857620002a762000144565b5b8151620002ba84826020860162000245565b91505092915050565b600060ff82169050919050565b620002db81620002c3565b8114620002e757600080fd5b50565b600081519050620002fb81620002d0565b92915050565b6000806000606084860312156200031d576200031c6200013a565b5b600084015167ffffffffffffffff8111156200033e576200033d6200013f565b5b6200034c8682870162000290565b935050602084015167ffffffffffffffff81111562000370576200036f6200013f565b5b6200037e8682870162000290565b92505060406200039186828701620002ea565b9150509250925092565b600081519050919050565b7f4e487b7100000000000000000000000000000000000000000000000000000000600052602260045260246000fd5b60006002820490506001821680620003ee57607f821691505b602082108103620004045762000403620003a6565b5b50919050565b60008190508160005260206000209050919050565b60006020601f8301049050919050565b600082821b905092915050565b6000600883026200046e7fffffffffffffffffffffffffffffffffffffffffffffffffffffffffffffffff826200042f565b6200047a86836200042f565b95508019841693508086168417925050509392505050565b6000819050919050565b6000819050919050565b6000620004c7620004c1620004bb8462000492565b6200049c565b62000492565b9050919050565b6000819050919050565b620004e383620004a6565b620004fb620004f282620004ce565b8484546200043c565b825550505050565b600090565b6200051262000503565b6200051f818484620004d8565b505050565b5b8181101562000547576200053b60008262000508565b60018101905062000525565b5050565b601f821115620005965762000560816200040a565b6200056b846200041f565b810160208510156200057b578190505b620005936200058a856200041f565b83018262000524565b50505b505050565b600082821c905092915050565b6000620005bb600019846008026200059b565b1980831691505092915050565b6000620005d68383620005a8565b9150826002028217905092915050565b620005f1826200039b565b67ffffffffffffffff8111156200060d576200060c6200015f565b5b620006198254620003d5565b620006268282856200054b565b600060209050601f8311600181146200065e576000841562000649578287015190505b620006558582620005c8565b865550620006c5565b601f1984166200066e866200040a565b60005b82811015620006985784890151825560018201915060208501945060208101905062000671565b86831015620006b85784890151620006b4601f891682620005a8565b8355505b6001600288020188555050505b505050505050565b7f4e487b7100000000000000000000000000000000000000000000000000000000600052601160045260246000fd5b60008160011c9050919050565b6000808291508390505b60018511156200075b57808604811115620007335762000732620006cd565b5b6001851615620007435780820291505b80810290506200075385620006fc565b945062000713565b94509492505050565b60008262000776576001905062000849565b8162000786576000905062000849565b81600181146200079f5760028114620007aa57620007e0565b600191505062000849565b60ff841115620007bf57620007be620006cd565b5b8360020a915084821115620007d957620007d8620006cd565b5b5062000849565b5060208310610133831016604e8410600b84101617156200081a5782820a905083811115620008145762000813620006cd565b5b62000849565b62000829848484600162000709565b92509050818404811115620008435762000842620006cd565b5b81810290505b9392505050565b60006200085d8262000492565b91506200086a8362000492565b9250620008997fffffffffffffffffffffffffffffffffffffffffffffffffffffffffffffffff848462000764565b905092915050565b6000620008ae8262000492565b9150620008bb8362000492565b9250828202620008cb8162000492565b91508282048414831517620008e557620008e4620006cd565b5b5092915050565b6080516113f06200090f6000396000818161055b015261098901526113f06000f3fe608060405234801561001057600080fd5b50600436106101005760003560e01c80637dd8786f116100975780639c281430116100665780639c281430146102b1578063a9059cbb146102cf578063b86d1d63146102ff578063dd62ed3e1461032f57610100565b80637dd8786f1461021557806381d2fd9c146102455780638da5cb5b1461027557806395d89b411461029357610100565b8063313ce567116100d3578063313ce567146101a15780634fb2e45d146101bf5780635f8e422f146101db57806370a08231146101e557610100565b806306fdde0314610105578063095ea7b31461012357806318160ddd1461015357806323b872dd14610171575b600080fd5b61010d61035f565b60405161011a9190610d82565b60405180910390f35b61013d60048036038101906101389190610e3d565b6103ed565b60405161014a9190610e98565b60405180910390f35b61015b610404565b6040516101689190610ec2565b60405180910390f35b61018b60048036038101906101869190610edd565b61040a565b6040516101989190610e98565b60405180910390f35b6101a9610559565b6040516101b69190610f4c565b60405180910390f35b6101d960048036038101906101d49190610f67565b61057d565b005b6101e3610651565b005b6101ff60048036038101906101fa9190610f67565b610788565b60405161020c9190610ec2565b60405180910390f35b61022f600480360381019061022a9190610f67565b6107a0565b60405161023c9190610ec2565b60405180910390f35b61025f600480360381019061025a9190610f94565b6107b8565b60405161026c9190610e98565b60405180910390f35b61027d610824565b60405161028a9190610fd0565b60405180910390f35b61029b61084a565b6040516102a89190610d82565b60405180910390f35b6102b96108d8565b6040516102c69190610ec2565b60405180910390f35b6102e960048036038101906102e49190610e3d565b6108de565b6040516102f69190610e98565b60405180910390f35b61031960048036038101906103149190610f67565b6108f5565b6040516103269190610e98565b60405180910390f35b61034960048036038101906103449190610feb565b610acc565b6040516103569190610ec2565b60405180910390f35b6000805461036c9061105a565b80601f01602080910402602001604051908101604052809291908181526020018280546103989061105a565b80156103e55780601f106103ba576101008083540402835291602001916103e5565b820191906000526020600020905b8154815290600101906020018083116103c857829003601f168201915b505050505081565b60006103fa338484610af1565b6001905092915050565b60025481565b60007fffffffffffffffffffffffffffffffffffffffffffffffffffffffffffffffff600460008673ffffffffffffffffffffffffffffffffffffffff1673ffffffffffffffffffffffffffffffffffffffff16815260200190815260200160002060003373ffffffffffffffffffffffffffffffffffffffff1673ffffffffffffffffffffffffffffffffffffffff16815260200190815260200160002054146105435781600460008673ffffffffffffffffffffffffffffffffffffffff1673ffffffffffffffffffffffffffffffffffffffff16815260200190815260200160002060003373ffffffffffffffffffffffffffffffffffffffff1673ffffffffffffffffffffffffffffffffffffffff168152602001908152602001600020600082825461053b91906110ba565b925050819055505b61054e848484610bdc565b600190509392505050565b7f000000000000000000000000000000000000000000000000000000000000000081565b600560009054906101000a900473ffffffffffffffffffffffffffffffffffffffff1673ffffffffffffffffffffffffffffffffffffffff163373ffffffffffffffffffffffffffffffffffffffff161461060d576040517f08c379a00000000000000000000000000000000000000000000000000000000081526004016106049061113a565b60405180910390fd5b80600660006101000a81548173ffffffffffffffffffffffffffffffffffffffff021916908373ffffffffffffffffffffffffffffffffffffffff16021790555050565b600660009054906101000a900473ffffffffffffffffffffffffffffffffffffffff1673ffffffffffffffffffffffffffffffffffffffff163373ffffffffffffffffffffffffffffffffffffffff16146106e1576040517f08c379a00000000000000000000000000000000000000000000000000000000081526004016106d89061113a565b60405180910390fd5b600660009054906101000a900473ffffffffffffffffffffffffffffffffffffffff16600560006101000a81548173ffffffffffffffffffffffffffffffffffffffff021916908373ffffffffffffffffffffffffffffffffffffffff1602179055506000600660006101000a81548173ffffffffffffffffffffffffffffffffffffffff021916908373ffffffffffffffffffffffffffffffffffffffff160217905550565b60036020528060005260406000206000915090505481565b60076020528060005260406000206000915090505481565b60003373ffffffffffffffffffffffffffffffffffffffff16600560009054906101000a900473ffffffffffffffffffffffffffffffffffffffff1673ffffffffffffffffffffffffffffffffffffffff161461081457600080fd5b8160088190555060019050919050565b600560009054906101000a900473ffffffffffffffffffffffffffffffffffffffff1681565b600180546108579061105a565b80601f01602080910402602001604051908101604052809291908181526020018280546108839061105a565b80156108d05780601f106108a5576101008083540402835291602001916108d0565b820191906000526020600020905b8154815290600101906020018083116108b357829003601f168201915b505050505081565b60085481565b60006108eb338484610bdc565b6001905092915050565b6000610258600760008473ffffffffffffffffffffffffffffffffffffffff1673ffffffffffffffffffffffffffffffffffffffff16815260200190815260200160002054610944919061115a565b4211610985576040517f08c379a000000000000000000000000000000000000000000000000000000000815260040161097c906111da565b60405180910390fd5b60007f0000000000000000000000000000000000000000000000000000000000000000600a6109b4919061132d565b6008546109c19190611378565b905080600360008573ffffffffffffffffffffffffffffffffffffffff1673ffffffffffffffffffffffffffffffffffffffff1681526020019081526020016000206000828254610a12919061115a565b9250508190555042600760008573ffffffffffffffffffffffffffffffffffffffff1673ffffffffffffffffffffffffffffffffffffffff168152602001908152602001600020819055508273ffffffffffffffffffffffffffffffffffffffff163373ffffffffffffffffffffffffffffffffffffffff167f8df9ef7404c42e7288b0a32e4eabb433f845a4bbdf35bec2b0aebf43ca498d0c83604051610aba9190610ec2565b60405180910390a36001915050919050565b6004602052816000526040600020602052806000526040600020600091509150505481565b80600460008573ffffffffffffffffffffffffffffffffffffffff1673ffffffffffffffffffffffffffffffffffffffff16815260200190815260200160002060008473ffffffffffffffffffffffffffffffffffffffff1673ffffffffffffffffffffffffffffffffffffffff168152602001908152602001600020819055508173ffffffffffffffffffffffffffffffffffffffff168373ffffffffffffffffffffffffffffffffffffffff167f8c5be1e5ebec7d5bd14f71427d1e84f3dd0314c0f7b2291e5b200ac8c7c3b92583604051610bcf9190610ec2565b60405180910390a3505050565b80600360008573ffffffffffffffffffffffffffffffffffffffff1673ffffffffffffffffffffffffffffffffffffffff1681526020019081526020016000206000828254610c2b91906110ba565b9250508190555080600360008473ffffffffffffffffffffffffffffffffffffffff1673ffffffffffffffffffffffffffffffffffffffff1681526020019081526020016000206000828254610c81919061115a565b925050819055508173ffffffffffffffffffffffffffffffffffffffff168373ffffffffffffffffffffffffffffffffffffffff167fddf252ad1be2c89b69c2b068fc378daa952ba7f163c4a11628f55a4df523b3ef83604051610ce59190610ec2565b60405180910390a3505050565b600081519050919050565b600082825260208201905092915050565b60005b83811015610d2c578082015181840152602081019050610d11565b60008484015250505050565b6000601f19601f8301169050919050565b6000610d5482610cf2565b610d5e8185610cfd565b9350610d6e818560208601610d0e565b610d7781610d38565b840191505092915050565b60006020820190508181036000830152610d9c8184610d49565b905092915050565b600080fd5b600073ffffffffffffffffffffffffffffffffffffffff82169050919050565b6000610dd482610da9565b9050919050565b610de481610dc9565b8114610def57600080fd5b50565b600081359050610e0181610ddb565b92915050565b6000819050919050565b610e1a81610e07565b8114610e2557600080fd5b50565b600081359050610e3781610e11565b92915050565b60008060408385031215610e5457610e53610da4565b5b6000610e6285828601610df2565b9250506020610e7385828601610e28565b9150509250929050565b60008115159050919050565b610e9281610e7d565b82525050565b6000602082019050610ead6000830184610e89565b92915050565b610ebc81610e07565b82525050565b6000602082019050610ed76000830184610eb3565b92915050565b600080600060608486031215610ef657610ef5610da4565b5b6000610f0486828701610df2565b9350506020610f1586828701610df2565b9250506040610f2686828701610e28565b9150509250925092565b600060ff82169050919050565b610f4681610f30565b82525050565b6000602082019050610f616000830184610f3d565b92915050565b600060208284031215610f7d57610f7c610da4565b5b6000610f8b84828501610df2565b91505092915050565b600060208284031215610faa57610fa9610da4565b5b6000610fb884828501610e28565b91505092915050565b610fca81610dc9565b82525050565b6000602082019050610fe56000830184610fc1565b92915050565b6000806040838503121561100257611001610da4565b5b600061101085828601610df2565b925050602061102185828601610df2565b9150509250929050565b7f4e487b7100000000000000000000000000000000000000000000000000000000600052602260045260246000fd5b6000600282049050600182168061107257607f821691505b6020821081036110855761108461102b565b5b50919050565b7f4e487b7100000000000000000000000000000000000000000000000000000000600052601160045260246000fd5b60006110c582610e07565b91506110d083610e07565b92508282039050818111156110e8576110e761108b565b5b92915050565b7f666f7262696464656e0000000000000000000000000000000000000000000000600082015250565b6000611124600983610cfd565b915061112f826110ee565b602082019050919050565b6000602082019050818103600083015261115381611117565b9050919050565b600061116582610e07565b915061117083610e07565b92508282019050808211156111885761118761108b565b5b92915050565b7f74696d6520776169740000000000000000000000000000000000000000000000600082015250565b60006111c4600983610cfd565b91506111cf8261118e565b602082019050919050565b600060208201905081810360008301526111f3816111b7565b9050919050565b60008160011c9050919050565b6000808291508390505b60018511156112515780860481111561122d5761122c61108b565b5b600185161561123c5780820291505b808102905061124a856111fa565b9450611211565b94509492505050565b60008261126a5760019050611326565b816112785760009050611326565b816001811461128e5760028114611298576112c7565b6001915050611326565b60ff8411156112aa576112a961108b565b5b8360020a9150848211156112c1576112c061108b565b5b50611326565b5060208310610133831016604e8410600b84101617156112fc5782820a9050838111156112f7576112f661108b565b5b611326565b6113098484846001611207565b925090508184048111156113205761131f61108b565b5b81810290505b9392505050565b600061133882610e07565b915061134383610f30565b92506113707fffffffffffffffffffffffffffffffffffffffffffffffffffffffffffffffff848461125a565b905092915050565b600061138382610e07565b915061138e83610e07565b925082820261139c81610e07565b915082820484148315176113b3576113b261108b565b5b509291505056fea2646970667358221220bf6ddf10e0d3332789b0e97537c711a54cb2a0ea4c49852813e5df0562071e8164736f6c63430008110033",
  "linkReferences": {},
  "deployedLinkReferences": {}
}