{
  "_format": "hh-sol-artifact-1",
  "contractName": "MultiSignERC20Wallet",
  "sourceName": "contracts/multiSignERC20Wallet.sol",
  "abi": [
    {
      "inputs": [
        {
          "internalType": "address[]",
          "name": "_signers",
          "type": "address[]"
        },
        {
          "internalType": "uint8",
          "name": "_requireCount",
          "type": "uint8"
        },
        {
          "internalType": "address",
          "name": "_token",
          "type": "address"
        }
      ],
      "stateMutability": "nonpayable",
      "type": "constructor"
    },
    {
      "anonymous": false,
      "inputs": [
        {
          "indexed": false,
          "internalType": "uint8",
          "name": "changeRequireCount",
          "type": "uint8"
        }
      ],
      "name": "ChangeRequireCount",
      "type": "event"
    },
    {
      "anonymous": false,
      "inputs": [
        {
          "indexed": true,
          "internalType": "address",
          "name": "signer",
          "type": "address"
        }
      ],
      "name": "SignerAddition",
      "type": "event"
    },
    {
      "anonymous": false,
      "inputs": [
        {
          "indexed": true,
          "internalType": "address",
          "name": "signer",
          "type": "address"
        }
      ],
      "name": "SignerRemoval",
      "type": "event"
    },
    {
      "anonymous": false,
      "inputs": [
        {
          "indexed": true,
          "internalType": "address",
          "name": "sender",
          "type": "address"
        },
        {
          "indexed": true,
          "internalType": "address",
          "name": "to",
          "type": "address"
        },
        {
          "indexed": false,
          "internalType": "bytes32",
          "name": "symbol",
          "type": "bytes32"
        },
        {
          "indexed": false,
          "internalType": "uint256",
          "name": "amount",
          "type": "uint256"
        }
      ],
      "name": "Wrap",
      "type": "event"
    },
    {
      "inputs": [
        {
          "internalType": "uint256",
          "name": "number",
          "type": "uint256"
        },
        {
          "internalType": "uint8",
          "name": "newCount",
          "type": "uint8"
        }
      ],
      "name": "agreeCountProposal",
      "outputs": [],
      "stateMutability": "nonpayable",
      "type": "function"
    },
    {
      "inputs": [
        {
          "internalType": "uint256",
          "name": "number",
          "type": "uint256"
        },
        {
          "internalType": "int8",
          "name": "d",
          "type": "int8"
        },
        {
          "internalType": "address",
          "name": "signer",
          "type": "address"
        }
      ],
      "name": "agreeSignerProposal",
      "outputs": [],
      "stateMutability": "nonpayable",
      "type": "function"
    },
    {
      "inputs": [
        {
          "internalType": "uint256",
          "name": "",
          "type": "uint256"
        }
      ],
      "name": "countProposals",
      "outputs": [
        {
          "internalType": "uint8",
          "name": "newCount",
          "type": "uint8"
        },
        {
          "internalType": "uint8",
          "name": "agreedCount",
          "type": "uint8"
        },
        {
          "internalType": "uint256",
          "name": "overTime",
          "type": "uint256"
        }
      ],
      "stateMutability": "view",
      "type": "function"
    },
    {
      "inputs": [
        {
          "internalType": "uint256",
          "name": "",
          "type": "uint256"
        },
        {
          "internalType": "address",
          "name": "",
          "type": "address"
        }
      ],
      "name": "isCountProposalAgreed",
      "outputs": [
        {
          "internalType": "bool",
          "name": "",
          "type": "bool"
        }
      ],
      "stateMutability": "view",
      "type": "function"
    },
    {
      "inputs": [
        {
          "internalType": "uint256",
          "name": "",
          "type": "uint256"
        },
        {
          "internalType": "address",
          "name": "",
          "type": "address"
        }
      ],
      "name": "isSignerProposalAgreed",
      "outputs": [
        {
          "internalType": "bool",
          "name": "",
          "type": "bool"
        }
      ],
      "stateMutability": "view",
      "type": "function"
    },
    {
      "inputs": [],
      "name": "overTime",
      "outputs": [
        {
          "internalType": "uint256",
          "name": "",
          "type": "uint256"
        }
      ],
      "stateMutability": "view",
      "type": "function"
    },
    {
      "inputs": [],
      "name": "requireCount",
      "outputs": [
        {
          "internalType": "uint8",
          "name": "",
          "type": "uint8"
        }
      ],
      "stateMutability": "view",
      "type": "function"
    },
    {
      "inputs": [
        {
          "internalType": "bytes32",
          "name": "txid",
          "type": "bytes32"
        },
        {
          "internalType": "uint256",
          "name": "amount",
          "type": "uint256"
        },
        {
          "internalType": "address payable",
          "name": "to",
          "type": "address"
        }
      ],
      "name": "send",
      "outputs": [],
      "stateMutability": "nonpayable",
      "type": "function"
    },
    {
      "inputs": [
        {
          "internalType": "uint256",
          "name": "",
          "type": "uint256"
        }
      ],
      "name": "signerProposals",
      "outputs": [
        {
          "internalType": "int8",
          "name": "d",
          "type": "int8"
        },
        {
          "internalType": "address",
          "name": "signer",
          "type": "address"
        },
        {
          "internalType": "uint8",
          "name": "agreedCount",
          "type": "uint8"
        },
        {
          "internalType": "uint256",
          "name": "overTime",
          "type": "uint256"
        }
      ],
      "stateMutability": "view",
      "type": "function"
    },
    {
      "inputs": [
        {
          "internalType": "uint256",
          "name": "",
          "type": "uint256"
        }
      ],
      "name": "signers",
      "outputs": [
        {
          "internalType": "address",
          "name": "",
          "type": "address"
        }
      ],
      "stateMutability": "view",
      "type": "function"
    },
    {
      "inputs": [
        {
          "internalType": "uint8",
          "name": "newCount",
          "type": "uint8"
        }
      ],
      "name": "submitCountProposal",
      "outputs": [
        {
          "internalType": "uint256",
          "name": "",
          "type": "uint256"
        }
      ],
      "stateMutability": "nonpayable",
      "type": "function"
    },
    {
      "inputs": [
        {
          "internalType": "int8",
          "name": "d",
          "type": "int8"
        },
        {
          "internalType": "address",
          "name": "signer",
          "type": "address"
        }
      ],
      "name": "submitSignerProposal",
      "outputs": [
        {
          "internalType": "uint256",
          "name": "",
          "type": "uint256"
        }
      ],
      "stateMutability": "nonpayable",
      "type": "function"
    },
    {
      "inputs": [],
      "name": "token",
      "outputs": [
        {
          "internalType": "contract IERC20",
          "name": "",
          "type": "address"
        }
      ],
      "stateMutability": "view",
      "type": "function"
    },
    {
      "inputs": [
        {
          "internalType": "address",
          "name": "to",
          "type": "address"
        },
        {
          "internalType": "bytes32",
          "name": "symbol",
          "type": "bytes32"
        },
        {
          "internalType": "uint256",
          "name": "amount",
          "type": "uint256"
        }
      ],
      "name": "wrap",
      "outputs": [],
      "stateMutability": "nonpayable",
      "type": "function"
    }
  ],
  "bytecode": "0x60a06040523480156200001157600080fd5b5060405162002e5838038062002e5883398181016040528101906200003791906200059d565b828260005b82518160ff161015620001f457600060016000858460ff168151811062000068576200006762000618565b5b602002602001015173ffffffffffffffffffffffffffffffffffffffff1673ffffffffffffffffffffffffffffffffffffffff16815260200190815260200160002060009054906101000a900460ff1660ff16148015620001165750600073ffffffffffffffffffffffffffffffffffffffff16838260ff1681518110620000f557620000f462000618565b5b602002602001015173ffffffffffffffffffffffffffffffffffffffff1614155b62000158576040517f08c379a00000000000000000000000000000000000000000000000000000000081526004016200014f90620006a8565b60405180910390fd5b600181620001679190620006f9565b60016000858460ff168151811062000184576200018362000618565b5b602002602001015173ffffffffffffffffffffffffffffffffffffffff1673ffffffffffffffffffffffffffffffffffffffff16815260200190815260200160002060006101000a81548160ff021916908360ff1602179055508080620001eb9062000735565b9150506200003c565b5081600090805190602001906200020d929190620002c3565b5060026000805490506200022291906200079c565b8160ff161162000269576040517f08c379a0000000000000000000000000000000000000000000000000000000008152600401620002609062000824565b60405180910390fd5b80600260006101000a81548160ff021916908360ff16021790555050508073ffffffffffffffffffffffffffffffffffffffff1660808173ffffffffffffffffffffffffffffffffffffffff168152505050505062000846565b8280548282559060005260206000209081019282156200033f579160200282015b828111156200033e5782518260006101000a81548173ffffffffffffffffffffffffffffffffffffffff021916908373ffffffffffffffffffffffffffffffffffffffff16021790555091602001919060010190620002e4565b5b5090506200034e919062000352565b5090565b5b808211156200036d57600081600090555060010162000353565b5090565b6000604051905090565b600080fd5b600080fd5b600080fd5b6000601f19601f8301169050919050565b7f4e487b7100000000000000000000000000000000000000000000000000000000600052604160045260246000fd5b620003d5826200038a565b810181811067ffffffffffffffff82111715620003f757620003f66200039b565b5b80604052505050565b60006200040c62000371565b90506200041a8282620003ca565b919050565b600067ffffffffffffffff8211156200043d576200043c6200039b565b5b602082029050602081019050919050565b600080fd5b600073ffffffffffffffffffffffffffffffffffffffff82169050919050565b6000620004808262000453565b9050919050565b620004928162000473565b81146200049e57600080fd5b50565b600081519050620004b28162000487565b92915050565b6000620004cf620004c9846200041f565b62000400565b90508083825260208201905060208402830185811115620004f557620004f46200044e565b5b835b818110156200052257806200050d8882620004a1565b845260208401935050602081019050620004f7565b5050509392505050565b600082601f83011262000544576200054362000385565b5b815162000556848260208601620004b8565b91505092915050565b600060ff82169050919050565b62000577816200055f565b81146200058357600080fd5b50565b60008151905062000597816200056c565b92915050565b600080600060608486031215620005b957620005b86200037b565b5b600084015167ffffffffffffffff811115620005da57620005d962000380565b5b620005e8868287016200052c565b9350506020620005fb8682870162000586565b92505060406200060e86828701620004a1565b9150509250925092565b7f4e487b7100000000000000000000000000000000000000000000000000000000600052603260045260246000fd5b600082825260208201905092915050565b7f696e76616c6964206f72206475706c696361746564207369676e657200000000600082015250565b600062000690601c8362000647565b91506200069d8262000658565b602082019050919050565b60006020820190508181036000830152620006c38162000681565b9050919050565b7f4e487b7100000000000000000000000000000000000000000000000000000000600052601160045260246000fd5b600062000706826200055f565b915062000713836200055f565b9250828201905060ff8111156200072f576200072e620006ca565b5b92915050565b600062000742826200055f565b915060ff8203620007585762000757620006ca565b5b600182019050919050565b6000819050919050565b7f4e487b7100000000000000000000000000000000000000000000000000000000600052601260045260246000fd5b6000620007a98262000763565b9150620007b68362000763565b925082620007c957620007c86200076d565b5b828204905092915050565b7f746f6f20736d616c6c2072657175697265436f756e7400000000000000000000600082015250565b60006200080c60168362000647565b91506200081982620007d4565b602082019050919050565b600060208201905081810360008301526200083f81620007fd565b9050919050565b6080516125e8620008706000396000818161075d01528181610bc8015261135c01526125e86000f3fe608060405234801561001057600080fd5b50600436106100ea5760003560e01c8063bc2c1e771161008c578063e019ca7c11610066578063e019ca7c14610272578063ee6c829b146102a2578063fc0c546a146102d4578063fe6931b7146102f2576100ea565b8063bc2c1e77146101f1578063c34bc9281461020f578063cb1c8f681461023f576100ea565b80632079fb9a116100c85780632079fb9a1461015757806323c92f24146101875780636647c269146101b757806383051fde146101d3576100ea565b8063092d1148146100ef57806318a922a71461010b5780631df7de0e1461013b575b600080fd5b61010960048036038101906101049190611ab8565b61030e565b005b61012560048036038101906101209190611b82565b610800565b6040516101329190611bd1565b60405180910390f35b61015560048036038101906101509190611bec565b610bc6565b005b610171600480360381019061016c9190611c3f565b610cd3565b60405161017e9190611c7b565b60405180910390f35b6101a1600480360381019061019c9190611c96565b610d12565b6040516101ae9190611cf1565b60405180910390f35b6101d160048036038101906101cc9190611d45565b610d41565b005b6101db61100e565b6040516101e89190611d94565b60405180910390f35b6101f9611021565b6040516102069190611bd1565b60405180910390f35b61022960048036038101906102249190611daf565b611028565b6040516102369190611bd1565b60405180910390f35b61025960048036038101906102549190611c3f565b61127d565b6040516102699493929190611deb565b60405180910390f35b61028c60048036038101906102879190611c96565b6112e7565b6040516102999190611cf1565b60405180910390f35b6102bc60048036038101906102b79190611c3f565b611316565b6040516102cb93929190611e30565b60405180910390f35b6102dc61135a565b6040516102e99190611ec6565b60405180910390f35b61030c60048036038101906103079190611ee1565b61137e565b005b6000600160003373ffffffffffffffffffffffffffffffffffffffff1673ffffffffffffffffffffffffffffffffffffffff16815260200190815260200160002060009054906101000a900460ff1660ff16116103a0576040517f08c379a000000000000000000000000000000000000000000000000000000000815260040161039790611f91565b60405180910390fd5b6007600084815260200190815260200160002060030160009054906101000a900460ff1615610404576040517f08c379a00000000000000000000000000000000000000000000000000000000081526004016103fb90611ffd565b60405180910390fd5b600073ffffffffffffffffffffffffffffffffffffffff166007600085815260200190815260200160002060010160009054906101000a900473ffffffffffffffffffffffffffffffffffffffff1673ffffffffffffffffffffffffffffffffffffffff160361053f5760405180608001604052808381526020018273ffffffffffffffffffffffffffffffffffffffff1681526020016000815260200160001515815250600760008581526020019081526020016000206000820151816000015560208201518160010160006101000a81548173ffffffffffffffffffffffffffffffffffffffff021916908373ffffffffffffffffffffffffffffffffffffffff1602179055506040820151816002015560608201518160030160006101000a81548160ff021916908315150217905550905050610605565b8160076000858152602001908152602001600020600001541480156105c557508073ffffffffffffffffffffffffffffffffffffffff166007600085815260200190815260200160002060010160009054906101000a900473ffffffffffffffffffffffffffffffffffffffff1673ffffffffffffffffffffffffffffffffffffffff16145b610604576040517f08c379a00000000000000000000000000000000000000000000000000000000081526004016105fb90612069565b60405180910390fd5b5b600860003373ffffffffffffffffffffffffffffffffffffffff1673ffffffffffffffffffffffffffffffffffffffff168152602001908152602001600020600084815260200190815260200160002060009054906101000a900460ff166106fd576001600860003373ffffffffffffffffffffffffffffffffffffffff1673ffffffffffffffffffffffffffffffffffffffff168152602001908152602001600020600085815260200190815260200160002060006101000a81548160ff0219169083151502179055506007600084815260200190815260200160002060020160008154809291906106f7906120b8565b91905055505b600260009054906101000a900460ff1660ff166007600085815260200190815260200160002060020154106107fb5760016007600085815260200190815260200160002060030160006101000a81548160ff0219169083151502179055507f000000000000000000000000000000000000000000000000000000000000000073ffffffffffffffffffffffffffffffffffffffff1663a9059cbb82846040518363ffffffff1660e01b81526004016107b6929190612121565b6020604051808303816000875af11580156107d5573d6000803e3d6000fd5b505050506040513d601f19601f820116820180604052508101906107f99190612176565b505b505050565b600080600160003373ffffffffffffffffffffffffffffffffffffffff1673ffffffffffffffffffffffffffffffffffffffff16815260200190815260200160002060009054906101000a900460ff1660ff1611610893576040517f08c379a000000000000000000000000000000000000000000000000000000000815260040161088a90611f91565b60405180910390fd5b60006003600043815260200190815260200160002060000160009054906101000a900460000b60000b146108fc576040517f08c379a00000000000000000000000000000000000000000000000000000000081526004016108f3906121ef565b60405180910390fd5b7fffffffffffffffffffffffffffffffffffffffffffffffffffffffffffffffff8360000b036109bd576000600160008473ffffffffffffffffffffffffffffffffffffffff1673ffffffffffffffffffffffffffffffffffffffff16815260200190815260200160002060009054906101000a900460ff1660ff16116109b8576040517f08c379a00000000000000000000000000000000000000000000000000000000081526004016109af9061225b565b60405180910390fd5b610a5c565b60018360000b03610a5b576000600160008473ffffffffffffffffffffffffffffffffffffffff1673ffffffffffffffffffffffffffffffffffffffff16815260200190815260200160002060009054906101000a900460ff1660ff1614610a5a576040517f08c379a0000000000000000000000000000000000000000000000000000000008152600401610a51906122c7565b60405180910390fd5b5b5b60405180608001604052808460000b81526020018373ffffffffffffffffffffffffffffffffffffffff168152602001600160ff1681526020016201518042610aa591906122e7565b8152506003600043815260200190815260200160002060008201518160000160006101000a81548160ff021916908360000b60ff16021790555060208201518160000160016101000a81548173ffffffffffffffffffffffffffffffffffffffff021916908373ffffffffffffffffffffffffffffffffffffffff16021790555060408201518160000160156101000a81548160ff021916908360ff1602179055506060820151816001015590505060016004600043815260200190815260200160002060003373ffffffffffffffffffffffffffffffffffffffff1673ffffffffffffffffffffffffffffffffffffffff16815260200190815260200160002060006101000a81548160ff02191690831515021790555043905092915050565b7f000000000000000000000000000000000000000000000000000000000000000073ffffffffffffffffffffffffffffffffffffffff166323b872dd3330846040518463ffffffff1660e01b8152600401610c239392919061231b565b6020604051808303816000875af1158015610c42573d6000803e3d6000fd5b505050506040513d601f19601f82011682018060405250810190610c669190612176565b508273ffffffffffffffffffffffffffffffffffffffff163373ffffffffffffffffffffffffffffffffffffffff167fc07a5330986048e0e2b01e559656897bc3dca20f6d8a2d10bae879bf626835f58484604051610cc6929190612361565b60405180910390a3505050565b60008181548110610ce357600080fd5b906000526020600020016000915054906101000a900473ffffffffffffffffffffffffffffffffffffffff1681565b60046020528160005260406000206020528060005260406000206000915091509054906101000a900460ff1681565b6000600160003373ffffffffffffffffffffffffffffffffffffffff1673ffffffffffffffffffffffffffffffffffffffff16815260200190815260200160002060009054906101000a900460ff1660ff1611610dd3576040517f08c379a0000000000000000000000000000000000000000000000000000000008152600401610dca90611f91565b60405180910390fd5b8060ff166005600084815260200190815260200160002060000160009054906101000a900460ff1660ff16148015610e21575042600560008481526020019081526020016000206001015410155b610e60576040517f08c379a0000000000000000000000000000000000000000000000000000000008152600401610e57906123d6565b60405180910390fd5b6006600083815260200190815260200160002060003373ffffffffffffffffffffffffffffffffffffffff1673ffffffffffffffffffffffffffffffffffffffff16815260200190815260200160002060009054906101000a900460ff16610f785760016006600084815260200190815260200160002060003373ffffffffffffffffffffffffffffffffffffffff1673ffffffffffffffffffffffffffffffffffffffff16815260200190815260200160002060006101000a81548160ff02191690831515021790555060056000838152602001908152602001600020600001600181819054906101000a900460ff1680929190610f5e906123f6565b91906101000a81548160ff021916908360ff160217905550505b600260009054906101000a900460ff1660ff166005600084815260200190815260200160002060000160019054906101000a900460ff1660ff161061100a5780600260006101000a81548160ff021916908360ff1602179055507f971ed33ab126ac4c0a07a18b84ed2990cde2ae87b25cd5009c84e7e5c9c8cffd816040516110019190611d94565b60405180910390a15b5050565b600260009054906101000a900460ff1681565b6201518081565b600080600160003373ffffffffffffffffffffffffffffffffffffffff1673ffffffffffffffffffffffffffffffffffffffff16815260200190815260200160002060009054906101000a900460ff1660ff16116110bb576040517f08c379a00000000000000000000000000000000000000000000000000000000081526004016110b290611f91565b60405180910390fd5b60006005600043815260200190815260200160002060000160009054906101000a900460ff1660ff1614611124576040517f08c379a000000000000000000000000000000000000000000000000000000000815260040161111b906121ef565b60405180910390fd5b6002600080549050611136919061244e565b8260ff161161117a576040517f08c379a0000000000000000000000000000000000000000000000000000000008152600401611171906124cb565b60405180910390fd5b60405180606001604052808360ff168152602001600160ff16815260200162015180426111a791906122e7565b8152506005600043815260200190815260200160002060008201518160000160006101000a81548160ff021916908360ff16021790555060208201518160000160016101000a81548160ff021916908360ff1602179055506040820151816001015590505060016006600043815260200190815260200160002060003373ffffffffffffffffffffffffffffffffffffffff1673ffffffffffffffffffffffffffffffffffffffff16815260200190815260200160002060006101000a81548160ff021916908315150217905550439050919050565b60036020528060005260406000206000915090508060000160009054906101000a900460000b908060000160019054906101000a900473ffffffffffffffffffffffffffffffffffffffff16908060000160159054906101000a900460ff16908060010154905084565b60066020528160005260406000206020528060005260406000206000915091509054906101000a900460ff1681565b60056020528060005260406000206000915090508060000160009054906101000a900460ff16908060000160019054906101000a900460ff16908060010154905083565b7f000000000000000000000000000000000000000000000000000000000000000081565b6000600160003373ffffffffffffffffffffffffffffffffffffffff1673ffffffffffffffffffffffffffffffffffffffff16815260200190815260200160002060009054906101000a900460ff1660ff1611611410576040517f08c379a000000000000000000000000000000000000000000000000000000000815260040161140790611f91565b60405180910390fd5b8160000b6003600085815260200190815260200160002060000160009054906101000a900460000b60000b1480156114a957508073ffffffffffffffffffffffffffffffffffffffff166003600085815260200190815260200160002060000160019054906101000a900473ffffffffffffffffffffffffffffffffffffffff1673ffffffffffffffffffffffffffffffffffffffff16145b80156114cb575042600360008581526020019081526020016000206001015410155b61150a576040517f08c379a0000000000000000000000000000000000000000000000000000000008152600401611501906123d6565b60405180910390fd5b6004600084815260200190815260200160002060003373ffffffffffffffffffffffffffffffffffffffff1673ffffffffffffffffffffffffffffffffffffffff16815260200190815260200160002060009054906101000a900460ff166116225760016004600085815260200190815260200160002060003373ffffffffffffffffffffffffffffffffffffffff1673ffffffffffffffffffffffffffffffffffffffff16815260200190815260200160002060006101000a81548160ff02191690831515021790555060036000848152602001908152602001600020600001601581819054906101000a900460ff1680929190611608906123f6565b91906101000a81548160ff021916908360ff160217905550505b600260009054906101000a900460ff1660ff166003600085815260200190815260200160002060000160159054906101000a900460ff1660ff16106119e45760018260000b03611774576000819080600181540180825580915050600190039060005260206000200160009091909190916101000a81548173ffffffffffffffffffffffffffffffffffffffff021916908373ffffffffffffffffffffffffffffffffffffffff160217905550600080549050600160008373ffffffffffffffffffffffffffffffffffffffff1673ffffffffffffffffffffffffffffffffffffffff16815260200190815260200160002060006101000a81548160ff021916908360ff1602179055508073ffffffffffffffffffffffffffffffffffffffff167f8191ca9d665b824fc53160f3727e7ec3a5330e4a67e1db6c4a86678956dfef1960405160405180910390a26119e3565b7fffffffffffffffffffffffffffffffffffffffffffffffffffffffffffffffff8260000b036119e2576000600160008373ffffffffffffffffffffffffffffffffffffffff1673ffffffffffffffffffffffffffffffffffffffff16815260200190815260200160002060009054906101000a900460ff169050600080600160008054905061180491906124eb565b815481106118155761181461251f565b5b9060005260206000200160009054906101000a900473ffffffffffffffffffffffffffffffffffffffff169050806000600184611852919061254e565b60ff16815481106118665761186561251f565b5b9060005260206000200160006101000a81548173ffffffffffffffffffffffffffffffffffffffff021916908373ffffffffffffffffffffffffffffffffffffffff16021790555081600160008373ffffffffffffffffffffffffffffffffffffffff1673ffffffffffffffffffffffffffffffffffffffff16815260200190815260200160002060006101000a81548160ff021916908360ff160217905550600160008473ffffffffffffffffffffffffffffffffffffffff1673ffffffffffffffffffffffffffffffffffffffff16815260200190815260200160002060006101000a81549060ff0219169055600080548061196757611966612583565b5b6001900381819060005260206000200160006101000a81549073ffffffffffffffffffffffffffffffffffffffff021916905590558273ffffffffffffffffffffffffffffffffffffffff167fa2a6e2b8f0cf0f627456034557b0149227a355af53f5bc8ce7e496bfbe73c0a960405160405180910390a250505b5b5b505050565b600080fd5b6000819050919050565b611a01816119ee565b8114611a0c57600080fd5b50565b600081359050611a1e816119f8565b92915050565b6000819050919050565b611a3781611a24565b8114611a4257600080fd5b50565b600081359050611a5481611a2e565b92915050565b600073ffffffffffffffffffffffffffffffffffffffff82169050919050565b6000611a8582611a5a565b9050919050565b611a9581611a7a565b8114611aa057600080fd5b50565b600081359050611ab281611a8c565b92915050565b600080600060608486031215611ad157611ad06119e9565b5b6000611adf86828701611a0f565b9350506020611af086828701611a45565b9250506040611b0186828701611aa3565b9150509250925092565b60008160000b9050919050565b611b2181611b0b565b8114611b2c57600080fd5b50565b600081359050611b3e81611b18565b92915050565b6000611b4f82611a5a565b9050919050565b611b5f81611b44565b8114611b6a57600080fd5b50565b600081359050611b7c81611b56565b92915050565b60008060408385031215611b9957611b986119e9565b5b6000611ba785828601611b2f565b9250506020611bb885828601611b6d565b9150509250929050565b611bcb81611a24565b82525050565b6000602082019050611be66000830184611bc2565b92915050565b600080600060608486031215611c0557611c046119e9565b5b6000611c1386828701611b6d565b9350506020611c2486828701611a0f565b9250506040611c3586828701611a45565b9150509250925092565b600060208284031215611c5557611c546119e9565b5b6000611c6384828501611a45565b91505092915050565b611c7581611b44565b82525050565b6000602082019050611c906000830184611c6c565b92915050565b60008060408385031215611cad57611cac6119e9565b5b6000611cbb85828601611a45565b9250506020611ccc85828601611b6d565b9150509250929050565b60008115159050919050565b611ceb81611cd6565b82525050565b6000602082019050611d066000830184611ce2565b92915050565b600060ff82169050919050565b611d2281611d0c565b8114611d2d57600080fd5b50565b600081359050611d3f81611d19565b92915050565b60008060408385031215611d5c57611d5b6119e9565b5b6000611d6a85828601611a45565b9250506020611d7b85828601611d30565b9150509250929050565b611d8e81611d0c565b82525050565b6000602082019050611da96000830184611d85565b92915050565b600060208284031215611dc557611dc46119e9565b5b6000611dd384828501611d30565b91505092915050565b611de581611b0b565b82525050565b6000608082019050611e006000830187611ddc565b611e0d6020830186611c6c565b611e1a6040830185611d85565b611e276060830184611bc2565b95945050505050565b6000606082019050611e456000830186611d85565b611e526020830185611d85565b611e5f6040830184611bc2565b949350505050565b6000819050919050565b6000611e8c611e87611e8284611a5a565b611e67565b611a5a565b9050919050565b6000611e9e82611e71565b9050919050565b6000611eb082611e93565b9050919050565b611ec081611ea5565b82525050565b6000602082019050611edb6000830184611eb7565b92915050565b600080600060608486031215611efa57611ef96119e9565b5b6000611f0886828701611a45565b9350506020611f1986828701611b2f565b9250506040611f2a86828701611b6d565b9150509250925092565b600082825260208201905092915050565b7f6e6f74207369676e657200000000000000000000000000000000000000000000600082015250565b6000611f7b600a83611f34565b9150611f8682611f45565b602082019050919050565b60006020820190508181036000830152611faa81611f6e565b9050919050565b7f73656e74206f7665720000000000000000000000000000000000000000000000600082015250565b6000611fe7600983611f34565b9150611ff282611fb1565b602082019050919050565b6000602082019050818103600083015261201681611fda565b9050919050565b7f696e76616c6964207472616e7366657200000000000000000000000000000000600082015250565b6000612053601083611f34565b915061205e8261201d565b602082019050919050565b6000602082019050818103600083015261208281612046565b9050919050565b7f4e487b7100000000000000000000000000000000000000000000000000000000600052601160045260246000fd5b60006120c382611a24565b91507fffffffffffffffffffffffffffffffffffffffffffffffffffffffffffffffff82036120f5576120f4612089565b5b600182019050919050565b600061210b82611e93565b9050919050565b61211b81612100565b82525050565b60006040820190506121366000830185612112565b6121436020830184611bc2565b9392505050565b61215381611cd6565b811461215e57600080fd5b50565b6000815190506121708161214a565b92915050565b60006020828403121561218c5761218b6119e9565b5b600061219a84828501612161565b91505092915050565b7f65786973742070726f706f73616c000000000000000000000000000000000000600082015250565b60006121d9600e83611f34565b91506121e4826121a3565b602082019050919050565b60006020820190508181036000830152612208816121cc565b9050919050565b7f61646472657373206e6f74206578697374000000000000000000000000000000600082015250565b6000612245601183611f34565b91506122508261220f565b602082019050919050565b6000602082019050818103600083015261227481612238565b9050919050565b7f6164647265737320657869737400000000000000000000000000000000000000600082015250565b60006122b1600d83611f34565b91506122bc8261227b565b602082019050919050565b600060208201905081810360008301526122e0816122a4565b9050919050565b60006122f282611a24565b91506122fd83611a24565b925082820190508082111561231557612314612089565b5b92915050565b60006060820190506123306000830186611c6c565b61233d6020830185611c6c565b61234a6040830184611bc2565b949350505050565b61235b816119ee565b82525050565b60006040820190506123766000830185612352565b6123836020830184611bc2565b9392505050565b7f6d69736d61746368000000000000000000000000000000000000000000000000600082015250565b60006123c0600883611f34565b91506123cb8261238a565b602082019050919050565b600060208201905081810360008301526123ef816123b3565b9050919050565b600061240182611d0c565b915060ff820361241457612413612089565b5b600182019050919050565b7f4e487b7100000000000000000000000000000000000000000000000000000000600052601260045260246000fd5b600061245982611a24565b915061246483611a24565b9250826124745761247361241f565b5b828204905092915050565b7f636f756e7420746f6f20736d616c6c0000000000000000000000000000000000600082015250565b60006124b5600f83611f34565b91506124c08261247f565b602082019050919050565b600060208201905081810360008301526124e4816124a8565b9050919050565b60006124f682611a24565b915061250183611a24565b925082820390508181111561251957612518612089565b5b92915050565b7f4e487b7100000000000000000000000000000000000000000000000000000000600052603260045260246000fd5b600061255982611d0c565b915061256483611d0c565b9250828203905060ff81111561257d5761257c612089565b5b92915050565b7f4e487b7100000000000000000000000000000000000000000000000000000000600052603160045260246000fdfea26469706673582212205f9986d991a8b3e6e58d05d072b50c1ef135ea43f68d72433c85955a61ca060764736f6c63430008110033",
  "linkReferences": {},
  "deployedLinkReferences": {}
}