{
  "_format": "hh-sol-artifact-1",
  "contractName": "MultiSignERC20Wallet",
  "sourceName": "contracts/multiSignERC20Wallet.sol",
  "abi": [
    {
      "inputs": [
        {
          "internalType": "address[]",
          "name": "_signers",
          "type": "address[]"
        },
        {
          "internalType": "uint8",
          "name": "_requireCount",
          "type": "uint8"
        },
        {
          "internalType": "address",
          "name": "_token",
          "type": "address"
        }
      ],
      "stateMutability": "nonpayable",
      "type": "constructor"
    },
    {
      "anonymous": false,
      "inputs": [
        {
          "indexed": false,
          "internalType": "uint8",
          "name": "changeRequireCount",
          "type": "uint8"
        }
      ],
      "name": "ChangeRequireCount",
      "type": "event"
    },
    {
      "anonymous": false,
      "inputs": [
        {
          "indexed": true,
          "internalType": "address",
          "name": "signer",
          "type": "address"
        }
      ],
      "name": "SignerAddition",
      "type": "event"
    },
    {
      "anonymous": false,
      "inputs": [
        {
          "indexed": true,
          "internalType": "address",
          "name": "signer",
          "type": "address"
        }
      ],
      "name": "SignerRemoval",
      "type": "event"
    },
    {
      "anonymous": false,
      "inputs": [
        {
          "indexed": true,
          "internalType": "address",
          "name": "sender",
          "type": "address"
        },
        {
          "indexed": true,
          "internalType": "address",
          "name": "to",
          "type": "address"
        },
        {
          "indexed": false,
          "internalType": "bytes32",
          "name": "symbol",
          "type": "bytes32"
        },
        {
          "indexed": false,
          "internalType": "uint256",
          "name": "amount",
          "type": "uint256"
        }
      ],
      "name": "Wrap",
      "type": "event"
    },
    {
      "inputs": [
        {
          "internalType": "address",
          "name": "signer",
          "type": "address"
        }
      ],
      "name": "addSigner",
      "outputs": [],
      "stateMutability": "nonpayable",
      "type": "function"
    },
    {
      "inputs": [],
      "name": "addingCount",
      "outputs": [
        {
          "internalType": "uint8",
          "name": "",
          "type": "uint8"
        }
      ],
      "stateMutability": "view",
      "type": "function"
    },
    {
      "inputs": [],
      "name": "addingSigner",
      "outputs": [
        {
          "internalType": "address",
          "name": "",
          "type": "address"
        }
      ],
      "stateMutability": "view",
      "type": "function"
    },
    {
      "inputs": [
        {
          "internalType": "uint8",
          "name": "newCount",
          "type": "uint8"
        }
      ],
      "name": "changeRequireCount",
      "outputs": [],
      "stateMutability": "nonpayable",
      "type": "function"
    },
    {
      "inputs": [],
      "name": "changingCount",
      "outputs": [
        {
          "internalType": "uint8",
          "name": "",
          "type": "uint8"
        }
      ],
      "stateMutability": "view",
      "type": "function"
    },
    {
      "inputs": [
        {
          "internalType": "address",
          "name": "",
          "type": "address"
        },
        {
          "internalType": "address",
          "name": "",
          "type": "address"
        }
      ],
      "name": "isAdded",
      "outputs": [
        {
          "internalType": "bool",
          "name": "",
          "type": "bool"
        }
      ],
      "stateMutability": "view",
      "type": "function"
    },
    {
      "inputs": [
        {
          "internalType": "address",
          "name": "",
          "type": "address"
        }
      ],
      "name": "isChangeCount",
      "outputs": [
        {
          "internalType": "bool",
          "name": "",
          "type": "bool"
        }
      ],
      "stateMutability": "view",
      "type": "function"
    },
    {
      "inputs": [
        {
          "internalType": "address",
          "name": "",
          "type": "address"
        },
        {
          "internalType": "uint8",
          "name": "",
          "type": "uint8"
        }
      ],
      "name": "isRemoved",
      "outputs": [
        {
          "internalType": "bool",
          "name": "",
          "type": "bool"
        }
      ],
      "stateMutability": "view",
      "type": "function"
    },
    {
      "inputs": [],
      "name": "newRequireCount",
      "outputs": [
        {
          "internalType": "uint8",
          "name": "",
          "type": "uint8"
        }
      ],
      "stateMutability": "view",
      "type": "function"
    },
    {
      "inputs": [
        {
          "internalType": "uint8",
          "name": "index",
          "type": "uint8"
        }
      ],
      "name": "removeSigner",
      "outputs": [],
      "stateMutability": "nonpayable",
      "type": "function"
    },
    {
      "inputs": [],
      "name": "removingCount",
      "outputs": [
        {
          "internalType": "uint8",
          "name": "",
          "type": "uint8"
        }
      ],
      "stateMutability": "view",
      "type": "function"
    },
    {
      "inputs": [],
      "name": "removingIndex",
      "outputs": [
        {
          "internalType": "uint8",
          "name": "",
          "type": "uint8"
        }
      ],
      "stateMutability": "view",
      "type": "function"
    },
    {
      "inputs": [],
      "name": "requireCount",
      "outputs": [
        {
          "internalType": "uint8",
          "name": "",
          "type": "uint8"
        }
      ],
      "stateMutability": "view",
      "type": "function"
    },
    {
      "inputs": [
        {
          "internalType": "bytes32",
          "name": "txid",
          "type": "bytes32"
        },
        {
          "internalType": "uint256",
          "name": "amount",
          "type": "uint256"
        },
        {
          "internalType": "address payable",
          "name": "to",
          "type": "address"
        }
      ],
      "name": "send",
      "outputs": [],
      "stateMutability": "nonpayable",
      "type": "function"
    },
    {
      "inputs": [
        {
          "internalType": "uint256",
          "name": "",
          "type": "uint256"
        }
      ],
      "name": "signers",
      "outputs": [
        {
          "internalType": "address",
          "name": "",
          "type": "address"
        }
      ],
      "stateMutability": "view",
      "type": "function"
    },
    {
      "inputs": [],
      "name": "token",
      "outputs": [
        {
          "internalType": "contract IERC20",
          "name": "",
          "type": "address"
        }
      ],
      "stateMutability": "view",
      "type": "function"
    },
    {
      "inputs": [
        {
          "internalType": "address",
          "name": "to",
          "type": "address"
        },
        {
          "internalType": "bytes32",
          "name": "symbol",
          "type": "bytes32"
        },
        {
          "internalType": "uint256",
          "name": "amount",
          "type": "uint256"
        }
      ],
      "name": "wrap",
      "outputs": [],
      "stateMutability": "nonpayable",
      "type": "function"
    }
  ],
  "bytecode": "0x60a06040523480156200001157600080fd5b5060405162002b9138038062002b91833981810160405281019062000037919062000542565b828260005b82518160ff161015620001f457600060016000858460ff1681518110620000685762000067620005bd565b5b602002602001015173ffffffffffffffffffffffffffffffffffffffff1673ffffffffffffffffffffffffffffffffffffffff16815260200190815260200160002060009054906101000a900460ff1660ff16148015620001165750600073ffffffffffffffffffffffffffffffffffffffff16838260ff1681518110620000f557620000f4620005bd565b5b602002602001015173ffffffffffffffffffffffffffffffffffffffff1614155b62000158576040517f08c379a00000000000000000000000000000000000000000000000000000000081526004016200014f906200064d565b60405180910390fd5b6001816200016791906200069e565b60016000858460ff1681518110620001845762000183620005bd565b5b602002602001015173ffffffffffffffffffffffffffffffffffffffff1673ffffffffffffffffffffffffffffffffffffffff16815260200190815260200160002060006101000a81548160ff021916908360ff1602179055508080620001eb90620006da565b9150506200003c565b5081600090805190602001906200020d92919062000268565b5080600260006101000a81548160ff021916908360ff16021790555050508073ffffffffffffffffffffffffffffffffffffffff1660808173ffffffffffffffffffffffffffffffffffffffff168152505050505062000708565b828054828255906000526020600020908101928215620002e4579160200282015b82811115620002e35782518260006101000a81548173ffffffffffffffffffffffffffffffffffffffff021916908373ffffffffffffffffffffffffffffffffffffffff1602179055509160200191906001019062000289565b5b509050620002f39190620002f7565b5090565b5b8082111562000312576000816000905550600101620002f8565b5090565b6000604051905090565b600080fd5b600080fd5b600080fd5b6000601f19601f8301169050919050565b7f4e487b7100000000000000000000000000000000000000000000000000000000600052604160045260246000fd5b6200037a826200032f565b810181811067ffffffffffffffff821117156200039c576200039b62000340565b5b80604052505050565b6000620003b162000316565b9050620003bf82826200036f565b919050565b600067ffffffffffffffff821115620003e257620003e162000340565b5b602082029050602081019050919050565b600080fd5b600073ffffffffffffffffffffffffffffffffffffffff82169050919050565b60006200042582620003f8565b9050919050565b620004378162000418565b81146200044357600080fd5b50565b60008151905062000457816200042c565b92915050565b6000620004746200046e84620003c4565b620003a5565b905080838252602082019050602084028301858111156200049a5762000499620003f3565b5b835b81811015620004c75780620004b2888262000446565b8452602084019350506020810190506200049c565b5050509392505050565b600082601f830112620004e957620004e86200032a565b5b8151620004fb8482602086016200045d565b91505092915050565b600060ff82169050919050565b6200051c8162000504565b81146200052857600080fd5b50565b6000815190506200053c8162000511565b92915050565b6000806000606084860312156200055e576200055d62000320565b5b600084015167ffffffffffffffff8111156200057f576200057e62000325565b5b6200058d86828701620004d1565b9350506020620005a0868287016200052b565b9250506040620005b38682870162000446565b9150509250925092565b7f4e487b7100000000000000000000000000000000000000000000000000000000600052603260045260246000fd5b600082825260208201905092915050565b7f696e76616c6964206f72206475706c696361746564207369676e657200000000600082015250565b600062000635601c83620005ec565b91506200064282620005fd565b602082019050919050565b60006020820190508181036000830152620006688162000626565b9050919050565b7f4e487b7100000000000000000000000000000000000000000000000000000000600052601160045260246000fd5b6000620006ab8262000504565b9150620006b88362000504565b9250828201905060ff811115620006d457620006d36200066f565b5b92915050565b6000620006e78262000504565b915060ff8203620006fd57620006fc6200066f565b5b600182019050919050565b60805161245f6200073260003960008181610b1301528181610bb801526119ab015261245f6000f3fe608060405234801561001057600080fd5b506004361061010b5760003560e01c806354ca4416116100a25780639bc5362e116100715780639bc5362e146102a8578063a1ed637a146102c4578063eb12d61e146102e2578063f770a5db146102fe578063fc0c546a1461032e5761010b565b806354ca44161461021e5780636561d53c1461023c57806368d024171461026c57806383051fde1461028a5761010b565b806326fbcf93116100de57806326fbcf93146101945780633d5655f8146101c4578063458a3add146101e25780635003b333146102005761010b565b806307a4145b14610110578063092d11481461012c5780631df7de0e146101485780632079fb9a14610164575b600080fd5b61012a60048036038101906101259190611a0b565b61034c565b005b61014660048036038101906101419190611b02565b6106c4565b005b610162600480360381019061015d9190611b93565b610bb6565b005b61017e60048036038101906101799190611be6565b610cc3565b60405161018b9190611c22565b60405180910390f35b6101ae60048036038101906101a99190611c3d565b610d02565b6040516101bb9190611c85565b60405180910390f35b6101cc610d22565b6040516101d99190611c22565b60405180910390f35b6101ea610d48565b6040516101f79190611caf565b60405180910390f35b610208610d5b565b6040516102159190611caf565b60405180910390f35b610226610d6e565b6040516102339190611caf565b60405180910390f35b61025660048036038101906102519190611cca565b610d81565b6040516102639190611c85565b60405180910390f35b610274610db0565b6040516102819190611caf565b60405180910390f35b610292610dc3565b60405161029f9190611caf565b60405180910390f35b6102c260048036038101906102bd9190611a0b565b610dd6565b005b6102cc611377565b6040516102d99190611caf565b60405180910390f35b6102fc60048036038101906102f79190611c3d565b61138a565b005b61031860048036038101906103139190611d0a565b61197a565b6040516103259190611c85565b60405180910390f35b6103366119a9565b6040516103439190611da9565b60405180910390f35b6000600160003373ffffffffffffffffffffffffffffffffffffffff1673ffffffffffffffffffffffffffffffffffffffff16815260200190815260200160002060009054906101000a900460ff1660ff16116103de576040517f08c379a00000000000000000000000000000000000000000000000000000000081526004016103d590611e21565b60405180910390fd5b6000600660009054906101000a900460ff1660ff16036104d1576000805490508160ff161115610443576040517f08c379a000000000000000000000000000000000000000000000000000000000815260040161043a90611e8d565b60405180910390fd5b8060ff16600660009054906101000a9050505060005b6000805490508160ff1610156104cb57600760003373ffffffffffffffffffffffffffffffffffffffff1673ffffffffffffffffffffffffffffffffffffffff16815260200190815260200160002060006101000a81549060ff021916905580806104c390611edc565b915050610459565b50610529565b600660009054906101000a900460ff1660ff168160ff1614610528576040517f08c379a000000000000000000000000000000000000000000000000000000000815260040161051f90611f51565b60405180910390fd5b5b600760003373ffffffffffffffffffffffffffffffffffffffff1673ffffffffffffffffffffffffffffffffffffffff16815260200190815260200160002060009054906101000a900460ff1661060b576001600760003373ffffffffffffffffffffffffffffffffffffffff1673ffffffffffffffffffffffffffffffffffffffff16815260200190815260200160002060006101000a81548160ff0219169083151502179055506006600181819054906101000a900460ff16809291906105f190611edc565b91906101000a81548160ff021916908360ff160217905550505b600260009054906101000a900460ff1660ff16600660019054906101000a900460ff1660ff16106106c15780600260006101000a81548160ff021916908360ff1602179055506000600660006101000a81548160ff021916908360ff1602179055506000600660016101000a81548160ff021916908360ff1602179055507f971ed33ab126ac4c0a07a18b84ed2990cde2ae87b25cd5009c84e7e5c9c8cffd816040516106b89190611caf565b60405180910390a15b50565b6000600160003373ffffffffffffffffffffffffffffffffffffffff1673ffffffffffffffffffffffffffffffffffffffff16815260200190815260200160002060009054906101000a900460ff1660ff1611610756576040517f08c379a000000000000000000000000000000000000000000000000000000000815260040161074d90611e21565b60405180910390fd5b6008600084815260200190815260200160002060030160009054906101000a900460ff16156107ba576040517f08c379a00000000000000000000000000000000000000000000000000000000081526004016107b190611fbd565b60405180910390fd5b600073ffffffffffffffffffffffffffffffffffffffff166008600085815260200190815260200160002060010160009054906101000a900473ffffffffffffffffffffffffffffffffffffffff1673ffffffffffffffffffffffffffffffffffffffff16036108f55760405180608001604052808381526020018273ffffffffffffffffffffffffffffffffffffffff1681526020016000815260200160001515815250600860008581526020019081526020016000206000820151816000015560208201518160010160006101000a81548173ffffffffffffffffffffffffffffffffffffffff021916908373ffffffffffffffffffffffffffffffffffffffff1602179055506040820151816002015560608201518160030160006101000a81548160ff0219169083151502179055509050506109bb565b81600860008581526020019081526020016000206000015414801561097b57508073ffffffffffffffffffffffffffffffffffffffff166008600085815260200190815260200160002060010160009054906101000a900473ffffffffffffffffffffffffffffffffffffffff1673ffffffffffffffffffffffffffffffffffffffff16145b6109ba576040517f08c379a00000000000000000000000000000000000000000000000000000000081526004016109b190612029565b60405180910390fd5b5b600960003373ffffffffffffffffffffffffffffffffffffffff1673ffffffffffffffffffffffffffffffffffffffff168152602001908152602001600020600084815260200190815260200160002060009054906101000a900460ff16610ab3576001600960003373ffffffffffffffffffffffffffffffffffffffff1673ffffffffffffffffffffffffffffffffffffffff168152602001908152602001600020600085815260200190815260200160002060006101000a81548160ff021916908315150217905550600860008481526020019081526020016000206002016000815480929190610aad90612049565b91905055505b600260009054906101000a900460ff1660ff16600860008581526020019081526020016000206002015410610bb15760016008600085815260200190815260200160002060030160006101000a81548160ff0219169083151502179055507f000000000000000000000000000000000000000000000000000000000000000073ffffffffffffffffffffffffffffffffffffffff1663a9059cbb82846040518363ffffffff1660e01b8152600401610b6c9291906120c1565b6020604051808303816000875af1158015610b8b573d6000803e3d6000fd5b505050506040513d601f19601f82011682018060405250810190610baf9190612116565b505b505050565b7f000000000000000000000000000000000000000000000000000000000000000073ffffffffffffffffffffffffffffffffffffffff166323b872dd3330846040518463ffffffff1660e01b8152600401610c1393929190612143565b6020604051808303816000875af1158015610c32573d6000803e3d6000fd5b505050506040513d601f19601f82011682018060405250810190610c569190612116565b508273ffffffffffffffffffffffffffffffffffffffff163373ffffffffffffffffffffffffffffffffffffffff167fc07a5330986048e0e2b01e559656897bc3dca20f6d8a2d10bae879bf626835f58484604051610cb6929190612189565b60405180910390a3505050565b60008181548110610cd357600080fd5b906000526020600020016000915054906101000a900473ffffffffffffffffffffffffffffffffffffffff1681565b60076020528060005260406000206000915054906101000a900460ff1681565b600260019054906101000a900473ffffffffffffffffffffffffffffffffffffffff1681565b600660009054906101000a900460ff1681565b600460009054906101000a900460ff1681565b600660019054906101000a900460ff1681565b60056020528160005260406000206020528060005260406000206000915091509054906101000a900460ff1681565b600460019054906101000a900460ff1681565b600260009054906101000a900460ff1681565b6000600160003373ffffffffffffffffffffffffffffffffffffffff1673ffffffffffffffffffffffffffffffffffffffff16815260200190815260200160002060009054906101000a900460ff1660ff1611610e68576040517f08c379a0000000000000000000000000000000000000000000000000000000008152600401610e5f90611e21565b60405180910390fd5b6000600460009054906101000a900460ff1660ff1603610f71576000805490508160ff1610610ecc576040517f08c379a0000000000000000000000000000000000000000000000000000000008152600401610ec3906121fe565b60405180910390fd5b8060ff16600460009054906101000a9050505060005b6000805490508160ff161015610f6b57600560003373ffffffffffffffffffffffffffffffffffffffff1673ffffffffffffffffffffffffffffffffffffffff16815260200190815260200160002060008260ff1660ff16815260200190815260200160002060006101000a81549060ff02191690558080610f6390611edc565b915050610ee2565b50610fc9565b8060ff16600460009054906101000a900460ff1660ff1614610fc8576040517f08c379a0000000000000000000000000000000000000000000000000000000008152600401610fbf9061226a565b60405180910390fd5b5b600560003373ffffffffffffffffffffffffffffffffffffffff1673ffffffffffffffffffffffffffffffffffffffff16815260200190815260200160002060008260ff1660ff16815260200190815260200160002060009054906101000a900460ff166110d9576001600560003373ffffffffffffffffffffffffffffffffffffffff1673ffffffffffffffffffffffffffffffffffffffff16815260200190815260200160002060008360ff1660ff16815260200190815260200160002060006101000a81548160ff0219169083151502179055506004600181819054906101000a900460ff16809291906110bf90611edc565b91906101000a81548160ff021916908360ff160217905550505b600260009054906101000a900460ff1660ff16600460019054906101000a900460ff1660ff1610611374576000808260ff168154811061111c5761111b61228a565b5b9060005260206000200160009054906101000a900473ffffffffffffffffffffffffffffffffffffffff169050600080600160008054905061115e91906122b9565b8154811061116f5761116e61228a565b5b9060005260206000200160009054906101000a900473ffffffffffffffffffffffffffffffffffffffff1690508060008460ff16815481106111b4576111b361228a565b5b9060005260206000200160006101000a81548173ffffffffffffffffffffffffffffffffffffffff021916908373ffffffffffffffffffffffffffffffffffffffff16021790555060018361120991906122ed565b600160008373ffffffffffffffffffffffffffffffffffffffff1673ffffffffffffffffffffffffffffffffffffffff16815260200190815260200160002060006101000a81548160ff021916908360ff160217905550600160008373ffffffffffffffffffffffffffffffffffffffff1673ffffffffffffffffffffffffffffffffffffffff16815260200190815260200160002060006101000a81549060ff021916905560008054806112c1576112c0612322565b5b6001900381819060005260206000200160006101000a81549073ffffffffffffffffffffffffffffffffffffffff021916905590556000600460006101000a81548160ff021916908360ff1602179055506000600460016101000a81548160ff021916908360ff1602179055508173ffffffffffffffffffffffffffffffffffffffff167fa2a6e2b8f0cf0f627456034557b0149227a355af53f5bc8ce7e496bfbe73c0a960405160405180910390a250505b50565b600260159054906101000a900460ff1681565b6000600160003373ffffffffffffffffffffffffffffffffffffffff1673ffffffffffffffffffffffffffffffffffffffff16815260200190815260200160002060009054906101000a900460ff1660ff161161141c576040517f08c379a000000000000000000000000000000000000000000000000000000000815260040161141390611e21565b60405180910390fd5b600073ffffffffffffffffffffffffffffffffffffffff16600260019054906101000a900473ffffffffffffffffffffffffffffffffffffffff1673ffffffffffffffffffffffffffffffffffffffff16036115fd576000600160008373ffffffffffffffffffffffffffffffffffffffff1673ffffffffffffffffffffffffffffffffffffffff16815260200190815260200160002060009054906101000a900460ff1660ff1614611504576040517f08c379a00000000000000000000000000000000000000000000000000000000081526004016114fb9061239d565b60405180910390fd5b80600260016101000a81548173ffffffffffffffffffffffffffffffffffffffff021916908373ffffffffffffffffffffffffffffffffffffffff16021790555060005b6000805490508160ff1610156115f757600360003373ffffffffffffffffffffffffffffffffffffffff1673ffffffffffffffffffffffffffffffffffffffff16815260200190815260200160002060008373ffffffffffffffffffffffffffffffffffffffff1673ffffffffffffffffffffffffffffffffffffffff16815260200190815260200160002060006101000a81549060ff021916905580806115ef90611edc565b915050611548565b5061168e565b8073ffffffffffffffffffffffffffffffffffffffff16600260019054906101000a900473ffffffffffffffffffffffffffffffffffffffff1673ffffffffffffffffffffffffffffffffffffffff161461168d576040517f08c379a000000000000000000000000000000000000000000000000000000000815260040161168490612409565b60405180910390fd5b5b600360003373ffffffffffffffffffffffffffffffffffffffff1673ffffffffffffffffffffffffffffffffffffffff16815260200190815260200160002060008273ffffffffffffffffffffffffffffffffffffffff1673ffffffffffffffffffffffffffffffffffffffff16815260200190815260200160002060009054906101000a900460ff166117ea576001600360003373ffffffffffffffffffffffffffffffffffffffff1673ffffffffffffffffffffffffffffffffffffffff16815260200190815260200160002060008373ffffffffffffffffffffffffffffffffffffffff1673ffffffffffffffffffffffffffffffffffffffff16815260200190815260200160002060006101000a81548160ff0219169083151502179055506002601581819054906101000a900460ff16809291906117d090611edc565b91906101000a81548160ff021916908360ff160217905550505b600260009054906101000a900460ff1660ff16600260159054906101000a900460ff1660ff1610611977576000819080600181540180825580915050600190039060005260206000200160009091909190916101000a81548173ffffffffffffffffffffffffffffffffffffffff021916908373ffffffffffffffffffffffffffffffffffffffff160217905550600080549050600160008373ffffffffffffffffffffffffffffffffffffffff1673ffffffffffffffffffffffffffffffffffffffff16815260200190815260200160002060006101000a81548160ff021916908360ff1602179055506000600260016101000a81548173ffffffffffffffffffffffffffffffffffffffff021916908373ffffffffffffffffffffffffffffffffffffffff1602179055506000600260156101000a81548160ff021916908360ff1602179055508073ffffffffffffffffffffffffffffffffffffffff167f8191ca9d665b824fc53160f3727e7ec3a5330e4a67e1db6c4a86678956dfef1960405160405180910390a25b50565b60036020528160005260406000206020528060005260406000206000915091509054906101000a900460ff1681565b7f000000000000000000000000000000000000000000000000000000000000000081565b600080fd5b600060ff82169050919050565b6119e8816119d2565b81146119f357600080fd5b50565b600081359050611a05816119df565b92915050565b600060208284031215611a2157611a206119cd565b5b6000611a2f848285016119f6565b91505092915050565b6000819050919050565b611a4b81611a38565b8114611a5657600080fd5b50565b600081359050611a6881611a42565b92915050565b6000819050919050565b611a8181611a6e565b8114611a8c57600080fd5b50565b600081359050611a9e81611a78565b92915050565b600073ffffffffffffffffffffffffffffffffffffffff82169050919050565b6000611acf82611aa4565b9050919050565b611adf81611ac4565b8114611aea57600080fd5b50565b600081359050611afc81611ad6565b92915050565b600080600060608486031215611b1b57611b1a6119cd565b5b6000611b2986828701611a59565b9350506020611b3a86828701611a8f565b9250506040611b4b86828701611aed565b9150509250925092565b6000611b6082611aa4565b9050919050565b611b7081611b55565b8114611b7b57600080fd5b50565b600081359050611b8d81611b67565b92915050565b600080600060608486031215611bac57611bab6119cd565b5b6000611bba86828701611b7e565b9350506020611bcb86828701611a59565b9250506040611bdc86828701611a8f565b9150509250925092565b600060208284031215611bfc57611bfb6119cd565b5b6000611c0a84828501611a8f565b91505092915050565b611c1c81611b55565b82525050565b6000602082019050611c376000830184611c13565b92915050565b600060208284031215611c5357611c526119cd565b5b6000611c6184828501611b7e565b91505092915050565b60008115159050919050565b611c7f81611c6a565b82525050565b6000602082019050611c9a6000830184611c76565b92915050565b611ca9816119d2565b82525050565b6000602082019050611cc46000830184611ca0565b92915050565b60008060408385031215611ce157611ce06119cd565b5b6000611cef85828601611b7e565b9250506020611d00858286016119f6565b9150509250929050565b60008060408385031215611d2157611d206119cd565b5b6000611d2f85828601611b7e565b9250506020611d4085828601611b7e565b9150509250929050565b6000819050919050565b6000611d6f611d6a611d6584611aa4565b611d4a565b611aa4565b9050919050565b6000611d8182611d54565b9050919050565b6000611d9382611d76565b9050919050565b611da381611d88565b82525050565b6000602082019050611dbe6000830184611d9a565b92915050565b600082825260208201905092915050565b7f6e6f74207369676e657200000000000000000000000000000000000000000000600082015250565b6000611e0b600a83611dc4565b9150611e1682611dd5565b602082019050919050565b60006020820190508181036000830152611e3a81611dfe565b9050919050565b7f77726f6e6720636f756e74000000000000000000000000000000000000000000600082015250565b6000611e77600b83611dc4565b9150611e8282611e41565b602082019050919050565b60006020820190508181036000830152611ea681611e6a565b9050919050565b7f4e487b7100000000000000000000000000000000000000000000000000000000600052601160045260246000fd5b6000611ee7826119d2565b915060ff8203611efa57611ef9611ead565b5b600182019050919050565b7f6d69736d61746368656420636f756e7400000000000000000000000000000000600082015250565b6000611f3b601083611dc4565b9150611f4682611f05565b602082019050919050565b60006020820190508181036000830152611f6a81611f2e565b9050919050565b7f73656e74206f7665720000000000000000000000000000000000000000000000600082015250565b6000611fa7600983611dc4565b9150611fb282611f71565b602082019050919050565b60006020820190508181036000830152611fd681611f9a565b9050919050565b7f696e76616c6964207472616e7366657200000000000000000000000000000000600082015250565b6000612013601083611dc4565b915061201e82611fdd565b602082019050919050565b6000602082019050818103600083015261204281612006565b9050919050565b600061205482611a6e565b91507fffffffffffffffffffffffffffffffffffffffffffffffffffffffffffffffff820361208657612085611ead565b5b600182019050919050565b600061209c82611d76565b9050919050565b6120ac81612091565b82525050565b6120bb81611a6e565b82525050565b60006040820190506120d660008301856120a3565b6120e360208301846120b2565b9392505050565b6120f381611c6a565b81146120fe57600080fd5b50565b600081519050612110816120ea565b92915050565b60006020828403121561212c5761212b6119cd565b5b600061213a84828501612101565b91505092915050565b60006060820190506121586000830186611c13565b6121656020830185611c13565b61217260408301846120b2565b949350505050565b61218381611a38565b82525050565b600060408201905061219e600083018561217a565b6121ab60208301846120b2565b9392505050565b7f77726f6e6720696e646578000000000000000000000000000000000000000000600082015250565b60006121e8600b83611dc4565b91506121f3826121b2565b602082019050919050565b60006020820190508181036000830152612217816121db565b9050919050565b7f6d69736d61746368656420696e64657800000000000000000000000000000000600082015250565b6000612254601083611dc4565b915061225f8261221e565b602082019050919050565b6000602082019050818103600083015261228381612247565b9050919050565b7f4e487b7100000000000000000000000000000000000000000000000000000000600052603260045260246000fd5b60006122c482611a6e565b91506122cf83611a6e565b92508282039050818111156122e7576122e6611ead565b5b92915050565b60006122f8826119d2565b9150612303836119d2565b9250828201905060ff81111561231c5761231b611ead565b5b92915050565b7f4e487b7100000000000000000000000000000000000000000000000000000000600052603160045260246000fd5b7f616c726561647920657869737400000000000000000000000000000000000000600082015250565b6000612387600d83611dc4565b915061239282612351565b602082019050919050565b600060208201905081810360008301526123b68161237a565b9050919050565b7f77726f6e67207369676e65720000000000000000000000000000000000000000600082015250565b60006123f3600c83611dc4565b91506123fe826123bd565b602082019050919050565b60006020820190508181036000830152612422816123e6565b905091905056fea26469706673582212203051dc698bc956aa57bb7999145f8aa374b139ba999c2ce8ea07c0b830f733e064736f6c63430008110033",
  "linkReferences": {},
  "deployedLinkReferences": {}
}