{
  "_format": "hh-sol-artifact-1",
  "contractName": "MultiSignERC20Wallet",
  "sourceName": "contracts/multiSignERC20Wallet.sol",
  "abi": [
    {
      "inputs": [
        {
          "internalType": "address[]",
          "name": "_signers",
          "type": "address[]"
        },
        {
          "internalType": "uint8",
          "name": "_requireCount",
          "type": "uint8"
        },
        {
          "internalType": "address",
          "name": "_token",
          "type": "address"
        }
      ],
      "stateMutability": "nonpayable",
      "type": "constructor"
    },
    {
      "anonymous": false,
      "inputs": [
        {
          "indexed": false,
          "internalType": "uint8",
          "name": "changeRequireCount",
          "type": "uint8"
        }
      ],
      "name": "ChangeRequireCount",
      "type": "event"
    },
    {
      "anonymous": false,
      "inputs": [
        {
          "indexed": true,
          "internalType": "address",
          "name": "signer",
          "type": "address"
        }
      ],
      "name": "SignerAddition",
      "type": "event"
    },
    {
      "anonymous": false,
      "inputs": [
        {
          "indexed": true,
          "internalType": "address",
          "name": "signer",
          "type": "address"
        }
      ],
      "name": "SignerRemoval",
      "type": "event"
    },
    {
      "anonymous": false,
      "inputs": [
        {
          "indexed": true,
          "internalType": "address",
          "name": "sender",
          "type": "address"
        },
        {
          "indexed": true,
          "internalType": "address",
          "name": "to",
          "type": "address"
        },
        {
          "indexed": false,
          "internalType": "bytes32",
          "name": "symbol",
          "type": "bytes32"
        },
        {
          "indexed": false,
          "internalType": "uint256",
          "name": "amount",
          "type": "uint256"
        }
      ],
      "name": "Wrap",
      "type": "event"
    },
    {
      "inputs": [
        {
          "internalType": "uint256",
          "name": "number",
          "type": "uint256"
        },
        {
          "internalType": "uint8",
          "name": "newCount",
          "type": "uint8"
        }
      ],
      "name": "agreeCountProposal",
      "outputs": [],
      "stateMutability": "nonpayable",
      "type": "function"
    },
    {
      "inputs": [
        {
          "internalType": "uint256",
          "name": "number",
          "type": "uint256"
        },
        {
          "internalType": "int8",
          "name": "d",
          "type": "int8"
        },
        {
          "internalType": "address",
          "name": "signer",
          "type": "address"
        }
      ],
      "name": "agreeSignerProposal",
      "outputs": [],
      "stateMutability": "nonpayable",
      "type": "function"
    },
    {
      "inputs": [
        {
          "internalType": "uint256",
          "name": "",
          "type": "uint256"
        }
      ],
      "name": "countProposals",
      "outputs": [
        {
          "internalType": "uint8",
          "name": "newCount",
          "type": "uint8"
        },
        {
          "internalType": "uint8",
          "name": "agreedCount",
          "type": "uint8"
        },
        {
          "internalType": "uint256",
          "name": "overTime",
          "type": "uint256"
        }
      ],
      "stateMutability": "view",
      "type": "function"
    },
    {
      "inputs": [
        {
          "internalType": "uint256",
          "name": "",
          "type": "uint256"
        },
        {
          "internalType": "address",
          "name": "",
          "type": "address"
        }
      ],
      "name": "isCountProposalAgreed",
      "outputs": [
        {
          "internalType": "bool",
          "name": "",
          "type": "bool"
        }
      ],
      "stateMutability": "view",
      "type": "function"
    },
    {
      "inputs": [
        {
          "internalType": "uint256",
          "name": "",
          "type": "uint256"
        },
        {
          "internalType": "address",
          "name": "",
          "type": "address"
        }
      ],
      "name": "isSignerProposalAgreed",
      "outputs": [
        {
          "internalType": "bool",
          "name": "",
          "type": "bool"
        }
      ],
      "stateMutability": "view",
      "type": "function"
    },
    {
      "inputs": [],
      "name": "overTime",
      "outputs": [
        {
          "internalType": "uint256",
          "name": "",
          "type": "uint256"
        }
      ],
      "stateMutability": "view",
      "type": "function"
    },
    {
      "inputs": [],
      "name": "requireCount",
      "outputs": [
        {
          "internalType": "uint8",
          "name": "",
          "type": "uint8"
        }
      ],
      "stateMutability": "view",
      "type": "function"
    },
    {
      "inputs": [
        {
          "internalType": "bytes32",
          "name": "txid",
          "type": "bytes32"
        },
        {
          "internalType": "uint256",
          "name": "amount",
          "type": "uint256"
        },
        {
          "internalType": "address",
          "name": "to",
          "type": "address"
        }
      ],
      "name": "send",
      "outputs": [],
      "stateMutability": "nonpayable",
      "type": "function"
    },
    {
      "inputs": [
        {
          "internalType": "uint256",
          "name": "",
          "type": "uint256"
        }
      ],
      "name": "signerProposals",
      "outputs": [
        {
          "internalType": "int8",
          "name": "d",
          "type": "int8"
        },
        {
          "internalType": "address",
          "name": "signer",
          "type": "address"
        },
        {
          "internalType": "uint8",
          "name": "agreedCount",
          "type": "uint8"
        },
        {
          "internalType": "uint256",
          "name": "overTime",
          "type": "uint256"
        }
      ],
      "stateMutability": "view",
      "type": "function"
    },
    {
      "inputs": [
        {
          "internalType": "uint256",
          "name": "",
          "type": "uint256"
        }
      ],
      "name": "signers",
      "outputs": [
        {
          "internalType": "address",
          "name": "",
          "type": "address"
        }
      ],
      "stateMutability": "view",
      "type": "function"
    },
    {
      "inputs": [
        {
          "internalType": "uint8",
          "name": "newCount",
          "type": "uint8"
        }
      ],
      "name": "submitCountProposal",
      "outputs": [
        {
          "internalType": "uint256",
          "name": "",
          "type": "uint256"
        }
      ],
      "stateMutability": "nonpayable",
      "type": "function"
    },
    {
      "inputs": [
        {
          "internalType": "int8",
          "name": "d",
          "type": "int8"
        },
        {
          "internalType": "address",
          "name": "signer",
          "type": "address"
        }
      ],
      "name": "submitSignerProposal",
      "outputs": [
        {
          "internalType": "uint256",
          "name": "",
          "type": "uint256"
        }
      ],
      "stateMutability": "nonpayable",
      "type": "function"
    },
    {
      "inputs": [],
      "name": "token",
      "outputs": [
        {
          "internalType": "contract IERC20",
          "name": "",
          "type": "address"
        }
      ],
      "stateMutability": "view",
      "type": "function"
    },
    {
      "inputs": [
        {
          "internalType": "address",
          "name": "to",
          "type": "address"
        },
        {
          "internalType": "bytes32",
          "name": "symbol",
          "type": "bytes32"
        },
        {
          "internalType": "uint256",
          "name": "amount",
          "type": "uint256"
        }
      ],
      "name": "wrap",
      "outputs": [],
      "stateMutability": "nonpayable",
      "type": "function"
    }
  ],
  "bytecode": "0x60a06040523480156200001157600080fd5b5060405162002ed238038062002ed283398181016040528101906200003791906200059d565b828260005b82518160ff161015620001f457600060016000858460ff168151811062000068576200006762000618565b5b602002602001015173ffffffffffffffffffffffffffffffffffffffff1673ffffffffffffffffffffffffffffffffffffffff16815260200190815260200160002060009054906101000a900460ff1660ff16148015620001165750600073ffffffffffffffffffffffffffffffffffffffff16838260ff1681518110620000f557620000f462000618565b5b602002602001015173ffffffffffffffffffffffffffffffffffffffff1614155b62000158576040517f08c379a00000000000000000000000000000000000000000000000000000000081526004016200014f90620006a8565b60405180910390fd5b600181620001679190620006f9565b60016000858460ff168151811062000184576200018362000618565b5b602002602001015173ffffffffffffffffffffffffffffffffffffffff1673ffffffffffffffffffffffffffffffffffffffff16815260200190815260200160002060006101000a81548160ff021916908360ff1602179055508080620001eb9062000735565b9150506200003c565b5081600090805190602001906200020d929190620002c3565b5060026000805490506200022291906200079c565b8160ff161162000269576040517f08c379a0000000000000000000000000000000000000000000000000000000008152600401620002609062000824565b60405180910390fd5b80600260006101000a81548160ff021916908360ff16021790555050508073ffffffffffffffffffffffffffffffffffffffff1660808173ffffffffffffffffffffffffffffffffffffffff168152505050505062000846565b8280548282559060005260206000209081019282156200033f579160200282015b828111156200033e5782518260006101000a81548173ffffffffffffffffffffffffffffffffffffffff021916908373ffffffffffffffffffffffffffffffffffffffff16021790555091602001919060010190620002e4565b5b5090506200034e919062000352565b5090565b5b808211156200036d57600081600090555060010162000353565b5090565b6000604051905090565b600080fd5b600080fd5b600080fd5b6000601f19601f8301169050919050565b7f4e487b7100000000000000000000000000000000000000000000000000000000600052604160045260246000fd5b620003d5826200038a565b810181811067ffffffffffffffff82111715620003f757620003f66200039b565b5b80604052505050565b60006200040c62000371565b90506200041a8282620003ca565b919050565b600067ffffffffffffffff8211156200043d576200043c6200039b565b5b602082029050602081019050919050565b600080fd5b600073ffffffffffffffffffffffffffffffffffffffff82169050919050565b6000620004808262000453565b9050919050565b620004928162000473565b81146200049e57600080fd5b50565b600081519050620004b28162000487565b92915050565b6000620004cf620004c9846200041f565b62000400565b90508083825260208201905060208402830185811115620004f557620004f46200044e565b5b835b818110156200052257806200050d8882620004a1565b845260208401935050602081019050620004f7565b5050509392505050565b600082601f83011262000544576200054362000385565b5b815162000556848260208601620004b8565b91505092915050565b600060ff82169050919050565b62000577816200055f565b81146200058357600080fd5b50565b60008151905062000597816200056c565b92915050565b600080600060608486031215620005b957620005b86200037b565b5b600084015167ffffffffffffffff811115620005da57620005d962000380565b5b620005e8868287016200052c565b9350506020620005fb8682870162000586565b92505060406200060e86828701620004a1565b9150509250925092565b7f4e487b7100000000000000000000000000000000000000000000000000000000600052603260045260246000fd5b600082825260208201905092915050565b7f696e76616c6964206f72206475706c696361746564207369676e657200000000600082015250565b600062000690601c8362000647565b91506200069d8262000658565b602082019050919050565b60006020820190508181036000830152620006c38162000681565b9050919050565b7f4e487b7100000000000000000000000000000000000000000000000000000000600052601160045260246000fd5b600062000706826200055f565b915062000713836200055f565b9250828201905060ff8111156200072f576200072e620006ca565b5b92915050565b600062000742826200055f565b915060ff8203620007585762000757620006ca565b5b600182019050919050565b6000819050919050565b7f4e487b7100000000000000000000000000000000000000000000000000000000600052601260045260246000fd5b6000620007a98262000763565b9150620007b68362000763565b925082620007c957620007c86200076d565b5b828204905092915050565b7f746f6f20736d616c6c2072657175697265436f756e7400000000000000000000600082015250565b60006200080c60168362000647565b91506200081982620007d4565b602082019050919050565b600060208201905081810360008301526200083f81620007fd565b9050919050565b608051612662620008706000396000818161075d01528181610c2101526113c901526126626000f3fe608060405234801561001057600080fd5b50600436106100ea5760003560e01c8063bc2c1e771161008c578063e019ca7c11610066578063e019ca7c14610272578063ee6c829b146102a2578063fc0c546a146102d4578063fe6931b7146102f2576100ea565b8063bc2c1e77146101f1578063c34bc9281461020f578063cb1c8f681461023f576100ea565b80632079fb9a116100c85780632079fb9a1461015757806323c92f24146101875780636647c269146101b757806383051fde146101d3576100ea565b8063092d1148146100ef57806318a922a71461010b5780631df7de0e1461013b575b600080fd5b61010960048036038101906101049190611b25565b61030e565b005b61012560048036038101906101209190611bb1565b610800565b6040516101329190611c00565b60405180910390f35b61015560048036038101906101509190611c1b565b610c1f565b005b610171600480360381019061016c9190611c6e565b610d2c565b60405161017e9190611caa565b60405180910390f35b6101a1600480360381019061019c9190611cc5565b610d6b565b6040516101ae9190611d20565b60405180910390f35b6101d160048036038101906101cc9190611d74565b610d9a565b005b6101db611067565b6040516101e89190611dc3565b60405180910390f35b6101f961107a565b6040516102069190611c00565b60405180910390f35b61022960048036038101906102249190611dde565b611081565b6040516102369190611c00565b60405180910390f35b61025960048036038101906102549190611c6e565b6112ea565b6040516102699493929190611e1a565b60405180910390f35b61028c60048036038101906102879190611cc5565b611354565b6040516102999190611d20565b60405180910390f35b6102bc60048036038101906102b79190611c6e565b611383565b6040516102cb93929190611e5f565b60405180910390f35b6102dc6113c7565b6040516102e99190611ef5565b60405180910390f35b61030c60048036038101906103079190611f10565b6113eb565b005b6000600160003373ffffffffffffffffffffffffffffffffffffffff1673ffffffffffffffffffffffffffffffffffffffff16815260200190815260200160002060009054906101000a900460ff1660ff16116103a0576040517f08c379a000000000000000000000000000000000000000000000000000000000815260040161039790611fc0565b60405180910390fd5b6007600084815260200190815260200160002060030160009054906101000a900460ff1615610404576040517f08c379a00000000000000000000000000000000000000000000000000000000081526004016103fb9061202c565b60405180910390fd5b600073ffffffffffffffffffffffffffffffffffffffff166007600085815260200190815260200160002060010160009054906101000a900473ffffffffffffffffffffffffffffffffffffffff1673ffffffffffffffffffffffffffffffffffffffff160361053f5760405180608001604052808381526020018273ffffffffffffffffffffffffffffffffffffffff1681526020016000815260200160001515815250600760008581526020019081526020016000206000820151816000015560208201518160010160006101000a81548173ffffffffffffffffffffffffffffffffffffffff021916908373ffffffffffffffffffffffffffffffffffffffff1602179055506040820151816002015560608201518160030160006101000a81548160ff021916908315150217905550905050610605565b8160076000858152602001908152602001600020600001541480156105c557508073ffffffffffffffffffffffffffffffffffffffff166007600085815260200190815260200160002060010160009054906101000a900473ffffffffffffffffffffffffffffffffffffffff1673ffffffffffffffffffffffffffffffffffffffff16145b610604576040517f08c379a00000000000000000000000000000000000000000000000000000000081526004016105fb90612098565b60405180910390fd5b5b600860003373ffffffffffffffffffffffffffffffffffffffff1673ffffffffffffffffffffffffffffffffffffffff168152602001908152602001600020600084815260200190815260200160002060009054906101000a900460ff166106fd576001600860003373ffffffffffffffffffffffffffffffffffffffff1673ffffffffffffffffffffffffffffffffffffffff168152602001908152602001600020600085815260200190815260200160002060006101000a81548160ff0219169083151502179055506007600084815260200190815260200160002060020160008154809291906106f7906120e7565b91905055505b600260009054906101000a900460ff1660ff166007600085815260200190815260200160002060020154106107fb5760016007600085815260200190815260200160002060030160006101000a81548160ff0219169083151502179055507f000000000000000000000000000000000000000000000000000000000000000073ffffffffffffffffffffffffffffffffffffffff1663a9059cbb82846040518363ffffffff1660e01b81526004016107b692919061212f565b6020604051808303816000875af11580156107d5573d6000803e3d6000fd5b505050506040513d601f19601f820116820180604052508101906107f99190612184565b505b505050565b600080600160003373ffffffffffffffffffffffffffffffffffffffff1673ffffffffffffffffffffffffffffffffffffffff16815260200190815260200160002060009054906101000a900460ff1660ff1611610893576040517f08c379a000000000000000000000000000000000000000000000000000000000815260040161088a90611fc0565b60405180910390fd5b60006003600043815260200190815260200160002060000160009054906101000a900460000b60000b146108fc576040517f08c379a00000000000000000000000000000000000000000000000000000000081526004016108f3906121fd565b60405180910390fd5b7fffffffffffffffffffffffffffffffffffffffffffffffffffffffffffffffff8360000b03610a16576000600160008473ffffffffffffffffffffffffffffffffffffffff1673ffffffffffffffffffffffffffffffffffffffff16815260200190815260200160002060009054906101000a900460ff1660ff16116109b8576040517f08c379a00000000000000000000000000000000000000000000000000000000081526004016109af90612269565b60405180910390fd5b600080549050600260009054906101000a900460ff1660ff1610610a11576040517f08c379a0000000000000000000000000000000000000000000000000000000008152600401610a08906122d5565b60405180910390fd5b610ab5565b60018360000b03610ab4576000600160008473ffffffffffffffffffffffffffffffffffffffff1673ffffffffffffffffffffffffffffffffffffffff16815260200190815260200160002060009054906101000a900460ff1660ff1614610ab3576040517f08c379a0000000000000000000000000000000000000000000000000000000008152600401610aaa90612341565b60405180910390fd5b5b5b60405180608001604052808460000b81526020018373ffffffffffffffffffffffffffffffffffffffff168152602001600160ff1681526020016201518042610afe9190612361565b8152506003600043815260200190815260200160002060008201518160000160006101000a81548160ff021916908360000b60ff16021790555060208201518160000160016101000a81548173ffffffffffffffffffffffffffffffffffffffff021916908373ffffffffffffffffffffffffffffffffffffffff16021790555060408201518160000160156101000a81548160ff021916908360ff1602179055506060820151816001015590505060016004600043815260200190815260200160002060003373ffffffffffffffffffffffffffffffffffffffff1673ffffffffffffffffffffffffffffffffffffffff16815260200190815260200160002060006101000a81548160ff02191690831515021790555043905092915050565b7f000000000000000000000000000000000000000000000000000000000000000073ffffffffffffffffffffffffffffffffffffffff166323b872dd3330846040518463ffffffff1660e01b8152600401610c7c93929190612395565b6020604051808303816000875af1158015610c9b573d6000803e3d6000fd5b505050506040513d601f19601f82011682018060405250810190610cbf9190612184565b508273ffffffffffffffffffffffffffffffffffffffff163373ffffffffffffffffffffffffffffffffffffffff167fc07a5330986048e0e2b01e559656897bc3dca20f6d8a2d10bae879bf626835f58484604051610d1f9291906123db565b60405180910390a3505050565b60008181548110610d3c57600080fd5b906000526020600020016000915054906101000a900473ffffffffffffffffffffffffffffffffffffffff1681565b60046020528160005260406000206020528060005260406000206000915091509054906101000a900460ff1681565b6000600160003373ffffffffffffffffffffffffffffffffffffffff1673ffffffffffffffffffffffffffffffffffffffff16815260200190815260200160002060009054906101000a900460ff1660ff1611610e2c576040517f08c379a0000000000000000000000000000000000000000000000000000000008152600401610e2390611fc0565b60405180910390fd5b8060ff166005600084815260200190815260200160002060000160009054906101000a900460ff1660ff16148015610e7a575042600560008481526020019081526020016000206001015410155b610eb9576040517f08c379a0000000000000000000000000000000000000000000000000000000008152600401610eb090612450565b60405180910390fd5b6006600083815260200190815260200160002060003373ffffffffffffffffffffffffffffffffffffffff1673ffffffffffffffffffffffffffffffffffffffff16815260200190815260200160002060009054906101000a900460ff16610fd15760016006600084815260200190815260200160002060003373ffffffffffffffffffffffffffffffffffffffff1673ffffffffffffffffffffffffffffffffffffffff16815260200190815260200160002060006101000a81548160ff02191690831515021790555060056000838152602001908152602001600020600001600181819054906101000a900460ff1680929190610fb790612470565b91906101000a81548160ff021916908360ff160217905550505b600260009054906101000a900460ff1660ff166005600084815260200190815260200160002060000160019054906101000a900460ff1660ff16106110635780600260006101000a81548160ff021916908360ff1602179055507f971ed33ab126ac4c0a07a18b84ed2990cde2ae87b25cd5009c84e7e5c9c8cffd8160405161105a9190611dc3565b60405180910390a15b5050565b600260009054906101000a900460ff1681565b6201518081565b600080600160003373ffffffffffffffffffffffffffffffffffffffff1673ffffffffffffffffffffffffffffffffffffffff16815260200190815260200160002060009054906101000a900460ff1660ff1611611114576040517f08c379a000000000000000000000000000000000000000000000000000000000815260040161110b90611fc0565b60405180910390fd5b60006005600043815260200190815260200160002060000160009054906101000a900460ff1660ff161461117d576040517f08c379a0000000000000000000000000000000000000000000000000000000008152600401611174906121fd565b60405180910390fd5b600260008054905061118f91906124c8565b8260ff161180156111a857506000805490508260ff1611155b6111e7576040517f08c379a00000000000000000000000000000000000000000000000000000000081526004016111de90612545565b60405180910390fd5b60405180606001604052808360ff168152602001600160ff16815260200162015180426112149190612361565b8152506005600043815260200190815260200160002060008201518160000160006101000a81548160ff021916908360ff16021790555060208201518160000160016101000a81548160ff021916908360ff1602179055506040820151816001015590505060016006600043815260200190815260200160002060003373ffffffffffffffffffffffffffffffffffffffff1673ffffffffffffffffffffffffffffffffffffffff16815260200190815260200160002060006101000a81548160ff021916908315150217905550439050919050565b60036020528060005260406000206000915090508060000160009054906101000a900460000b908060000160019054906101000a900473ffffffffffffffffffffffffffffffffffffffff16908060000160159054906101000a900460ff16908060010154905084565b60066020528160005260406000206020528060005260406000206000915091509054906101000a900460ff1681565b60056020528060005260406000206000915090508060000160009054906101000a900460ff16908060000160019054906101000a900460ff16908060010154905083565b7f000000000000000000000000000000000000000000000000000000000000000081565b6000600160003373ffffffffffffffffffffffffffffffffffffffff1673ffffffffffffffffffffffffffffffffffffffff16815260200190815260200160002060009054906101000a900460ff1660ff161161147d576040517f08c379a000000000000000000000000000000000000000000000000000000000815260040161147490611fc0565b60405180910390fd5b8160000b6003600085815260200190815260200160002060000160009054906101000a900460000b60000b14801561151657508073ffffffffffffffffffffffffffffffffffffffff166003600085815260200190815260200160002060000160019054906101000a900473ffffffffffffffffffffffffffffffffffffffff1673ffffffffffffffffffffffffffffffffffffffff16145b8015611538575042600360008581526020019081526020016000206001015410155b611577576040517f08c379a000000000000000000000000000000000000000000000000000000000815260040161156e90612450565b60405180910390fd5b6004600084815260200190815260200160002060003373ffffffffffffffffffffffffffffffffffffffff1673ffffffffffffffffffffffffffffffffffffffff16815260200190815260200160002060009054906101000a900460ff1661168f5760016004600085815260200190815260200160002060003373ffffffffffffffffffffffffffffffffffffffff1673ffffffffffffffffffffffffffffffffffffffff16815260200190815260200160002060006101000a81548160ff02191690831515021790555060036000848152602001908152602001600020600001601581819054906101000a900460ff168092919061167590612470565b91906101000a81548160ff021916908360ff160217905550505b600260009054906101000a900460ff1660ff166003600085815260200190815260200160002060000160159054906101000a900460ff1660ff1610611a515760018260000b036117e1576000819080600181540180825580915050600190039060005260206000200160009091909190916101000a81548173ffffffffffffffffffffffffffffffffffffffff021916908373ffffffffffffffffffffffffffffffffffffffff160217905550600080549050600160008373ffffffffffffffffffffffffffffffffffffffff1673ffffffffffffffffffffffffffffffffffffffff16815260200190815260200160002060006101000a81548160ff021916908360ff1602179055508073ffffffffffffffffffffffffffffffffffffffff167f8191ca9d665b824fc53160f3727e7ec3a5330e4a67e1db6c4a86678956dfef1960405160405180910390a2611a50565b7fffffffffffffffffffffffffffffffffffffffffffffffffffffffffffffffff8260000b03611a4f576000600160008373ffffffffffffffffffffffffffffffffffffffff1673ffffffffffffffffffffffffffffffffffffffff16815260200190815260200160002060009054906101000a900460ff16905060008060016000805490506118719190612565565b8154811061188257611881612599565b5b9060005260206000200160009054906101000a900473ffffffffffffffffffffffffffffffffffffffff1690508060006001846118bf91906125c8565b60ff16815481106118d3576118d2612599565b5b9060005260206000200160006101000a81548173ffffffffffffffffffffffffffffffffffffffff021916908373ffffffffffffffffffffffffffffffffffffffff16021790555081600160008373ffffffffffffffffffffffffffffffffffffffff1673ffffffffffffffffffffffffffffffffffffffff16815260200190815260200160002060006101000a81548160ff021916908360ff160217905550600160008473ffffffffffffffffffffffffffffffffffffffff1673ffffffffffffffffffffffffffffffffffffffff16815260200190815260200160002060006101000a81549060ff021916905560008054806119d4576119d36125fd565b5b6001900381819060005260206000200160006101000a81549073ffffffffffffffffffffffffffffffffffffffff021916905590558273ffffffffffffffffffffffffffffffffffffffff167fa2a6e2b8f0cf0f627456034557b0149227a355af53f5bc8ce7e496bfbe73c0a960405160405180910390a250505b5b5b505050565b600080fd5b6000819050919050565b611a6e81611a5b565b8114611a7957600080fd5b50565b600081359050611a8b81611a65565b92915050565b6000819050919050565b611aa481611a91565b8114611aaf57600080fd5b50565b600081359050611ac181611a9b565b92915050565b600073ffffffffffffffffffffffffffffffffffffffff82169050919050565b6000611af282611ac7565b9050919050565b611b0281611ae7565b8114611b0d57600080fd5b50565b600081359050611b1f81611af9565b92915050565b600080600060608486031215611b3e57611b3d611a56565b5b6000611b4c86828701611a7c565b9350506020611b5d86828701611ab2565b9250506040611b6e86828701611b10565b9150509250925092565b60008160000b9050919050565b611b8e81611b78565b8114611b9957600080fd5b50565b600081359050611bab81611b85565b92915050565b60008060408385031215611bc857611bc7611a56565b5b6000611bd685828601611b9c565b9250506020611be785828601611b10565b9150509250929050565b611bfa81611a91565b82525050565b6000602082019050611c156000830184611bf1565b92915050565b600080600060608486031215611c3457611c33611a56565b5b6000611c4286828701611b10565b9350506020611c5386828701611a7c565b9250506040611c6486828701611ab2565b9150509250925092565b600060208284031215611c8457611c83611a56565b5b6000611c9284828501611ab2565b91505092915050565b611ca481611ae7565b82525050565b6000602082019050611cbf6000830184611c9b565b92915050565b60008060408385031215611cdc57611cdb611a56565b5b6000611cea85828601611ab2565b9250506020611cfb85828601611b10565b9150509250929050565b60008115159050919050565b611d1a81611d05565b82525050565b6000602082019050611d356000830184611d11565b92915050565b600060ff82169050919050565b611d5181611d3b565b8114611d5c57600080fd5b50565b600081359050611d6e81611d48565b92915050565b60008060408385031215611d8b57611d8a611a56565b5b6000611d9985828601611ab2565b9250506020611daa85828601611d5f565b9150509250929050565b611dbd81611d3b565b82525050565b6000602082019050611dd86000830184611db4565b92915050565b600060208284031215611df457611df3611a56565b5b6000611e0284828501611d5f565b91505092915050565b611e1481611b78565b82525050565b6000608082019050611e2f6000830187611e0b565b611e3c6020830186611c9b565b611e496040830185611db4565b611e566060830184611bf1565b95945050505050565b6000606082019050611e746000830186611db4565b611e816020830185611db4565b611e8e6040830184611bf1565b949350505050565b6000819050919050565b6000611ebb611eb6611eb184611ac7565b611e96565b611ac7565b9050919050565b6000611ecd82611ea0565b9050919050565b6000611edf82611ec2565b9050919050565b611eef81611ed4565b82525050565b6000602082019050611f0a6000830184611ee6565b92915050565b600080600060608486031215611f2957611f28611a56565b5b6000611f3786828701611ab2565b9350506020611f4886828701611b9c565b9250506040611f5986828701611b10565b9150509250925092565b600082825260208201905092915050565b7f6e6f74207369676e657200000000000000000000000000000000000000000000600082015250565b6000611faa600a83611f63565b9150611fb582611f74565b602082019050919050565b60006020820190508181036000830152611fd981611f9d565b9050919050565b7f73656e74206f7665720000000000000000000000000000000000000000000000600082015250565b6000612016600983611f63565b915061202182611fe0565b602082019050919050565b6000602082019050818103600083015261204581612009565b9050919050565b7f696e76616c6964207472616e7366657200000000000000000000000000000000600082015250565b6000612082601083611f63565b915061208d8261204c565b602082019050919050565b600060208201905081810360008301526120b181612075565b9050919050565b7f4e487b7100000000000000000000000000000000000000000000000000000000600052601160045260246000fd5b60006120f282611a91565b91507fffffffffffffffffffffffffffffffffffffffffffffffffffffffffffffffff8203612124576121236120b8565b5b600182019050919050565b60006040820190506121446000830185611c9b565b6121516020830184611bf1565b9392505050565b61216181611d05565b811461216c57600080fd5b50565b60008151905061217e81612158565b92915050565b60006020828403121561219a57612199611a56565b5b60006121a88482850161216f565b91505092915050565b7f65786973742070726f706f73616c000000000000000000000000000000000000600082015250565b60006121e7600e83611f63565b91506121f2826121b1565b602082019050919050565b60006020820190508181036000830152612216816121da565b9050919050565b7f61646472657373206e6f74206578697374000000000000000000000000000000600082015250565b6000612253601183611f63565b915061225e8261221d565b602082019050919050565b6000602082019050818103600083015261228281612246565b9050919050565b7f72657175697265436f756e74206572726f720000000000000000000000000000600082015250565b60006122bf601283611f63565b91506122ca82612289565b602082019050919050565b600060208201905081810360008301526122ee816122b2565b9050919050565b7f6164647265737320657869737400000000000000000000000000000000000000600082015250565b600061232b600d83611f63565b9150612336826122f5565b602082019050919050565b6000602082019050818103600083015261235a8161231e565b9050919050565b600061236c82611a91565b915061237783611a91565b925082820190508082111561238f5761238e6120b8565b5b92915050565b60006060820190506123aa6000830186611c9b565b6123b76020830185611c9b565b6123c46040830184611bf1565b949350505050565b6123d581611a5b565b82525050565b60006040820190506123f060008301856123cc565b6123fd6020830184611bf1565b9392505050565b7f6d69736d61746368000000000000000000000000000000000000000000000000600082015250565b600061243a600883611f63565b915061244582612404565b602082019050919050565b600060208201905081810360008301526124698161242d565b9050919050565b600061247b82611d3b565b915060ff820361248e5761248d6120b8565b5b600182019050919050565b7f4e487b7100000000000000000000000000000000000000000000000000000000600052601260045260246000fd5b60006124d382611a91565b91506124de83611a91565b9250826124ee576124ed612499565b5b828204905092915050565b7f636f756e74206572726f72000000000000000000000000000000000000000000600082015250565b600061252f600b83611f63565b915061253a826124f9565b602082019050919050565b6000602082019050818103600083015261255e81612522565b9050919050565b600061257082611a91565b915061257b83611a91565b9250828203905081811115612593576125926120b8565b5b92915050565b7f4e487b7100000000000000000000000000000000000000000000000000000000600052603260045260246000fd5b60006125d382611d3b565b91506125de83611d3b565b9250828203905060ff8111156125f7576125f66120b8565b5b92915050565b7f4e487b7100000000000000000000000000000000000000000000000000000000600052603160045260246000fdfea264697066735822122023f8a44dd2f099bbfeabccc3fcf87e7feb9f5162e7cb2ca15c160429d46e242b64736f6c63430008110033",
  "linkReferences": {},
  "deployedLinkReferences": {}
}