{
  "_format": "hh-sol-artifact-1",
  "contractName": "BridgeTxErrorRecord",
  "sourceName": "contracts/txErrorRecord.sol",
  "abi": [
    {
      "inputs": [],
      "stateMutability": "nonpayable",
      "type": "constructor"
    },
    {
      "anonymous": false,
      "inputs": [
        {
          "indexed": false,
          "internalType": "bytes32",
          "name": "txid",
          "type": "bytes32"
        },
        {
          "indexed": false,
          "internalType": "bytes32",
          "name": "from",
          "type": "bytes32"
        },
        {
          "indexed": false,
          "internalType": "bytes32",
          "name": "to",
          "type": "bytes32"
        }
      ],
      "name": "UnWrapFailed",
      "type": "event"
    },
    {
      "anonymous": false,
      "inputs": [
        {
          "indexed": false,
          "internalType": "bytes32",
          "name": "txid",
          "type": "bytes32"
        },
        {
          "indexed": false,
          "internalType": "bytes32",
          "name": "from",
          "type": "bytes32"
        },
        {
          "indexed": false,
          "internalType": "bytes32",
          "name": "to",
          "type": "bytes32"
        }
      ],
      "name": "WrapFailed",
      "type": "event"
    },
    {
      "inputs": [],
      "name": "acceptOwner",
      "outputs": [],
      "stateMutability": "nonpayable",
      "type": "function"
    },
    {
      "inputs": [
        {
          "internalType": "bytes32",
          "name": "txid",
          "type": "bytes32"
        }
      ],
      "name": "getFailTxes",
      "outputs": [
        {
          "internalType": "bytes32[]",
          "name": "",
          "type": "bytes32[]"
        }
      ],
      "stateMutability": "view",
      "type": "function"
    },
    {
      "inputs": [],
      "name": "owner",
      "outputs": [
        {
          "internalType": "address",
          "name": "",
          "type": "address"
        }
      ],
      "stateMutability": "view",
      "type": "function"
    },
    {
      "inputs": [
        {
          "internalType": "int8",
          "name": "d",
          "type": "int8"
        },
        {
          "internalType": "bytes32",
          "name": "from",
          "type": "bytes32"
        },
        {
          "internalType": "bytes32",
          "name": "txid",
          "type": "bytes32"
        },
        {
          "internalType": "bytes32",
          "name": "to",
          "type": "bytes32"
        },
        {
          "internalType": "bytes32",
          "name": "failedTxid",
          "type": "bytes32"
        }
      ],
      "name": "submitFailedOrder",
      "outputs": [],
      "stateMutability": "nonpayable",
      "type": "function"
    },
    {
      "inputs": [
        {
          "internalType": "address",
          "name": "_owner",
          "type": "address"
        }
      ],
      "name": "transferOwner",
      "outputs": [],
      "stateMutability": "nonpayable",
      "type": "function"
    }
  ],
  "bytecode": "0x608060405234801561001057600080fd5b50336000806101000a81548173ffffffffffffffffffffffffffffffffffffffff021916908373ffffffffffffffffffffffffffffffffffffffff160217905550610c13806100606000396000f3fe608060405234801561001057600080fd5b50600436106100575760003560e01c80634fb2e45d1461005c578063889e338c146100785780638da5cb5b14610094578063daadee9b146100b2578063ebbc4965146100e2575b600080fd5b610076600480360381019061007191906106d8565b6100ec565b005b610092600480360381019061008d9190610774565b6101be565b005b61009c6104ad565b6040516100a991906107fe565b60405180910390f35b6100cc60048036038101906100c79190610819565b6104d1565b6040516100d99190610904565b60405180910390f35b6100ea61053f565b005b60008054906101000a900473ffffffffffffffffffffffffffffffffffffffff1673ffffffffffffffffffffffffffffffffffffffff163373ffffffffffffffffffffffffffffffffffffffff161461017a576040517f08c379a000000000000000000000000000000000000000000000000000000000815260040161017190610983565b60405180910390fd5b80600160006101000a81548173ffffffffffffffffffffffffffffffffffffffff021916908373ffffffffffffffffffffffffffffffffffffffff16021790555050565b60008054906101000a900473ffffffffffffffffffffffffffffffffffffffff1673ffffffffffffffffffffffffffffffffffffffff163373ffffffffffffffffffffffffffffffffffffffff161461021657600080fd5b60018560000b148061024a57507fffffffffffffffffffffffffffffffffffffffffffffffffffffffffffffffff8560000b145b610289576040517f08c379a0000000000000000000000000000000000000000000000000000000008152600401610280906109ef565b60405180910390fd5b600060026000858152602001908152602001600020905060008160000160009054906101000a900460000b60000b036102f357858160000160006101000a81548160ff021916908360000b60ff16021790555084816001018190555082816002018190555061036b565b8560000b8160000160009054906101000a900460000b60000b14801561031c5750848160010154145b801561032b5750828160020154145b61036a576040517f08c379a000000000000000000000000000000000000000000000000000000000815260040161036190610a5b565b60405180910390fd5b5b60005b81600301805490508110156103f2578282600301828154811061039457610393610a7b565b5b9060005260206000200154036103df576040517f08c379a00000000000000000000000000000000000000000000000000000000081526004016103d690610af6565b60405180910390fd5b80806103ea90610b4f565b91505061036e565b508060030182908060018154018082558091505060019003906000526020600020016000909190919091505560018660000b03610469577f15face24d5011b35efdb708739be37b4f126079024a263784b7d83e7cda90fb884868560405161045c93929190610ba6565b60405180910390a16104a5565b7fbde4f934505046b577745805b684d8d4159e918b63a7d5a9a778a001ea035ef984868560405161049c93929190610ba6565b60405180910390a15b505050505050565b60008054906101000a900473ffffffffffffffffffffffffffffffffffffffff1681565b60606002600083815260200190815260200160002060030180548060200260200160405190810160405280929190818152602001828054801561053357602002820191906000526020600020905b81548152602001906001019080831161051f575b50505050509050919050565b600160009054906101000a900473ffffffffffffffffffffffffffffffffffffffff1673ffffffffffffffffffffffffffffffffffffffff163373ffffffffffffffffffffffffffffffffffffffff16146105cf576040517f08c379a00000000000000000000000000000000000000000000000000000000081526004016105c690610983565b60405180910390fd5b600160009054906101000a900473ffffffffffffffffffffffffffffffffffffffff166000806101000a81548173ffffffffffffffffffffffffffffffffffffffff021916908373ffffffffffffffffffffffffffffffffffffffff1602179055506000600160006101000a81548173ffffffffffffffffffffffffffffffffffffffff021916908373ffffffffffffffffffffffffffffffffffffffff160217905550565b600080fd5b600073ffffffffffffffffffffffffffffffffffffffff82169050919050565b60006106a58261067a565b9050919050565b6106b58161069a565b81146106c057600080fd5b50565b6000813590506106d2816106ac565b92915050565b6000602082840312156106ee576106ed610675565b5b60006106fc848285016106c3565b91505092915050565b60008160000b9050919050565b61071b81610705565b811461072657600080fd5b50565b60008135905061073881610712565b92915050565b6000819050919050565b6107518161073e565b811461075c57600080fd5b50565b60008135905061076e81610748565b92915050565b600080600080600060a086880312156107905761078f610675565b5b600061079e88828901610729565b95505060206107af8882890161075f565b94505060406107c08882890161075f565b93505060606107d18882890161075f565b92505060806107e28882890161075f565b9150509295509295909350565b6107f88161069a565b82525050565b600060208201905061081360008301846107ef565b92915050565b60006020828403121561082f5761082e610675565b5b600061083d8482850161075f565b91505092915050565b600081519050919050565b600082825260208201905092915050565b6000819050602082019050919050565b61087b8161073e565b82525050565b600061088d8383610872565b60208301905092915050565b6000602082019050919050565b60006108b182610846565b6108bb8185610851565b93506108c683610862565b8060005b838110156108f75781516108de8882610881565b97506108e983610899565b9250506001810190506108ca565b5085935050505092915050565b6000602082019050818103600083015261091e81846108a6565b905092915050565b600082825260208201905092915050565b7f666f7262696464656e0000000000000000000000000000000000000000000000600082015250565b600061096d600983610926565b915061097882610937565b602082019050919050565b6000602082019050818103600083015261099c81610960565b9050919050565b7f64206572726f7200000000000000000000000000000000000000000000000000600082015250565b60006109d9600783610926565b91506109e4826109a3565b602082019050919050565b60006020820190508181036000830152610a08816109cc565b9050919050565b7f706172616d206572726f72000000000000000000000000000000000000000000600082015250565b6000610a45600b83610926565b9150610a5082610a0f565b602082019050919050565b60006020820190508181036000830152610a7481610a38565b9050919050565b7f4e487b7100000000000000000000000000000000000000000000000000000000600052603260045260246000fd5b7f7478696420657869737400000000000000000000000000000000000000000000600082015250565b6000610ae0600a83610926565b9150610aeb82610aaa565b602082019050919050565b60006020820190508181036000830152610b0f81610ad3565b9050919050565b7f4e487b7100000000000000000000000000000000000000000000000000000000600052601160045260246000fd5b6000819050919050565b6000610b5a82610b45565b91507fffffffffffffffffffffffffffffffffffffffffffffffffffffffffffffffff8203610b8c57610b8b610b16565b5b600182019050919050565b610ba08161073e565b82525050565b6000606082019050610bbb6000830186610b97565b610bc86020830185610b97565b610bd56040830184610b97565b94935050505056fea26469706673582212200d58498d43438696417818b2ee829602818cf2591a918351cfc4a7b5a1675ca764736f6c63430008110033",
  "linkReferences": {},
  "deployedLinkReferences": {}
}