{
  "_format": "hh-sol-artifact-1",
  "contractName": "BridgeTxErrorRecord",
  "sourceName": "contracts/txErrorRecord.sol",
  "abi": [
    {
      "inputs": [],
      "stateMutability": "nonpayable",
      "type": "constructor"
    },
    {
      "inputs": [],
      "name": "acceptOwner",
      "outputs": [],
      "stateMutability": "nonpayable",
      "type": "function"
    },
    {
      "inputs": [],
      "name": "owner",
      "outputs": [
        {
          "internalType": "address",
          "name": "",
          "type": "address"
        }
      ],
      "stateMutability": "view",
      "type": "function"
    },
    {
      "inputs": [
        {
          "internalType": "address",
          "name": "_owner",
          "type": "address"
        }
      ],
      "name": "transferOwner",
      "outputs": [],
      "stateMutability": "nonpayable",
      "type": "function"
    },
    {
      "inputs": [],
      "name": "unWrap",
      "outputs": [],
      "stateMutability": "nonpayable",
      "type": "function"
    },
    {
      "inputs": [],
      "name": "wrap",
      "outputs": [],
      "stateMutability": "nonpayable",
      "type": "function"
    }
  ],
  "bytecode": "0x608060405234801561001057600080fd5b50336000806101000a81548173ffffffffffffffffffffffffffffffffffffffff021916908373ffffffffffffffffffffffffffffffffffffffff160217905550610451806100606000396000f3fe608060405234801561001057600080fd5b50600436106100575760003560e01c80634fb2e45d1461005c578063824d9f12146100785780638da5cb5b14610082578063d46eb119146100a0578063ebbc4965146100aa575b600080fd5b61007660048036038101906100719190610347565b6100b4565b005b610080610186565b005b61008a610188565b6040516100979190610383565b60405180910390f35b6100a86101ac565b005b6100b26101ae565b005b60008054906101000a900473ffffffffffffffffffffffffffffffffffffffff1673ffffffffffffffffffffffffffffffffffffffff163373ffffffffffffffffffffffffffffffffffffffff1614610142576040517f08c379a0000000000000000000000000000000000000000000000000000000008152600401610139906103fb565b60405180910390fd5b80600160006101000a81548173ffffffffffffffffffffffffffffffffffffffff021916908373ffffffffffffffffffffffffffffffffffffffff16021790555050565b565b60008054906101000a900473ffffffffffffffffffffffffffffffffffffffff1681565b565b600160009054906101000a900473ffffffffffffffffffffffffffffffffffffffff1673ffffffffffffffffffffffffffffffffffffffff163373ffffffffffffffffffffffffffffffffffffffff161461023e576040517f08c379a0000000000000000000000000000000000000000000000000000000008152600401610235906103fb565b60405180910390fd5b600160009054906101000a900473ffffffffffffffffffffffffffffffffffffffff166000806101000a81548173ffffffffffffffffffffffffffffffffffffffff021916908373ffffffffffffffffffffffffffffffffffffffff1602179055506000600160006101000a81548173ffffffffffffffffffffffffffffffffffffffff021916908373ffffffffffffffffffffffffffffffffffffffff160217905550565b600080fd5b600073ffffffffffffffffffffffffffffffffffffffff82169050919050565b6000610314826102e9565b9050919050565b61032481610309565b811461032f57600080fd5b50565b6000813590506103418161031b565b92915050565b60006020828403121561035d5761035c6102e4565b5b600061036b84828501610332565b91505092915050565b61037d81610309565b82525050565b60006020820190506103986000830184610374565b92915050565b600082825260208201905092915050565b7f666f7262696464656e0000000000000000000000000000000000000000000000600082015250565b60006103e560098361039e565b91506103f0826103af565b602082019050919050565b60006020820190508181036000830152610414816103d8565b905091905056fea2646970667358221220b2fe7a5af33f523a02826b40324f33492f53f6134fa4da4030979f191aaa78d864736f6c63430008110033",
  "linkReferences": {},
  "deployedLinkReferences": {}
}