{
  "_format": "hh-sol-artifact-1",
  "contractName": "BridgeTxErrorRecord",
  "sourceName": "contracts/txErrorRecord.sol",
  "abi": [
    {
      "inputs": [],
      "stateMutability": "nonpayable",
      "type": "constructor"
    },
    {
      "anonymous": false,
      "inputs": [
        {
          "indexed": false,
          "internalType": "bytes32",
          "name": "txid",
          "type": "bytes32"
        },
        {
          "indexed": false,
          "internalType": "bytes16",
          "name": "from",
          "type": "bytes16"
        },
        {
          "indexed": false,
          "internalType": "bytes16",
          "name": "to",
          "type": "bytes16"
        },
        {
          "indexed": false,
          "internalType": "uint256",
          "name": "amount",
          "type": "uint256"
        }
      ],
      "name": "UnWrapFailed",
      "type": "event"
    },
    {
      "anonymous": false,
      "inputs": [
        {
          "indexed": false,
          "internalType": "bytes32",
          "name": "txid",
          "type": "bytes32"
        },
        {
          "indexed": false,
          "internalType": "bytes16",
          "name": "from",
          "type": "bytes16"
        },
        {
          "indexed": false,
          "internalType": "bytes16",
          "name": "to",
          "type": "bytes16"
        },
        {
          "indexed": false,
          "internalType": "uint256",
          "name": "amount",
          "type": "uint256"
        }
      ],
      "name": "WrapFailed",
      "type": "event"
    },
    {
      "inputs": [],
      "name": "acceptOwner",
      "outputs": [],
      "stateMutability": "nonpayable",
      "type": "function"
    },
    {
      "inputs": [
        {
          "internalType": "bytes32",
          "name": "txid",
          "type": "bytes32"
        }
      ],
      "name": "getFailTxes",
      "outputs": [
        {
          "internalType": "bytes32[]",
          "name": "",
          "type": "bytes32[]"
        }
      ],
      "stateMutability": "view",
      "type": "function"
    },
    {
      "inputs": [],
      "name": "owner",
      "outputs": [
        {
          "internalType": "address",
          "name": "",
          "type": "address"
        }
      ],
      "stateMutability": "view",
      "type": "function"
    },
    {
      "inputs": [
        {
          "internalType": "int8",
          "name": "d",
          "type": "int8"
        },
        {
          "internalType": "bytes16",
          "name": "from",
          "type": "bytes16"
        },
        {
          "internalType": "bytes32",
          "name": "txid",
          "type": "bytes32"
        },
        {
          "internalType": "bytes16",
          "name": "to",
          "type": "bytes16"
        },
        {
          "internalType": "uint256",
          "name": "amount",
          "type": "uint256"
        },
        {
          "internalType": "bytes32",
          "name": "failedTxid",
          "type": "bytes32"
        }
      ],
      "name": "submitFailedOrder",
      "outputs": [],
      "stateMutability": "nonpayable",
      "type": "function"
    },
    {
      "inputs": [
        {
          "internalType": "address",
          "name": "_owner",
          "type": "address"
        }
      ],
      "name": "transferOwner",
      "outputs": [],
      "stateMutability": "nonpayable",
      "type": "function"
    }
  ],
  "bytecode": "0x608060405234801561001057600080fd5b50336000806101000a81548173ffffffffffffffffffffffffffffffffffffffff021916908373ffffffffffffffffffffffffffffffffffffffff160217905550610e3d806100606000396000f3fe608060405234801561001057600080fd5b50600436106100575760003560e01c806327b3a60b1461005c5780634fb2e45d146100785780638da5cb5b14610094578063daadee9b146100b2578063ebbc4965146100e2575b600080fd5b61007660048036038101906100719190610873565b6100ec565b005b610092600480360381019061008d919061095e565b6104d7565b005b61009c6105a9565b6040516100a9919061099a565b60405180910390f35b6100cc60048036038101906100c791906109b5565b6105cd565b6040516100d99190610aa0565b60405180910390f35b6100ea61063b565b005b60008054906101000a900473ffffffffffffffffffffffffffffffffffffffff1673ffffffffffffffffffffffffffffffffffffffff163373ffffffffffffffffffffffffffffffffffffffff161461014457600080fd5b60008211610187576040517f08c379a000000000000000000000000000000000000000000000000000000000815260040161017e90610b1f565b60405180910390fd5b60018660000b14806101bb57507fffffffffffffffffffffffffffffffffffffffffffffffffffffffffffffffff8660000b145b6101fa576040517f08c379a00000000000000000000000000000000000000000000000000000000081526004016101f190610b8b565b60405180910390fd5b600060026000868152602001908152602001600020905060008160010154036102a357868160000160006101000a81548160ff021916908360000b60ff160217905550858160000160016101000a8154816fffffffffffffffffffffffffffffffff021916908360801c0217905550838160020160006101000a8154816fffffffffffffffffffffffffffffffff021916908360801c0217905550828160010181905550610390565b8660000b8160000160009054906101000a900460000b60000b1480156102cc5750828160010154145b801561030e5750856fffffffffffffffffffffffffffffffff19168160000160019054906101000a900460801b6fffffffffffffffffffffffffffffffff1916145b80156103505750836fffffffffffffffffffffffffffffffff19168160020160009054906101000a900460801b6fffffffffffffffffffffffffffffffff1916145b61038f576040517f08c379a000000000000000000000000000000000000000000000000000000000815260040161038690610bf7565b60405180910390fd5b5b60005b816003018054905081101561041757828260030182815481106103b9576103b8610c17565b5b906000526020600020015403610404576040517f08c379a00000000000000000000000000000000000000000000000000000000081526004016103fb90610c92565b60405180910390fd5b808061040f90610ce1565b915050610393565b508060030182908060018154018082558091505060019003906000526020600020016000909190919091505560018760000b03610490577f5b9473cb9b6ac615391ff0ff7c23b39c33489ba6a84cdc9dd1585cc75054fe2c858786866040516104839493929190610d56565b60405180910390a16104ce565b7fb0ffac417d6c066723b5cfc3f17120f66ab6d3ce33e2d5d1201da46a4c796df3858786866040516104c59493929190610d56565b60405180910390a15b50505050505050565b60008054906101000a900473ffffffffffffffffffffffffffffffffffffffff1673ffffffffffffffffffffffffffffffffffffffff163373ffffffffffffffffffffffffffffffffffffffff1614610565576040517f08c379a000000000000000000000000000000000000000000000000000000000815260040161055c90610de7565b60405180910390fd5b80600160006101000a81548173ffffffffffffffffffffffffffffffffffffffff021916908373ffffffffffffffffffffffffffffffffffffffff16021790555050565b60008054906101000a900473ffffffffffffffffffffffffffffffffffffffff1681565b60606002600083815260200190815260200160002060030180548060200260200160405190810160405280929190818152602001828054801561062f57602002820191906000526020600020905b81548152602001906001019080831161061b575b50505050509050919050565b600160009054906101000a900473ffffffffffffffffffffffffffffffffffffffff1673ffffffffffffffffffffffffffffffffffffffff163373ffffffffffffffffffffffffffffffffffffffff16146106cb576040517f08c379a00000000000000000000000000000000000000000000000000000000081526004016106c290610de7565b60405180910390fd5b600160009054906101000a900473ffffffffffffffffffffffffffffffffffffffff166000806101000a81548173ffffffffffffffffffffffffffffffffffffffff021916908373ffffffffffffffffffffffffffffffffffffffff1602179055506000600160006101000a81548173ffffffffffffffffffffffffffffffffffffffff021916908373ffffffffffffffffffffffffffffffffffffffff160217905550565b600080fd5b60008160000b9050919050565b61078c81610776565b811461079757600080fd5b50565b6000813590506107a981610783565b92915050565b60007fffffffffffffffffffffffffffffffff0000000000000000000000000000000082169050919050565b6107e4816107af565b81146107ef57600080fd5b50565b600081359050610801816107db565b92915050565b6000819050919050565b61081a81610807565b811461082557600080fd5b50565b60008135905061083781610811565b92915050565b6000819050919050565b6108508161083d565b811461085b57600080fd5b50565b60008135905061086d81610847565b92915050565b60008060008060008060c087890312156108905761088f610771565b5b600061089e89828a0161079a565b96505060206108af89828a016107f2565b95505060406108c089828a01610828565b94505060606108d189828a016107f2565b93505060806108e289828a0161085e565b92505060a06108f389828a01610828565b9150509295509295509295565b600073ffffffffffffffffffffffffffffffffffffffff82169050919050565b600061092b82610900565b9050919050565b61093b81610920565b811461094657600080fd5b50565b60008135905061095881610932565b92915050565b60006020828403121561097457610973610771565b5b600061098284828501610949565b91505092915050565b61099481610920565b82525050565b60006020820190506109af600083018461098b565b92915050565b6000602082840312156109cb576109ca610771565b5b60006109d984828501610828565b91505092915050565b600081519050919050565b600082825260208201905092915050565b6000819050602082019050919050565b610a1781610807565b82525050565b6000610a298383610a0e565b60208301905092915050565b6000602082019050919050565b6000610a4d826109e2565b610a5781856109ed565b9350610a62836109fe565b8060005b83811015610a93578151610a7a8882610a1d565b9750610a8583610a35565b925050600181019050610a66565b5085935050505092915050565b60006020820190508181036000830152610aba8184610a42565b905092915050565b600082825260208201905092915050565b7f616d6f756e74207a65726f000000000000000000000000000000000000000000600082015250565b6000610b09600b83610ac2565b9150610b1482610ad3565b602082019050919050565b60006020820190508181036000830152610b3881610afc565b9050919050565b7f64206572726f7200000000000000000000000000000000000000000000000000600082015250565b6000610b75600783610ac2565b9150610b8082610b3f565b602082019050919050565b60006020820190508181036000830152610ba481610b68565b9050919050565b7f706172616d206572726f72000000000000000000000000000000000000000000600082015250565b6000610be1600b83610ac2565b9150610bec82610bab565b602082019050919050565b60006020820190508181036000830152610c1081610bd4565b9050919050565b7f4e487b7100000000000000000000000000000000000000000000000000000000600052603260045260246000fd5b7f7478696420657869737400000000000000000000000000000000000000000000600082015250565b6000610c7c600a83610ac2565b9150610c8782610c46565b602082019050919050565b60006020820190508181036000830152610cab81610c6f565b9050919050565b7f4e487b7100000000000000000000000000000000000000000000000000000000600052601160045260246000fd5b6000610cec8261083d565b91507fffffffffffffffffffffffffffffffffffffffffffffffffffffffffffffffff8203610d1e57610d1d610cb2565b5b600182019050919050565b610d3281610807565b82525050565b610d41816107af565b82525050565b610d508161083d565b82525050565b6000608082019050610d6b6000830187610d29565b610d786020830186610d38565b610d856040830185610d38565b610d926060830184610d47565b95945050505050565b7f666f7262696464656e0000000000000000000000000000000000000000000000600082015250565b6000610dd1600983610ac2565b9150610ddc82610d9b565b602082019050919050565b60006020820190508181036000830152610e0081610dc4565b905091905056fea2646970667358221220915b832ef3aeb87b07477b2e7c22f1c88f4de186b03446be389ad55c737538b864736f6c63430008110033",
  "linkReferences": {},
  "deployedLinkReferences": {}
}