{
  "_format": "hh-sol-artifact-1",
  "contractName": "BridgeWrap",
  "sourceName": "contracts/wrap.sol",
  "abi": [
    {
      "inputs": [
        {
          "internalType": "string",
          "name": "_name",
          "type": "string"
        },
        {
          "internalType": "string",
          "name": "_symbol",
          "type": "string"
        },
        {
          "internalType": "uint8",
          "name": "_decimal",
          "type": "uint8"
        },
        {
          "internalType": "uint256",
          "name": "minAmount",
          "type": "uint256"
        },
        {
          "internalType": "address[]",
          "name": "_signers",
          "type": "address[]"
        },
        {
          "internalType": "uint8",
          "name": "_requireCount",
          "type": "uint8"
        }
      ],
      "stateMutability": "nonpayable",
      "type": "constructor"
    },
    {
      "anonymous": false,
      "inputs": [
        {
          "indexed": true,
          "internalType": "address",
          "name": "owner",
          "type": "address"
        },
        {
          "indexed": true,
          "internalType": "address",
          "name": "spender",
          "type": "address"
        },
        {
          "indexed": false,
          "internalType": "uint256",
          "name": "value",
          "type": "uint256"
        }
      ],
      "name": "Approval",
      "type": "event"
    },
    {
      "anonymous": false,
      "inputs": [
        {
          "indexed": false,
          "internalType": "uint8",
          "name": "changeRequireCount",
          "type": "uint8"
        }
      ],
      "name": "ChangeRequireCount",
      "type": "event"
    },
    {
      "anonymous": false,
      "inputs": [
        {
          "indexed": true,
          "internalType": "address",
          "name": "signer",
          "type": "address"
        }
      ],
      "name": "SignerAddition",
      "type": "event"
    },
    {
      "anonymous": false,
      "inputs": [
        {
          "indexed": true,
          "internalType": "address",
          "name": "signer",
          "type": "address"
        }
      ],
      "name": "SignerRemoval",
      "type": "event"
    },
    {
      "anonymous": false,
      "inputs": [
        {
          "indexed": true,
          "internalType": "address",
          "name": "from",
          "type": "address"
        },
        {
          "indexed": true,
          "internalType": "address",
          "name": "to",
          "type": "address"
        },
        {
          "indexed": false,
          "internalType": "uint256",
          "name": "value",
          "type": "uint256"
        }
      ],
      "name": "Transfer",
      "type": "event"
    },
    {
      "anonymous": false,
      "inputs": [
        {
          "indexed": true,
          "internalType": "address",
          "name": "from",
          "type": "address"
        },
        {
          "indexed": true,
          "internalType": "bytes32",
          "name": "to",
          "type": "bytes32"
        },
        {
          "indexed": false,
          "internalType": "bytes32",
          "name": "symbol",
          "type": "bytes32"
        },
        {
          "indexed": false,
          "internalType": "uint256",
          "name": "amount",
          "type": "uint256"
        }
      ],
      "name": "UnWrap",
      "type": "event"
    },
    {
      "anonymous": false,
      "inputs": [
        {
          "indexed": true,
          "internalType": "address",
          "name": "to",
          "type": "address"
        },
        {
          "indexed": false,
          "internalType": "uint256",
          "name": "amount",
          "type": "uint256"
        }
      ],
      "name": "Wrap",
      "type": "event"
    },
    {
      "inputs": [],
      "name": "FEE_DIV_CONST",
      "outputs": [
        {
          "internalType": "uint24",
          "name": "",
          "type": "uint24"
        }
      ],
      "stateMutability": "view",
      "type": "function"
    },
    {
      "inputs": [],
      "name": "acceptOwner",
      "outputs": [],
      "stateMutability": "nonpayable",
      "type": "function"
    },
    {
      "inputs": [
        {
          "internalType": "uint256",
          "name": "number",
          "type": "uint256"
        },
        {
          "internalType": "uint8",
          "name": "newCount",
          "type": "uint8"
        }
      ],
      "name": "agreeCountProposal",
      "outputs": [],
      "stateMutability": "nonpayable",
      "type": "function"
    },
    {
      "inputs": [
        {
          "internalType": "uint256",
          "name": "number",
          "type": "uint256"
        },
        {
          "internalType": "int8",
          "name": "d",
          "type": "int8"
        },
        {
          "internalType": "address",
          "name": "signer",
          "type": "address"
        }
      ],
      "name": "agreeSignerProposal",
      "outputs": [],
      "stateMutability": "nonpayable",
      "type": "function"
    },
    {
      "inputs": [
        {
          "internalType": "address",
          "name": "",
          "type": "address"
        },
        {
          "internalType": "address",
          "name": "",
          "type": "address"
        }
      ],
      "name": "allowance",
      "outputs": [
        {
          "internalType": "uint256",
          "name": "",
          "type": "uint256"
        }
      ],
      "stateMutability": "view",
      "type": "function"
    },
    {
      "inputs": [
        {
          "internalType": "address",
          "name": "spender",
          "type": "address"
        },
        {
          "internalType": "uint256",
          "name": "value",
          "type": "uint256"
        }
      ],
      "name": "approve",
      "outputs": [
        {
          "internalType": "bool",
          "name": "",
          "type": "bool"
        }
      ],
      "stateMutability": "nonpayable",
      "type": "function"
    },
    {
      "inputs": [
        {
          "internalType": "address",
          "name": "",
          "type": "address"
        }
      ],
      "name": "balanceOf",
      "outputs": [
        {
          "internalType": "uint256",
          "name": "",
          "type": "uint256"
        }
      ],
      "stateMutability": "view",
      "type": "function"
    },
    {
      "inputs": [
        {
          "internalType": "uint256",
          "name": "",
          "type": "uint256"
        }
      ],
      "name": "countProposals",
      "outputs": [
        {
          "internalType": "uint8",
          "name": "newCount",
          "type": "uint8"
        },
        {
          "internalType": "uint8",
          "name": "agreedCount",
          "type": "uint8"
        },
        {
          "internalType": "uint256",
          "name": "overTime",
          "type": "uint256"
        }
      ],
      "stateMutability": "view",
      "type": "function"
    },
    {
      "inputs": [],
      "name": "decimals",
      "outputs": [
        {
          "internalType": "uint8",
          "name": "",
          "type": "uint8"
        }
      ],
      "stateMutability": "view",
      "type": "function"
    },
    {
      "inputs": [],
      "name": "feeRate",
      "outputs": [
        {
          "internalType": "uint24",
          "name": "",
          "type": "uint24"
        }
      ],
      "stateMutability": "view",
      "type": "function"
    },
    {
      "inputs": [],
      "name": "feeSum",
      "outputs": [
        {
          "internalType": "uint256",
          "name": "",
          "type": "uint256"
        }
      ],
      "stateMutability": "view",
      "type": "function"
    },
    {
      "inputs": [
        {
          "internalType": "uint256",
          "name": "",
          "type": "uint256"
        },
        {
          "internalType": "address",
          "name": "",
          "type": "address"
        }
      ],
      "name": "isCountProposalAgreed",
      "outputs": [
        {
          "internalType": "bool",
          "name": "",
          "type": "bool"
        }
      ],
      "stateMutability": "view",
      "type": "function"
    },
    {
      "inputs": [
        {
          "internalType": "uint256",
          "name": "",
          "type": "uint256"
        },
        {
          "internalType": "address",
          "name": "",
          "type": "address"
        }
      ],
      "name": "isSignerProposalAgreed",
      "outputs": [
        {
          "internalType": "bool",
          "name": "",
          "type": "bool"
        }
      ],
      "stateMutability": "view",
      "type": "function"
    },
    {
      "inputs": [
        {
          "internalType": "address",
          "name": "",
          "type": "address"
        },
        {
          "internalType": "bytes32",
          "name": "",
          "type": "bytes32"
        }
      ],
      "name": "isWrapped",
      "outputs": [
        {
          "internalType": "bool",
          "name": "",
          "type": "bool"
        }
      ],
      "stateMutability": "view",
      "type": "function"
    },
    {
      "inputs": [],
      "name": "minUnWrapAmount",
      "outputs": [
        {
          "internalType": "uint256",
          "name": "",
          "type": "uint256"
        }
      ],
      "stateMutability": "view",
      "type": "function"
    },
    {
      "inputs": [],
      "name": "name",
      "outputs": [
        {
          "internalType": "string",
          "name": "",
          "type": "string"
        }
      ],
      "stateMutability": "view",
      "type": "function"
    },
    {
      "inputs": [],
      "name": "overTime",
      "outputs": [
        {
          "internalType": "uint256",
          "name": "",
          "type": "uint256"
        }
      ],
      "stateMutability": "view",
      "type": "function"
    },
    {
      "inputs": [],
      "name": "owner",
      "outputs": [
        {
          "internalType": "address",
          "name": "",
          "type": "address"
        }
      ],
      "stateMutability": "view",
      "type": "function"
    },
    {
      "inputs": [],
      "name": "requireCount",
      "outputs": [
        {
          "internalType": "uint8",
          "name": "",
          "type": "uint8"
        }
      ],
      "stateMutability": "view",
      "type": "function"
    },
    {
      "inputs": [
        {
          "internalType": "uint256",
          "name": "",
          "type": "uint256"
        }
      ],
      "name": "signerProposals",
      "outputs": [
        {
          "internalType": "int8",
          "name": "d",
          "type": "int8"
        },
        {
          "internalType": "address",
          "name": "signer",
          "type": "address"
        },
        {
          "internalType": "uint8",
          "name": "agreedCount",
          "type": "uint8"
        },
        {
          "internalType": "uint256",
          "name": "overTime",
          "type": "uint256"
        }
      ],
      "stateMutability": "view",
      "type": "function"
    },
    {
      "inputs": [
        {
          "internalType": "uint256",
          "name": "",
          "type": "uint256"
        }
      ],
      "name": "signers",
      "outputs": [
        {
          "internalType": "address",
          "name": "",
          "type": "address"
        }
      ],
      "stateMutability": "view",
      "type": "function"
    },
    {
      "inputs": [
        {
          "internalType": "uint8",
          "name": "newCount",
          "type": "uint8"
        }
      ],
      "name": "submitCountProposal",
      "outputs": [
        {
          "internalType": "uint256",
          "name": "",
          "type": "uint256"
        }
      ],
      "stateMutability": "nonpayable",
      "type": "function"
    },
    {
      "inputs": [
        {
          "internalType": "int8",
          "name": "d",
          "type": "int8"
        },
        {
          "internalType": "address",
          "name": "signer",
          "type": "address"
        }
      ],
      "name": "submitSignerProposal",
      "outputs": [
        {
          "internalType": "uint256",
          "name": "",
          "type": "uint256"
        }
      ],
      "stateMutability": "nonpayable",
      "type": "function"
    },
    {
      "inputs": [],
      "name": "symbol",
      "outputs": [
        {
          "internalType": "string",
          "name": "",
          "type": "string"
        }
      ],
      "stateMutability": "view",
      "type": "function"
    },
    {
      "inputs": [],
      "name": "totalSupply",
      "outputs": [
        {
          "internalType": "uint256",
          "name": "",
          "type": "uint256"
        }
      ],
      "stateMutability": "view",
      "type": "function"
    },
    {
      "inputs": [
        {
          "internalType": "address",
          "name": "to",
          "type": "address"
        },
        {
          "internalType": "uint256",
          "name": "value",
          "type": "uint256"
        }
      ],
      "name": "transfer",
      "outputs": [
        {
          "internalType": "bool",
          "name": "",
          "type": "bool"
        }
      ],
      "stateMutability": "nonpayable",
      "type": "function"
    },
    {
      "inputs": [
        {
          "internalType": "address",
          "name": "from",
          "type": "address"
        },
        {
          "internalType": "address",
          "name": "to",
          "type": "address"
        },
        {
          "internalType": "uint256",
          "name": "value",
          "type": "uint256"
        }
      ],
      "name": "transferFrom",
      "outputs": [
        {
          "internalType": "bool",
          "name": "",
          "type": "bool"
        }
      ],
      "stateMutability": "nonpayable",
      "type": "function"
    },
    {
      "inputs": [
        {
          "internalType": "address",
          "name": "_owner",
          "type": "address"
        }
      ],
      "name": "transferOwner",
      "outputs": [],
      "stateMutability": "nonpayable",
      "type": "function"
    },
    {
      "inputs": [
        {
          "internalType": "bytes32",
          "name": "to",
          "type": "bytes32"
        },
        {
          "internalType": "bytes32",
          "name": "symbol",
          "type": "bytes32"
        },
        {
          "internalType": "uint256",
          "name": "amount",
          "type": "uint256"
        }
      ],
      "name": "unWrap",
      "outputs": [],
      "stateMutability": "nonpayable",
      "type": "function"
    },
    {
      "inputs": [
        {
          "internalType": "bytes32",
          "name": "to",
          "type": "bytes32"
        },
        {
          "internalType": "bytes32",
          "name": "symbol",
          "type": "bytes32"
        },
        {
          "internalType": "uint256",
          "name": "fee",
          "type": "uint256"
        }
      ],
      "name": "unWrapFee",
      "outputs": [],
      "stateMutability": "nonpayable",
      "type": "function"
    },
    {
      "inputs": [
        {
          "internalType": "address",
          "name": "to",
          "type": "address"
        },
        {
          "internalType": "uint256",
          "name": "fee",
          "type": "uint256"
        }
      ],
      "name": "withdrawFee",
      "outputs": [],
      "stateMutability": "nonpayable",
      "type": "function"
    },
    {
      "inputs": [
        {
          "internalType": "bytes32",
          "name": "txid",
          "type": "bytes32"
        },
        {
          "internalType": "uint256",
          "name": "amount",
          "type": "uint256"
        },
        {
          "internalType": "address",
          "name": "to",
          "type": "address"
        }
      ],
      "name": "wrap",
      "outputs": [],
      "stateMutability": "nonpayable",
      "type": "function"
    },
    {
      "inputs": [
        {
          "internalType": "bytes32",
          "name": "",
          "type": "bytes32"
        }
      ],
      "name": "wraps",
      "outputs": [
        {
          "internalType": "uint256",
          "name": "amount",
          "type": "uint256"
        },
        {
          "internalType": "address",
          "name": "to",
          "type": "address"
        },
        {
          "internalType": "uint8",
          "name": "requiredCount",
          "type": "uint8"
        },
        {
          "internalType": "bool",
          "name": "sent",
          "type": "bool"
        }
      ],
      "stateMutability": "view",
      "type": "function"
    }
  ],
  "bytecode": "0x60a06040523480156200001157600080fd5b506040516200469a3803806200469a83398181016040528101906200003791906200070c565b818187878782600090816200004d919062000a46565b5081600190816200005f919062000a46565b508060ff1660808160ff168152505050505060005b82518160ff1610156200022c57600060086000858460ff1681518110620000a0576200009f62000b2d565b5b602002602001015173ffffffffffffffffffffffffffffffffffffffff1673ffffffffffffffffffffffffffffffffffffffff16815260200190815260200160002060009054906101000a900460ff1660ff161480156200014e5750600073ffffffffffffffffffffffffffffffffffffffff16838260ff16815181106200012d576200012c62000b2d565b5b602002602001015173ffffffffffffffffffffffffffffffffffffffff1614155b62000190576040517f08c379a0000000000000000000000000000000000000000000000000000000008152600401620001879062000bbd565b60405180910390fd5b6001816200019f919062000c0e565b60086000858460ff1681518110620001bc57620001bb62000b2d565b5b602002602001015173ffffffffffffffffffffffffffffffffffffffff1673ffffffffffffffffffffffffffffffffffffffff16815260200190815260200160002060006101000a81548160ff021916908360ff1602179055508080620002239062000c4a565b91505062000074565b5081600790805190602001906200024592919062000312565b5060026007805490506200025a919062000ca7565b8160ff1611620002a1576040517f08c379a0000000000000000000000000000000000000000000000000000000008152600401620002989062000d2f565b60405180910390fd5b80600960006101000a81548160ff021916908360ff160217905550505033600560006101000a81548173ffffffffffffffffffffffffffffffffffffffff021916908373ffffffffffffffffffffffffffffffffffffffff16021790555082600f8190555050505050505062000d51565b8280548282559060005260206000209081019282156200038e579160200282015b828111156200038d5782518260006101000a81548173ffffffffffffffffffffffffffffffffffffffff021916908373ffffffffffffffffffffffffffffffffffffffff1602179055509160200191906001019062000333565b5b5090506200039d9190620003a1565b5090565b5b80821115620003bc576000816000905550600101620003a2565b5090565b6000604051905090565b600080fd5b600080fd5b600080fd5b600080fd5b6000601f19601f8301169050919050565b7f4e487b7100000000000000000000000000000000000000000000000000000000600052604160045260246000fd5b6200042982620003de565b810181811067ffffffffffffffff821117156200044b576200044a620003ef565b5b80604052505050565b600062000460620003c0565b90506200046e82826200041e565b919050565b600067ffffffffffffffff821115620004915762000490620003ef565b5b6200049c82620003de565b9050602081019050919050565b60005b83811015620004c9578082015181840152602081019050620004ac565b60008484015250505050565b6000620004ec620004e68462000473565b62000454565b9050828152602081018484840111156200050b576200050a620003d9565b5b62000518848285620004a9565b509392505050565b600082601f830112620005385762000537620003d4565b5b81516200054a848260208601620004d5565b91505092915050565b600060ff82169050919050565b6200056b8162000553565b81146200057757600080fd5b50565b6000815190506200058b8162000560565b92915050565b6000819050919050565b620005a68162000591565b8114620005b257600080fd5b50565b600081519050620005c6816200059b565b92915050565b600067ffffffffffffffff821115620005ea57620005e9620003ef565b5b602082029050602081019050919050565b600080fd5b600073ffffffffffffffffffffffffffffffffffffffff82169050919050565b60006200062d8262000600565b9050919050565b6200063f8162000620565b81146200064b57600080fd5b50565b6000815190506200065f8162000634565b92915050565b60006200067c6200067684620005cc565b62000454565b90508083825260208201905060208402830185811115620006a257620006a1620005fb565b5b835b81811015620006cf5780620006ba88826200064e565b845260208401935050602081019050620006a4565b5050509392505050565b600082601f830112620006f157620006f0620003d4565b5b81516200070384826020860162000665565b91505092915050565b60008060008060008060c087890312156200072c576200072b620003ca565b5b600087015167ffffffffffffffff8111156200074d576200074c620003cf565b5b6200075b89828a0162000520565b965050602087015167ffffffffffffffff8111156200077f576200077e620003cf565b5b6200078d89828a0162000520565b9550506040620007a089828a016200057a565b9450506060620007b389828a01620005b5565b935050608087015167ffffffffffffffff811115620007d757620007d6620003cf565b5b620007e589828a01620006d9565b92505060a0620007f889828a016200057a565b9150509295509295509295565b600081519050919050565b7f4e487b7100000000000000000000000000000000000000000000000000000000600052602260045260246000fd5b600060028204905060018216806200085857607f821691505b6020821081036200086e576200086d62000810565b5b50919050565b60008190508160005260206000209050919050565b60006020601f8301049050919050565b600082821b905092915050565b600060088302620008d87fffffffffffffffffffffffffffffffffffffffffffffffffffffffffffffffff8262000899565b620008e4868362000899565b95508019841693508086168417925050509392505050565b6000819050919050565b600062000927620009216200091b8462000591565b620008fc565b62000591565b9050919050565b6000819050919050565b620009438362000906565b6200095b62000952826200092e565b848454620008a6565b825550505050565b600090565b6200097262000963565b6200097f81848462000938565b505050565b5b81811015620009a7576200099b60008262000968565b60018101905062000985565b5050565b601f821115620009f657620009c08162000874565b620009cb8462000889565b81016020851015620009db578190505b620009f3620009ea8562000889565b83018262000984565b50505b505050565b600082821c905092915050565b600062000a1b60001984600802620009fb565b1980831691505092915050565b600062000a36838362000a08565b9150826002028217905092915050565b62000a518262000805565b67ffffffffffffffff81111562000a6d5762000a6c620003ef565b5b62000a7982546200083f565b62000a86828285620009ab565b600060209050601f83116001811462000abe576000841562000aa9578287015190505b62000ab5858262000a28565b86555062000b25565b601f19841662000ace8662000874565b60005b8281101562000af85784890151825560018201915060208501945060208101905062000ad1565b8683101562000b18578489015162000b14601f89168262000a08565b8355505b6001600288020188555050505b505050505050565b7f4e487b7100000000000000000000000000000000000000000000000000000000600052603260045260246000fd5b600082825260208201905092915050565b7f696e76616c6964206f72206475706c696361746564207369676e657200000000600082015250565b600062000ba5601c8362000b5c565b915062000bb28262000b6d565b602082019050919050565b6000602082019050818103600083015262000bd88162000b96565b9050919050565b7f4e487b7100000000000000000000000000000000000000000000000000000000600052601160045260246000fd5b600062000c1b8262000553565b915062000c288362000553565b9250828201905060ff81111562000c445762000c4362000bdf565b5b92915050565b600062000c578262000553565b915060ff820362000c6d5762000c6c62000bdf565b5b600182019050919050565b7f4e487b7100000000000000000000000000000000000000000000000000000000600052601260045260246000fd5b600062000cb48262000591565b915062000cc18362000591565b92508262000cd45762000cd362000c78565b5b828204905092915050565b7f746f6f20736d616c6c2072657175697265436f756e7400000000000000000000600082015250565b600062000d1760168362000b5c565b915062000d248262000cdf565b602082019050919050565b6000602082019050818103600083015262000d4a8162000d08565b9050919050565b60805161392d62000d6d6000396000610fc7015261392d6000f3fe608060405234801561001057600080fd5b50600436106101fb5760003560e01c806395d89b411161011a578063daf36262116100ad578063ea047fee1161007c578063ea047fee14610630578063ebbc49651461064c578063ee6c829b14610656578063fd9be52214610688578063fe6931b7146106a4576101fb565b8063daf3626214610582578063dd62ed3e146105a0578063e019ca7c146105d0578063e270048814610600576101fb565b8063b44d4e5f116100e9578063b44d4e5f146104e3578063bc2c1e7714610501578063c34bc9281461051f578063cb1c8f681461054f576101fb565b806395d89b4114610459578063978bbdb9146104775780639ca6ce1214610495578063a9059cbb146104b3576101fb565b806323b872dd116101925780636647c269116101615780636647c269146103d157806370a08231146103ed57806383051fde1461041d5780638da5cb5b1461043b576101fb565b806323b872dd1461033757806323c92f2414610367578063313ce567146103975780634fb2e45d146103b5576101fb565b806318160ddd116101ce57806318160ddd1461029d57806318a922a7146102bb5780632079fb9a146102eb578063217251781461031b576101fb565b806306fdde0314610200578063092e239f1461021e578063095ea7b3146102515780630f2c0f5d14610281575b600080fd5b6102086106c0565b6040516102159190612aba565b60405180910390f35b61023860048036038101906102339190612b17565b61074e565b6040516102489493929190612bd5565b60405180910390f35b61026b60048036038101906102669190612c72565b6107b8565b6040516102789190612cb2565b60405180910390f35b61029b60048036038101906102969190612ccd565b6107cf565b005b6102a56108c2565b6040516102b29190612d20565b60405180910390f35b6102d560048036038101906102d09190612d74565b6108c8565b6040516102e29190612d20565b60405180910390f35b61030560048036038101906103009190612db4565b610ce7565b6040516103129190612de1565b60405180910390f35b61033560048036038101906103309190612ccd565b610d26565b005b610351600480360381019061034c9190612dfc565b610e47565b60405161035e9190612cb2565b60405180910390f35b610381600480360381019061037c9190612e4f565b610f96565b60405161038e9190612cb2565b60405180910390f35b61039f610fc5565b6040516103ac9190612e8f565b60405180910390f35b6103cf60048036038101906103ca9190612eaa565b610fe9565b005b6103eb60048036038101906103e69190612f03565b6110bd565b005b61040760048036038101906104029190612eaa565b61138a565b6040516104149190612d20565b60405180910390f35b6104256113a2565b6040516104329190612e8f565b60405180910390f35b6104436113b5565b6040516104509190612de1565b60405180910390f35b6104616113db565b60405161046e9190612aba565b60405180910390f35b61047f611469565b60405161048c9190612f61565b60405180910390f35b61049d61146e565b6040516104aa9190612f61565b60405180910390f35b6104cd60048036038101906104c89190612c72565b611475565b6040516104da9190612cb2565b60405180910390f35b6104eb61148c565b6040516104f89190612d20565b60405180910390f35b610509611492565b6040516105169190612d20565b60405180910390f35b61053960048036038101906105349190612f7c565b611499565b6040516105469190612d20565b60405180910390f35b61056960048036038101906105649190612db4565b611702565b6040516105799493929190612fb8565b60405180910390f35b61058a61176c565b6040516105979190612d20565b60405180910390f35b6105ba60048036038101906105b59190612ffd565b611772565b6040516105c79190612d20565b60405180910390f35b6105ea60048036038101906105e59190612e4f565b611797565b6040516105f79190612cb2565b60405180910390f35b61061a6004803603810190610615919061303d565b6117c6565b6040516106279190612cb2565b60405180910390f35b61064a6004803603810190610645919061307d565b6117f5565b005b610654611dd9565b005b610670600480360381019061066b9190612db4565b611f10565b60405161067f939291906130d0565b60405180910390f35b6106a2600480360381019061069d9190612c72565b611f54565b005b6106be60048036038101906106b99190613107565b61200b565b005b600080546106cd90613189565b80601f01602080910402602001604051908101604052809291908181526020018280546106f990613189565b80156107465780601f1061071b57610100808354040283529160200191610746565b820191906000526020600020905b81548152906001019060200180831161072957829003601f168201915b505050505081565b60106020528060005260406000206000915090508060000154908060010160009054906101000a900473ffffffffffffffffffffffffffffffffffffffff16908060010160149054906101000a900460ff16908060010160159054906101000a900460ff16905084565b60006107c5338484612677565b6001905092915050565b600f54811015610814576040517f08c379a000000000000000000000000000000000000000000000000000000000815260040161080b90613206565b60405180910390fd5b61081e3382612762565b6000620186a062ffffff16606462ffffff168361083b9190613255565b61084591906132c6565b905080600e600082825461085991906132f7565b92505081905550833373ffffffffffffffffffffffffffffffffffffffff167f87a89f1cee7e883b59eca58c135072a63ce587ee1e3f72279d6fd24f2bce25f88584866108a6919061332b565b6040516108b492919061336e565b60405180910390a350505050565b60025481565b600080600860003373ffffffffffffffffffffffffffffffffffffffff1673ffffffffffffffffffffffffffffffffffffffff16815260200190815260200160002060009054906101000a900460ff1660ff161161095b576040517f08c379a0000000000000000000000000000000000000000000000000000000008152600401610952906133e3565b60405180910390fd5b6000600a600043815260200190815260200160002060000160009054906101000a900460000b60000b146109c4576040517f08c379a00000000000000000000000000000000000000000000000000000000081526004016109bb9061344f565b60405180910390fd5b7fffffffffffffffffffffffffffffffffffffffffffffffffffffffffffffffff8360000b03610ade576000600860008473ffffffffffffffffffffffffffffffffffffffff1673ffffffffffffffffffffffffffffffffffffffff16815260200190815260200160002060009054906101000a900460ff1660ff1611610a80576040517f08c379a0000000000000000000000000000000000000000000000000000000008152600401610a77906134bb565b60405180910390fd5b600780549050600960009054906101000a900460ff1660ff1610610ad9576040517f08c379a0000000000000000000000000000000000000000000000000000000008152600401610ad090613527565b60405180910390fd5b610b7d565b60018360000b03610b7c576000600860008473ffffffffffffffffffffffffffffffffffffffff1673ffffffffffffffffffffffffffffffffffffffff16815260200190815260200160002060009054906101000a900460ff1660ff1614610b7b576040517f08c379a0000000000000000000000000000000000000000000000000000000008152600401610b7290613593565b60405180910390fd5b5b5b60405180608001604052808460000b81526020018373ffffffffffffffffffffffffffffffffffffffff168152602001600160ff1681526020016201518042610bc691906132f7565b815250600a600043815260200190815260200160002060008201518160000160006101000a81548160ff021916908360000b60ff16021790555060208201518160000160016101000a81548173ffffffffffffffffffffffffffffffffffffffff021916908373ffffffffffffffffffffffffffffffffffffffff16021790555060408201518160000160156101000a81548160ff021916908360ff160217905550606082015181600101559050506001600b600043815260200190815260200160002060003373ffffffffffffffffffffffffffffffffffffffff1673ffffffffffffffffffffffffffffffffffffffff16815260200190815260200160002060006101000a81548160ff02191690831515021790555043905092915050565b60078181548110610cf757600080fd5b906000526020600020016000915054906101000a900473ffffffffffffffffffffffffffffffffffffffff1681565b600560009054906101000a900473ffffffffffffffffffffffffffffffffffffffff1673ffffffffffffffffffffffffffffffffffffffff163373ffffffffffffffffffffffffffffffffffffffff1614610db6576040517f08c379a0000000000000000000000000000000000000000000000000000000008152600401610dad906135ff565b60405180910390fd5b80600e6000828254610dc8919061332b565b9250508190555082600560009054906101000a900473ffffffffffffffffffffffffffffffffffffffff1673ffffffffffffffffffffffffffffffffffffffff167f87a89f1cee7e883b59eca58c135072a63ce587ee1e3f72279d6fd24f2bce25f88484604051610e3a92919061336e565b60405180910390a3505050565b60007fffffffffffffffffffffffffffffffffffffffffffffffffffffffffffffffff600460008673ffffffffffffffffffffffffffffffffffffffff1673ffffffffffffffffffffffffffffffffffffffff16815260200190815260200160002060003373ffffffffffffffffffffffffffffffffffffffff1673ffffffffffffffffffffffffffffffffffffffff1681526020019081526020016000205414610f805781600460008673ffffffffffffffffffffffffffffffffffffffff1673ffffffffffffffffffffffffffffffffffffffff16815260200190815260200160002060003373ffffffffffffffffffffffffffffffffffffffff1673ffffffffffffffffffffffffffffffffffffffff1681526020019081526020016000206000828254610f78919061332b565b925050819055505b610f8b84848461283b565b600190509392505050565b600b6020528160005260406000206020528060005260406000206000915091509054906101000a900460ff1681565b7f000000000000000000000000000000000000000000000000000000000000000081565b600560009054906101000a900473ffffffffffffffffffffffffffffffffffffffff1673ffffffffffffffffffffffffffffffffffffffff163373ffffffffffffffffffffffffffffffffffffffff1614611079576040517f08c379a0000000000000000000000000000000000000000000000000000000008152600401611070906135ff565b60405180910390fd5b80600660006101000a81548173ffffffffffffffffffffffffffffffffffffffff021916908373ffffffffffffffffffffffffffffffffffffffff16021790555050565b6000600860003373ffffffffffffffffffffffffffffffffffffffff1673ffffffffffffffffffffffffffffffffffffffff16815260200190815260200160002060009054906101000a900460ff1660ff161161114f576040517f08c379a0000000000000000000000000000000000000000000000000000000008152600401611146906133e3565b60405180910390fd5b8060ff16600c600084815260200190815260200160002060000160009054906101000a900460ff1660ff1614801561119d575042600c60008481526020019081526020016000206001015410155b6111dc576040517f08c379a00000000000000000000000000000000000000000000000000000000081526004016111d39061366b565b60405180910390fd5b600d600083815260200190815260200160002060003373ffffffffffffffffffffffffffffffffffffffff1673ffffffffffffffffffffffffffffffffffffffff16815260200190815260200160002060009054906101000a900460ff166112f4576001600d600084815260200190815260200160002060003373ffffffffffffffffffffffffffffffffffffffff1673ffffffffffffffffffffffffffffffffffffffff16815260200190815260200160002060006101000a81548160ff021916908315150217905550600c6000838152602001908152602001600020600001600181819054906101000a900460ff16809291906112da9061368b565b91906101000a81548160ff021916908360ff160217905550505b600960009054906101000a900460ff1660ff16600c600084815260200190815260200160002060000160019054906101000a900460ff1660ff16106113865780600960006101000a81548160ff021916908360ff1602179055507f971ed33ab126ac4c0a07a18b84ed2990cde2ae87b25cd5009c84e7e5c9c8cffd8160405161137d9190612e8f565b60405180910390a15b5050565b60036020528060005260406000206000915090505481565b600960009054906101000a900460ff1681565b600560009054906101000a900473ffffffffffffffffffffffffffffffffffffffff1681565b600180546113e890613189565b80601f016020809104026020016040519081016040528092919081815260200182805461141490613189565b80156114615780601f1061143657610100808354040283529160200191611461565b820191906000526020600020905b81548152906001019060200180831161144457829003601f168201915b505050505081565b606481565b620186a081565b600061148233848461283b565b6001905092915050565b600e5481565b6201518081565b600080600860003373ffffffffffffffffffffffffffffffffffffffff1673ffffffffffffffffffffffffffffffffffffffff16815260200190815260200160002060009054906101000a900460ff1660ff161161152c576040517f08c379a0000000000000000000000000000000000000000000000000000000008152600401611523906133e3565b60405180910390fd5b6000600c600043815260200190815260200160002060000160009054906101000a900460ff1660ff1614611595576040517f08c379a000000000000000000000000000000000000000000000000000000000815260040161158c9061344f565b60405180910390fd5b60026007805490506115a791906132c6565b8260ff161180156115c057506007805490508260ff1611155b6115ff576040517f08c379a00000000000000000000000000000000000000000000000000000000081526004016115f690613700565b60405180910390fd5b60405180606001604052808360ff168152602001600160ff168152602001620151804261162c91906132f7565b815250600c600043815260200190815260200160002060008201518160000160006101000a81548160ff021916908360ff16021790555060208201518160000160016101000a81548160ff021916908360ff160217905550604082015181600101559050506001600d600043815260200190815260200160002060003373ffffffffffffffffffffffffffffffffffffffff1673ffffffffffffffffffffffffffffffffffffffff16815260200190815260200160002060006101000a81548160ff021916908315150217905550439050919050565b600a6020528060005260406000206000915090508060000160009054906101000a900460000b908060000160019054906101000a900473ffffffffffffffffffffffffffffffffffffffff16908060000160159054906101000a900460ff16908060010154905084565b600f5481565b6004602052816000526040600020602052806000526040600020600091509150505481565b600d6020528160005260406000206020528060005260406000206000915091509054906101000a900460ff1681565b60116020528160005260406000206020528060005260406000206000915091509054906101000a900460ff1681565b6000600860003373ffffffffffffffffffffffffffffffffffffffff1673ffffffffffffffffffffffffffffffffffffffff16815260200190815260200160002060009054906101000a900460ff1660ff1611611887576040517f08c379a000000000000000000000000000000000000000000000000000000000815260040161187e906133e3565b60405180910390fd5b6010600084815260200190815260200160002060010160159054906101000a900460ff16156118eb576040517f08c379a00000000000000000000000000000000000000000000000000000000081526004016118e29061376c565b60405180910390fd5b601160003373ffffffffffffffffffffffffffffffffffffffff1673ffffffffffffffffffffffffffffffffffffffff168152602001908152602001600020600084815260200190815260200160002060009054906101000a900460ff1615611989576040517f08c379a0000000000000000000000000000000000000000000000000000000008152600401611980906137d8565b60405180910390fd5b600073ffffffffffffffffffffffffffffffffffffffff166010600085815260200190815260200160002060010160009054906101000a900473ffffffffffffffffffffffffffffffffffffffff1673ffffffffffffffffffffffffffffffffffffffff1603611ade5760405180608001604052808381526020018273ffffffffffffffffffffffffffffffffffffffff168152602001600060ff16815260200160001515815250601060008581526020019081526020016000206000820151816000015560208201518160010160006101000a81548173ffffffffffffffffffffffffffffffffffffffff021916908373ffffffffffffffffffffffffffffffffffffffff16021790555060408201518160010160146101000a81548160ff021916908360ff16021790555060608201518160010160156101000a81548160ff021916908315150217905550905050611ba4565b816010600085815260200190815260200160002060000154148015611b6457508073ffffffffffffffffffffffffffffffffffffffff166010600085815260200190815260200160002060010160009054906101000a900473ffffffffffffffffffffffffffffffffffffffff1673ffffffffffffffffffffffffffffffffffffffff16145b611ba3576040517f08c379a0000000000000000000000000000000000000000000000000000000008152600401611b9a90613844565b60405180910390fd5b5b601160003373ffffffffffffffffffffffffffffffffffffffff1673ffffffffffffffffffffffffffffffffffffffff168152602001908152602001600020600084815260200190815260200160002060009054906101000a900460ff16611cbc576001601160003373ffffffffffffffffffffffffffffffffffffffff1673ffffffffffffffffffffffffffffffffffffffff168152602001908152602001600020600085815260200190815260200160002060006101000a81548160ff02191690831515021790555060106000848152602001908152602001600020600101601481819054906101000a900460ff1680929190611ca29061368b565b91906101000a81548160ff021916908360ff160217905550505b600960009054906101000a900460ff1660ff166010600085815260200190815260200160002060010160149054906101000a900460ff1660ff1610611dd45760016010600085815260200190815260200160002060010160156101000a81548160ff0219169083151502179055506000620186a062ffffff16606462ffffff1684611d479190613255565b611d5191906132c6565b905080600e6000828254611d6591906132f7565b925050819055508083611d78919061332b565b9250611d848284612951565b8173ffffffffffffffffffffffffffffffffffffffff167fb61d00fdfee32467c7d81db64c811ae60c104c346debf36a14afe84b8fce59e584604051611dca9190612d20565b60405180910390a2505b505050565b600660009054906101000a900473ffffffffffffffffffffffffffffffffffffffff1673ffffffffffffffffffffffffffffffffffffffff163373ffffffffffffffffffffffffffffffffffffffff1614611e69576040517f08c379a0000000000000000000000000000000000000000000000000000000008152600401611e60906135ff565b60405180910390fd5b600660009054906101000a900473ffffffffffffffffffffffffffffffffffffffff16600560006101000a81548173ffffffffffffffffffffffffffffffffffffffff021916908373ffffffffffffffffffffffffffffffffffffffff1602179055506000600660006101000a81548173ffffffffffffffffffffffffffffffffffffffff021916908373ffffffffffffffffffffffffffffffffffffffff160217905550565b600c6020528060005260406000206000915090508060000160009054906101000a900460ff16908060000160019054906101000a900460ff16908060010154905083565b600560009054906101000a900473ffffffffffffffffffffffffffffffffffffffff1673ffffffffffffffffffffffffffffffffffffffff163373ffffffffffffffffffffffffffffffffffffffff1614611fe4576040517f08c379a0000000000000000000000000000000000000000000000000000000008152600401611fdb906135ff565b60405180910390fd5b80600e6000828254611ff6919061332b565b925050819055506120078282612951565b5050565b6000600860003373ffffffffffffffffffffffffffffffffffffffff1673ffffffffffffffffffffffffffffffffffffffff16815260200190815260200160002060009054906101000a900460ff1660ff161161209d576040517f08c379a0000000000000000000000000000000000000000000000000000000008152600401612094906133e3565b60405180910390fd5b8160000b600a600085815260200190815260200160002060000160009054906101000a900460000b60000b14801561213657508073ffffffffffffffffffffffffffffffffffffffff16600a600085815260200190815260200160002060000160019054906101000a900473ffffffffffffffffffffffffffffffffffffffff1673ffffffffffffffffffffffffffffffffffffffff16145b8015612158575042600a60008581526020019081526020016000206001015410155b612197576040517f08c379a000000000000000000000000000000000000000000000000000000000815260040161218e9061366b565b60405180910390fd5b600b600084815260200190815260200160002060003373ffffffffffffffffffffffffffffffffffffffff1673ffffffffffffffffffffffffffffffffffffffff16815260200190815260200160002060009054906101000a900460ff166122af576001600b600085815260200190815260200160002060003373ffffffffffffffffffffffffffffffffffffffff1673ffffffffffffffffffffffffffffffffffffffff16815260200190815260200160002060006101000a81548160ff021916908315150217905550600a6000848152602001908152602001600020600001601581819054906101000a900460ff16809291906122959061368b565b91906101000a81548160ff021916908360ff160217905550505b600960009054906101000a900460ff1660ff16600a600085815260200190815260200160002060000160159054906101000a900460ff1660ff16106126725760018260000b03612401576007819080600181540180825580915050600190039060005260206000200160009091909190916101000a81548173ffffffffffffffffffffffffffffffffffffffff021916908373ffffffffffffffffffffffffffffffffffffffff160217905550600780549050600860008373ffffffffffffffffffffffffffffffffffffffff1673ffffffffffffffffffffffffffffffffffffffff16815260200190815260200160002060006101000a81548160ff021916908360ff1602179055508073ffffffffffffffffffffffffffffffffffffffff167f8191ca9d665b824fc53160f3727e7ec3a5330e4a67e1db6c4a86678956dfef1960405160405180910390a2612671565b7fffffffffffffffffffffffffffffffffffffffffffffffffffffffffffffffff8260000b03612670576000600860008373ffffffffffffffffffffffffffffffffffffffff1673ffffffffffffffffffffffffffffffffffffffff16815260200190815260200160002060009054906101000a900460ff169050600060076001600780549050612492919061332b565b815481106124a3576124a2613864565b5b9060005260206000200160009054906101000a900473ffffffffffffffffffffffffffffffffffffffff1690508060076001846124e09190613893565b60ff16815481106124f4576124f3613864565b5b9060005260206000200160006101000a81548173ffffffffffffffffffffffffffffffffffffffff021916908373ffffffffffffffffffffffffffffffffffffffff16021790555081600860008373ffffffffffffffffffffffffffffffffffffffff1673ffffffffffffffffffffffffffffffffffffffff16815260200190815260200160002060006101000a81548160ff021916908360ff160217905550600860008473ffffffffffffffffffffffffffffffffffffffff1673ffffffffffffffffffffffffffffffffffffffff16815260200190815260200160002060006101000a81549060ff021916905560078054806125f5576125f46138c8565b5b6001900381819060005260206000200160006101000a81549073ffffffffffffffffffffffffffffffffffffffff021916905590558273ffffffffffffffffffffffffffffffffffffffff167fa2a6e2b8f0cf0f627456034557b0149227a355af53f5bc8ce7e496bfbe73c0a960405160405180910390a250505b5b5b505050565b80600460008573ffffffffffffffffffffffffffffffffffffffff1673ffffffffffffffffffffffffffffffffffffffff16815260200190815260200160002060008473ffffffffffffffffffffffffffffffffffffffff1673ffffffffffffffffffffffffffffffffffffffff168152602001908152602001600020819055508173ffffffffffffffffffffffffffffffffffffffff168373ffffffffffffffffffffffffffffffffffffffff167f8c5be1e5ebec7d5bd14f71427d1e84f3dd0314c0f7b2291e5b200ac8c7c3b925836040516127559190612d20565b60405180910390a3505050565b80600360008473ffffffffffffffffffffffffffffffffffffffff1673ffffffffffffffffffffffffffffffffffffffff16815260200190815260200160002060008282546127b1919061332b565b9250508190555080600260008282546127ca919061332b565b92505081905550600073ffffffffffffffffffffffffffffffffffffffff168273ffffffffffffffffffffffffffffffffffffffff167fddf252ad1be2c89b69c2b068fc378daa952ba7f163c4a11628f55a4df523b3ef8360405161282f9190612d20565b60405180910390a35050565b80600360008573ffffffffffffffffffffffffffffffffffffffff1673ffffffffffffffffffffffffffffffffffffffff168152602001908152602001600020600082825461288a919061332b565b9250508190555080600360008473ffffffffffffffffffffffffffffffffffffffff1673ffffffffffffffffffffffffffffffffffffffff16815260200190815260200160002060008282546128e091906132f7565b925050819055508173ffffffffffffffffffffffffffffffffffffffff168373ffffffffffffffffffffffffffffffffffffffff167fddf252ad1be2c89b69c2b068fc378daa952ba7f163c4a11628f55a4df523b3ef836040516129449190612d20565b60405180910390a3505050565b806002600082825461296391906132f7565b9250508190555080600360008473ffffffffffffffffffffffffffffffffffffffff1673ffffffffffffffffffffffffffffffffffffffff16815260200190815260200160002060008282546129b991906132f7565b925050819055508173ffffffffffffffffffffffffffffffffffffffff16600073ffffffffffffffffffffffffffffffffffffffff167fddf252ad1be2c89b69c2b068fc378daa952ba7f163c4a11628f55a4df523b3ef83604051612a1e9190612d20565b60405180910390a35050565b600081519050919050565b600082825260208201905092915050565b60005b83811015612a64578082015181840152602081019050612a49565b60008484015250505050565b6000601f19601f8301169050919050565b6000612a8c82612a2a565b612a968185612a35565b9350612aa6818560208601612a46565b612aaf81612a70565b840191505092915050565b60006020820190508181036000830152612ad48184612a81565b905092915050565b600080fd5b6000819050919050565b612af481612ae1565b8114612aff57600080fd5b50565b600081359050612b1181612aeb565b92915050565b600060208284031215612b2d57612b2c612adc565b5b6000612b3b84828501612b02565b91505092915050565b6000819050919050565b612b5781612b44565b82525050565b600073ffffffffffffffffffffffffffffffffffffffff82169050919050565b6000612b8882612b5d565b9050919050565b612b9881612b7d565b82525050565b600060ff82169050919050565b612bb481612b9e565b82525050565b60008115159050919050565b612bcf81612bba565b82525050565b6000608082019050612bea6000830187612b4e565b612bf76020830186612b8f565b612c046040830185612bab565b612c116060830184612bc6565b95945050505050565b612c2381612b7d565b8114612c2e57600080fd5b50565b600081359050612c4081612c1a565b92915050565b612c4f81612b44565b8114612c5a57600080fd5b50565b600081359050612c6c81612c46565b92915050565b60008060408385031215612c8957612c88612adc565b5b6000612c9785828601612c31565b9250506020612ca885828601612c5d565b9150509250929050565b6000602082019050612cc76000830184612bc6565b92915050565b600080600060608486031215612ce657612ce5612adc565b5b6000612cf486828701612b02565b9350506020612d0586828701612b02565b9250506040612d1686828701612c5d565b9150509250925092565b6000602082019050612d356000830184612b4e565b92915050565b60008160000b9050919050565b612d5181612d3b565b8114612d5c57600080fd5b50565b600081359050612d6e81612d48565b92915050565b60008060408385031215612d8b57612d8a612adc565b5b6000612d9985828601612d5f565b9250506020612daa85828601612c31565b9150509250929050565b600060208284031215612dca57612dc9612adc565b5b6000612dd884828501612c5d565b91505092915050565b6000602082019050612df66000830184612b8f565b92915050565b600080600060608486031215612e1557612e14612adc565b5b6000612e2386828701612c31565b9350506020612e3486828701612c31565b9250506040612e4586828701612c5d565b9150509250925092565b60008060408385031215612e6657612e65612adc565b5b6000612e7485828601612c5d565b9250506020612e8585828601612c31565b9150509250929050565b6000602082019050612ea46000830184612bab565b92915050565b600060208284031215612ec057612ebf612adc565b5b6000612ece84828501612c31565b91505092915050565b612ee081612b9e565b8114612eeb57600080fd5b50565b600081359050612efd81612ed7565b92915050565b60008060408385031215612f1a57612f19612adc565b5b6000612f2885828601612c5d565b9250506020612f3985828601612eee565b9150509250929050565b600062ffffff82169050919050565b612f5b81612f43565b82525050565b6000602082019050612f766000830184612f52565b92915050565b600060208284031215612f9257612f91612adc565b5b6000612fa084828501612eee565b91505092915050565b612fb281612d3b565b82525050565b6000608082019050612fcd6000830187612fa9565b612fda6020830186612b8f565b612fe76040830185612bab565b612ff46060830184612b4e565b95945050505050565b6000806040838503121561301457613013612adc565b5b600061302285828601612c31565b925050602061303385828601612c31565b9150509250929050565b6000806040838503121561305457613053612adc565b5b600061306285828601612c31565b925050602061307385828601612b02565b9150509250929050565b60008060006060848603121561309657613095612adc565b5b60006130a486828701612b02565b93505060206130b586828701612c5d565b92505060406130c686828701612c31565b9150509250925092565b60006060820190506130e56000830186612bab565b6130f26020830185612bab565b6130ff6040830184612b4e565b949350505050565b6000806000606084860312156131205761311f612adc565b5b600061312e86828701612c5d565b935050602061313f86828701612d5f565b925050604061315086828701612c31565b9150509250925092565b7f4e487b7100000000000000000000000000000000000000000000000000000000600052602260045260246000fd5b600060028204905060018216806131a157607f821691505b6020821081036131b4576131b361315a565b5b50919050565b7f616d6f756e74206c6f7700000000000000000000000000000000000000000000600082015250565b60006131f0600a83612a35565b91506131fb826131ba565b602082019050919050565b6000602082019050818103600083015261321f816131e3565b9050919050565b7f4e487b7100000000000000000000000000000000000000000000000000000000600052601160045260246000fd5b600061326082612b44565b915061326b83612b44565b925082820261327981612b44565b915082820484148315176132905761328f613226565b5b5092915050565b7f4e487b7100000000000000000000000000000000000000000000000000000000600052601260045260246000fd5b60006132d182612b44565b91506132dc83612b44565b9250826132ec576132eb613297565b5b828204905092915050565b600061330282612b44565b915061330d83612b44565b925082820190508082111561332557613324613226565b5b92915050565b600061333682612b44565b915061334183612b44565b925082820390508181111561335957613358613226565b5b92915050565b61336881612ae1565b82525050565b6000604082019050613383600083018561335f565b6133906020830184612b4e565b9392505050565b7f6e6f74207369676e657200000000000000000000000000000000000000000000600082015250565b60006133cd600a83612a35565b91506133d882613397565b602082019050919050565b600060208201905081810360008301526133fc816133c0565b9050919050565b7f65786973742070726f706f73616c000000000000000000000000000000000000600082015250565b6000613439600e83612a35565b915061344482613403565b602082019050919050565b600060208201905081810360008301526134688161342c565b9050919050565b7f61646472657373206e6f74206578697374000000000000000000000000000000600082015250565b60006134a5601183612a35565b91506134b08261346f565b602082019050919050565b600060208201905081810360008301526134d481613498565b9050919050565b7f72657175697265436f756e74206572726f720000000000000000000000000000600082015250565b6000613511601283612a35565b915061351c826134db565b602082019050919050565b6000602082019050818103600083015261354081613504565b9050919050565b7f6164647265737320657869737400000000000000000000000000000000000000600082015250565b600061357d600d83612a35565b915061358882613547565b602082019050919050565b600060208201905081810360008301526135ac81613570565b9050919050565b7f666f7262696464656e0000000000000000000000000000000000000000000000600082015250565b60006135e9600983612a35565b91506135f4826135b3565b602082019050919050565b60006020820190508181036000830152613618816135dc565b9050919050565b7f6d69736d61746368000000000000000000000000000000000000000000000000600082015250565b6000613655600883612a35565b91506136608261361f565b602082019050919050565b6000602082019050818103600083015261368481613648565b9050919050565b600061369682612b9e565b915060ff82036136a9576136a8613226565b5b600182019050919050565b7f636f756e74206572726f72000000000000000000000000000000000000000000600082015250565b60006136ea600b83612a35565b91506136f5826136b4565b602082019050919050565b60006020820190508181036000830152613719816136dd565b9050919050565b7f777261707065642066696e697368656400000000000000000000000000000000600082015250565b6000613756601083612a35565b915061376182613720565b602082019050919050565b6000602082019050818103600083015261378581613749565b9050919050565b7f73656e6465722077726170706564000000000000000000000000000000000000600082015250565b60006137c2600e83612a35565b91506137cd8261378c565b602082019050919050565b600060208201905081810360008301526137f1816137b5565b9050919050565b7f696e76616c696420777261700000000000000000000000000000000000000000600082015250565b600061382e600c83612a35565b9150613839826137f8565b602082019050919050565b6000602082019050818103600083015261385d81613821565b9050919050565b7f4e487b7100000000000000000000000000000000000000000000000000000000600052603260045260246000fd5b600061389e82612b9e565b91506138a983612b9e565b9250828203905060ff8111156138c2576138c1613226565b5b92915050565b7f4e487b7100000000000000000000000000000000000000000000000000000000600052603160045260246000fdfea264697066735822122074bf02ea3fc1192b699b7a07a8a8539892503c436145a86a3602c6dd5edf695e64736f6c63430008110033",
  "linkReferences": {},
  "deployedLinkReferences": {}
}