{
  "_format": "hh-sol-artifact-1",
  "contractName": "BridgeWrap",
  "sourceName": "contracts/wrap.sol",
  "abi": [
    {
      "inputs": [
        {
          "internalType": "string",
          "name": "_name",
          "type": "string"
        },
        {
          "internalType": "string",
          "name": "_symbol",
          "type": "string"
        },
        {
          "internalType": "uint8",
          "name": "_decimal",
          "type": "uint8"
        },
        {
          "internalType": "uint256",
          "name": "minAmount",
          "type": "uint256"
        },
        {
          "internalType": "address[]",
          "name": "_signers",
          "type": "address[]"
        },
        {
          "internalType": "uint8",
          "name": "_requireCount",
          "type": "uint8"
        }
      ],
      "stateMutability": "nonpayable",
      "type": "constructor"
    },
    {
      "anonymous": false,
      "inputs": [
        {
          "indexed": true,
          "internalType": "address",
          "name": "owner",
          "type": "address"
        },
        {
          "indexed": true,
          "internalType": "address",
          "name": "spender",
          "type": "address"
        },
        {
          "indexed": false,
          "internalType": "uint256",
          "name": "value",
          "type": "uint256"
        }
      ],
      "name": "Approval",
      "type": "event"
    },
    {
      "anonymous": false,
      "inputs": [
        {
          "indexed": false,
          "internalType": "uint8",
          "name": "changeRequireCount",
          "type": "uint8"
        }
      ],
      "name": "ChangeRequireCount",
      "type": "event"
    },
    {
      "anonymous": false,
      "inputs": [
        {
          "indexed": true,
          "internalType": "address",
          "name": "signer",
          "type": "address"
        }
      ],
      "name": "SignerAddition",
      "type": "event"
    },
    {
      "anonymous": false,
      "inputs": [
        {
          "indexed": true,
          "internalType": "address",
          "name": "signer",
          "type": "address"
        }
      ],
      "name": "SignerRemoval",
      "type": "event"
    },
    {
      "anonymous": false,
      "inputs": [
        {
          "indexed": true,
          "internalType": "address",
          "name": "from",
          "type": "address"
        },
        {
          "indexed": true,
          "internalType": "address",
          "name": "to",
          "type": "address"
        },
        {
          "indexed": false,
          "internalType": "uint256",
          "name": "value",
          "type": "uint256"
        }
      ],
      "name": "Transfer",
      "type": "event"
    },
    {
      "anonymous": false,
      "inputs": [
        {
          "indexed": true,
          "internalType": "address",
          "name": "from",
          "type": "address"
        },
        {
          "indexed": true,
          "internalType": "bytes32",
          "name": "to",
          "type": "bytes32"
        },
        {
          "indexed": false,
          "internalType": "bytes32",
          "name": "symbol",
          "type": "bytes32"
        },
        {
          "indexed": false,
          "internalType": "uint256",
          "name": "amount",
          "type": "uint256"
        }
      ],
      "name": "UnWrap",
      "type": "event"
    },
    {
      "anonymous": false,
      "inputs": [
        {
          "indexed": true,
          "internalType": "address",
          "name": "to",
          "type": "address"
        },
        {
          "indexed": false,
          "internalType": "uint256",
          "name": "amount",
          "type": "uint256"
        }
      ],
      "name": "Wrap",
      "type": "event"
    },
    {
      "inputs": [],
      "name": "FEE_DIV_CONST",
      "outputs": [
        {
          "internalType": "uint24",
          "name": "",
          "type": "uint24"
        }
      ],
      "stateMutability": "view",
      "type": "function"
    },
    {
      "inputs": [],
      "name": "acceptOwner",
      "outputs": [],
      "stateMutability": "nonpayable",
      "type": "function"
    },
    {
      "inputs": [
        {
          "internalType": "uint256",
          "name": "number",
          "type": "uint256"
        },
        {
          "internalType": "uint8",
          "name": "newCount",
          "type": "uint8"
        }
      ],
      "name": "agreeCountProposal",
      "outputs": [],
      "stateMutability": "nonpayable",
      "type": "function"
    },
    {
      "inputs": [
        {
          "internalType": "uint256",
          "name": "number",
          "type": "uint256"
        },
        {
          "internalType": "int8",
          "name": "d",
          "type": "int8"
        },
        {
          "internalType": "address",
          "name": "signer",
          "type": "address"
        }
      ],
      "name": "agreeSignerProposal",
      "outputs": [],
      "stateMutability": "nonpayable",
      "type": "function"
    },
    {
      "inputs": [
        {
          "internalType": "address",
          "name": "",
          "type": "address"
        },
        {
          "internalType": "address",
          "name": "",
          "type": "address"
        }
      ],
      "name": "allowance",
      "outputs": [
        {
          "internalType": "uint256",
          "name": "",
          "type": "uint256"
        }
      ],
      "stateMutability": "view",
      "type": "function"
    },
    {
      "inputs": [
        {
          "internalType": "address",
          "name": "spender",
          "type": "address"
        },
        {
          "internalType": "uint256",
          "name": "value",
          "type": "uint256"
        }
      ],
      "name": "approve",
      "outputs": [
        {
          "internalType": "bool",
          "name": "",
          "type": "bool"
        }
      ],
      "stateMutability": "nonpayable",
      "type": "function"
    },
    {
      "inputs": [
        {
          "internalType": "address",
          "name": "",
          "type": "address"
        }
      ],
      "name": "balanceOf",
      "outputs": [
        {
          "internalType": "uint256",
          "name": "",
          "type": "uint256"
        }
      ],
      "stateMutability": "view",
      "type": "function"
    },
    {
      "inputs": [
        {
          "internalType": "uint256",
          "name": "",
          "type": "uint256"
        }
      ],
      "name": "countProposals",
      "outputs": [
        {
          "internalType": "uint8",
          "name": "newCount",
          "type": "uint8"
        },
        {
          "internalType": "uint8",
          "name": "agreedCount",
          "type": "uint8"
        },
        {
          "internalType": "uint256",
          "name": "overTime",
          "type": "uint256"
        }
      ],
      "stateMutability": "view",
      "type": "function"
    },
    {
      "inputs": [],
      "name": "decimals",
      "outputs": [
        {
          "internalType": "uint8",
          "name": "",
          "type": "uint8"
        }
      ],
      "stateMutability": "view",
      "type": "function"
    },
    {
      "inputs": [],
      "name": "feeRate",
      "outputs": [
        {
          "internalType": "uint24",
          "name": "",
          "type": "uint24"
        }
      ],
      "stateMutability": "view",
      "type": "function"
    },
    {
      "inputs": [],
      "name": "feeSum",
      "outputs": [
        {
          "internalType": "uint256",
          "name": "",
          "type": "uint256"
        }
      ],
      "stateMutability": "view",
      "type": "function"
    },
    {
      "inputs": [
        {
          "internalType": "uint256",
          "name": "",
          "type": "uint256"
        },
        {
          "internalType": "address",
          "name": "",
          "type": "address"
        }
      ],
      "name": "isCountProposalAgreed",
      "outputs": [
        {
          "internalType": "bool",
          "name": "",
          "type": "bool"
        }
      ],
      "stateMutability": "view",
      "type": "function"
    },
    {
      "inputs": [
        {
          "internalType": "uint256",
          "name": "",
          "type": "uint256"
        },
        {
          "internalType": "address",
          "name": "",
          "type": "address"
        }
      ],
      "name": "isSignerProposalAgreed",
      "outputs": [
        {
          "internalType": "bool",
          "name": "",
          "type": "bool"
        }
      ],
      "stateMutability": "view",
      "type": "function"
    },
    {
      "inputs": [],
      "name": "minUnWrapAmount",
      "outputs": [
        {
          "internalType": "uint256",
          "name": "",
          "type": "uint256"
        }
      ],
      "stateMutability": "view",
      "type": "function"
    },
    {
      "inputs": [],
      "name": "name",
      "outputs": [
        {
          "internalType": "string",
          "name": "",
          "type": "string"
        }
      ],
      "stateMutability": "view",
      "type": "function"
    },
    {
      "inputs": [],
      "name": "overTime",
      "outputs": [
        {
          "internalType": "uint256",
          "name": "",
          "type": "uint256"
        }
      ],
      "stateMutability": "view",
      "type": "function"
    },
    {
      "inputs": [],
      "name": "owner",
      "outputs": [
        {
          "internalType": "address",
          "name": "",
          "type": "address"
        }
      ],
      "stateMutability": "view",
      "type": "function"
    },
    {
      "inputs": [],
      "name": "requireCount",
      "outputs": [
        {
          "internalType": "uint8",
          "name": "",
          "type": "uint8"
        }
      ],
      "stateMutability": "view",
      "type": "function"
    },
    {
      "inputs": [
        {
          "internalType": "uint256",
          "name": "",
          "type": "uint256"
        }
      ],
      "name": "signerProposals",
      "outputs": [
        {
          "internalType": "int8",
          "name": "d",
          "type": "int8"
        },
        {
          "internalType": "address",
          "name": "signer",
          "type": "address"
        },
        {
          "internalType": "uint8",
          "name": "agreedCount",
          "type": "uint8"
        },
        {
          "internalType": "uint256",
          "name": "overTime",
          "type": "uint256"
        }
      ],
      "stateMutability": "view",
      "type": "function"
    },
    {
      "inputs": [
        {
          "internalType": "uint256",
          "name": "",
          "type": "uint256"
        }
      ],
      "name": "signers",
      "outputs": [
        {
          "internalType": "address",
          "name": "",
          "type": "address"
        }
      ],
      "stateMutability": "view",
      "type": "function"
    },
    {
      "inputs": [
        {
          "internalType": "uint8",
          "name": "newCount",
          "type": "uint8"
        }
      ],
      "name": "submitCountProposal",
      "outputs": [
        {
          "internalType": "uint256",
          "name": "",
          "type": "uint256"
        }
      ],
      "stateMutability": "nonpayable",
      "type": "function"
    },
    {
      "inputs": [
        {
          "internalType": "int8",
          "name": "d",
          "type": "int8"
        },
        {
          "internalType": "address",
          "name": "signer",
          "type": "address"
        }
      ],
      "name": "submitSignerProposal",
      "outputs": [
        {
          "internalType": "uint256",
          "name": "",
          "type": "uint256"
        }
      ],
      "stateMutability": "nonpayable",
      "type": "function"
    },
    {
      "inputs": [],
      "name": "symbol",
      "outputs": [
        {
          "internalType": "string",
          "name": "",
          "type": "string"
        }
      ],
      "stateMutability": "view",
      "type": "function"
    },
    {
      "inputs": [],
      "name": "totalSupply",
      "outputs": [
        {
          "internalType": "uint256",
          "name": "",
          "type": "uint256"
        }
      ],
      "stateMutability": "view",
      "type": "function"
    },
    {
      "inputs": [
        {
          "internalType": "address",
          "name": "to",
          "type": "address"
        },
        {
          "internalType": "uint256",
          "name": "value",
          "type": "uint256"
        }
      ],
      "name": "transfer",
      "outputs": [
        {
          "internalType": "bool",
          "name": "",
          "type": "bool"
        }
      ],
      "stateMutability": "nonpayable",
      "type": "function"
    },
    {
      "inputs": [
        {
          "internalType": "address",
          "name": "from",
          "type": "address"
        },
        {
          "internalType": "address",
          "name": "to",
          "type": "address"
        },
        {
          "internalType": "uint256",
          "name": "value",
          "type": "uint256"
        }
      ],
      "name": "transferFrom",
      "outputs": [
        {
          "internalType": "bool",
          "name": "",
          "type": "bool"
        }
      ],
      "stateMutability": "nonpayable",
      "type": "function"
    },
    {
      "inputs": [
        {
          "internalType": "address",
          "name": "_owner",
          "type": "address"
        }
      ],
      "name": "transferOwner",
      "outputs": [],
      "stateMutability": "nonpayable",
      "type": "function"
    },
    {
      "inputs": [
        {
          "internalType": "bytes32",
          "name": "to",
          "type": "bytes32"
        },
        {
          "internalType": "bytes32",
          "name": "symbol",
          "type": "bytes32"
        },
        {
          "internalType": "uint256",
          "name": "amount",
          "type": "uint256"
        }
      ],
      "name": "unWrap",
      "outputs": [],
      "stateMutability": "nonpayable",
      "type": "function"
    },
    {
      "inputs": [
        {
          "internalType": "bytes32",
          "name": "to",
          "type": "bytes32"
        },
        {
          "internalType": "bytes32",
          "name": "symbol",
          "type": "bytes32"
        },
        {
          "internalType": "uint256",
          "name": "fee",
          "type": "uint256"
        }
      ],
      "name": "unWrapFee",
      "outputs": [],
      "stateMutability": "nonpayable",
      "type": "function"
    },
    {
      "inputs": [
        {
          "internalType": "address",
          "name": "to",
          "type": "address"
        },
        {
          "internalType": "uint256",
          "name": "fee",
          "type": "uint256"
        }
      ],
      "name": "withdrawFee",
      "outputs": [],
      "stateMutability": "nonpayable",
      "type": "function"
    },
    {
      "inputs": [
        {
          "internalType": "bytes32",
          "name": "txid",
          "type": "bytes32"
        },
        {
          "internalType": "uint256",
          "name": "amount",
          "type": "uint256"
        },
        {
          "internalType": "address",
          "name": "to",
          "type": "address"
        }
      ],
      "name": "wrap",
      "outputs": [],
      "stateMutability": "nonpayable",
      "type": "function"
    }
  ],
  "bytecode": "0x60a06040523480156200001157600080fd5b50604051620044d6380380620044d683398181016040528101906200003791906200070c565b818187878782600090816200004d919062000a46565b5081600190816200005f919062000a46565b508060ff1660808160ff168152505050505060005b82518160ff1610156200022c57600060086000858460ff1681518110620000a0576200009f62000b2d565b5b602002602001015173ffffffffffffffffffffffffffffffffffffffff1673ffffffffffffffffffffffffffffffffffffffff16815260200190815260200160002060009054906101000a900460ff1660ff161480156200014e5750600073ffffffffffffffffffffffffffffffffffffffff16838260ff16815181106200012d576200012c62000b2d565b5b602002602001015173ffffffffffffffffffffffffffffffffffffffff1614155b62000190576040517f08c379a0000000000000000000000000000000000000000000000000000000008152600401620001879062000bbd565b60405180910390fd5b6001816200019f919062000c0e565b60086000858460ff1681518110620001bc57620001bb62000b2d565b5b602002602001015173ffffffffffffffffffffffffffffffffffffffff1673ffffffffffffffffffffffffffffffffffffffff16815260200190815260200160002060006101000a81548160ff021916908360ff1602179055508080620002239062000c4a565b91505062000074565b5081600790805190602001906200024592919062000312565b5060026007805490506200025a919062000ca7565b8160ff1611620002a1576040517f08c379a0000000000000000000000000000000000000000000000000000000008152600401620002989062000d2f565b60405180910390fd5b80600960006101000a81548160ff021916908360ff160217905550505033600560006101000a81548173ffffffffffffffffffffffffffffffffffffffff021916908373ffffffffffffffffffffffffffffffffffffffff16021790555082600f8190555050505050505062000d51565b8280548282559060005260206000209081019282156200038e579160200282015b828111156200038d5782518260006101000a81548173ffffffffffffffffffffffffffffffffffffffff021916908373ffffffffffffffffffffffffffffffffffffffff1602179055509160200191906001019062000333565b5b5090506200039d9190620003a1565b5090565b5b80821115620003bc576000816000905550600101620003a2565b5090565b6000604051905090565b600080fd5b600080fd5b600080fd5b600080fd5b6000601f19601f8301169050919050565b7f4e487b7100000000000000000000000000000000000000000000000000000000600052604160045260246000fd5b6200042982620003de565b810181811067ffffffffffffffff821117156200044b576200044a620003ef565b5b80604052505050565b600062000460620003c0565b90506200046e82826200041e565b919050565b600067ffffffffffffffff821115620004915762000490620003ef565b5b6200049c82620003de565b9050602081019050919050565b60005b83811015620004c9578082015181840152602081019050620004ac565b60008484015250505050565b6000620004ec620004e68462000473565b62000454565b9050828152602081018484840111156200050b576200050a620003d9565b5b62000518848285620004a9565b509392505050565b600082601f830112620005385762000537620003d4565b5b81516200054a848260208601620004d5565b91505092915050565b600060ff82169050919050565b6200056b8162000553565b81146200057757600080fd5b50565b6000815190506200058b8162000560565b92915050565b6000819050919050565b620005a68162000591565b8114620005b257600080fd5b50565b600081519050620005c6816200059b565b92915050565b600067ffffffffffffffff821115620005ea57620005e9620003ef565b5b602082029050602081019050919050565b600080fd5b600073ffffffffffffffffffffffffffffffffffffffff82169050919050565b60006200062d8262000600565b9050919050565b6200063f8162000620565b81146200064b57600080fd5b50565b6000815190506200065f8162000634565b92915050565b60006200067c6200067684620005cc565b62000454565b90508083825260208201905060208402830185811115620006a257620006a1620005fb565b5b835b81811015620006cf5780620006ba88826200064e565b845260208401935050602081019050620006a4565b5050509392505050565b600082601f830112620006f157620006f0620003d4565b5b81516200070384826020860162000665565b91505092915050565b60008060008060008060c087890312156200072c576200072b620003ca565b5b600087015167ffffffffffffffff8111156200074d576200074c620003cf565b5b6200075b89828a0162000520565b965050602087015167ffffffffffffffff8111156200077f576200077e620003cf565b5b6200078d89828a0162000520565b9550506040620007a089828a016200057a565b9450506060620007b389828a01620005b5565b935050608087015167ffffffffffffffff811115620007d757620007d6620003cf565b5b620007e589828a01620006d9565b92505060a0620007f889828a016200057a565b9150509295509295509295565b600081519050919050565b7f4e487b7100000000000000000000000000000000000000000000000000000000600052602260045260246000fd5b600060028204905060018216806200085857607f821691505b6020821081036200086e576200086d62000810565b5b50919050565b60008190508160005260206000209050919050565b60006020601f8301049050919050565b600082821b905092915050565b600060088302620008d87fffffffffffffffffffffffffffffffffffffffffffffffffffffffffffffffff8262000899565b620008e4868362000899565b95508019841693508086168417925050509392505050565b6000819050919050565b600062000927620009216200091b8462000591565b620008fc565b62000591565b9050919050565b6000819050919050565b620009438362000906565b6200095b62000952826200092e565b848454620008a6565b825550505050565b600090565b6200097262000963565b6200097f81848462000938565b505050565b5b81811015620009a7576200099b60008262000968565b60018101905062000985565b5050565b601f821115620009f657620009c08162000874565b620009cb8462000889565b81016020851015620009db578190505b620009f3620009ea8562000889565b83018262000984565b50505b505050565b600082821c905092915050565b600062000a1b60001984600802620009fb565b1980831691505092915050565b600062000a36838362000a08565b9150826002028217905092915050565b62000a518262000805565b67ffffffffffffffff81111562000a6d5762000a6c620003ef565b5b62000a7982546200083f565b62000a86828285620009ab565b600060209050601f83116001811462000abe576000841562000aa9578287015190505b62000ab5858262000a28565b86555062000b25565b601f19841662000ace8662000874565b60005b8281101562000af85784890151825560018201915060208501945060208101905062000ad1565b8683101562000b18578489015162000b14601f89168262000a08565b8355505b6001600288020188555050505b505050505050565b7f4e487b7100000000000000000000000000000000000000000000000000000000600052603260045260246000fd5b600082825260208201905092915050565b7f696e76616c6964206f72206475706c696361746564207369676e657200000000600082015250565b600062000ba5601c8362000b5c565b915062000bb28262000b6d565b602082019050919050565b6000602082019050818103600083015262000bd88162000b96565b9050919050565b7f4e487b7100000000000000000000000000000000000000000000000000000000600052601160045260246000fd5b600062000c1b8262000553565b915062000c288362000553565b9250828201905060ff81111562000c445762000c4362000bdf565b5b92915050565b600062000c578262000553565b915060ff820362000c6d5762000c6c62000bdf565b5b600182019050919050565b7f4e487b7100000000000000000000000000000000000000000000000000000000600052601260045260246000fd5b600062000cb48262000591565b915062000cc18362000591565b92508262000cd45762000cd362000c78565b5b828204905092915050565b7f746f6f20736d616c6c2072657175697265436f756e7400000000000000000000600082015250565b600062000d1760168362000b5c565b915062000d248262000cdf565b602082019050919050565b6000602082019050818103600083015262000d4a8162000d08565b9050919050565b60805161376962000d6d6000396000610ee401526137696000f3fe608060405234801561001057600080fd5b50600436106101e55760003560e01c806395d89b411161010f578063daf36262116100a2578063ebbc496511610071578063ebbc4965146105d3578063ee6c829b146105dd578063fd9be5221461060f578063fe6931b71461062b576101e5565b8063daf3626214610539578063dd62ed3e14610557578063e019ca7c14610587578063ea047fee146105b7576101e5565b8063b44d4e5f116100de578063b44d4e5f1461049a578063bc2c1e77146104b8578063c34bc928146104d6578063cb1c8f6814610506576101e5565b806395d89b4114610410578063978bbdb91461042e5780639ca6ce121461044c578063a9059cbb1461046a576101e5565b806323b872dd116101875780636647c269116101565780636647c2691461038857806370a08231146103a457806383051fde146103d45780638da5cb5b146103f2576101e5565b806323b872dd146102ee57806323c92f241461031e578063313ce5671461034e5780634fb2e45d1461036c576101e5565b806318160ddd116101c357806318160ddd1461025457806318a922a7146102725780632079fb9a146102a257806321725178146102d2576101e5565b806306fdde03146101ea578063095ea7b3146102085780630f2c0f5d14610238575b600080fd5b6101f2610647565b6040516101ff91906129a8565b60405180910390f35b610222600480360381019061021d9190612a63565b6106d5565b60405161022f9190612abe565b60405180910390f35b610252600480360381019061024d9190612b0f565b6106ec565b005b61025c6107df565b6040516102699190612b71565b60405180910390f35b61028c60048036038101906102879190612bc5565b6107e5565b6040516102999190612b71565b60405180910390f35b6102bc60048036038101906102b79190612c05565b610c04565b6040516102c99190612c41565b60405180910390f35b6102ec60048036038101906102e79190612b0f565b610c43565b005b61030860048036038101906103039190612c5c565b610d64565b6040516103159190612abe565b60405180910390f35b61033860048036038101906103339190612caf565b610eb3565b6040516103459190612abe565b60405180910390f35b610356610ee2565b6040516103639190612d0b565b60405180910390f35b61038660048036038101906103819190612d26565b610f06565b005b6103a2600480360381019061039d9190612d7f565b610fda565b005b6103be60048036038101906103b99190612d26565b6112a7565b6040516103cb9190612b71565b60405180910390f35b6103dc6112bf565b6040516103e99190612d0b565b60405180910390f35b6103fa6112d2565b6040516104079190612c41565b60405180910390f35b6104186112f8565b60405161042591906129a8565b60405180910390f35b610436611386565b6040516104439190612ddd565b60405180910390f35b61045461138b565b6040516104619190612ddd565b60405180910390f35b610484600480360381019061047f9190612a63565b611392565b6040516104919190612abe565b60405180910390f35b6104a26113a9565b6040516104af9190612b71565b60405180910390f35b6104c06113af565b6040516104cd9190612b71565b60405180910390f35b6104f060048036038101906104eb9190612df8565b6113b6565b6040516104fd9190612b71565b60405180910390f35b610520600480360381019061051b9190612c05565b61161f565b6040516105309493929190612e34565b60405180910390f35b610541611689565b60405161054e9190612b71565b60405180910390f35b610571600480360381019061056c9190612e79565b61168f565b60405161057e9190612b71565b60405180910390f35b6105a1600480360381019061059c9190612caf565b6116b4565b6040516105ae9190612abe565b60405180910390f35b6105d160048036038101906105cc9190612eb9565b6116e3565b005b6105db611cc7565b005b6105f760048036038101906105f29190612c05565b611dfe565b60405161060693929190612f0c565b60405180910390f35b61062960048036038101906106249190612a63565b611e42565b005b61064560048036038101906106409190612f43565b611ef9565b005b6000805461065490612fc5565b80601f016020809104026020016040519081016040528092919081815260200182805461068090612fc5565b80156106cd5780601f106106a2576101008083540402835291602001916106cd565b820191906000526020600020905b8154815290600101906020018083116106b057829003601f168201915b505050505081565b60006106e2338484612565565b6001905092915050565b600f54811015610731576040517f08c379a000000000000000000000000000000000000000000000000000000000815260040161072890613042565b60405180910390fd5b61073b3382612650565b6000620186a062ffffff16606462ffffff16836107589190613091565b6107629190613102565b905080600e60008282546107769190613133565b92505081905550833373ffffffffffffffffffffffffffffffffffffffff167f87a89f1cee7e883b59eca58c135072a63ce587ee1e3f72279d6fd24f2bce25f88584866107c39190613167565b6040516107d19291906131aa565b60405180910390a350505050565b60025481565b600080600860003373ffffffffffffffffffffffffffffffffffffffff1673ffffffffffffffffffffffffffffffffffffffff16815260200190815260200160002060009054906101000a900460ff1660ff1611610878576040517f08c379a000000000000000000000000000000000000000000000000000000000815260040161086f9061321f565b60405180910390fd5b6000600a600043815260200190815260200160002060000160009054906101000a900460000b60000b146108e1576040517f08c379a00000000000000000000000000000000000000000000000000000000081526004016108d89061328b565b60405180910390fd5b7fffffffffffffffffffffffffffffffffffffffffffffffffffffffffffffffff8360000b036109fb576000600860008473ffffffffffffffffffffffffffffffffffffffff1673ffffffffffffffffffffffffffffffffffffffff16815260200190815260200160002060009054906101000a900460ff1660ff161161099d576040517f08c379a0000000000000000000000000000000000000000000000000000000008152600401610994906132f7565b60405180910390fd5b600780549050600960009054906101000a900460ff1660ff16106109f6576040517f08c379a00000000000000000000000000000000000000000000000000000000081526004016109ed90613363565b60405180910390fd5b610a9a565b60018360000b03610a99576000600860008473ffffffffffffffffffffffffffffffffffffffff1673ffffffffffffffffffffffffffffffffffffffff16815260200190815260200160002060009054906101000a900460ff1660ff1614610a98576040517f08c379a0000000000000000000000000000000000000000000000000000000008152600401610a8f906133cf565b60405180910390fd5b5b5b60405180608001604052808460000b81526020018373ffffffffffffffffffffffffffffffffffffffff168152602001600160ff1681526020016201518042610ae39190613133565b815250600a600043815260200190815260200160002060008201518160000160006101000a81548160ff021916908360000b60ff16021790555060208201518160000160016101000a81548173ffffffffffffffffffffffffffffffffffffffff021916908373ffffffffffffffffffffffffffffffffffffffff16021790555060408201518160000160156101000a81548160ff021916908360ff160217905550606082015181600101559050506001600b600043815260200190815260200160002060003373ffffffffffffffffffffffffffffffffffffffff1673ffffffffffffffffffffffffffffffffffffffff16815260200190815260200160002060006101000a81548160ff02191690831515021790555043905092915050565b60078181548110610c1457600080fd5b906000526020600020016000915054906101000a900473ffffffffffffffffffffffffffffffffffffffff1681565b600560009054906101000a900473ffffffffffffffffffffffffffffffffffffffff1673ffffffffffffffffffffffffffffffffffffffff163373ffffffffffffffffffffffffffffffffffffffff1614610cd3576040517f08c379a0000000000000000000000000000000000000000000000000000000008152600401610cca9061343b565b60405180910390fd5b80600e6000828254610ce59190613167565b9250508190555082600560009054906101000a900473ffffffffffffffffffffffffffffffffffffffff1673ffffffffffffffffffffffffffffffffffffffff167f87a89f1cee7e883b59eca58c135072a63ce587ee1e3f72279d6fd24f2bce25f88484604051610d579291906131aa565b60405180910390a3505050565b60007fffffffffffffffffffffffffffffffffffffffffffffffffffffffffffffffff600460008673ffffffffffffffffffffffffffffffffffffffff1673ffffffffffffffffffffffffffffffffffffffff16815260200190815260200160002060003373ffffffffffffffffffffffffffffffffffffffff1673ffffffffffffffffffffffffffffffffffffffff1681526020019081526020016000205414610e9d5781600460008673ffffffffffffffffffffffffffffffffffffffff1673ffffffffffffffffffffffffffffffffffffffff16815260200190815260200160002060003373ffffffffffffffffffffffffffffffffffffffff1673ffffffffffffffffffffffffffffffffffffffff1681526020019081526020016000206000828254610e959190613167565b925050819055505b610ea8848484612729565b600190509392505050565b600b6020528160005260406000206020528060005260406000206000915091509054906101000a900460ff1681565b7f000000000000000000000000000000000000000000000000000000000000000081565b600560009054906101000a900473ffffffffffffffffffffffffffffffffffffffff1673ffffffffffffffffffffffffffffffffffffffff163373ffffffffffffffffffffffffffffffffffffffff1614610f96576040517f08c379a0000000000000000000000000000000000000000000000000000000008152600401610f8d9061343b565b60405180910390fd5b80600660006101000a81548173ffffffffffffffffffffffffffffffffffffffff021916908373ffffffffffffffffffffffffffffffffffffffff16021790555050565b6000600860003373ffffffffffffffffffffffffffffffffffffffff1673ffffffffffffffffffffffffffffffffffffffff16815260200190815260200160002060009054906101000a900460ff1660ff161161106c576040517f08c379a00000000000000000000000000000000000000000000000000000000081526004016110639061321f565b60405180910390fd5b8060ff16600c600084815260200190815260200160002060000160009054906101000a900460ff1660ff161480156110ba575042600c60008481526020019081526020016000206001015410155b6110f9576040517f08c379a00000000000000000000000000000000000000000000000000000000081526004016110f0906134a7565b60405180910390fd5b600d600083815260200190815260200160002060003373ffffffffffffffffffffffffffffffffffffffff1673ffffffffffffffffffffffffffffffffffffffff16815260200190815260200160002060009054906101000a900460ff16611211576001600d600084815260200190815260200160002060003373ffffffffffffffffffffffffffffffffffffffff1673ffffffffffffffffffffffffffffffffffffffff16815260200190815260200160002060006101000a81548160ff021916908315150217905550600c6000838152602001908152602001600020600001600181819054906101000a900460ff16809291906111f7906134c7565b91906101000a81548160ff021916908360ff160217905550505b600960009054906101000a900460ff1660ff16600c600084815260200190815260200160002060000160019054906101000a900460ff1660ff16106112a35780600960006101000a81548160ff021916908360ff1602179055507f971ed33ab126ac4c0a07a18b84ed2990cde2ae87b25cd5009c84e7e5c9c8cffd8160405161129a9190612d0b565b60405180910390a15b5050565b60036020528060005260406000206000915090505481565b600960009054906101000a900460ff1681565b600560009054906101000a900473ffffffffffffffffffffffffffffffffffffffff1681565b6001805461130590612fc5565b80601f016020809104026020016040519081016040528092919081815260200182805461133190612fc5565b801561137e5780601f106113535761010080835404028352916020019161137e565b820191906000526020600020905b81548152906001019060200180831161136157829003601f168201915b505050505081565b606481565b620186a081565b600061139f338484612729565b6001905092915050565b600e5481565b6201518081565b600080600860003373ffffffffffffffffffffffffffffffffffffffff1673ffffffffffffffffffffffffffffffffffffffff16815260200190815260200160002060009054906101000a900460ff1660ff1611611449576040517f08c379a00000000000000000000000000000000000000000000000000000000081526004016114409061321f565b60405180910390fd5b6000600c600043815260200190815260200160002060000160009054906101000a900460ff1660ff16146114b2576040517f08c379a00000000000000000000000000000000000000000000000000000000081526004016114a99061328b565b60405180910390fd5b60026007805490506114c49190613102565b8260ff161180156114dd57506007805490508260ff1611155b61151c576040517f08c379a00000000000000000000000000000000000000000000000000000000081526004016115139061353c565b60405180910390fd5b60405180606001604052808360ff168152602001600160ff16815260200162015180426115499190613133565b815250600c600043815260200190815260200160002060008201518160000160006101000a81548160ff021916908360ff16021790555060208201518160000160016101000a81548160ff021916908360ff160217905550604082015181600101559050506001600d600043815260200190815260200160002060003373ffffffffffffffffffffffffffffffffffffffff1673ffffffffffffffffffffffffffffffffffffffff16815260200190815260200160002060006101000a81548160ff021916908315150217905550439050919050565b600a6020528060005260406000206000915090508060000160009054906101000a900460000b908060000160019054906101000a900473ffffffffffffffffffffffffffffffffffffffff16908060000160159054906101000a900460ff16908060010154905084565b600f5481565b6004602052816000526040600020602052806000526040600020600091509150505481565b600d6020528160005260406000206020528060005260406000206000915091509054906101000a900460ff1681565b6000600860003373ffffffffffffffffffffffffffffffffffffffff1673ffffffffffffffffffffffffffffffffffffffff16815260200190815260200160002060009054906101000a900460ff1660ff1611611775576040517f08c379a000000000000000000000000000000000000000000000000000000000815260040161176c9061321f565b60405180910390fd5b6010600084815260200190815260200160002060010160159054906101000a900460ff16156117d9576040517f08c379a00000000000000000000000000000000000000000000000000000000081526004016117d0906135a8565b60405180910390fd5b601160003373ffffffffffffffffffffffffffffffffffffffff1673ffffffffffffffffffffffffffffffffffffffff168152602001908152602001600020600084815260200190815260200160002060009054906101000a900460ff1615611877576040517f08c379a000000000000000000000000000000000000000000000000000000000815260040161186e90613614565b60405180910390fd5b600073ffffffffffffffffffffffffffffffffffffffff166010600085815260200190815260200160002060010160009054906101000a900473ffffffffffffffffffffffffffffffffffffffff1673ffffffffffffffffffffffffffffffffffffffff16036119cc5760405180608001604052808381526020018273ffffffffffffffffffffffffffffffffffffffff168152602001600060ff16815260200160001515815250601060008581526020019081526020016000206000820151816000015560208201518160010160006101000a81548173ffffffffffffffffffffffffffffffffffffffff021916908373ffffffffffffffffffffffffffffffffffffffff16021790555060408201518160010160146101000a81548160ff021916908360ff16021790555060608201518160010160156101000a81548160ff021916908315150217905550905050611a92565b816010600085815260200190815260200160002060000154148015611a5257508073ffffffffffffffffffffffffffffffffffffffff166010600085815260200190815260200160002060010160009054906101000a900473ffffffffffffffffffffffffffffffffffffffff1673ffffffffffffffffffffffffffffffffffffffff16145b611a91576040517f08c379a0000000000000000000000000000000000000000000000000000000008152600401611a8890613680565b60405180910390fd5b5b601160003373ffffffffffffffffffffffffffffffffffffffff1673ffffffffffffffffffffffffffffffffffffffff168152602001908152602001600020600084815260200190815260200160002060009054906101000a900460ff16611baa576001601160003373ffffffffffffffffffffffffffffffffffffffff1673ffffffffffffffffffffffffffffffffffffffff168152602001908152602001600020600085815260200190815260200160002060006101000a81548160ff02191690831515021790555060106000848152602001908152602001600020600101601481819054906101000a900460ff1680929190611b90906134c7565b91906101000a81548160ff021916908360ff160217905550505b600960009054906101000a900460ff1660ff166010600085815260200190815260200160002060010160149054906101000a900460ff1660ff1610611cc25760016010600085815260200190815260200160002060010160156101000a81548160ff0219169083151502179055506000620186a062ffffff16606462ffffff1684611c359190613091565b611c3f9190613102565b905080600e6000828254611c539190613133565b925050819055508083611c669190613167565b9250611c72828461283f565b8173ffffffffffffffffffffffffffffffffffffffff167fb61d00fdfee32467c7d81db64c811ae60c104c346debf36a14afe84b8fce59e584604051611cb89190612b71565b60405180910390a2505b505050565b600660009054906101000a900473ffffffffffffffffffffffffffffffffffffffff1673ffffffffffffffffffffffffffffffffffffffff163373ffffffffffffffffffffffffffffffffffffffff1614611d57576040517f08c379a0000000000000000000000000000000000000000000000000000000008152600401611d4e9061343b565b60405180910390fd5b600660009054906101000a900473ffffffffffffffffffffffffffffffffffffffff16600560006101000a81548173ffffffffffffffffffffffffffffffffffffffff021916908373ffffffffffffffffffffffffffffffffffffffff1602179055506000600660006101000a81548173ffffffffffffffffffffffffffffffffffffffff021916908373ffffffffffffffffffffffffffffffffffffffff160217905550565b600c6020528060005260406000206000915090508060000160009054906101000a900460ff16908060000160019054906101000a900460ff16908060010154905083565b600560009054906101000a900473ffffffffffffffffffffffffffffffffffffffff1673ffffffffffffffffffffffffffffffffffffffff163373ffffffffffffffffffffffffffffffffffffffff1614611ed2576040517f08c379a0000000000000000000000000000000000000000000000000000000008152600401611ec99061343b565b60405180910390fd5b80600e6000828254611ee49190613167565b92505081905550611ef5828261283f565b5050565b6000600860003373ffffffffffffffffffffffffffffffffffffffff1673ffffffffffffffffffffffffffffffffffffffff16815260200190815260200160002060009054906101000a900460ff1660ff1611611f8b576040517f08c379a0000000000000000000000000000000000000000000000000000000008152600401611f829061321f565b60405180910390fd5b8160000b600a600085815260200190815260200160002060000160009054906101000a900460000b60000b14801561202457508073ffffffffffffffffffffffffffffffffffffffff16600a600085815260200190815260200160002060000160019054906101000a900473ffffffffffffffffffffffffffffffffffffffff1673ffffffffffffffffffffffffffffffffffffffff16145b8015612046575042600a60008581526020019081526020016000206001015410155b612085576040517f08c379a000000000000000000000000000000000000000000000000000000000815260040161207c906134a7565b60405180910390fd5b600b600084815260200190815260200160002060003373ffffffffffffffffffffffffffffffffffffffff1673ffffffffffffffffffffffffffffffffffffffff16815260200190815260200160002060009054906101000a900460ff1661219d576001600b600085815260200190815260200160002060003373ffffffffffffffffffffffffffffffffffffffff1673ffffffffffffffffffffffffffffffffffffffff16815260200190815260200160002060006101000a81548160ff021916908315150217905550600a6000848152602001908152602001600020600001601581819054906101000a900460ff1680929190612183906134c7565b91906101000a81548160ff021916908360ff160217905550505b600960009054906101000a900460ff1660ff16600a600085815260200190815260200160002060000160159054906101000a900460ff1660ff16106125605760018260000b036122ef576007819080600181540180825580915050600190039060005260206000200160009091909190916101000a81548173ffffffffffffffffffffffffffffffffffffffff021916908373ffffffffffffffffffffffffffffffffffffffff160217905550600780549050600860008373ffffffffffffffffffffffffffffffffffffffff1673ffffffffffffffffffffffffffffffffffffffff16815260200190815260200160002060006101000a81548160ff021916908360ff1602179055508073ffffffffffffffffffffffffffffffffffffffff167f8191ca9d665b824fc53160f3727e7ec3a5330e4a67e1db6c4a86678956dfef1960405160405180910390a261255f565b7fffffffffffffffffffffffffffffffffffffffffffffffffffffffffffffffff8260000b0361255e576000600860008373ffffffffffffffffffffffffffffffffffffffff1673ffffffffffffffffffffffffffffffffffffffff16815260200190815260200160002060009054906101000a900460ff1690506000600760016007805490506123809190613167565b81548110612391576123906136a0565b5b9060005260206000200160009054906101000a900473ffffffffffffffffffffffffffffffffffffffff1690508060076001846123ce91906136cf565b60ff16815481106123e2576123e16136a0565b5b9060005260206000200160006101000a81548173ffffffffffffffffffffffffffffffffffffffff021916908373ffffffffffffffffffffffffffffffffffffffff16021790555081600860008373ffffffffffffffffffffffffffffffffffffffff1673ffffffffffffffffffffffffffffffffffffffff16815260200190815260200160002060006101000a81548160ff021916908360ff160217905550600860008473ffffffffffffffffffffffffffffffffffffffff1673ffffffffffffffffffffffffffffffffffffffff16815260200190815260200160002060006101000a81549060ff021916905560078054806124e3576124e2613704565b5b6001900381819060005260206000200160006101000a81549073ffffffffffffffffffffffffffffffffffffffff021916905590558273ffffffffffffffffffffffffffffffffffffffff167fa2a6e2b8f0cf0f627456034557b0149227a355af53f5bc8ce7e496bfbe73c0a960405160405180910390a250505b5b5b505050565b80600460008573ffffffffffffffffffffffffffffffffffffffff1673ffffffffffffffffffffffffffffffffffffffff16815260200190815260200160002060008473ffffffffffffffffffffffffffffffffffffffff1673ffffffffffffffffffffffffffffffffffffffff168152602001908152602001600020819055508173ffffffffffffffffffffffffffffffffffffffff168373ffffffffffffffffffffffffffffffffffffffff167f8c5be1e5ebec7d5bd14f71427d1e84f3dd0314c0f7b2291e5b200ac8c7c3b925836040516126439190612b71565b60405180910390a3505050565b80600360008473ffffffffffffffffffffffffffffffffffffffff1673ffffffffffffffffffffffffffffffffffffffff168152602001908152602001600020600082825461269f9190613167565b9250508190555080600260008282546126b89190613167565b92505081905550600073ffffffffffffffffffffffffffffffffffffffff168273ffffffffffffffffffffffffffffffffffffffff167fddf252ad1be2c89b69c2b068fc378daa952ba7f163c4a11628f55a4df523b3ef8360405161271d9190612b71565b60405180910390a35050565b80600360008573ffffffffffffffffffffffffffffffffffffffff1673ffffffffffffffffffffffffffffffffffffffff16815260200190815260200160002060008282546127789190613167565b9250508190555080600360008473ffffffffffffffffffffffffffffffffffffffff1673ffffffffffffffffffffffffffffffffffffffff16815260200190815260200160002060008282546127ce9190613133565b925050819055508173ffffffffffffffffffffffffffffffffffffffff168373ffffffffffffffffffffffffffffffffffffffff167fddf252ad1be2c89b69c2b068fc378daa952ba7f163c4a11628f55a4df523b3ef836040516128329190612b71565b60405180910390a3505050565b80600260008282546128519190613133565b9250508190555080600360008473ffffffffffffffffffffffffffffffffffffffff1673ffffffffffffffffffffffffffffffffffffffff16815260200190815260200160002060008282546128a79190613133565b925050819055508173ffffffffffffffffffffffffffffffffffffffff16600073ffffffffffffffffffffffffffffffffffffffff167fddf252ad1be2c89b69c2b068fc378daa952ba7f163c4a11628f55a4df523b3ef8360405161290c9190612b71565b60405180910390a35050565b600081519050919050565b600082825260208201905092915050565b60005b83811015612952578082015181840152602081019050612937565b60008484015250505050565b6000601f19601f8301169050919050565b600061297a82612918565b6129848185612923565b9350612994818560208601612934565b61299d8161295e565b840191505092915050565b600060208201905081810360008301526129c2818461296f565b905092915050565b600080fd5b600073ffffffffffffffffffffffffffffffffffffffff82169050919050565b60006129fa826129cf565b9050919050565b612a0a816129ef565b8114612a1557600080fd5b50565b600081359050612a2781612a01565b92915050565b6000819050919050565b612a4081612a2d565b8114612a4b57600080fd5b50565b600081359050612a5d81612a37565b92915050565b60008060408385031215612a7a57612a796129ca565b5b6000612a8885828601612a18565b9250506020612a9985828601612a4e565b9150509250929050565b60008115159050919050565b612ab881612aa3565b82525050565b6000602082019050612ad36000830184612aaf565b92915050565b6000819050919050565b612aec81612ad9565b8114612af757600080fd5b50565b600081359050612b0981612ae3565b92915050565b600080600060608486031215612b2857612b276129ca565b5b6000612b3686828701612afa565b9350506020612b4786828701612afa565b9250506040612b5886828701612a4e565b9150509250925092565b612b6b81612a2d565b82525050565b6000602082019050612b866000830184612b62565b92915050565b60008160000b9050919050565b612ba281612b8c565b8114612bad57600080fd5b50565b600081359050612bbf81612b99565b92915050565b60008060408385031215612bdc57612bdb6129ca565b5b6000612bea85828601612bb0565b9250506020612bfb85828601612a18565b9150509250929050565b600060208284031215612c1b57612c1a6129ca565b5b6000612c2984828501612a4e565b91505092915050565b612c3b816129ef565b82525050565b6000602082019050612c566000830184612c32565b92915050565b600080600060608486031215612c7557612c746129ca565b5b6000612c8386828701612a18565b9350506020612c9486828701612a18565b9250506040612ca586828701612a4e565b9150509250925092565b60008060408385031215612cc657612cc56129ca565b5b6000612cd485828601612a4e565b9250506020612ce585828601612a18565b9150509250929050565b600060ff82169050919050565b612d0581612cef565b82525050565b6000602082019050612d206000830184612cfc565b92915050565b600060208284031215612d3c57612d3b6129ca565b5b6000612d4a84828501612a18565b91505092915050565b612d5c81612cef565b8114612d6757600080fd5b50565b600081359050612d7981612d53565b92915050565b60008060408385031215612d9657612d956129ca565b5b6000612da485828601612a4e565b9250506020612db585828601612d6a565b9150509250929050565b600062ffffff82169050919050565b612dd781612dbf565b82525050565b6000602082019050612df26000830184612dce565b92915050565b600060208284031215612e0e57612e0d6129ca565b5b6000612e1c84828501612d6a565b91505092915050565b612e2e81612b8c565b82525050565b6000608082019050612e496000830187612e25565b612e566020830186612c32565b612e636040830185612cfc565b612e706060830184612b62565b95945050505050565b60008060408385031215612e9057612e8f6129ca565b5b6000612e9e85828601612a18565b9250506020612eaf85828601612a18565b9150509250929050565b600080600060608486031215612ed257612ed16129ca565b5b6000612ee086828701612afa565b9350506020612ef186828701612a4e565b9250506040612f0286828701612a18565b9150509250925092565b6000606082019050612f216000830186612cfc565b612f2e6020830185612cfc565b612f3b6040830184612b62565b949350505050565b600080600060608486031215612f5c57612f5b6129ca565b5b6000612f6a86828701612a4e565b9350506020612f7b86828701612bb0565b9250506040612f8c86828701612a18565b9150509250925092565b7f4e487b7100000000000000000000000000000000000000000000000000000000600052602260045260246000fd5b60006002820490506001821680612fdd57607f821691505b602082108103612ff057612fef612f96565b5b50919050565b7f616d6f756e74206c6f7700000000000000000000000000000000000000000000600082015250565b600061302c600a83612923565b915061303782612ff6565b602082019050919050565b6000602082019050818103600083015261305b8161301f565b9050919050565b7f4e487b7100000000000000000000000000000000000000000000000000000000600052601160045260246000fd5b600061309c82612a2d565b91506130a783612a2d565b92508282026130b581612a2d565b915082820484148315176130cc576130cb613062565b5b5092915050565b7f4e487b7100000000000000000000000000000000000000000000000000000000600052601260045260246000fd5b600061310d82612a2d565b915061311883612a2d565b925082613128576131276130d3565b5b828204905092915050565b600061313e82612a2d565b915061314983612a2d565b925082820190508082111561316157613160613062565b5b92915050565b600061317282612a2d565b915061317d83612a2d565b925082820390508181111561319557613194613062565b5b92915050565b6131a481612ad9565b82525050565b60006040820190506131bf600083018561319b565b6131cc6020830184612b62565b9392505050565b7f6e6f74207369676e657200000000000000000000000000000000000000000000600082015250565b6000613209600a83612923565b9150613214826131d3565b602082019050919050565b60006020820190508181036000830152613238816131fc565b9050919050565b7f65786973742070726f706f73616c000000000000000000000000000000000000600082015250565b6000613275600e83612923565b91506132808261323f565b602082019050919050565b600060208201905081810360008301526132a481613268565b9050919050565b7f61646472657373206e6f74206578697374000000000000000000000000000000600082015250565b60006132e1601183612923565b91506132ec826132ab565b602082019050919050565b60006020820190508181036000830152613310816132d4565b9050919050565b7f72657175697265436f756e74206572726f720000000000000000000000000000600082015250565b600061334d601283612923565b915061335882613317565b602082019050919050565b6000602082019050818103600083015261337c81613340565b9050919050565b7f6164647265737320657869737400000000000000000000000000000000000000600082015250565b60006133b9600d83612923565b91506133c482613383565b602082019050919050565b600060208201905081810360008301526133e8816133ac565b9050919050565b7f666f7262696464656e0000000000000000000000000000000000000000000000600082015250565b6000613425600983612923565b9150613430826133ef565b602082019050919050565b6000602082019050818103600083015261345481613418565b9050919050565b7f6d69736d61746368000000000000000000000000000000000000000000000000600082015250565b6000613491600883612923565b915061349c8261345b565b602082019050919050565b600060208201905081810360008301526134c081613484565b9050919050565b60006134d282612cef565b915060ff82036134e5576134e4613062565b5b600182019050919050565b7f636f756e74206572726f72000000000000000000000000000000000000000000600082015250565b6000613526600b83612923565b9150613531826134f0565b602082019050919050565b6000602082019050818103600083015261355581613519565b9050919050565b7f777261707065642066696e697368656400000000000000000000000000000000600082015250565b6000613592601083612923565b915061359d8261355c565b602082019050919050565b600060208201905081810360008301526135c181613585565b9050919050565b7f73656e6465722077726170706564000000000000000000000000000000000000600082015250565b60006135fe600e83612923565b9150613609826135c8565b602082019050919050565b6000602082019050818103600083015261362d816135f1565b9050919050565b7f696e76616c696420777261700000000000000000000000000000000000000000600082015250565b600061366a600c83612923565b915061367582613634565b602082019050919050565b600060208201905081810360008301526136998161365d565b9050919050565b7f4e487b7100000000000000000000000000000000000000000000000000000000600052603260045260246000fd5b60006136da82612cef565b91506136e583612cef565b9250828203905060ff8111156136fe576136fd613062565b5b92915050565b7f4e487b7100000000000000000000000000000000000000000000000000000000600052603160045260246000fdfea264697066735822122072044ad279ccaaea66cdc1e48d2c40cc3ef4cda95d47825d60c70353783ebf2664736f6c63430008110033",
  "linkReferences": {},
  "deployedLinkReferences": {}
}