{
  "_format": "hh-sol-artifact-1",
  "contractName": "BridgeWrap",
  "sourceName": "contracts/wrap.sol",
  "abi": [
    {
      "inputs": [
        {
          "internalType": "string",
          "name": "_name",
          "type": "string"
        },
        {
          "internalType": "string",
          "name": "_symbol",
          "type": "string"
        },
        {
          "internalType": "uint8",
          "name": "_decimal",
          "type": "uint8"
        },
        {
          "internalType": "uint256",
          "name": "minAmount",
          "type": "uint256"
        },
        {
          "internalType": "address[]",
          "name": "_signers",
          "type": "address[]"
        },
        {
          "internalType": "uint8",
          "name": "_requireCount",
          "type": "uint8"
        }
      ],
      "stateMutability": "nonpayable",
      "type": "constructor"
    },
    {
      "anonymous": false,
      "inputs": [
        {
          "indexed": true,
          "internalType": "address",
          "name": "owner",
          "type": "address"
        },
        {
          "indexed": true,
          "internalType": "address",
          "name": "spender",
          "type": "address"
        },
        {
          "indexed": false,
          "internalType": "uint256",
          "name": "value",
          "type": "uint256"
        }
      ],
      "name": "Approval",
      "type": "event"
    },
    {
      "anonymous": false,
      "inputs": [
        {
          "indexed": false,
          "internalType": "uint8",
          "name": "changeRequireCount",
          "type": "uint8"
        }
      ],
      "name": "ChangeRequireCount",
      "type": "event"
    },
    {
      "anonymous": false,
      "inputs": [
        {
          "indexed": true,
          "internalType": "address",
          "name": "signer",
          "type": "address"
        }
      ],
      "name": "SignerAddition",
      "type": "event"
    },
    {
      "anonymous": false,
      "inputs": [
        {
          "indexed": true,
          "internalType": "address",
          "name": "signer",
          "type": "address"
        }
      ],
      "name": "SignerRemoval",
      "type": "event"
    },
    {
      "anonymous": false,
      "inputs": [
        {
          "indexed": true,
          "internalType": "address",
          "name": "from",
          "type": "address"
        },
        {
          "indexed": true,
          "internalType": "address",
          "name": "to",
          "type": "address"
        },
        {
          "indexed": false,
          "internalType": "uint256",
          "name": "value",
          "type": "uint256"
        }
      ],
      "name": "Transfer",
      "type": "event"
    },
    {
      "anonymous": false,
      "inputs": [
        {
          "indexed": true,
          "internalType": "address",
          "name": "from",
          "type": "address"
        },
        {
          "indexed": true,
          "internalType": "bytes32",
          "name": "to",
          "type": "bytes32"
        },
        {
          "indexed": false,
          "internalType": "bytes32",
          "name": "symbol",
          "type": "bytes32"
        },
        {
          "indexed": false,
          "internalType": "uint256",
          "name": "amount",
          "type": "uint256"
        }
      ],
      "name": "UnWrap",
      "type": "event"
    },
    {
      "anonymous": false,
      "inputs": [
        {
          "indexed": true,
          "internalType": "address",
          "name": "to",
          "type": "address"
        },
        {
          "indexed": false,
          "internalType": "uint256",
          "name": "amount",
          "type": "uint256"
        }
      ],
      "name": "Wrap",
      "type": "event"
    },
    {
      "inputs": [],
      "name": "FEE_DIV_CONST",
      "outputs": [
        {
          "internalType": "uint24",
          "name": "",
          "type": "uint24"
        }
      ],
      "stateMutability": "view",
      "type": "function"
    },
    {
      "inputs": [],
      "name": "acceptOwner",
      "outputs": [],
      "stateMutability": "nonpayable",
      "type": "function"
    },
    {
      "inputs": [
        {
          "internalType": "uint256",
          "name": "number",
          "type": "uint256"
        },
        {
          "internalType": "uint8",
          "name": "newCount",
          "type": "uint8"
        }
      ],
      "name": "agreeCountProposal",
      "outputs": [],
      "stateMutability": "nonpayable",
      "type": "function"
    },
    {
      "inputs": [
        {
          "internalType": "uint256",
          "name": "number",
          "type": "uint256"
        },
        {
          "internalType": "int8",
          "name": "d",
          "type": "int8"
        },
        {
          "internalType": "address",
          "name": "signer",
          "type": "address"
        }
      ],
      "name": "agreeSignerProposal",
      "outputs": [],
      "stateMutability": "nonpayable",
      "type": "function"
    },
    {
      "inputs": [
        {
          "internalType": "address",
          "name": "",
          "type": "address"
        },
        {
          "internalType": "address",
          "name": "",
          "type": "address"
        }
      ],
      "name": "allowance",
      "outputs": [
        {
          "internalType": "uint256",
          "name": "",
          "type": "uint256"
        }
      ],
      "stateMutability": "view",
      "type": "function"
    },
    {
      "inputs": [
        {
          "internalType": "address",
          "name": "spender",
          "type": "address"
        },
        {
          "internalType": "uint256",
          "name": "value",
          "type": "uint256"
        }
      ],
      "name": "approve",
      "outputs": [
        {
          "internalType": "bool",
          "name": "",
          "type": "bool"
        }
      ],
      "stateMutability": "nonpayable",
      "type": "function"
    },
    {
      "inputs": [
        {
          "internalType": "address",
          "name": "",
          "type": "address"
        }
      ],
      "name": "balanceOf",
      "outputs": [
        {
          "internalType": "uint256",
          "name": "",
          "type": "uint256"
        }
      ],
      "stateMutability": "view",
      "type": "function"
    },
    {
      "inputs": [
        {
          "internalType": "uint256",
          "name": "",
          "type": "uint256"
        }
      ],
      "name": "countProposals",
      "outputs": [
        {
          "internalType": "uint8",
          "name": "newCount",
          "type": "uint8"
        },
        {
          "internalType": "uint8",
          "name": "agreedCount",
          "type": "uint8"
        },
        {
          "internalType": "uint256",
          "name": "overTime",
          "type": "uint256"
        }
      ],
      "stateMutability": "view",
      "type": "function"
    },
    {
      "inputs": [],
      "name": "decimals",
      "outputs": [
        {
          "internalType": "uint8",
          "name": "",
          "type": "uint8"
        }
      ],
      "stateMutability": "view",
      "type": "function"
    },
    {
      "inputs": [],
      "name": "feeRate",
      "outputs": [
        {
          "internalType": "uint24",
          "name": "",
          "type": "uint24"
        }
      ],
      "stateMutability": "view",
      "type": "function"
    },
    {
      "inputs": [],
      "name": "feeSum",
      "outputs": [
        {
          "internalType": "uint256",
          "name": "",
          "type": "uint256"
        }
      ],
      "stateMutability": "view",
      "type": "function"
    },
    {
      "inputs": [
        {
          "internalType": "uint256",
          "name": "",
          "type": "uint256"
        },
        {
          "internalType": "address",
          "name": "",
          "type": "address"
        }
      ],
      "name": "isCountProposalAgreed",
      "outputs": [
        {
          "internalType": "bool",
          "name": "",
          "type": "bool"
        }
      ],
      "stateMutability": "view",
      "type": "function"
    },
    {
      "inputs": [
        {
          "internalType": "uint256",
          "name": "",
          "type": "uint256"
        },
        {
          "internalType": "address",
          "name": "",
          "type": "address"
        }
      ],
      "name": "isSignerProposalAgreed",
      "outputs": [
        {
          "internalType": "bool",
          "name": "",
          "type": "bool"
        }
      ],
      "stateMutability": "view",
      "type": "function"
    },
    {
      "inputs": [],
      "name": "minUnWrapAmount",
      "outputs": [
        {
          "internalType": "uint256",
          "name": "",
          "type": "uint256"
        }
      ],
      "stateMutability": "view",
      "type": "function"
    },
    {
      "inputs": [],
      "name": "name",
      "outputs": [
        {
          "internalType": "string",
          "name": "",
          "type": "string"
        }
      ],
      "stateMutability": "view",
      "type": "function"
    },
    {
      "inputs": [],
      "name": "overTime",
      "outputs": [
        {
          "internalType": "uint256",
          "name": "",
          "type": "uint256"
        }
      ],
      "stateMutability": "view",
      "type": "function"
    },
    {
      "inputs": [],
      "name": "owner",
      "outputs": [
        {
          "internalType": "address",
          "name": "",
          "type": "address"
        }
      ],
      "stateMutability": "view",
      "type": "function"
    },
    {
      "inputs": [],
      "name": "requireCount",
      "outputs": [
        {
          "internalType": "uint8",
          "name": "",
          "type": "uint8"
        }
      ],
      "stateMutability": "view",
      "type": "function"
    },
    {
      "inputs": [
        {
          "internalType": "uint256",
          "name": "",
          "type": "uint256"
        }
      ],
      "name": "signerProposals",
      "outputs": [
        {
          "internalType": "int8",
          "name": "d",
          "type": "int8"
        },
        {
          "internalType": "address",
          "name": "signer",
          "type": "address"
        },
        {
          "internalType": "uint8",
          "name": "agreedCount",
          "type": "uint8"
        },
        {
          "internalType": "uint256",
          "name": "overTime",
          "type": "uint256"
        }
      ],
      "stateMutability": "view",
      "type": "function"
    },
    {
      "inputs": [
        {
          "internalType": "uint256",
          "name": "",
          "type": "uint256"
        }
      ],
      "name": "signers",
      "outputs": [
        {
          "internalType": "address",
          "name": "",
          "type": "address"
        }
      ],
      "stateMutability": "view",
      "type": "function"
    },
    {
      "inputs": [
        {
          "internalType": "uint8",
          "name": "newCount",
          "type": "uint8"
        }
      ],
      "name": "submitCountProposal",
      "outputs": [
        {
          "internalType": "uint256",
          "name": "",
          "type": "uint256"
        }
      ],
      "stateMutability": "nonpayable",
      "type": "function"
    },
    {
      "inputs": [
        {
          "internalType": "int8",
          "name": "d",
          "type": "int8"
        },
        {
          "internalType": "address",
          "name": "signer",
          "type": "address"
        }
      ],
      "name": "submitSignerProposal",
      "outputs": [
        {
          "internalType": "uint256",
          "name": "",
          "type": "uint256"
        }
      ],
      "stateMutability": "nonpayable",
      "type": "function"
    },
    {
      "inputs": [],
      "name": "symbol",
      "outputs": [
        {
          "internalType": "string",
          "name": "",
          "type": "string"
        }
      ],
      "stateMutability": "view",
      "type": "function"
    },
    {
      "inputs": [],
      "name": "totalSupply",
      "outputs": [
        {
          "internalType": "uint256",
          "name": "",
          "type": "uint256"
        }
      ],
      "stateMutability": "view",
      "type": "function"
    },
    {
      "inputs": [
        {
          "internalType": "address",
          "name": "to",
          "type": "address"
        },
        {
          "internalType": "uint256",
          "name": "value",
          "type": "uint256"
        }
      ],
      "name": "transfer",
      "outputs": [
        {
          "internalType": "bool",
          "name": "",
          "type": "bool"
        }
      ],
      "stateMutability": "nonpayable",
      "type": "function"
    },
    {
      "inputs": [
        {
          "internalType": "address",
          "name": "from",
          "type": "address"
        },
        {
          "internalType": "address",
          "name": "to",
          "type": "address"
        },
        {
          "internalType": "uint256",
          "name": "value",
          "type": "uint256"
        }
      ],
      "name": "transferFrom",
      "outputs": [
        {
          "internalType": "bool",
          "name": "",
          "type": "bool"
        }
      ],
      "stateMutability": "nonpayable",
      "type": "function"
    },
    {
      "inputs": [
        {
          "internalType": "address",
          "name": "_owner",
          "type": "address"
        }
      ],
      "name": "transferOwner",
      "outputs": [],
      "stateMutability": "nonpayable",
      "type": "function"
    },
    {
      "inputs": [
        {
          "internalType": "bytes32",
          "name": "to",
          "type": "bytes32"
        },
        {
          "internalType": "bytes32",
          "name": "symbol",
          "type": "bytes32"
        },
        {
          "internalType": "uint256",
          "name": "amount",
          "type": "uint256"
        }
      ],
      "name": "unWrap",
      "outputs": [],
      "stateMutability": "nonpayable",
      "type": "function"
    },
    {
      "inputs": [
        {
          "internalType": "bytes32",
          "name": "to",
          "type": "bytes32"
        },
        {
          "internalType": "bytes32",
          "name": "symbol",
          "type": "bytes32"
        },
        {
          "internalType": "uint256",
          "name": "fee",
          "type": "uint256"
        }
      ],
      "name": "unWrapFee",
      "outputs": [],
      "stateMutability": "nonpayable",
      "type": "function"
    },
    {
      "inputs": [
        {
          "internalType": "address",
          "name": "to",
          "type": "address"
        },
        {
          "internalType": "uint256",
          "name": "fee",
          "type": "uint256"
        }
      ],
      "name": "withdrawFee",
      "outputs": [],
      "stateMutability": "nonpayable",
      "type": "function"
    },
    {
      "inputs": [
        {
          "internalType": "bytes32",
          "name": "txid",
          "type": "bytes32"
        },
        {
          "internalType": "uint256",
          "name": "amount",
          "type": "uint256"
        },
        {
          "internalType": "address payable",
          "name": "to",
          "type": "address"
        }
      ],
      "name": "wrap",
      "outputs": [],
      "stateMutability": "nonpayable",
      "type": "function"
    }
  ],
  "bytecode": "0x60a06040523480156200001157600080fd5b506040516200443e3803806200443e83398181016040528101906200003791906200070c565b818187878782600090816200004d919062000a46565b5081600190816200005f919062000a46565b508060ff1660808160ff168152505050505060005b82518160ff1610156200022c57600060086000858460ff1681518110620000a0576200009f62000b2d565b5b602002602001015173ffffffffffffffffffffffffffffffffffffffff1673ffffffffffffffffffffffffffffffffffffffff16815260200190815260200160002060009054906101000a900460ff1660ff161480156200014e5750600073ffffffffffffffffffffffffffffffffffffffff16838260ff16815181106200012d576200012c62000b2d565b5b602002602001015173ffffffffffffffffffffffffffffffffffffffff1614155b62000190576040517f08c379a0000000000000000000000000000000000000000000000000000000008152600401620001879062000bbd565b60405180910390fd5b6001816200019f919062000c0e565b60086000858460ff1681518110620001bc57620001bb62000b2d565b5b602002602001015173ffffffffffffffffffffffffffffffffffffffff1673ffffffffffffffffffffffffffffffffffffffff16815260200190815260200160002060006101000a81548160ff021916908360ff1602179055508080620002239062000c4a565b91505062000074565b5081600790805190602001906200024592919062000312565b5060026007805490506200025a919062000ca7565b8160ff1611620002a1576040517f08c379a0000000000000000000000000000000000000000000000000000000008152600401620002989062000d2f565b60405180910390fd5b80600960006101000a81548160ff021916908360ff160217905550505033600560006101000a81548173ffffffffffffffffffffffffffffffffffffffff021916908373ffffffffffffffffffffffffffffffffffffffff16021790555082600f8190555050505050505062000d51565b8280548282559060005260206000209081019282156200038e579160200282015b828111156200038d5782518260006101000a81548173ffffffffffffffffffffffffffffffffffffffff021916908373ffffffffffffffffffffffffffffffffffffffff1602179055509160200191906001019062000333565b5b5090506200039d9190620003a1565b5090565b5b80821115620003bc576000816000905550600101620003a2565b5090565b6000604051905090565b600080fd5b600080fd5b600080fd5b600080fd5b6000601f19601f8301169050919050565b7f4e487b7100000000000000000000000000000000000000000000000000000000600052604160045260246000fd5b6200042982620003de565b810181811067ffffffffffffffff821117156200044b576200044a620003ef565b5b80604052505050565b600062000460620003c0565b90506200046e82826200041e565b919050565b600067ffffffffffffffff821115620004915762000490620003ef565b5b6200049c82620003de565b9050602081019050919050565b60005b83811015620004c9578082015181840152602081019050620004ac565b60008484015250505050565b6000620004ec620004e68462000473565b62000454565b9050828152602081018484840111156200050b576200050a620003d9565b5b62000518848285620004a9565b509392505050565b600082601f830112620005385762000537620003d4565b5b81516200054a848260208601620004d5565b91505092915050565b600060ff82169050919050565b6200056b8162000553565b81146200057757600080fd5b50565b6000815190506200058b8162000560565b92915050565b6000819050919050565b620005a68162000591565b8114620005b257600080fd5b50565b600081519050620005c6816200059b565b92915050565b600067ffffffffffffffff821115620005ea57620005e9620003ef565b5b602082029050602081019050919050565b600080fd5b600073ffffffffffffffffffffffffffffffffffffffff82169050919050565b60006200062d8262000600565b9050919050565b6200063f8162000620565b81146200064b57600080fd5b50565b6000815190506200065f8162000634565b92915050565b60006200067c6200067684620005cc565b62000454565b90508083825260208201905060208402830185811115620006a257620006a1620005fb565b5b835b81811015620006cf5780620006ba88826200064e565b845260208401935050602081019050620006a4565b5050509392505050565b600082601f830112620006f157620006f0620003d4565b5b81516200070384826020860162000665565b91505092915050565b60008060008060008060c087890312156200072c576200072b620003ca565b5b600087015167ffffffffffffffff8111156200074d576200074c620003cf565b5b6200075b89828a0162000520565b965050602087015167ffffffffffffffff8111156200077f576200077e620003cf565b5b6200078d89828a0162000520565b9550506040620007a089828a016200057a565b9450506060620007b389828a01620005b5565b935050608087015167ffffffffffffffff811115620007d757620007d6620003cf565b5b620007e589828a01620006d9565b92505060a0620007f889828a016200057a565b9150509295509295509295565b600081519050919050565b7f4e487b7100000000000000000000000000000000000000000000000000000000600052602260045260246000fd5b600060028204905060018216806200085857607f821691505b6020821081036200086e576200086d62000810565b5b50919050565b60008190508160005260206000209050919050565b60006020601f8301049050919050565b600082821b905092915050565b600060088302620008d87fffffffffffffffffffffffffffffffffffffffffffffffffffffffffffffffff8262000899565b620008e4868362000899565b95508019841693508086168417925050509392505050565b6000819050919050565b600062000927620009216200091b8462000591565b620008fc565b62000591565b9050919050565b6000819050919050565b620009438362000906565b6200095b62000952826200092e565b848454620008a6565b825550505050565b600090565b6200097262000963565b6200097f81848462000938565b505050565b5b81811015620009a7576200099b60008262000968565b60018101905062000985565b5050565b601f821115620009f657620009c08162000874565b620009cb8462000889565b81016020851015620009db578190505b620009f3620009ea8562000889565b83018262000984565b50505b505050565b600082821c905092915050565b600062000a1b60001984600802620009fb565b1980831691505092915050565b600062000a36838362000a08565b9150826002028217905092915050565b62000a518262000805565b67ffffffffffffffff81111562000a6d5762000a6c620003ef565b5b62000a7982546200083f565b62000a86828285620009ab565b600060209050601f83116001811462000abe576000841562000aa9578287015190505b62000ab5858262000a28565b86555062000b25565b601f19841662000ace8662000874565b60005b8281101562000af85784890151825560018201915060208501945060208101905062000ad1565b8683101562000b18578489015162000b14601f89168262000a08565b8355505b6001600288020188555050505b505050505050565b7f4e487b7100000000000000000000000000000000000000000000000000000000600052603260045260246000fd5b600082825260208201905092915050565b7f696e76616c6964206f72206475706c696361746564207369676e657200000000600082015250565b600062000ba5601c8362000b5c565b915062000bb28262000b6d565b602082019050919050565b6000602082019050818103600083015262000bd88162000b96565b9050919050565b7f4e487b7100000000000000000000000000000000000000000000000000000000600052601160045260246000fd5b600062000c1b8262000553565b915062000c288362000553565b9250828201905060ff81111562000c445762000c4362000bdf565b5b92915050565b600062000c578262000553565b915060ff820362000c6d5762000c6c62000bdf565b5b600182019050919050565b7f4e487b7100000000000000000000000000000000000000000000000000000000600052601260045260246000fd5b600062000cb48262000591565b915062000cc18362000591565b92508262000cd45762000cd362000c78565b5b828204905092915050565b7f746f6f20736d616c6c2072657175697265436f756e7400000000000000000000600082015250565b600062000d1760168362000b5c565b915062000d248262000cdf565b602082019050919050565b6000602082019050818103600083015262000d4a8162000d08565b9050919050565b6080516136d162000d6d6000396000610e8c01526136d16000f3fe608060405234801561001057600080fd5b50600436106101e55760003560e01c806395d89b411161010f578063daf36262116100a2578063ebbc496511610071578063ebbc4965146105d3578063ee6c829b146105dd578063fd9be5221461060f578063fe6931b71461062b576101e5565b8063daf3626214610539578063dd62ed3e14610557578063e019ca7c14610587578063ea047fee146105b7576101e5565b8063b44d4e5f116100de578063b44d4e5f1461049a578063bc2c1e77146104b8578063c34bc928146104d6578063cb1c8f6814610506576101e5565b806395d89b4114610410578063978bbdb91461042e5780639ca6ce121461044c578063a9059cbb1461046a576101e5565b806323b872dd116101875780636647c269116101565780636647c2691461038857806370a08231146103a457806383051fde146103d45780638da5cb5b146103f2576101e5565b806323b872dd146102ee57806323c92f241461031e578063313ce5671461034e5780634fb2e45d1461036c576101e5565b806318160ddd116101c357806318160ddd1461025457806318a922a7146102725780632079fb9a146102a257806321725178146102d2576101e5565b806306fdde03146101ea578063095ea7b3146102085780630f2c0f5d14610238575b600080fd5b6101f2610647565b6040516101ff919061293e565b60405180910390f35b610222600480360381019061021d91906129f9565b6106d5565b60405161022f9190612a54565b60405180910390f35b610252600480360381019061024d9190612aa5565b6106ec565b005b61025c6107e0565b6040516102699190612b07565b60405180910390f35b61028c60048036038101906102879190612b5b565b6107e6565b6040516102999190612b07565b60405180910390f35b6102bc60048036038101906102b79190612b9b565b610bac565b6040516102c99190612bd7565b60405180910390f35b6102ec60048036038101906102e79190612aa5565b610beb565b005b61030860048036038101906103039190612bf2565b610d0c565b6040516103159190612a54565b60405180910390f35b61033860048036038101906103339190612c45565b610e5b565b6040516103459190612a54565b60405180910390f35b610356610e8a565b6040516103639190612ca1565b60405180910390f35b61038660048036038101906103819190612cbc565b610eae565b005b6103a2600480360381019061039d9190612d15565b610f82565b005b6103be60048036038101906103b99190612cbc565b61124f565b6040516103cb9190612b07565b60405180910390f35b6103dc611267565b6040516103e99190612ca1565b60405180910390f35b6103fa61127a565b6040516104079190612bd7565b60405180910390f35b6104186112a0565b604051610425919061293e565b60405180910390f35b61043661132e565b6040516104439190612d73565b60405180910390f35b610454611334565b6040516104619190612d73565b60405180910390f35b610484600480360381019061047f91906129f9565b61133b565b6040516104919190612a54565b60405180910390f35b6104a2611352565b6040516104af9190612b07565b60405180910390f35b6104c0611358565b6040516104cd9190612b07565b60405180910390f35b6104f060048036038101906104eb9190612d8e565b61135f565b6040516104fd9190612b07565b60405180910390f35b610520600480360381019061051b9190612b9b565b6115b4565b6040516105309493929190612dca565b60405180910390f35b61054161161e565b60405161054e9190612b07565b60405180910390f35b610571600480360381019061056c9190612e0f565b611624565b60405161057e9190612b07565b60405180910390f35b6105a1600480360381019061059c9190612c45565b611649565b6040516105ae9190612a54565b60405180910390f35b6105d160048036038101906105cc9190612e8d565b611678565b005b6105db611c5d565b005b6105f760048036038101906105f29190612b9b565b611d94565b60405161060693929190612ee0565b60405180910390f35b610629600480360381019061062491906129f9565b611dd8565b005b61064560048036038101906106409190612f17565b611e8f565b005b6000805461065490612f99565b80601f016020809104026020016040519081016040528092919081815260200182805461068090612f99565b80156106cd5780601f106106a2576101008083540402835291602001916106cd565b820191906000526020600020905b8154815290600101906020018083116106b057829003601f168201915b505050505081565b60006106e23384846124fb565b6001905092915050565b600f54811015610731576040517f08c379a000000000000000000000000000000000000000000000000000000000815260040161072890613016565b60405180910390fd5b61073b33826125e6565b6000620186a062ffffff166103e862ffffff16836107599190613065565b61076391906130d6565b905080600e60008282546107779190613107565b92505081905550833373ffffffffffffffffffffffffffffffffffffffff167f87a89f1cee7e883b59eca58c135072a63ce587ee1e3f72279d6fd24f2bce25f88584866107c4919061313b565b6040516107d292919061317e565b60405180910390a350505050565b60025481565b600080600860003373ffffffffffffffffffffffffffffffffffffffff1673ffffffffffffffffffffffffffffffffffffffff16815260200190815260200160002060009054906101000a900460ff1660ff1611610879576040517f08c379a0000000000000000000000000000000000000000000000000000000008152600401610870906131f3565b60405180910390fd5b6000600a600043815260200190815260200160002060000160009054906101000a900460000b60000b146108e2576040517f08c379a00000000000000000000000000000000000000000000000000000000081526004016108d99061325f565b60405180910390fd5b7fffffffffffffffffffffffffffffffffffffffffffffffffffffffffffffffff8360000b036109a3576000600860008473ffffffffffffffffffffffffffffffffffffffff1673ffffffffffffffffffffffffffffffffffffffff16815260200190815260200160002060009054906101000a900460ff1660ff161161099e576040517f08c379a0000000000000000000000000000000000000000000000000000000008152600401610995906132cb565b60405180910390fd5b610a42565b60018360000b03610a41576000600860008473ffffffffffffffffffffffffffffffffffffffff1673ffffffffffffffffffffffffffffffffffffffff16815260200190815260200160002060009054906101000a900460ff1660ff1614610a40576040517f08c379a0000000000000000000000000000000000000000000000000000000008152600401610a3790613337565b60405180910390fd5b5b5b60405180608001604052808460000b81526020018373ffffffffffffffffffffffffffffffffffffffff168152602001600160ff1681526020016201518042610a8b9190613107565b815250600a600043815260200190815260200160002060008201518160000160006101000a81548160ff021916908360000b60ff16021790555060208201518160000160016101000a81548173ffffffffffffffffffffffffffffffffffffffff021916908373ffffffffffffffffffffffffffffffffffffffff16021790555060408201518160000160156101000a81548160ff021916908360ff160217905550606082015181600101559050506001600b600043815260200190815260200160002060003373ffffffffffffffffffffffffffffffffffffffff1673ffffffffffffffffffffffffffffffffffffffff16815260200190815260200160002060006101000a81548160ff02191690831515021790555043905092915050565b60078181548110610bbc57600080fd5b906000526020600020016000915054906101000a900473ffffffffffffffffffffffffffffffffffffffff1681565b600560009054906101000a900473ffffffffffffffffffffffffffffffffffffffff1673ffffffffffffffffffffffffffffffffffffffff163373ffffffffffffffffffffffffffffffffffffffff1614610c7b576040517f08c379a0000000000000000000000000000000000000000000000000000000008152600401610c72906133a3565b60405180910390fd5b80600e6000828254610c8d919061313b565b9250508190555082600560009054906101000a900473ffffffffffffffffffffffffffffffffffffffff1673ffffffffffffffffffffffffffffffffffffffff167f87a89f1cee7e883b59eca58c135072a63ce587ee1e3f72279d6fd24f2bce25f88484604051610cff92919061317e565b60405180910390a3505050565b60007fffffffffffffffffffffffffffffffffffffffffffffffffffffffffffffffff600460008673ffffffffffffffffffffffffffffffffffffffff1673ffffffffffffffffffffffffffffffffffffffff16815260200190815260200160002060003373ffffffffffffffffffffffffffffffffffffffff1673ffffffffffffffffffffffffffffffffffffffff1681526020019081526020016000205414610e455781600460008673ffffffffffffffffffffffffffffffffffffffff1673ffffffffffffffffffffffffffffffffffffffff16815260200190815260200160002060003373ffffffffffffffffffffffffffffffffffffffff1673ffffffffffffffffffffffffffffffffffffffff1681526020019081526020016000206000828254610e3d919061313b565b925050819055505b610e508484846126bf565b600190509392505050565b600b6020528160005260406000206020528060005260406000206000915091509054906101000a900460ff1681565b7f000000000000000000000000000000000000000000000000000000000000000081565b600560009054906101000a900473ffffffffffffffffffffffffffffffffffffffff1673ffffffffffffffffffffffffffffffffffffffff163373ffffffffffffffffffffffffffffffffffffffff1614610f3e576040517f08c379a0000000000000000000000000000000000000000000000000000000008152600401610f35906133a3565b60405180910390fd5b80600660006101000a81548173ffffffffffffffffffffffffffffffffffffffff021916908373ffffffffffffffffffffffffffffffffffffffff16021790555050565b6000600860003373ffffffffffffffffffffffffffffffffffffffff1673ffffffffffffffffffffffffffffffffffffffff16815260200190815260200160002060009054906101000a900460ff1660ff1611611014576040517f08c379a000000000000000000000000000000000000000000000000000000000815260040161100b906131f3565b60405180910390fd5b8060ff16600c600084815260200190815260200160002060000160009054906101000a900460ff1660ff16148015611062575042600c60008481526020019081526020016000206001015410155b6110a1576040517f08c379a00000000000000000000000000000000000000000000000000000000081526004016110989061340f565b60405180910390fd5b600d600083815260200190815260200160002060003373ffffffffffffffffffffffffffffffffffffffff1673ffffffffffffffffffffffffffffffffffffffff16815260200190815260200160002060009054906101000a900460ff166111b9576001600d600084815260200190815260200160002060003373ffffffffffffffffffffffffffffffffffffffff1673ffffffffffffffffffffffffffffffffffffffff16815260200190815260200160002060006101000a81548160ff021916908315150217905550600c6000838152602001908152602001600020600001600181819054906101000a900460ff168092919061119f9061342f565b91906101000a81548160ff021916908360ff160217905550505b600960009054906101000a900460ff1660ff16600c600084815260200190815260200160002060000160019054906101000a900460ff1660ff161061124b5780600960006101000a81548160ff021916908360ff1602179055507f971ed33ab126ac4c0a07a18b84ed2990cde2ae87b25cd5009c84e7e5c9c8cffd816040516112429190612ca1565b60405180910390a15b5050565b60036020528060005260406000206000915090505481565b600960009054906101000a900460ff1681565b600560009054906101000a900473ffffffffffffffffffffffffffffffffffffffff1681565b600180546112ad90612f99565b80601f01602080910402602001604051908101604052809291908181526020018280546112d990612f99565b80156113265780601f106112fb57610100808354040283529160200191611326565b820191906000526020600020905b81548152906001019060200180831161130957829003601f168201915b505050505081565b6103e881565b620186a081565b60006113483384846126bf565b6001905092915050565b600e5481565b6201518081565b600080600860003373ffffffffffffffffffffffffffffffffffffffff1673ffffffffffffffffffffffffffffffffffffffff16815260200190815260200160002060009054906101000a900460ff1660ff16116113f2576040517f08c379a00000000000000000000000000000000000000000000000000000000081526004016113e9906131f3565b60405180910390fd5b6000600c600043815260200190815260200160002060000160009054906101000a900460ff1660ff161461145b576040517f08c379a00000000000000000000000000000000000000000000000000000000081526004016114529061325f565b60405180910390fd5b600260078054905061146d91906130d6565b8260ff16116114b1576040517f08c379a00000000000000000000000000000000000000000000000000000000081526004016114a8906134a4565b60405180910390fd5b60405180606001604052808360ff168152602001600160ff16815260200162015180426114de9190613107565b815250600c600043815260200190815260200160002060008201518160000160006101000a81548160ff021916908360ff16021790555060208201518160000160016101000a81548160ff021916908360ff160217905550604082015181600101559050506001600d600043815260200190815260200160002060003373ffffffffffffffffffffffffffffffffffffffff1673ffffffffffffffffffffffffffffffffffffffff16815260200190815260200160002060006101000a81548160ff021916908315150217905550439050919050565b600a6020528060005260406000206000915090508060000160009054906101000a900460000b908060000160019054906101000a900473ffffffffffffffffffffffffffffffffffffffff16908060000160159054906101000a900460ff16908060010154905084565b600f5481565b6004602052816000526040600020602052806000526040600020600091509150505481565b600d6020528160005260406000206020528060005260406000206000915091509054906101000a900460ff1681565b6000600860003373ffffffffffffffffffffffffffffffffffffffff1673ffffffffffffffffffffffffffffffffffffffff16815260200190815260200160002060009054906101000a900460ff1660ff161161170a576040517f08c379a0000000000000000000000000000000000000000000000000000000008152600401611701906131f3565b60405180910390fd5b6010600084815260200190815260200160002060010160159054906101000a900460ff161561176e576040517f08c379a000000000000000000000000000000000000000000000000000000000815260040161176590613510565b60405180910390fd5b601160003373ffffffffffffffffffffffffffffffffffffffff1673ffffffffffffffffffffffffffffffffffffffff168152602001908152602001600020600084815260200190815260200160002060009054906101000a900460ff161561180c576040517f08c379a00000000000000000000000000000000000000000000000000000000081526004016118039061357c565b60405180910390fd5b600073ffffffffffffffffffffffffffffffffffffffff166010600085815260200190815260200160002060010160009054906101000a900473ffffffffffffffffffffffffffffffffffffffff1673ffffffffffffffffffffffffffffffffffffffff16036119615760405180608001604052808381526020018273ffffffffffffffffffffffffffffffffffffffff168152602001600060ff16815260200160001515815250601060008581526020019081526020016000206000820151816000015560208201518160010160006101000a81548173ffffffffffffffffffffffffffffffffffffffff021916908373ffffffffffffffffffffffffffffffffffffffff16021790555060408201518160010160146101000a81548160ff021916908360ff16021790555060608201518160010160156101000a81548160ff021916908315150217905550905050611a27565b8160106000858152602001908152602001600020600001541480156119e757508073ffffffffffffffffffffffffffffffffffffffff166010600085815260200190815260200160002060010160009054906101000a900473ffffffffffffffffffffffffffffffffffffffff1673ffffffffffffffffffffffffffffffffffffffff16145b611a26576040517f08c379a0000000000000000000000000000000000000000000000000000000008152600401611a1d906135e8565b60405180910390fd5b5b601160003373ffffffffffffffffffffffffffffffffffffffff1673ffffffffffffffffffffffffffffffffffffffff168152602001908152602001600020600084815260200190815260200160002060009054906101000a900460ff16611b3f576001601160003373ffffffffffffffffffffffffffffffffffffffff1673ffffffffffffffffffffffffffffffffffffffff168152602001908152602001600020600085815260200190815260200160002060006101000a81548160ff02191690831515021790555060106000848152602001908152602001600020600101601481819054906101000a900460ff1680929190611b259061342f565b91906101000a81548160ff021916908360ff160217905550505b600960009054906101000a900460ff1660ff166010600085815260200190815260200160002060010160149054906101000a900460ff1660ff1610611c585760016010600085815260200190815260200160002060010160156101000a81548160ff0219169083151502179055506000620186a062ffffff166103e862ffffff1684611bcb9190613065565b611bd591906130d6565b905080600e6000828254611be99190613107565b925050819055508083611bfc919061313b565b9250611c0882846127d5565b8173ffffffffffffffffffffffffffffffffffffffff167fb61d00fdfee32467c7d81db64c811ae60c104c346debf36a14afe84b8fce59e584604051611c4e9190612b07565b60405180910390a2505b505050565b600660009054906101000a900473ffffffffffffffffffffffffffffffffffffffff1673ffffffffffffffffffffffffffffffffffffffff163373ffffffffffffffffffffffffffffffffffffffff1614611ced576040517f08c379a0000000000000000000000000000000000000000000000000000000008152600401611ce4906133a3565b60405180910390fd5b600660009054906101000a900473ffffffffffffffffffffffffffffffffffffffff16600560006101000a81548173ffffffffffffffffffffffffffffffffffffffff021916908373ffffffffffffffffffffffffffffffffffffffff1602179055506000600660006101000a81548173ffffffffffffffffffffffffffffffffffffffff021916908373ffffffffffffffffffffffffffffffffffffffff160217905550565b600c6020528060005260406000206000915090508060000160009054906101000a900460ff16908060000160019054906101000a900460ff16908060010154905083565b600560009054906101000a900473ffffffffffffffffffffffffffffffffffffffff1673ffffffffffffffffffffffffffffffffffffffff163373ffffffffffffffffffffffffffffffffffffffff1614611e68576040517f08c379a0000000000000000000000000000000000000000000000000000000008152600401611e5f906133a3565b60405180910390fd5b80600e6000828254611e7a919061313b565b92505081905550611e8b82826127d5565b5050565b6000600860003373ffffffffffffffffffffffffffffffffffffffff1673ffffffffffffffffffffffffffffffffffffffff16815260200190815260200160002060009054906101000a900460ff1660ff1611611f21576040517f08c379a0000000000000000000000000000000000000000000000000000000008152600401611f18906131f3565b60405180910390fd5b8160000b600a600085815260200190815260200160002060000160009054906101000a900460000b60000b148015611fba57508073ffffffffffffffffffffffffffffffffffffffff16600a600085815260200190815260200160002060000160019054906101000a900473ffffffffffffffffffffffffffffffffffffffff1673ffffffffffffffffffffffffffffffffffffffff16145b8015611fdc575042600a60008581526020019081526020016000206001015410155b61201b576040517f08c379a00000000000000000000000000000000000000000000000000000000081526004016120129061340f565b60405180910390fd5b600b600084815260200190815260200160002060003373ffffffffffffffffffffffffffffffffffffffff1673ffffffffffffffffffffffffffffffffffffffff16815260200190815260200160002060009054906101000a900460ff16612133576001600b600085815260200190815260200160002060003373ffffffffffffffffffffffffffffffffffffffff1673ffffffffffffffffffffffffffffffffffffffff16815260200190815260200160002060006101000a81548160ff021916908315150217905550600a6000848152602001908152602001600020600001601581819054906101000a900460ff16809291906121199061342f565b91906101000a81548160ff021916908360ff160217905550505b600960009054906101000a900460ff1660ff16600a600085815260200190815260200160002060000160159054906101000a900460ff1660ff16106124f65760018260000b03612285576007819080600181540180825580915050600190039060005260206000200160009091909190916101000a81548173ffffffffffffffffffffffffffffffffffffffff021916908373ffffffffffffffffffffffffffffffffffffffff160217905550600780549050600860008373ffffffffffffffffffffffffffffffffffffffff1673ffffffffffffffffffffffffffffffffffffffff16815260200190815260200160002060006101000a81548160ff021916908360ff1602179055508073ffffffffffffffffffffffffffffffffffffffff167f8191ca9d665b824fc53160f3727e7ec3a5330e4a67e1db6c4a86678956dfef1960405160405180910390a26124f5565b7fffffffffffffffffffffffffffffffffffffffffffffffffffffffffffffffff8260000b036124f4576000600860008373ffffffffffffffffffffffffffffffffffffffff1673ffffffffffffffffffffffffffffffffffffffff16815260200190815260200160002060009054906101000a900460ff169050600060076001600780549050612316919061313b565b8154811061232757612326613608565b5b9060005260206000200160009054906101000a900473ffffffffffffffffffffffffffffffffffffffff1690508060076001846123649190613637565b60ff168154811061237857612377613608565b5b9060005260206000200160006101000a81548173ffffffffffffffffffffffffffffffffffffffff021916908373ffffffffffffffffffffffffffffffffffffffff16021790555081600860008373ffffffffffffffffffffffffffffffffffffffff1673ffffffffffffffffffffffffffffffffffffffff16815260200190815260200160002060006101000a81548160ff021916908360ff160217905550600860008473ffffffffffffffffffffffffffffffffffffffff1673ffffffffffffffffffffffffffffffffffffffff16815260200190815260200160002060006101000a81549060ff021916905560078054806124795761247861366c565b5b6001900381819060005260206000200160006101000a81549073ffffffffffffffffffffffffffffffffffffffff021916905590558273ffffffffffffffffffffffffffffffffffffffff167fa2a6e2b8f0cf0f627456034557b0149227a355af53f5bc8ce7e496bfbe73c0a960405160405180910390a250505b5b5b505050565b80600460008573ffffffffffffffffffffffffffffffffffffffff1673ffffffffffffffffffffffffffffffffffffffff16815260200190815260200160002060008473ffffffffffffffffffffffffffffffffffffffff1673ffffffffffffffffffffffffffffffffffffffff168152602001908152602001600020819055508173ffffffffffffffffffffffffffffffffffffffff168373ffffffffffffffffffffffffffffffffffffffff167f8c5be1e5ebec7d5bd14f71427d1e84f3dd0314c0f7b2291e5b200ac8c7c3b925836040516125d99190612b07565b60405180910390a3505050565b80600360008473ffffffffffffffffffffffffffffffffffffffff1673ffffffffffffffffffffffffffffffffffffffff1681526020019081526020016000206000828254612635919061313b565b92505081905550806002600082825461264e919061313b565b92505081905550600073ffffffffffffffffffffffffffffffffffffffff168273ffffffffffffffffffffffffffffffffffffffff167fddf252ad1be2c89b69c2b068fc378daa952ba7f163c4a11628f55a4df523b3ef836040516126b39190612b07565b60405180910390a35050565b80600360008573ffffffffffffffffffffffffffffffffffffffff1673ffffffffffffffffffffffffffffffffffffffff168152602001908152602001600020600082825461270e919061313b565b9250508190555080600360008473ffffffffffffffffffffffffffffffffffffffff1673ffffffffffffffffffffffffffffffffffffffff16815260200190815260200160002060008282546127649190613107565b925050819055508173ffffffffffffffffffffffffffffffffffffffff168373ffffffffffffffffffffffffffffffffffffffff167fddf252ad1be2c89b69c2b068fc378daa952ba7f163c4a11628f55a4df523b3ef836040516127c89190612b07565b60405180910390a3505050565b80600260008282546127e79190613107565b9250508190555080600360008473ffffffffffffffffffffffffffffffffffffffff1673ffffffffffffffffffffffffffffffffffffffff168152602001908152602001600020600082825461283d9190613107565b925050819055508173ffffffffffffffffffffffffffffffffffffffff16600073ffffffffffffffffffffffffffffffffffffffff167fddf252ad1be2c89b69c2b068fc378daa952ba7f163c4a11628f55a4df523b3ef836040516128a29190612b07565b60405180910390a35050565b600081519050919050565b600082825260208201905092915050565b60005b838110156128e85780820151818401526020810190506128cd565b60008484015250505050565b6000601f19601f8301169050919050565b6000612910826128ae565b61291a81856128b9565b935061292a8185602086016128ca565b612933816128f4565b840191505092915050565b600060208201905081810360008301526129588184612905565b905092915050565b600080fd5b600073ffffffffffffffffffffffffffffffffffffffff82169050919050565b600061299082612965565b9050919050565b6129a081612985565b81146129ab57600080fd5b50565b6000813590506129bd81612997565b92915050565b6000819050919050565b6129d6816129c3565b81146129e157600080fd5b50565b6000813590506129f3816129cd565b92915050565b60008060408385031215612a1057612a0f612960565b5b6000612a1e858286016129ae565b9250506020612a2f858286016129e4565b9150509250929050565b60008115159050919050565b612a4e81612a39565b82525050565b6000602082019050612a696000830184612a45565b92915050565b6000819050919050565b612a8281612a6f565b8114612a8d57600080fd5b50565b600081359050612a9f81612a79565b92915050565b600080600060608486031215612abe57612abd612960565b5b6000612acc86828701612a90565b9350506020612add86828701612a90565b9250506040612aee868287016129e4565b9150509250925092565b612b01816129c3565b82525050565b6000602082019050612b1c6000830184612af8565b92915050565b60008160000b9050919050565b612b3881612b22565b8114612b4357600080fd5b50565b600081359050612b5581612b2f565b92915050565b60008060408385031215612b7257612b71612960565b5b6000612b8085828601612b46565b9250506020612b91858286016129ae565b9150509250929050565b600060208284031215612bb157612bb0612960565b5b6000612bbf848285016129e4565b91505092915050565b612bd181612985565b82525050565b6000602082019050612bec6000830184612bc8565b92915050565b600080600060608486031215612c0b57612c0a612960565b5b6000612c19868287016129ae565b9350506020612c2a868287016129ae565b9250506040612c3b868287016129e4565b9150509250925092565b60008060408385031215612c5c57612c5b612960565b5b6000612c6a858286016129e4565b9250506020612c7b858286016129ae565b9150509250929050565b600060ff82169050919050565b612c9b81612c85565b82525050565b6000602082019050612cb66000830184612c92565b92915050565b600060208284031215612cd257612cd1612960565b5b6000612ce0848285016129ae565b91505092915050565b612cf281612c85565b8114612cfd57600080fd5b50565b600081359050612d0f81612ce9565b92915050565b60008060408385031215612d2c57612d2b612960565b5b6000612d3a858286016129e4565b9250506020612d4b85828601612d00565b9150509250929050565b600062ffffff82169050919050565b612d6d81612d55565b82525050565b6000602082019050612d886000830184612d64565b92915050565b600060208284031215612da457612da3612960565b5b6000612db284828501612d00565b91505092915050565b612dc481612b22565b82525050565b6000608082019050612ddf6000830187612dbb565b612dec6020830186612bc8565b612df96040830185612c92565b612e066060830184612af8565b95945050505050565b60008060408385031215612e2657612e25612960565b5b6000612e34858286016129ae565b9250506020612e45858286016129ae565b9150509250929050565b6000612e5a82612965565b9050919050565b612e6a81612e4f565b8114612e7557600080fd5b50565b600081359050612e8781612e61565b92915050565b600080600060608486031215612ea657612ea5612960565b5b6000612eb486828701612a90565b9350506020612ec5868287016129e4565b9250506040612ed686828701612e78565b9150509250925092565b6000606082019050612ef56000830186612c92565b612f026020830185612c92565b612f0f6040830184612af8565b949350505050565b600080600060608486031215612f3057612f2f612960565b5b6000612f3e868287016129e4565b9350506020612f4f86828701612b46565b9250506040612f60868287016129ae565b9150509250925092565b7f4e487b7100000000000000000000000000000000000000000000000000000000600052602260045260246000fd5b60006002820490506001821680612fb157607f821691505b602082108103612fc457612fc3612f6a565b5b50919050565b7f616d6f756e74206c6f7700000000000000000000000000000000000000000000600082015250565b6000613000600a836128b9565b915061300b82612fca565b602082019050919050565b6000602082019050818103600083015261302f81612ff3565b9050919050565b7f4e487b7100000000000000000000000000000000000000000000000000000000600052601160045260246000fd5b6000613070826129c3565b915061307b836129c3565b9250828202613089816129c3565b915082820484148315176130a05761309f613036565b5b5092915050565b7f4e487b7100000000000000000000000000000000000000000000000000000000600052601260045260246000fd5b60006130e1826129c3565b91506130ec836129c3565b9250826130fc576130fb6130a7565b5b828204905092915050565b6000613112826129c3565b915061311d836129c3565b925082820190508082111561313557613134613036565b5b92915050565b6000613146826129c3565b9150613151836129c3565b925082820390508181111561316957613168613036565b5b92915050565b61317881612a6f565b82525050565b6000604082019050613193600083018561316f565b6131a06020830184612af8565b9392505050565b7f6e6f74207369676e657200000000000000000000000000000000000000000000600082015250565b60006131dd600a836128b9565b91506131e8826131a7565b602082019050919050565b6000602082019050818103600083015261320c816131d0565b9050919050565b7f65786973742070726f706f73616c000000000000000000000000000000000000600082015250565b6000613249600e836128b9565b915061325482613213565b602082019050919050565b600060208201905081810360008301526132788161323c565b9050919050565b7f61646472657373206e6f74206578697374000000000000000000000000000000600082015250565b60006132b56011836128b9565b91506132c08261327f565b602082019050919050565b600060208201905081810360008301526132e4816132a8565b9050919050565b7f6164647265737320657869737400000000000000000000000000000000000000600082015250565b6000613321600d836128b9565b915061332c826132eb565b602082019050919050565b6000602082019050818103600083015261335081613314565b9050919050565b7f666f7262696464656e0000000000000000000000000000000000000000000000600082015250565b600061338d6009836128b9565b915061339882613357565b602082019050919050565b600060208201905081810360008301526133bc81613380565b9050919050565b7f6d69736d61746368000000000000000000000000000000000000000000000000600082015250565b60006133f96008836128b9565b9150613404826133c3565b602082019050919050565b60006020820190508181036000830152613428816133ec565b9050919050565b600061343a82612c85565b915060ff820361344d5761344c613036565b5b600182019050919050565b7f636f756e7420746f6f20736d616c6c0000000000000000000000000000000000600082015250565b600061348e600f836128b9565b915061349982613458565b602082019050919050565b600060208201905081810360008301526134bd81613481565b9050919050565b7f777261707065642066696e697368656400000000000000000000000000000000600082015250565b60006134fa6010836128b9565b9150613505826134c4565b602082019050919050565b60006020820190508181036000830152613529816134ed565b9050919050565b7f73656e6465722077726170706564000000000000000000000000000000000000600082015250565b6000613566600e836128b9565b915061357182613530565b602082019050919050565b6000602082019050818103600083015261359581613559565b9050919050565b7f696e76616c696420777261700000000000000000000000000000000000000000600082015250565b60006135d2600c836128b9565b91506135dd8261359c565b602082019050919050565b60006020820190508181036000830152613601816135c5565b9050919050565b7f4e487b7100000000000000000000000000000000000000000000000000000000600052603260045260246000fd5b600061364282612c85565b915061364d83612c85565b9250828203905060ff81111561366657613665613036565b5b92915050565b7f4e487b7100000000000000000000000000000000000000000000000000000000600052603160045260246000fdfea2646970667358221220c3d94e641b8d8e4bd7dd305b8db28ee9564ca962f1cfd7f1f44a7231255229cd64736f6c63430008110033",
  "linkReferences": {},
  "deployedLinkReferences": {}
}