{
  "_format": "hh-sol-artifact-1",
  "contractName": "BridgeWrap",
  "sourceName": "contracts/wrap.sol",
  "abi": [
    {
      "inputs": [
        {
          "internalType": "string",
          "name": "_name",
          "type": "string"
        },
        {
          "internalType": "string",
          "name": "_symbol",
          "type": "string"
        },
        {
          "internalType": "uint8",
          "name": "_decimal",
          "type": "uint8"
        },
        {
          "internalType": "uint256",
          "name": "_gasFee",
          "type": "uint256"
        },
        {
          "internalType": "uint256",
          "name": "gasFeeUpper",
          "type": "uint256"
        },
        {
          "internalType": "uint256",
          "name": "_minUnwrapAmount",
          "type": "uint256"
        },
        {
          "internalType": "address[]",
          "name": "_signers",
          "type": "address[]"
        },
        {
          "internalType": "uint8",
          "name": "_requireCount",
          "type": "uint8"
        }
      ],
      "stateMutability": "nonpayable",
      "type": "constructor"
    },
    {
      "anonymous": false,
      "inputs": [
        {
          "indexed": true,
          "internalType": "address",
          "name": "owner",
          "type": "address"
        },
        {
          "indexed": true,
          "internalType": "address",
          "name": "spender",
          "type": "address"
        },
        {
          "indexed": false,
          "internalType": "uint256",
          "name": "value",
          "type": "uint256"
        }
      ],
      "name": "Approval",
      "type": "event"
    },
    {
      "anonymous": false,
      "inputs": [
        {
          "indexed": false,
          "internalType": "uint8",
          "name": "changeRequireCount",
          "type": "uint8"
        }
      ],
      "name": "ChangeRequireCount",
      "type": "event"
    },
    {
      "anonymous": false,
      "inputs": [
        {
          "indexed": true,
          "internalType": "address",
          "name": "signer",
          "type": "address"
        }
      ],
      "name": "SignerAddition",
      "type": "event"
    },
    {
      "anonymous": false,
      "inputs": [
        {
          "indexed": true,
          "internalType": "address",
          "name": "signer",
          "type": "address"
        }
      ],
      "name": "SignerRemoval",
      "type": "event"
    },
    {
      "anonymous": false,
      "inputs": [
        {
          "indexed": true,
          "internalType": "address",
          "name": "from",
          "type": "address"
        },
        {
          "indexed": true,
          "internalType": "address",
          "name": "to",
          "type": "address"
        },
        {
          "indexed": false,
          "internalType": "uint256",
          "name": "value",
          "type": "uint256"
        }
      ],
      "name": "Transfer",
      "type": "event"
    },
    {
      "anonymous": false,
      "inputs": [
        {
          "indexed": true,
          "internalType": "address",
          "name": "from",
          "type": "address"
        },
        {
          "indexed": true,
          "internalType": "bytes32",
          "name": "to",
          "type": "bytes32"
        },
        {
          "indexed": false,
          "internalType": "bytes32",
          "name": "symbol",
          "type": "bytes32"
        },
        {
          "indexed": false,
          "internalType": "uint256",
          "name": "amount",
          "type": "uint256"
        }
      ],
      "name": "UnWrap",
      "type": "event"
    },
    {
      "anonymous": false,
      "inputs": [
        {
          "indexed": true,
          "internalType": "address",
          "name": "to",
          "type": "address"
        },
        {
          "indexed": false,
          "internalType": "uint256",
          "name": "amount",
          "type": "uint256"
        }
      ],
      "name": "Wrap",
      "type": "event"
    },
    {
      "inputs": [],
      "name": "FEE_DIV_CONST",
      "outputs": [
        {
          "internalType": "uint24",
          "name": "",
          "type": "uint24"
        }
      ],
      "stateMutability": "view",
      "type": "function"
    },
    {
      "inputs": [],
      "name": "GAS_FEE_UPPER",
      "outputs": [
        {
          "internalType": "uint256",
          "name": "",
          "type": "uint256"
        }
      ],
      "stateMutability": "view",
      "type": "function"
    },
    {
      "inputs": [],
      "name": "acceptOwner",
      "outputs": [],
      "stateMutability": "nonpayable",
      "type": "function"
    },
    {
      "inputs": [
        {
          "internalType": "uint256",
          "name": "number",
          "type": "uint256"
        },
        {
          "internalType": "uint8",
          "name": "newCount",
          "type": "uint8"
        }
      ],
      "name": "agreeCountProposal",
      "outputs": [],
      "stateMutability": "nonpayable",
      "type": "function"
    },
    {
      "inputs": [
        {
          "internalType": "uint256",
          "name": "number",
          "type": "uint256"
        },
        {
          "internalType": "int8",
          "name": "d",
          "type": "int8"
        },
        {
          "internalType": "address",
          "name": "signer",
          "type": "address"
        }
      ],
      "name": "agreeSignerProposal",
      "outputs": [],
      "stateMutability": "nonpayable",
      "type": "function"
    },
    {
      "inputs": [
        {
          "internalType": "address",
          "name": "",
          "type": "address"
        },
        {
          "internalType": "address",
          "name": "",
          "type": "address"
        }
      ],
      "name": "allowance",
      "outputs": [
        {
          "internalType": "uint256",
          "name": "",
          "type": "uint256"
        }
      ],
      "stateMutability": "view",
      "type": "function"
    },
    {
      "inputs": [
        {
          "internalType": "address",
          "name": "spender",
          "type": "address"
        },
        {
          "internalType": "uint256",
          "name": "value",
          "type": "uint256"
        }
      ],
      "name": "approve",
      "outputs": [
        {
          "internalType": "bool",
          "name": "",
          "type": "bool"
        }
      ],
      "stateMutability": "nonpayable",
      "type": "function"
    },
    {
      "inputs": [
        {
          "internalType": "address",
          "name": "",
          "type": "address"
        }
      ],
      "name": "balanceOf",
      "outputs": [
        {
          "internalType": "uint256",
          "name": "",
          "type": "uint256"
        }
      ],
      "stateMutability": "view",
      "type": "function"
    },
    {
      "inputs": [
        {
          "internalType": "uint256",
          "name": "",
          "type": "uint256"
        }
      ],
      "name": "countProposals",
      "outputs": [
        {
          "internalType": "uint8",
          "name": "newCount",
          "type": "uint8"
        },
        {
          "internalType": "uint8",
          "name": "agreedCount",
          "type": "uint8"
        },
        {
          "internalType": "uint256",
          "name": "overTime",
          "type": "uint256"
        }
      ],
      "stateMutability": "view",
      "type": "function"
    },
    {
      "inputs": [],
      "name": "decimals",
      "outputs": [
        {
          "internalType": "uint8",
          "name": "",
          "type": "uint8"
        }
      ],
      "stateMutability": "view",
      "type": "function"
    },
    {
      "inputs": [],
      "name": "feeRate",
      "outputs": [
        {
          "internalType": "uint24",
          "name": "",
          "type": "uint24"
        }
      ],
      "stateMutability": "view",
      "type": "function"
    },
    {
      "inputs": [],
      "name": "feeSum",
      "outputs": [
        {
          "internalType": "uint256",
          "name": "",
          "type": "uint256"
        }
      ],
      "stateMutability": "view",
      "type": "function"
    },
    {
      "inputs": [],
      "name": "gasFee",
      "outputs": [
        {
          "internalType": "uint256",
          "name": "",
          "type": "uint256"
        }
      ],
      "stateMutability": "view",
      "type": "function"
    },
    {
      "inputs": [
        {
          "internalType": "uint256",
          "name": "",
          "type": "uint256"
        },
        {
          "internalType": "address",
          "name": "",
          "type": "address"
        }
      ],
      "name": "isCountProposalAgreed",
      "outputs": [
        {
          "internalType": "bool",
          "name": "",
          "type": "bool"
        }
      ],
      "stateMutability": "view",
      "type": "function"
    },
    {
      "inputs": [
        {
          "internalType": "uint256",
          "name": "",
          "type": "uint256"
        },
        {
          "internalType": "address",
          "name": "",
          "type": "address"
        }
      ],
      "name": "isSignerProposalAgreed",
      "outputs": [
        {
          "internalType": "bool",
          "name": "",
          "type": "bool"
        }
      ],
      "stateMutability": "view",
      "type": "function"
    },
    {
      "inputs": [
        {
          "internalType": "address",
          "name": "",
          "type": "address"
        },
        {
          "internalType": "bytes32",
          "name": "",
          "type": "bytes32"
        }
      ],
      "name": "isWrapped",
      "outputs": [
        {
          "internalType": "bool",
          "name": "",
          "type": "bool"
        }
      ],
      "stateMutability": "view",
      "type": "function"
    },
    {
      "inputs": [],
      "name": "minUnwrapAmount",
      "outputs": [
        {
          "internalType": "uint256",
          "name": "",
          "type": "uint256"
        }
      ],
      "stateMutability": "view",
      "type": "function"
    },
    {
      "inputs": [],
      "name": "name",
      "outputs": [
        {
          "internalType": "string",
          "name": "",
          "type": "string"
        }
      ],
      "stateMutability": "view",
      "type": "function"
    },
    {
      "inputs": [],
      "name": "overTime",
      "outputs": [
        {
          "internalType": "uint256",
          "name": "",
          "type": "uint256"
        }
      ],
      "stateMutability": "view",
      "type": "function"
    },
    {
      "inputs": [],
      "name": "owner",
      "outputs": [
        {
          "internalType": "address",
          "name": "",
          "type": "address"
        }
      ],
      "stateMutability": "view",
      "type": "function"
    },
    {
      "inputs": [],
      "name": "requireCount",
      "outputs": [
        {
          "internalType": "uint8",
          "name": "",
          "type": "uint8"
        }
      ],
      "stateMutability": "view",
      "type": "function"
    },
    {
      "inputs": [
        {
          "internalType": "uint256",
          "name": "newGasFee",
          "type": "uint256"
        }
      ],
      "name": "setGasFee",
      "outputs": [],
      "stateMutability": "nonpayable",
      "type": "function"
    },
    {
      "inputs": [
        {
          "internalType": "uint256",
          "name": "",
          "type": "uint256"
        }
      ],
      "name": "signerProposals",
      "outputs": [
        {
          "internalType": "int8",
          "name": "d",
          "type": "int8"
        },
        {
          "internalType": "address",
          "name": "signer",
          "type": "address"
        },
        {
          "internalType": "uint8",
          "name": "agreedCount",
          "type": "uint8"
        },
        {
          "internalType": "uint256",
          "name": "overTime",
          "type": "uint256"
        }
      ],
      "stateMutability": "view",
      "type": "function"
    },
    {
      "inputs": [
        {
          "internalType": "uint256",
          "name": "",
          "type": "uint256"
        }
      ],
      "name": "signers",
      "outputs": [
        {
          "internalType": "address",
          "name": "",
          "type": "address"
        }
      ],
      "stateMutability": "view",
      "type": "function"
    },
    {
      "inputs": [
        {
          "internalType": "uint8",
          "name": "newCount",
          "type": "uint8"
        }
      ],
      "name": "submitCountProposal",
      "outputs": [
        {
          "internalType": "uint256",
          "name": "",
          "type": "uint256"
        }
      ],
      "stateMutability": "nonpayable",
      "type": "function"
    },
    {
      "inputs": [
        {
          "internalType": "int8",
          "name": "d",
          "type": "int8"
        },
        {
          "internalType": "address",
          "name": "signer",
          "type": "address"
        }
      ],
      "name": "submitSignerProposal",
      "outputs": [
        {
          "internalType": "uint256",
          "name": "",
          "type": "uint256"
        }
      ],
      "stateMutability": "nonpayable",
      "type": "function"
    },
    {
      "inputs": [],
      "name": "symbol",
      "outputs": [
        {
          "internalType": "string",
          "name": "",
          "type": "string"
        }
      ],
      "stateMutability": "view",
      "type": "function"
    },
    {
      "inputs": [],
      "name": "totalSupply",
      "outputs": [
        {
          "internalType": "uint256",
          "name": "",
          "type": "uint256"
        }
      ],
      "stateMutability": "view",
      "type": "function"
    },
    {
      "inputs": [
        {
          "internalType": "address",
          "name": "to",
          "type": "address"
        },
        {
          "internalType": "uint256",
          "name": "value",
          "type": "uint256"
        }
      ],
      "name": "transfer",
      "outputs": [
        {
          "internalType": "bool",
          "name": "",
          "type": "bool"
        }
      ],
      "stateMutability": "nonpayable",
      "type": "function"
    },
    {
      "inputs": [
        {
          "internalType": "address",
          "name": "from",
          "type": "address"
        },
        {
          "internalType": "address",
          "name": "to",
          "type": "address"
        },
        {
          "internalType": "uint256",
          "name": "value",
          "type": "uint256"
        }
      ],
      "name": "transferFrom",
      "outputs": [
        {
          "internalType": "bool",
          "name": "",
          "type": "bool"
        }
      ],
      "stateMutability": "nonpayable",
      "type": "function"
    },
    {
      "inputs": [
        {
          "internalType": "address",
          "name": "_owner",
          "type": "address"
        }
      ],
      "name": "transferOwner",
      "outputs": [],
      "stateMutability": "nonpayable",
      "type": "function"
    },
    {
      "inputs": [
        {
          "internalType": "bytes32",
          "name": "to",
          "type": "bytes32"
        },
        {
          "internalType": "bytes32",
          "name": "symbol",
          "type": "bytes32"
        },
        {
          "internalType": "uint256",
          "name": "amount",
          "type": "uint256"
        }
      ],
      "name": "unWrap",
      "outputs": [],
      "stateMutability": "nonpayable",
      "type": "function"
    },
    {
      "inputs": [
        {
          "internalType": "bytes32",
          "name": "to",
          "type": "bytes32"
        },
        {
          "internalType": "bytes32",
          "name": "symbol",
          "type": "bytes32"
        },
        {
          "internalType": "uint256",
          "name": "fee",
          "type": "uint256"
        }
      ],
      "name": "unWrapFee",
      "outputs": [],
      "stateMutability": "nonpayable",
      "type": "function"
    },
    {
      "inputs": [
        {
          "internalType": "address",
          "name": "to",
          "type": "address"
        },
        {
          "internalType": "uint256",
          "name": "fee",
          "type": "uint256"
        }
      ],
      "name": "withdrawFee",
      "outputs": [],
      "stateMutability": "nonpayable",
      "type": "function"
    },
    {
      "inputs": [
        {
          "internalType": "bytes32",
          "name": "txid",
          "type": "bytes32"
        },
        {
          "internalType": "uint256",
          "name": "amount",
          "type": "uint256"
        },
        {
          "internalType": "address",
          "name": "to",
          "type": "address"
        }
      ],
      "name": "wrap",
      "outputs": [],
      "stateMutability": "nonpayable",
      "type": "function"
    },
    {
      "inputs": [
        {
          "internalType": "bytes32",
          "name": "",
          "type": "bytes32"
        }
      ],
      "name": "wraps",
      "outputs": [
        {
          "internalType": "uint256",
          "name": "amount",
          "type": "uint256"
        },
        {
          "internalType": "address",
          "name": "to",
          "type": "address"
        },
        {
          "internalType": "uint8",
          "name": "requiredCount",
          "type": "uint8"
        },
        {
          "internalType": "bool",
          "name": "sent",
          "type": "bool"
        }
      ],
      "stateMutability": "view",
      "type": "function"
    }
  ],
  "bytecode": "0x60e06040523480156200001157600080fd5b50604051620049533803806200495383398181016040528101906200003791906200071e565b818189898982600090816200004d919062000a85565b5081600190816200005f919062000a85565b508060ff1660808160ff168152505050505060005b82518160ff1610156200022c57600060086000858460ff1681518110620000a0576200009f62000b6c565b5b602002602001015173ffffffffffffffffffffffffffffffffffffffff1673ffffffffffffffffffffffffffffffffffffffff16815260200190815260200160002060009054906101000a900460ff1660ff161480156200014e5750600073ffffffffffffffffffffffffffffffffffffffff16838260ff16815181106200012d576200012c62000b6c565b5b602002602001015173ffffffffffffffffffffffffffffffffffffffff1614155b62000190576040517f08c379a0000000000000000000000000000000000000000000000000000000008152600401620001879062000bfc565b60405180910390fd5b6001816200019f919062000c4d565b60086000858460ff1681518110620001bc57620001bb62000b6c565b5b602002602001015173ffffffffffffffffffffffffffffffffffffffff1673ffffffffffffffffffffffffffffffffffffffff16815260200190815260200160002060006101000a81548160ff021916908360ff1602179055508080620002239062000c89565b91505062000074565b5081600790805190602001906200024592919062000324565b5060026007805490506200025a919062000ce6565b8160ff1611620002a1576040517f08c379a0000000000000000000000000000000000000000000000000000000008152600401620002989062000d6e565b60405180910390fd5b80600960006101000a81548160ff021916908360ff160217905550505033600560006101000a81548173ffffffffffffffffffffffffffffffffffffffff021916908373ffffffffffffffffffffffffffffffffffffffff16021790555084600e819055508360a081815250508260c08181525050505050505050505062000d90565b828054828255906000526020600020908101928215620003a0579160200282015b828111156200039f5782518260006101000a81548173ffffffffffffffffffffffffffffffffffffffff021916908373ffffffffffffffffffffffffffffffffffffffff1602179055509160200191906001019062000345565b5b509050620003af9190620003b3565b5090565b5b80821115620003ce576000816000905550600101620003b4565b5090565b6000604051905090565b600080fd5b600080fd5b600080fd5b600080fd5b6000601f19601f8301169050919050565b7f4e487b7100000000000000000000000000000000000000000000000000000000600052604160045260246000fd5b6200043b82620003f0565b810181811067ffffffffffffffff821117156200045d576200045c62000401565b5b80604052505050565b600062000472620003d2565b905062000480828262000430565b919050565b600067ffffffffffffffff821115620004a357620004a262000401565b5b620004ae82620003f0565b9050602081019050919050565b60005b83811015620004db578082015181840152602081019050620004be565b60008484015250505050565b6000620004fe620004f88462000485565b62000466565b9050828152602081018484840111156200051d576200051c620003eb565b5b6200052a848285620004bb565b509392505050565b600082601f8301126200054a5762000549620003e6565b5b81516200055c848260208601620004e7565b91505092915050565b600060ff82169050919050565b6200057d8162000565565b81146200058957600080fd5b50565b6000815190506200059d8162000572565b92915050565b6000819050919050565b620005b881620005a3565b8114620005c457600080fd5b50565b600081519050620005d881620005ad565b92915050565b600067ffffffffffffffff821115620005fc57620005fb62000401565b5b602082029050602081019050919050565b600080fd5b600073ffffffffffffffffffffffffffffffffffffffff82169050919050565b60006200063f8262000612565b9050919050565b620006518162000632565b81146200065d57600080fd5b50565b600081519050620006718162000646565b92915050565b60006200068e6200068884620005de565b62000466565b90508083825260208201905060208402830185811115620006b457620006b36200060d565b5b835b81811015620006e15780620006cc888262000660565b845260208401935050602081019050620006b6565b5050509392505050565b600082601f830112620007035762000702620003e6565b5b81516200071584826020860162000677565b91505092915050565b600080600080600080600080610100898b031215620007425762000741620003dc565b5b600089015167ffffffffffffffff811115620007635762000762620003e1565b5b620007718b828c0162000532565b985050602089015167ffffffffffffffff811115620007955762000794620003e1565b5b620007a38b828c0162000532565b9750506040620007b68b828c016200058c565b9650506060620007c98b828c01620005c7565b9550506080620007dc8b828c01620005c7565b94505060a0620007ef8b828c01620005c7565b93505060c089015167ffffffffffffffff811115620008135762000812620003e1565b5b620008218b828c01620006eb565b92505060e0620008348b828c016200058c565b9150509295985092959890939650565b600081519050919050565b7f4e487b7100000000000000000000000000000000000000000000000000000000600052602260045260246000fd5b600060028204905060018216806200089757607f821691505b602082108103620008ad57620008ac6200084f565b5b50919050565b60008190508160005260206000209050919050565b60006020601f8301049050919050565b600082821b905092915050565b600060088302620009177fffffffffffffffffffffffffffffffffffffffffffffffffffffffffffffffff82620008d8565b620009238683620008d8565b95508019841693508086168417925050509392505050565b6000819050919050565b600062000966620009606200095a84620005a3565b6200093b565b620005a3565b9050919050565b6000819050919050565b620009828362000945565b6200099a62000991826200096d565b848454620008e5565b825550505050565b600090565b620009b1620009a2565b620009be81848462000977565b505050565b5b81811015620009e657620009da600082620009a7565b600181019050620009c4565b5050565b601f82111562000a3557620009ff81620008b3565b62000a0a84620008c8565b8101602085101562000a1a578190505b62000a3262000a2985620008c8565b830182620009c3565b50505b505050565b600082821c905092915050565b600062000a5a6000198460080262000a3a565b1980831691505092915050565b600062000a75838362000a47565b9150826002028217905092915050565b62000a908262000844565b67ffffffffffffffff81111562000aac5762000aab62000401565b5b62000ab882546200087e565b62000ac5828285620009ea565b600060209050601f83116001811462000afd576000841562000ae8578287015190505b62000af4858262000a67565b86555062000b64565b601f19841662000b0d86620008b3565b60005b8281101562000b375784890151825560018201915060208501945060208101905062000b10565b8683101562000b57578489015162000b53601f89168262000a47565b8355505b6001600288020188555050505b505050505050565b7f4e487b7100000000000000000000000000000000000000000000000000000000600052603260045260246000fd5b600082825260208201905092915050565b7f696e76616c6964206f72206475706c696361746564207369676e657200000000600082015250565b600062000be4601c8362000b9b565b915062000bf18262000bac565b602082019050919050565b6000602082019050818103600083015262000c178162000bd5565b9050919050565b7f4e487b7100000000000000000000000000000000000000000000000000000000600052601160045260246000fd5b600062000c5a8262000565565b915062000c678362000565565b9250828201905060ff81111562000c835762000c8262000c1e565b5b92915050565b600062000c968262000565565b915060ff820362000cac5762000cab62000c1e565b5b600182019050919050565b7f4e487b7100000000000000000000000000000000000000000000000000000000600052601260045260246000fd5b600062000cf382620005a3565b915062000d0083620005a3565b92508262000d135762000d1262000cb7565b5b828204905092915050565b7f746f6f20736d616c6c2072657175697265436f756e7400000000000000000000600082015250565b600062000d5660168362000b9b565b915062000d638262000d1e565b602082019050919050565b6000602082019050818103600083015262000d898162000d47565b9050919050565b60805160a05160c051613b8562000dce600039600081816108b1015261158501526000818161106e01526114ed015260006110920152613b856000f3fe608060405234801561001057600080fd5b506004361061021c5760003560e01c8063878e0b3b11610125578063cb1c8f68116100ad578063ea047fee1161007c578063ea047fee146106a9578063ebbc4965146106c5578063ee6c829b146106cf578063fd9be52214610701578063fe6931b71461071d5761021c565b8063cb1c8f68146105e6578063dd62ed3e14610619578063e019ca7c14610649578063e2700488146106795761021c565b80639ca6ce12116100f45780639ca6ce121461052c578063a9059cbb1461054a578063b44d4e5f1461057a578063bc2c1e7714610598578063c34bc928146105b65761021c565b8063878e0b3b146104b45780638da5cb5b146104d257806395d89b41146104f0578063978bbdb91461050e5761021c565b806323c92f24116101a8578063658612e911610177578063658612e9146104105780636647c2691461042e578063678edca31461044a57806370a082311461046657806383051fde146104965761021c565b806323c92f24146103885780632d430a14146103b8578063313ce567146103d65780634fb2e45d146103f45761021c565b806318160ddd116101ef57806318160ddd146102be57806318a922a7146102dc5780632079fb9a1461030c578063217251781461033c57806323b872dd146103585761021c565b806306fdde0314610221578063092e239f1461023f578063095ea7b3146102725780630f2c0f5d146102a2575b600080fd5b610229610739565b6040516102369190612ca6565b60405180910390f35b61025960048036038101906102549190612d03565b6107c7565b6040516102699493929190612dc1565b60405180910390f35b61028c60048036038101906102879190612e5e565b610831565b6040516102999190612e9e565b60405180910390f35b6102bc60048036038101906102b79190612eb9565b610848565b005b6102c6610969565b6040516102d39190612f0c565b60405180910390f35b6102f660048036038101906102f19190612f60565b61096f565b6040516103039190612f0c565b60405180910390f35b61032660048036038101906103219190612fa0565b610d8e565b6040516103339190612fcd565b60405180910390f35b61035660048036038101906103519190612eb9565b610dcd565b005b610372600480360381019061036d9190612fe8565b610eee565b60405161037f9190612e9e565b60405180910390f35b6103a2600480360381019061039d919061303b565b61103d565b6040516103af9190612e9e565b60405180910390f35b6103c061106c565b6040516103cd9190612f0c565b60405180910390f35b6103de611090565b6040516103eb919061307b565b60405180910390f35b61040e60048036038101906104099190613096565b6110b4565b005b610418611188565b6040516104259190612f0c565b60405180910390f35b610448600480360381019061044391906130ef565b61118e565b005b610464600480360381019061045f9190612fa0565b61145b565b005b610480600480360381019061047b9190613096565b611558565b60405161048d9190612f0c565b60405180910390f35b61049e611570565b6040516104ab919061307b565b60405180910390f35b6104bc611583565b6040516104c99190612f0c565b60405180910390f35b6104da6115a7565b6040516104e79190612fcd565b60405180910390f35b6104f86115cd565b6040516105059190612ca6565b60405180910390f35b61051661165b565b604051610523919061314d565b60405180910390f35b610534611660565b604051610541919061314d565b60405180910390f35b610564600480360381019061055f9190612e5e565b611667565b6040516105719190612e9e565b60405180910390f35b61058261167e565b60405161058f9190612f0c565b60405180910390f35b6105a0611684565b6040516105ad9190612f0c565b60405180910390f35b6105d060048036038101906105cb9190613168565b61168b565b6040516105dd9190612f0c565b60405180910390f35b61060060048036038101906105fb9190612fa0565b6118f4565b60405161061094939291906131a4565b60405180910390f35b610633600480360381019061062e91906131e9565b61195e565b6040516106409190612f0c565b60405180910390f35b610663600480360381019061065e919061303b565b611983565b6040516106709190612e9e565b60405180910390f35b610693600480360381019061068e9190613229565b6119b2565b6040516106a09190612e9e565b60405180910390f35b6106c360048036038101906106be9190613269565b6119e1565b005b6106cd611fc5565b005b6106e960048036038101906106e49190612fa0565b6120fc565b6040516106f8939291906132bc565b60405180910390f35b61071b60048036038101906107169190612e5e565b612140565b005b610737600480360381019061073291906132f3565b6121f7565b005b6000805461074690613375565b80601f016020809104026020016040519081016040528092919081815260200182805461077290613375565b80156107bf5780601f10610794576101008083540402835291602001916107bf565b820191906000526020600020905b8154815290600101906020018083116107a257829003601f168201915b505050505081565b60106020528060005260406000206000915090508060000154908060010160009054906101000a900473ffffffffffffffffffffffffffffffffffffffff16908060010160149054906101000a900460ff16908060010160159054906101000a900460ff16905084565b600061083e338484612863565b6001905092915050565b610852338261294e565b6000600e54620186a062ffffff1660c862ffffff168461087291906133d5565b61087c9190613446565b6108869190613477565b905080600f600082825461089a9190613477565b9250508190555080826108ad91906134ab565b91507f0000000000000000000000000000000000000000000000000000000000000000821015610912576040517f08c379a00000000000000000000000000000000000000000000000000000000081526004016109099061352b565b60405180910390fd5b833373ffffffffffffffffffffffffffffffffffffffff167f87a89f1cee7e883b59eca58c135072a63ce587ee1e3f72279d6fd24f2bce25f8858560405161095b92919061355a565b60405180910390a350505050565b60025481565b600080600860003373ffffffffffffffffffffffffffffffffffffffff1673ffffffffffffffffffffffffffffffffffffffff16815260200190815260200160002060009054906101000a900460ff1660ff1611610a02576040517f08c379a00000000000000000000000000000000000000000000000000000000081526004016109f9906135cf565b60405180910390fd5b6000600a600043815260200190815260200160002060000160009054906101000a900460000b60000b14610a6b576040517f08c379a0000000000000000000000000000000000000000000000000000000008152600401610a629061363b565b60405180910390fd5b7fffffffffffffffffffffffffffffffffffffffffffffffffffffffffffffffff8360000b03610b85576000600860008473ffffffffffffffffffffffffffffffffffffffff1673ffffffffffffffffffffffffffffffffffffffff16815260200190815260200160002060009054906101000a900460ff1660ff1611610b27576040517f08c379a0000000000000000000000000000000000000000000000000000000008152600401610b1e906136a7565b60405180910390fd5b600780549050600960009054906101000a900460ff1660ff1610610b80576040517f08c379a0000000000000000000000000000000000000000000000000000000008152600401610b7790613713565b60405180910390fd5b610c24565b60018360000b03610c23576000600860008473ffffffffffffffffffffffffffffffffffffffff1673ffffffffffffffffffffffffffffffffffffffff16815260200190815260200160002060009054906101000a900460ff1660ff1614610c22576040517f08c379a0000000000000000000000000000000000000000000000000000000008152600401610c199061377f565b60405180910390fd5b5b5b60405180608001604052808460000b81526020018373ffffffffffffffffffffffffffffffffffffffff168152602001600160ff1681526020016201518042610c6d9190613477565b815250600a600043815260200190815260200160002060008201518160000160006101000a81548160ff021916908360000b60ff16021790555060208201518160000160016101000a81548173ffffffffffffffffffffffffffffffffffffffff021916908373ffffffffffffffffffffffffffffffffffffffff16021790555060408201518160000160156101000a81548160ff021916908360ff160217905550606082015181600101559050506001600b600043815260200190815260200160002060003373ffffffffffffffffffffffffffffffffffffffff1673ffffffffffffffffffffffffffffffffffffffff16815260200190815260200160002060006101000a81548160ff02191690831515021790555043905092915050565b60078181548110610d9e57600080fd5b906000526020600020016000915054906101000a900473ffffffffffffffffffffffffffffffffffffffff1681565b600560009054906101000a900473ffffffffffffffffffffffffffffffffffffffff1673ffffffffffffffffffffffffffffffffffffffff163373ffffffffffffffffffffffffffffffffffffffff1614610e5d576040517f08c379a0000000000000000000000000000000000000000000000000000000008152600401610e54906137eb565b60405180910390fd5b80600f6000828254610e6f91906134ab565b9250508190555082600560009054906101000a900473ffffffffffffffffffffffffffffffffffffffff1673ffffffffffffffffffffffffffffffffffffffff167f87a89f1cee7e883b59eca58c135072a63ce587ee1e3f72279d6fd24f2bce25f88484604051610ee192919061355a565b60405180910390a3505050565b60007fffffffffffffffffffffffffffffffffffffffffffffffffffffffffffffffff600460008673ffffffffffffffffffffffffffffffffffffffff1673ffffffffffffffffffffffffffffffffffffffff16815260200190815260200160002060003373ffffffffffffffffffffffffffffffffffffffff1673ffffffffffffffffffffffffffffffffffffffff16815260200190815260200160002054146110275781600460008673ffffffffffffffffffffffffffffffffffffffff1673ffffffffffffffffffffffffffffffffffffffff16815260200190815260200160002060003373ffffffffffffffffffffffffffffffffffffffff1673ffffffffffffffffffffffffffffffffffffffff168152602001908152602001600020600082825461101f91906134ab565b925050819055505b611032848484612a27565b600190509392505050565b600b6020528160005260406000206020528060005260406000206000915091509054906101000a900460ff1681565b7f000000000000000000000000000000000000000000000000000000000000000081565b7f000000000000000000000000000000000000000000000000000000000000000081565b600560009054906101000a900473ffffffffffffffffffffffffffffffffffffffff1673ffffffffffffffffffffffffffffffffffffffff163373ffffffffffffffffffffffffffffffffffffffff1614611144576040517f08c379a000000000000000000000000000000000000000000000000000000000815260040161113b906137eb565b60405180910390fd5b80600660006101000a81548173ffffffffffffffffffffffffffffffffffffffff021916908373ffffffffffffffffffffffffffffffffffffffff16021790555050565b600e5481565b6000600860003373ffffffffffffffffffffffffffffffffffffffff1673ffffffffffffffffffffffffffffffffffffffff16815260200190815260200160002060009054906101000a900460ff1660ff1611611220576040517f08c379a0000000000000000000000000000000000000000000000000000000008152600401611217906135cf565b60405180910390fd5b8060ff16600c600084815260200190815260200160002060000160009054906101000a900460ff1660ff1614801561126e575042600c60008481526020019081526020016000206001015410155b6112ad576040517f08c379a00000000000000000000000000000000000000000000000000000000081526004016112a490613857565b60405180910390fd5b600d600083815260200190815260200160002060003373ffffffffffffffffffffffffffffffffffffffff1673ffffffffffffffffffffffffffffffffffffffff16815260200190815260200160002060009054906101000a900460ff166113c5576001600d600084815260200190815260200160002060003373ffffffffffffffffffffffffffffffffffffffff1673ffffffffffffffffffffffffffffffffffffffff16815260200190815260200160002060006101000a81548160ff021916908315150217905550600c6000838152602001908152602001600020600001600181819054906101000a900460ff16809291906113ab90613877565b91906101000a81548160ff021916908360ff160217905550505b600960009054906101000a900460ff1660ff16600c600084815260200190815260200160002060000160019054906101000a900460ff1660ff16106114575780600960006101000a81548160ff021916908360ff1602179055507f971ed33ab126ac4c0a07a18b84ed2990cde2ae87b25cd5009c84e7e5c9c8cffd8160405161144e919061307b565b60405180910390a15b5050565b600560009054906101000a900473ffffffffffffffffffffffffffffffffffffffff1673ffffffffffffffffffffffffffffffffffffffff163373ffffffffffffffffffffffffffffffffffffffff16146114eb576040517f08c379a00000000000000000000000000000000000000000000000000000000081526004016114e2906137eb565b60405180910390fd5b7f000000000000000000000000000000000000000000000000000000000000000081111561154e576040517f08c379a0000000000000000000000000000000000000000000000000000000008152600401611545906138ec565b60405180910390fd5b80600e8190555050565b60036020528060005260406000206000915090505481565b600960009054906101000a900460ff1681565b7f000000000000000000000000000000000000000000000000000000000000000081565b600560009054906101000a900473ffffffffffffffffffffffffffffffffffffffff1681565b600180546115da90613375565b80601f016020809104026020016040519081016040528092919081815260200182805461160690613375565b80156116535780601f1061162857610100808354040283529160200191611653565b820191906000526020600020905b81548152906001019060200180831161163657829003601f168201915b505050505081565b60c881565b620186a081565b6000611674338484612a27565b6001905092915050565b600f5481565b6201518081565b600080600860003373ffffffffffffffffffffffffffffffffffffffff1673ffffffffffffffffffffffffffffffffffffffff16815260200190815260200160002060009054906101000a900460ff1660ff161161171e576040517f08c379a0000000000000000000000000000000000000000000000000000000008152600401611715906135cf565b60405180910390fd5b6000600c600043815260200190815260200160002060000160009054906101000a900460ff1660ff1614611787576040517f08c379a000000000000000000000000000000000000000000000000000000000815260040161177e9061363b565b60405180910390fd5b60026007805490506117999190613446565b8260ff161180156117b257506007805490508260ff1611155b6117f1576040517f08c379a00000000000000000000000000000000000000000000000000000000081526004016117e890613958565b60405180910390fd5b60405180606001604052808360ff168152602001600160ff168152602001620151804261181e9190613477565b815250600c600043815260200190815260200160002060008201518160000160006101000a81548160ff021916908360ff16021790555060208201518160000160016101000a81548160ff021916908360ff160217905550604082015181600101559050506001600d600043815260200190815260200160002060003373ffffffffffffffffffffffffffffffffffffffff1673ffffffffffffffffffffffffffffffffffffffff16815260200190815260200160002060006101000a81548160ff021916908315150217905550439050919050565b600a6020528060005260406000206000915090508060000160009054906101000a900460000b908060000160019054906101000a900473ffffffffffffffffffffffffffffffffffffffff16908060000160159054906101000a900460ff16908060010154905084565b6004602052816000526040600020602052806000526040600020600091509150505481565b600d6020528160005260406000206020528060005260406000206000915091509054906101000a900460ff1681565b60116020528160005260406000206020528060005260406000206000915091509054906101000a900460ff1681565b6000600860003373ffffffffffffffffffffffffffffffffffffffff1673ffffffffffffffffffffffffffffffffffffffff16815260200190815260200160002060009054906101000a900460ff1660ff1611611a73576040517f08c379a0000000000000000000000000000000000000000000000000000000008152600401611a6a906135cf565b60405180910390fd5b6010600084815260200190815260200160002060010160159054906101000a900460ff1615611ad7576040517f08c379a0000000000000000000000000000000000000000000000000000000008152600401611ace906139c4565b60405180910390fd5b601160003373ffffffffffffffffffffffffffffffffffffffff1673ffffffffffffffffffffffffffffffffffffffff168152602001908152602001600020600084815260200190815260200160002060009054906101000a900460ff1615611b75576040517f08c379a0000000000000000000000000000000000000000000000000000000008152600401611b6c90613a30565b60405180910390fd5b600073ffffffffffffffffffffffffffffffffffffffff166010600085815260200190815260200160002060010160009054906101000a900473ffffffffffffffffffffffffffffffffffffffff1673ffffffffffffffffffffffffffffffffffffffff1603611cca5760405180608001604052808381526020018273ffffffffffffffffffffffffffffffffffffffff168152602001600060ff16815260200160001515815250601060008581526020019081526020016000206000820151816000015560208201518160010160006101000a81548173ffffffffffffffffffffffffffffffffffffffff021916908373ffffffffffffffffffffffffffffffffffffffff16021790555060408201518160010160146101000a81548160ff021916908360ff16021790555060608201518160010160156101000a81548160ff021916908315150217905550905050611d90565b816010600085815260200190815260200160002060000154148015611d5057508073ffffffffffffffffffffffffffffffffffffffff166010600085815260200190815260200160002060010160009054906101000a900473ffffffffffffffffffffffffffffffffffffffff1673ffffffffffffffffffffffffffffffffffffffff16145b611d8f576040517f08c379a0000000000000000000000000000000000000000000000000000000008152600401611d8690613a9c565b60405180910390fd5b5b601160003373ffffffffffffffffffffffffffffffffffffffff1673ffffffffffffffffffffffffffffffffffffffff168152602001908152602001600020600084815260200190815260200160002060009054906101000a900460ff16611ea8576001601160003373ffffffffffffffffffffffffffffffffffffffff1673ffffffffffffffffffffffffffffffffffffffff168152602001908152602001600020600085815260200190815260200160002060006101000a81548160ff02191690831515021790555060106000848152602001908152602001600020600101601481819054906101000a900460ff1680929190611e8e90613877565b91906101000a81548160ff021916908360ff160217905550505b600960009054906101000a900460ff1660ff166010600085815260200190815260200160002060010160149054906101000a900460ff1660ff1610611fc05760016010600085815260200190815260200160002060010160156101000a81548160ff0219169083151502179055506000620186a062ffffff1660c862ffffff1684611f3391906133d5565b611f3d9190613446565b905080600f6000828254611f519190613477565b925050819055508083611f6491906134ab565b9250611f708284612b3d565b8173ffffffffffffffffffffffffffffffffffffffff167fb61d00fdfee32467c7d81db64c811ae60c104c346debf36a14afe84b8fce59e584604051611fb69190612f0c565b60405180910390a2505b505050565b600660009054906101000a900473ffffffffffffffffffffffffffffffffffffffff1673ffffffffffffffffffffffffffffffffffffffff163373ffffffffffffffffffffffffffffffffffffffff1614612055576040517f08c379a000000000000000000000000000000000000000000000000000000000815260040161204c906137eb565b60405180910390fd5b600660009054906101000a900473ffffffffffffffffffffffffffffffffffffffff16600560006101000a81548173ffffffffffffffffffffffffffffffffffffffff021916908373ffffffffffffffffffffffffffffffffffffffff1602179055506000600660006101000a81548173ffffffffffffffffffffffffffffffffffffffff021916908373ffffffffffffffffffffffffffffffffffffffff160217905550565b600c6020528060005260406000206000915090508060000160009054906101000a900460ff16908060000160019054906101000a900460ff16908060010154905083565b600560009054906101000a900473ffffffffffffffffffffffffffffffffffffffff1673ffffffffffffffffffffffffffffffffffffffff163373ffffffffffffffffffffffffffffffffffffffff16146121d0576040517f08c379a00000000000000000000000000000000000000000000000000000000081526004016121c7906137eb565b60405180910390fd5b80600f60008282546121e291906134ab565b925050819055506121f38282612b3d565b5050565b6000600860003373ffffffffffffffffffffffffffffffffffffffff1673ffffffffffffffffffffffffffffffffffffffff16815260200190815260200160002060009054906101000a900460ff1660ff1611612289576040517f08c379a0000000000000000000000000000000000000000000000000000000008152600401612280906135cf565b60405180910390fd5b8160000b600a600085815260200190815260200160002060000160009054906101000a900460000b60000b14801561232257508073ffffffffffffffffffffffffffffffffffffffff16600a600085815260200190815260200160002060000160019054906101000a900473ffffffffffffffffffffffffffffffffffffffff1673ffffffffffffffffffffffffffffffffffffffff16145b8015612344575042600a60008581526020019081526020016000206001015410155b612383576040517f08c379a000000000000000000000000000000000000000000000000000000000815260040161237a90613857565b60405180910390fd5b600b600084815260200190815260200160002060003373ffffffffffffffffffffffffffffffffffffffff1673ffffffffffffffffffffffffffffffffffffffff16815260200190815260200160002060009054906101000a900460ff1661249b576001600b600085815260200190815260200160002060003373ffffffffffffffffffffffffffffffffffffffff1673ffffffffffffffffffffffffffffffffffffffff16815260200190815260200160002060006101000a81548160ff021916908315150217905550600a6000848152602001908152602001600020600001601581819054906101000a900460ff168092919061248190613877565b91906101000a81548160ff021916908360ff160217905550505b600960009054906101000a900460ff1660ff16600a600085815260200190815260200160002060000160159054906101000a900460ff1660ff161061285e5760018260000b036125ed576007819080600181540180825580915050600190039060005260206000200160009091909190916101000a81548173ffffffffffffffffffffffffffffffffffffffff021916908373ffffffffffffffffffffffffffffffffffffffff160217905550600780549050600860008373ffffffffffffffffffffffffffffffffffffffff1673ffffffffffffffffffffffffffffffffffffffff16815260200190815260200160002060006101000a81548160ff021916908360ff1602179055508073ffffffffffffffffffffffffffffffffffffffff167f8191ca9d665b824fc53160f3727e7ec3a5330e4a67e1db6c4a86678956dfef1960405160405180910390a261285d565b7fffffffffffffffffffffffffffffffffffffffffffffffffffffffffffffffff8260000b0361285c576000600860008373ffffffffffffffffffffffffffffffffffffffff1673ffffffffffffffffffffffffffffffffffffffff16815260200190815260200160002060009054906101000a900460ff16905060006007600160078054905061267e91906134ab565b8154811061268f5761268e613abc565b5b9060005260206000200160009054906101000a900473ffffffffffffffffffffffffffffffffffffffff1690508060076001846126cc9190613aeb565b60ff16815481106126e0576126df613abc565b5b9060005260206000200160006101000a81548173ffffffffffffffffffffffffffffffffffffffff021916908373ffffffffffffffffffffffffffffffffffffffff16021790555081600860008373ffffffffffffffffffffffffffffffffffffffff1673ffffffffffffffffffffffffffffffffffffffff16815260200190815260200160002060006101000a81548160ff021916908360ff160217905550600860008473ffffffffffffffffffffffffffffffffffffffff1673ffffffffffffffffffffffffffffffffffffffff16815260200190815260200160002060006101000a81549060ff021916905560078054806127e1576127e0613b20565b5b6001900381819060005260206000200160006101000a81549073ffffffffffffffffffffffffffffffffffffffff021916905590558273ffffffffffffffffffffffffffffffffffffffff167fa2a6e2b8f0cf0f627456034557b0149227a355af53f5bc8ce7e496bfbe73c0a960405160405180910390a250505b5b5b505050565b80600460008573ffffffffffffffffffffffffffffffffffffffff1673ffffffffffffffffffffffffffffffffffffffff16815260200190815260200160002060008473ffffffffffffffffffffffffffffffffffffffff1673ffffffffffffffffffffffffffffffffffffffff168152602001908152602001600020819055508173ffffffffffffffffffffffffffffffffffffffff168373ffffffffffffffffffffffffffffffffffffffff167f8c5be1e5ebec7d5bd14f71427d1e84f3dd0314c0f7b2291e5b200ac8c7c3b925836040516129419190612f0c565b60405180910390a3505050565b80600360008473ffffffffffffffffffffffffffffffffffffffff1673ffffffffffffffffffffffffffffffffffffffff168152602001908152602001600020600082825461299d91906134ab565b9250508190555080600260008282546129b691906134ab565b92505081905550600073ffffffffffffffffffffffffffffffffffffffff168273ffffffffffffffffffffffffffffffffffffffff167fddf252ad1be2c89b69c2b068fc378daa952ba7f163c4a11628f55a4df523b3ef83604051612a1b9190612f0c565b60405180910390a35050565b80600360008573ffffffffffffffffffffffffffffffffffffffff1673ffffffffffffffffffffffffffffffffffffffff1681526020019081526020016000206000828254612a7691906134ab565b9250508190555080600360008473ffffffffffffffffffffffffffffffffffffffff1673ffffffffffffffffffffffffffffffffffffffff1681526020019081526020016000206000828254612acc9190613477565b925050819055508173ffffffffffffffffffffffffffffffffffffffff168373ffffffffffffffffffffffffffffffffffffffff167fddf252ad1be2c89b69c2b068fc378daa952ba7f163c4a11628f55a4df523b3ef83604051612b309190612f0c565b60405180910390a3505050565b8060026000828254612b4f9190613477565b9250508190555080600360008473ffffffffffffffffffffffffffffffffffffffff1673ffffffffffffffffffffffffffffffffffffffff1681526020019081526020016000206000828254612ba59190613477565b925050819055508173ffffffffffffffffffffffffffffffffffffffff16600073ffffffffffffffffffffffffffffffffffffffff167fddf252ad1be2c89b69c2b068fc378daa952ba7f163c4a11628f55a4df523b3ef83604051612c0a9190612f0c565b60405180910390a35050565b600081519050919050565b600082825260208201905092915050565b60005b83811015612c50578082015181840152602081019050612c35565b60008484015250505050565b6000601f19601f8301169050919050565b6000612c7882612c16565b612c828185612c21565b9350612c92818560208601612c32565b612c9b81612c5c565b840191505092915050565b60006020820190508181036000830152612cc08184612c6d565b905092915050565b600080fd5b6000819050919050565b612ce081612ccd565b8114612ceb57600080fd5b50565b600081359050612cfd81612cd7565b92915050565b600060208284031215612d1957612d18612cc8565b5b6000612d2784828501612cee565b91505092915050565b6000819050919050565b612d4381612d30565b82525050565b600073ffffffffffffffffffffffffffffffffffffffff82169050919050565b6000612d7482612d49565b9050919050565b612d8481612d69565b82525050565b600060ff82169050919050565b612da081612d8a565b82525050565b60008115159050919050565b612dbb81612da6565b82525050565b6000608082019050612dd66000830187612d3a565b612de36020830186612d7b565b612df06040830185612d97565b612dfd6060830184612db2565b95945050505050565b612e0f81612d69565b8114612e1a57600080fd5b50565b600081359050612e2c81612e06565b92915050565b612e3b81612d30565b8114612e4657600080fd5b50565b600081359050612e5881612e32565b92915050565b60008060408385031215612e7557612e74612cc8565b5b6000612e8385828601612e1d565b9250506020612e9485828601612e49565b9150509250929050565b6000602082019050612eb36000830184612db2565b92915050565b600080600060608486031215612ed257612ed1612cc8565b5b6000612ee086828701612cee565b9350506020612ef186828701612cee565b9250506040612f0286828701612e49565b9150509250925092565b6000602082019050612f216000830184612d3a565b92915050565b60008160000b9050919050565b612f3d81612f27565b8114612f4857600080fd5b50565b600081359050612f5a81612f34565b92915050565b60008060408385031215612f7757612f76612cc8565b5b6000612f8585828601612f4b565b9250506020612f9685828601612e1d565b9150509250929050565b600060208284031215612fb657612fb5612cc8565b5b6000612fc484828501612e49565b91505092915050565b6000602082019050612fe26000830184612d7b565b92915050565b60008060006060848603121561300157613000612cc8565b5b600061300f86828701612e1d565b935050602061302086828701612e1d565b925050604061303186828701612e49565b9150509250925092565b6000806040838503121561305257613051612cc8565b5b600061306085828601612e49565b925050602061307185828601612e1d565b9150509250929050565b60006020820190506130906000830184612d97565b92915050565b6000602082840312156130ac576130ab612cc8565b5b60006130ba84828501612e1d565b91505092915050565b6130cc81612d8a565b81146130d757600080fd5b50565b6000813590506130e9816130c3565b92915050565b6000806040838503121561310657613105612cc8565b5b600061311485828601612e49565b9250506020613125858286016130da565b9150509250929050565b600062ffffff82169050919050565b6131478161312f565b82525050565b6000602082019050613162600083018461313e565b92915050565b60006020828403121561317e5761317d612cc8565b5b600061318c848285016130da565b91505092915050565b61319e81612f27565b82525050565b60006080820190506131b96000830187613195565b6131c66020830186612d7b565b6131d36040830185612d97565b6131e06060830184612d3a565b95945050505050565b60008060408385031215613200576131ff612cc8565b5b600061320e85828601612e1d565b925050602061321f85828601612e1d565b9150509250929050565b600080604083850312156132405761323f612cc8565b5b600061324e85828601612e1d565b925050602061325f85828601612cee565b9150509250929050565b60008060006060848603121561328257613281612cc8565b5b600061329086828701612cee565b93505060206132a186828701612e49565b92505060406132b286828701612e1d565b9150509250925092565b60006060820190506132d16000830186612d97565b6132de6020830185612d97565b6132eb6040830184612d3a565b949350505050565b60008060006060848603121561330c5761330b612cc8565b5b600061331a86828701612e49565b935050602061332b86828701612f4b565b925050604061333c86828701612e1d565b9150509250925092565b7f4e487b7100000000000000000000000000000000000000000000000000000000600052602260045260246000fd5b6000600282049050600182168061338d57607f821691505b6020821081036133a05761339f613346565b5b50919050565b7f4e487b7100000000000000000000000000000000000000000000000000000000600052601160045260246000fd5b60006133e082612d30565b91506133eb83612d30565b92508282026133f981612d30565b915082820484148315176134105761340f6133a6565b5b5092915050565b7f4e487b7100000000000000000000000000000000000000000000000000000000600052601260045260246000fd5b600061345182612d30565b915061345c83612d30565b92508261346c5761346b613417565b5b828204905092915050565b600061348282612d30565b915061348d83612d30565b92508282019050808211156134a5576134a46133a6565b5b92915050565b60006134b682612d30565b91506134c183612d30565b92508282039050818111156134d9576134d86133a6565b5b92915050565b7f616d6f756e74206c6f77657220666f7220676173206665650000000000000000600082015250565b6000613515601883612c21565b9150613520826134df565b602082019050919050565b6000602082019050818103600083015261354481613508565b9050919050565b61355481612ccd565b82525050565b600060408201905061356f600083018561354b565b61357c6020830184612d3a565b9392505050565b7f6e6f74207369676e657200000000000000000000000000000000000000000000600082015250565b60006135b9600a83612c21565b91506135c482613583565b602082019050919050565b600060208201905081810360008301526135e8816135ac565b9050919050565b7f65786973742070726f706f73616c000000000000000000000000000000000000600082015250565b6000613625600e83612c21565b9150613630826135ef565b602082019050919050565b6000602082019050818103600083015261365481613618565b9050919050565b7f61646472657373206e6f74206578697374000000000000000000000000000000600082015250565b6000613691601183612c21565b915061369c8261365b565b602082019050919050565b600060208201905081810360008301526136c081613684565b9050919050565b7f72657175697265436f756e74206572726f720000000000000000000000000000600082015250565b60006136fd601283612c21565b9150613708826136c7565b602082019050919050565b6000602082019050818103600083015261372c816136f0565b9050919050565b7f6164647265737320657869737400000000000000000000000000000000000000600082015250565b6000613769600d83612c21565b915061377482613733565b602082019050919050565b600060208201905081810360008301526137988161375c565b9050919050565b7f666f7262696464656e0000000000000000000000000000000000000000000000600082015250565b60006137d5600983612c21565b91506137e08261379f565b602082019050919050565b60006020820190508181036000830152613804816137c8565b9050919050565b7f6d69736d61746368000000000000000000000000000000000000000000000000600082015250565b6000613841600883612c21565b915061384c8261380b565b602082019050919050565b6000602082019050818103600083015261387081613834565b9050919050565b600061388282612d8a565b915060ff8203613895576138946133a6565b5b600182019050919050565b7f746f6f2075707070657200000000000000000000000000000000000000000000600082015250565b60006138d6600a83612c21565b91506138e1826138a0565b602082019050919050565b60006020820190508181036000830152613905816138c9565b9050919050565b7f636f756e74206572726f72000000000000000000000000000000000000000000600082015250565b6000613942600b83612c21565b915061394d8261390c565b602082019050919050565b6000602082019050818103600083015261397181613935565b9050919050565b7f777261707065642066696e697368656400000000000000000000000000000000600082015250565b60006139ae601083612c21565b91506139b982613978565b602082019050919050565b600060208201905081810360008301526139dd816139a1565b9050919050565b7f73656e6465722077726170706564000000000000000000000000000000000000600082015250565b6000613a1a600e83612c21565b9150613a25826139e4565b602082019050919050565b60006020820190508181036000830152613a4981613a0d565b9050919050565b7f696e76616c696420777261700000000000000000000000000000000000000000600082015250565b6000613a86600c83612c21565b9150613a9182613a50565b602082019050919050565b60006020820190508181036000830152613ab581613a79565b9050919050565b7f4e487b7100000000000000000000000000000000000000000000000000000000600052603260045260246000fd5b6000613af682612d8a565b9150613b0183612d8a565b9250828203905060ff811115613b1a57613b196133a6565b5b92915050565b7f4e487b7100000000000000000000000000000000000000000000000000000000600052603160045260246000fdfea264697066735822122010d3a6fa2d37d73f75f893c555e58c8f5f42118462479acdccc65545da44e0f064736f6c63430008110033",
  "linkReferences": {},
  "deployedLinkReferences": {}
}