{
  "_format": "hh-sol-artifact-1",
  "contractName": "BridgeWrap",
  "sourceName": "contracts/wrap.sol",
  "abi": [
    {
      "inputs": [
        {
          "internalType": "string",
          "name": "_name",
          "type": "string"
        },
        {
          "internalType": "string",
          "name": "_symbol",
          "type": "string"
        },
        {
          "internalType": "uint8",
          "name": "_decimal",
          "type": "uint8"
        },
        {
          "internalType": "address[]",
          "name": "_signers",
          "type": "address[]"
        },
        {
          "internalType": "uint8",
          "name": "_requireCount",
          "type": "uint8"
        }
      ],
      "stateMutability": "nonpayable",
      "type": "constructor"
    },
    {
      "anonymous": false,
      "inputs": [
        {
          "indexed": true,
          "internalType": "address",
          "name": "owner",
          "type": "address"
        },
        {
          "indexed": true,
          "internalType": "address",
          "name": "spender",
          "type": "address"
        },
        {
          "indexed": false,
          "internalType": "uint256",
          "name": "value",
          "type": "uint256"
        }
      ],
      "name": "Approval",
      "type": "event"
    },
    {
      "anonymous": false,
      "inputs": [
        {
          "indexed": false,
          "internalType": "uint8",
          "name": "changeRequireCount",
          "type": "uint8"
        }
      ],
      "name": "ChangeRequireCount",
      "type": "event"
    },
    {
      "anonymous": false,
      "inputs": [
        {
          "indexed": true,
          "internalType": "address",
          "name": "signer",
          "type": "address"
        }
      ],
      "name": "SignerAddition",
      "type": "event"
    },
    {
      "anonymous": false,
      "inputs": [
        {
          "indexed": true,
          "internalType": "address",
          "name": "signer",
          "type": "address"
        }
      ],
      "name": "SignerRemoval",
      "type": "event"
    },
    {
      "anonymous": false,
      "inputs": [
        {
          "indexed": true,
          "internalType": "address",
          "name": "from",
          "type": "address"
        },
        {
          "indexed": true,
          "internalType": "address",
          "name": "to",
          "type": "address"
        },
        {
          "indexed": false,
          "internalType": "uint256",
          "name": "value",
          "type": "uint256"
        }
      ],
      "name": "Transfer",
      "type": "event"
    },
    {
      "anonymous": false,
      "inputs": [
        {
          "indexed": true,
          "internalType": "address",
          "name": "from",
          "type": "address"
        },
        {
          "indexed": true,
          "internalType": "bytes32",
          "name": "to",
          "type": "bytes32"
        },
        {
          "indexed": false,
          "internalType": "bytes32",
          "name": "symbol",
          "type": "bytes32"
        },
        {
          "indexed": false,
          "internalType": "uint256",
          "name": "amount",
          "type": "uint256"
        }
      ],
      "name": "UnWrap",
      "type": "event"
    },
    {
      "anonymous": false,
      "inputs": [
        {
          "indexed": true,
          "internalType": "address",
          "name": "to",
          "type": "address"
        },
        {
          "indexed": false,
          "internalType": "uint256",
          "name": "amount",
          "type": "uint256"
        }
      ],
      "name": "Wrap",
      "type": "event"
    },
    {
      "inputs": [],
      "name": "FEE_DIV_CONST",
      "outputs": [
        {
          "internalType": "uint24",
          "name": "",
          "type": "uint24"
        }
      ],
      "stateMutability": "view",
      "type": "function"
    },
    {
      "inputs": [],
      "name": "acceptSetter",
      "outputs": [],
      "stateMutability": "nonpayable",
      "type": "function"
    },
    {
      "inputs": [
        {
          "internalType": "address",
          "name": "signer",
          "type": "address"
        }
      ],
      "name": "addSigner",
      "outputs": [],
      "stateMutability": "nonpayable",
      "type": "function"
    },
    {
      "inputs": [],
      "name": "addingCount",
      "outputs": [
        {
          "internalType": "uint8",
          "name": "",
          "type": "uint8"
        }
      ],
      "stateMutability": "view",
      "type": "function"
    },
    {
      "inputs": [],
      "name": "addingSigner",
      "outputs": [
        {
          "internalType": "address",
          "name": "",
          "type": "address"
        }
      ],
      "stateMutability": "view",
      "type": "function"
    },
    {
      "inputs": [
        {
          "internalType": "address",
          "name": "",
          "type": "address"
        },
        {
          "internalType": "address",
          "name": "",
          "type": "address"
        }
      ],
      "name": "allowance",
      "outputs": [
        {
          "internalType": "uint256",
          "name": "",
          "type": "uint256"
        }
      ],
      "stateMutability": "view",
      "type": "function"
    },
    {
      "inputs": [
        {
          "internalType": "address",
          "name": "spender",
          "type": "address"
        },
        {
          "internalType": "uint256",
          "name": "value",
          "type": "uint256"
        }
      ],
      "name": "approve",
      "outputs": [
        {
          "internalType": "bool",
          "name": "",
          "type": "bool"
        }
      ],
      "stateMutability": "nonpayable",
      "type": "function"
    },
    {
      "inputs": [
        {
          "internalType": "address",
          "name": "",
          "type": "address"
        }
      ],
      "name": "balanceOf",
      "outputs": [
        {
          "internalType": "uint256",
          "name": "",
          "type": "uint256"
        }
      ],
      "stateMutability": "view",
      "type": "function"
    },
    {
      "inputs": [
        {
          "internalType": "uint8",
          "name": "newCount",
          "type": "uint8"
        }
      ],
      "name": "changeRequireCount",
      "outputs": [],
      "stateMutability": "nonpayable",
      "type": "function"
    },
    {
      "inputs": [],
      "name": "changingCount",
      "outputs": [
        {
          "internalType": "uint8",
          "name": "",
          "type": "uint8"
        }
      ],
      "stateMutability": "view",
      "type": "function"
    },
    {
      "inputs": [],
      "name": "decimals",
      "outputs": [
        {
          "internalType": "uint8",
          "name": "",
          "type": "uint8"
        }
      ],
      "stateMutability": "view",
      "type": "function"
    },
    {
      "inputs": [],
      "name": "feeRate",
      "outputs": [
        {
          "internalType": "uint24",
          "name": "",
          "type": "uint24"
        }
      ],
      "stateMutability": "view",
      "type": "function"
    },
    {
      "inputs": [],
      "name": "feeSum",
      "outputs": [
        {
          "internalType": "uint256",
          "name": "",
          "type": "uint256"
        }
      ],
      "stateMutability": "view",
      "type": "function"
    },
    {
      "inputs": [
        {
          "internalType": "address",
          "name": "",
          "type": "address"
        },
        {
          "internalType": "address",
          "name": "",
          "type": "address"
        }
      ],
      "name": "isAdded",
      "outputs": [
        {
          "internalType": "bool",
          "name": "",
          "type": "bool"
        }
      ],
      "stateMutability": "view",
      "type": "function"
    },
    {
      "inputs": [
        {
          "internalType": "address",
          "name": "",
          "type": "address"
        }
      ],
      "name": "isChangeCount",
      "outputs": [
        {
          "internalType": "bool",
          "name": "",
          "type": "bool"
        }
      ],
      "stateMutability": "view",
      "type": "function"
    },
    {
      "inputs": [
        {
          "internalType": "address",
          "name": "",
          "type": "address"
        },
        {
          "internalType": "uint8",
          "name": "",
          "type": "uint8"
        }
      ],
      "name": "isRemoved",
      "outputs": [
        {
          "internalType": "bool",
          "name": "",
          "type": "bool"
        }
      ],
      "stateMutability": "view",
      "type": "function"
    },
    {
      "inputs": [],
      "name": "name",
      "outputs": [
        {
          "internalType": "string",
          "name": "",
          "type": "string"
        }
      ],
      "stateMutability": "view",
      "type": "function"
    },
    {
      "inputs": [],
      "name": "newRequireCount",
      "outputs": [
        {
          "internalType": "uint8",
          "name": "",
          "type": "uint8"
        }
      ],
      "stateMutability": "view",
      "type": "function"
    },
    {
      "inputs": [],
      "name": "owner",
      "outputs": [
        {
          "internalType": "address",
          "name": "",
          "type": "address"
        }
      ],
      "stateMutability": "view",
      "type": "function"
    },
    {
      "inputs": [
        {
          "internalType": "uint8",
          "name": "index",
          "type": "uint8"
        }
      ],
      "name": "removeSigner",
      "outputs": [],
      "stateMutability": "nonpayable",
      "type": "function"
    },
    {
      "inputs": [],
      "name": "removingCount",
      "outputs": [
        {
          "internalType": "uint8",
          "name": "",
          "type": "uint8"
        }
      ],
      "stateMutability": "view",
      "type": "function"
    },
    {
      "inputs": [],
      "name": "removingIndex",
      "outputs": [
        {
          "internalType": "uint8",
          "name": "",
          "type": "uint8"
        }
      ],
      "stateMutability": "view",
      "type": "function"
    },
    {
      "inputs": [],
      "name": "requireCount",
      "outputs": [
        {
          "internalType": "uint8",
          "name": "",
          "type": "uint8"
        }
      ],
      "stateMutability": "view",
      "type": "function"
    },
    {
      "inputs": [
        {
          "internalType": "uint256",
          "name": "",
          "type": "uint256"
        }
      ],
      "name": "signers",
      "outputs": [
        {
          "internalType": "address",
          "name": "",
          "type": "address"
        }
      ],
      "stateMutability": "view",
      "type": "function"
    },
    {
      "inputs": [],
      "name": "symbol",
      "outputs": [
        {
          "internalType": "string",
          "name": "",
          "type": "string"
        }
      ],
      "stateMutability": "view",
      "type": "function"
    },
    {
      "inputs": [],
      "name": "totalSupply",
      "outputs": [
        {
          "internalType": "uint256",
          "name": "",
          "type": "uint256"
        }
      ],
      "stateMutability": "view",
      "type": "function"
    },
    {
      "inputs": [
        {
          "internalType": "address",
          "name": "to",
          "type": "address"
        },
        {
          "internalType": "uint256",
          "name": "value",
          "type": "uint256"
        }
      ],
      "name": "transfer",
      "outputs": [
        {
          "internalType": "bool",
          "name": "",
          "type": "bool"
        }
      ],
      "stateMutability": "nonpayable",
      "type": "function"
    },
    {
      "inputs": [
        {
          "internalType": "address",
          "name": "from",
          "type": "address"
        },
        {
          "internalType": "address",
          "name": "to",
          "type": "address"
        },
        {
          "internalType": "uint256",
          "name": "value",
          "type": "uint256"
        }
      ],
      "name": "transferFrom",
      "outputs": [
        {
          "internalType": "bool",
          "name": "",
          "type": "bool"
        }
      ],
      "stateMutability": "nonpayable",
      "type": "function"
    },
    {
      "inputs": [
        {
          "internalType": "address",
          "name": "_owner",
          "type": "address"
        }
      ],
      "name": "transferOwner",
      "outputs": [],
      "stateMutability": "nonpayable",
      "type": "function"
    },
    {
      "inputs": [
        {
          "internalType": "bytes32",
          "name": "to",
          "type": "bytes32"
        },
        {
          "internalType": "bytes32",
          "name": "symbol",
          "type": "bytes32"
        },
        {
          "internalType": "uint256",
          "name": "amount",
          "type": "uint256"
        }
      ],
      "name": "unWrap",
      "outputs": [],
      "stateMutability": "nonpayable",
      "type": "function"
    },
    {
      "inputs": [
        {
          "internalType": "bytes32",
          "name": "to",
          "type": "bytes32"
        },
        {
          "internalType": "bytes32",
          "name": "symbol",
          "type": "bytes32"
        },
        {
          "internalType": "uint256",
          "name": "fee",
          "type": "uint256"
        }
      ],
      "name": "unWrapFee",
      "outputs": [],
      "stateMutability": "nonpayable",
      "type": "function"
    },
    {
      "inputs": [
        {
          "internalType": "address",
          "name": "to",
          "type": "address"
        },
        {
          "internalType": "uint256",
          "name": "fee",
          "type": "uint256"
        }
      ],
      "name": "withdrawFee",
      "outputs": [],
      "stateMutability": "nonpayable",
      "type": "function"
    },
    {
      "inputs": [
        {
          "internalType": "bytes32",
          "name": "txid",
          "type": "bytes32"
        },
        {
          "internalType": "uint256",
          "name": "amount",
          "type": "uint256"
        },
        {
          "internalType": "address payable",
          "name": "to",
          "type": "address"
        }
      ],
      "name": "wrap",
      "outputs": [],
      "stateMutability": "nonpayable",
      "type": "function"
    }
  ],
  "bytecode": "0x60a06040523480156200001157600080fd5b50604051620040973803806200409783398181016040528101906200003791906200066e565b818186868682600090816200004d91906200099e565b5081600190816200005f91906200099e565b508060ff1660808160ff168152505050505060005b82518160ff1610156200022c57600060086000858460ff1681518110620000a0576200009f62000a85565b5b602002602001015173ffffffffffffffffffffffffffffffffffffffff1673ffffffffffffffffffffffffffffffffffffffff16815260200190815260200160002060009054906101000a900460ff1660ff161480156200014e5750600073ffffffffffffffffffffffffffffffffffffffff16838260ff16815181106200012d576200012c62000a85565b5b602002602001015173ffffffffffffffffffffffffffffffffffffffff1614155b62000190576040517f08c379a0000000000000000000000000000000000000000000000000000000008152600401620001879062000b15565b60405180910390fd5b6001816200019f919062000b66565b60086000858460ff1681518110620001bc57620001bb62000a85565b5b602002602001015173ffffffffffffffffffffffffffffffffffffffff1673ffffffffffffffffffffffffffffffffffffffff16815260200190815260200160002060006101000a81548160ff021916908360ff1602179055508080620002239062000ba2565b91505062000074565b50816007908051906020019062000245929190620002af565b5080600960006101000a81548160ff021916908360ff160217905550505033600560006101000a81548173ffffffffffffffffffffffffffffffffffffffff021916908373ffffffffffffffffffffffffffffffffffffffff160217905550505050505062000bd0565b8280548282559060005260206000209081019282156200032b579160200282015b828111156200032a5782518260006101000a81548173ffffffffffffffffffffffffffffffffffffffff021916908373ffffffffffffffffffffffffffffffffffffffff16021790555091602001919060010190620002d0565b5b5090506200033a91906200033e565b5090565b5b80821115620003595760008160009055506001016200033f565b5090565b6000604051905090565b600080fd5b600080fd5b600080fd5b600080fd5b6000601f19601f8301169050919050565b7f4e487b7100000000000000000000000000000000000000000000000000000000600052604160045260246000fd5b620003c6826200037b565b810181811067ffffffffffffffff82111715620003e857620003e76200038c565b5b80604052505050565b6000620003fd6200035d565b90506200040b8282620003bb565b919050565b600067ffffffffffffffff8211156200042e576200042d6200038c565b5b62000439826200037b565b9050602081019050919050565b60005b838110156200046657808201518184015260208101905062000449565b60008484015250505050565b600062000489620004838462000410565b620003f1565b905082815260208101848484011115620004a857620004a762000376565b5b620004b584828562000446565b509392505050565b600082601f830112620004d557620004d462000371565b5b8151620004e784826020860162000472565b91505092915050565b600060ff82169050919050565b6200050881620004f0565b81146200051457600080fd5b50565b6000815190506200052881620004fd565b92915050565b600067ffffffffffffffff8211156200054c576200054b6200038c565b5b602082029050602081019050919050565b600080fd5b600073ffffffffffffffffffffffffffffffffffffffff82169050919050565b60006200058f8262000562565b9050919050565b620005a18162000582565b8114620005ad57600080fd5b50565b600081519050620005c18162000596565b92915050565b6000620005de620005d8846200052e565b620003f1565b905080838252602082019050602084028301858111156200060457620006036200055d565b5b835b818110156200063157806200061c8882620005b0565b84526020840193505060208101905062000606565b5050509392505050565b600082601f83011262000653576200065262000371565b5b815162000665848260208601620005c7565b91505092915050565b600080600080600060a086880312156200068d576200068c62000367565b5b600086015167ffffffffffffffff811115620006ae57620006ad6200036c565b5b620006bc88828901620004bd565b955050602086015167ffffffffffffffff811115620006e057620006df6200036c565b5b620006ee88828901620004bd565b9450506040620007018882890162000517565b935050606086015167ffffffffffffffff8111156200072557620007246200036c565b5b62000733888289016200063b565b9250506080620007468882890162000517565b9150509295509295909350565b600081519050919050565b7f4e487b7100000000000000000000000000000000000000000000000000000000600052602260045260246000fd5b60006002820490506001821680620007a657607f821691505b602082108103620007bc57620007bb6200075e565b5b50919050565b60008190508160005260206000209050919050565b60006020601f8301049050919050565b600082821b905092915050565b600060088302620008267fffffffffffffffffffffffffffffffffffffffffffffffffffffffffffffffff82620007e7565b620008328683620007e7565b95508019841693508086168417925050509392505050565b6000819050919050565b6000819050919050565b60006200087f6200087962000873846200084a565b62000854565b6200084a565b9050919050565b6000819050919050565b6200089b836200085e565b620008b3620008aa8262000886565b848454620007f4565b825550505050565b600090565b620008ca620008bb565b620008d781848462000890565b505050565b5b81811015620008ff57620008f3600082620008c0565b600181019050620008dd565b5050565b601f8211156200094e576200091881620007c2565b6200092384620007d7565b8101602085101562000933578190505b6200094b6200094285620007d7565b830182620008dc565b50505b505050565b600082821c905092915050565b6000620009736000198460080262000953565b1980831691505092915050565b60006200098e838362000960565b9150826002028217905092915050565b620009a98262000753565b67ffffffffffffffff811115620009c557620009c46200038c565b5b620009d182546200078d565b620009de82828562000903565b600060209050601f83116001811462000a16576000841562000a01578287015190505b62000a0d858262000980565b86555062000a7d565b601f19841662000a2686620007c2565b60005b8281101562000a505784890151825560018201915060208501945060208101905062000a29565b8683101562000a70578489015162000a6c601f89168262000960565b8355505b6001600288020188555050505b505050505050565b7f4e487b7100000000000000000000000000000000000000000000000000000000600052603260045260246000fd5b600082825260208201905092915050565b7f696e76616c6964206f72206475706c696361746564207369676e657200000000600082015250565b600062000afd601c8362000ab4565b915062000b0a8262000ac5565b602082019050919050565b6000602082019050818103600083015262000b308162000aee565b9050919050565b7f4e487b7100000000000000000000000000000000000000000000000000000000600052601160045260246000fd5b600062000b7382620004f0565b915062000b8083620004f0565b9250828201905060ff81111562000b9c5762000b9b62000b37565b5b92915050565b600062000baf82620004f0565b915060ff820362000bc55762000bc462000b37565b5b600182019050919050565b6080516134ab62000bec6000396000610dff01526134ab6000f3fe608060405234801561001057600080fd5b50600436106101fb5760003560e01c80636561d53c1161011a5780639ca6ce12116100ad578063dd62ed3e1161007c578063dd62ed3e146105a8578063ea047fee146105d8578063eb12d61e146105f4578063f770a5db14610610578063fd9be52214610640576101fb565b80639ca6ce121461051e578063a1ed637a1461053c578063a9059cbb1461055a578063b44d4e5f1461058a576101fb565b80638da5cb5b116100e95780638da5cb5b146104a857806395d89b41146104c6578063978bbdb9146104e45780639bc5362e14610502576101fb565b80636561d53c1461040c57806368d024171461043c57806370a082311461045a57806383051fde1461048a576101fb565b806326fbcf93116101925780634fb2e45d116101615780634fb2e45d146103aa5780635003b333146103c657806354ca4416146103e45780635f8e422f14610402576101fb565b806326fbcf9314610320578063313ce567146103505780633d5655f81461036e578063458a3add1461038c576101fb565b806318160ddd116101ce57806318160ddd146102865780632079fb9a146102a457806321725178146102d457806323b872dd146102f0576101fb565b806306fdde031461020057806307a4145b1461021e578063095ea7b31461023a5780630f2c0f5d1461026a575b600080fd5b61020861065c565b60405161021591906128af565b60405180910390f35b6102386004803603810190610233919061290f565b6106ea565b005b610254600480360381019061024f91906129d0565b610a62565b6040516102619190612a2b565b60405180910390f35b610284600480360381019061027f9190612a7c565b610a79565b005b61028e610b28565b60405161029b9190612ade565b60405180910390f35b6102be60048036038101906102b99190612af9565b610b2e565b6040516102cb9190612b35565b60405180910390f35b6102ee60048036038101906102e99190612a7c565b610b6d565b005b61030a60048036038101906103059190612b50565b610c8e565b6040516103179190612a2b565b60405180910390f35b61033a60048036038101906103359190612ba3565b610ddd565b6040516103479190612a2b565b60405180910390f35b610358610dfd565b6040516103659190612bdf565b60405180910390f35b610376610e21565b6040516103839190612b35565b60405180910390f35b610394610e47565b6040516103a19190612bdf565b60405180910390f35b6103c460048036038101906103bf9190612ba3565b610e5a565b005b6103ce610f2e565b6040516103db9190612bdf565b60405180910390f35b6103ec610f41565b6040516103f99190612bdf565b60405180910390f35b61040a610f54565b005b61042660048036038101906104219190612bfa565b61108b565b6040516104339190612a2b565b60405180910390f35b6104446110ba565b6040516104519190612bdf565b60405180910390f35b610474600480360381019061046f9190612ba3565b6110cd565b6040516104819190612ade565b60405180910390f35b6104926110e5565b60405161049f9190612bdf565b60405180910390f35b6104b06110f8565b6040516104bd9190612b35565b60405180910390f35b6104ce61111e565b6040516104db91906128af565b60405180910390f35b6104ec6111ac565b6040516104f99190612c58565b60405180910390f35b61051c6004803603810190610517919061290f565b6111b2565b005b610526611755565b6040516105339190612c58565b60405180910390f35b61054461175c565b6040516105519190612bdf565b60405180910390f35b610574600480360381019061056f91906129d0565b61176f565b6040516105819190612a2b565b60405180910390f35b610592611786565b60405161059f9190612ade565b60405180910390f35b6105c260048036038101906105bd9190612c73565b61178c565b6040516105cf9190612ade565b60405180910390f35b6105f260048036038101906105ed9190612cf1565b6117b1565b005b61060e60048036038101906106099190612ba3565b611d96565b005b61062a60048036038101906106259190612c73565b612386565b6040516106379190612a2b565b60405180910390f35b61065a600480360381019061065591906129d0565b6123b5565b005b6000805461066990612d73565b80601f016020809104026020016040519081016040528092919081815260200182805461069590612d73565b80156106e25780601f106106b7576101008083540402835291602001916106e2565b820191906000526020600020905b8154815290600101906020018083116106c557829003601f168201915b505050505081565b6000600860003373ffffffffffffffffffffffffffffffffffffffff1673ffffffffffffffffffffffffffffffffffffffff16815260200190815260200160002060009054906101000a900460ff1660ff161161077c576040517f08c379a000000000000000000000000000000000000000000000000000000000815260040161077390612df0565b60405180910390fd5b6000600d60009054906101000a900460ff1660ff160361086f576007805490508160ff1611156107e1576040517f08c379a00000000000000000000000000000000000000000000000000000000081526004016107d890612e5c565b60405180910390fd5b8060ff16600d60009054906101000a9050505060005b6007805490508160ff16101561086957600e60003373ffffffffffffffffffffffffffffffffffffffff1673ffffffffffffffffffffffffffffffffffffffff16815260200190815260200160002060006101000a81549060ff0219169055808061086190612eab565b9150506107f7565b506108c7565b600d60009054906101000a900460ff1660ff168160ff16146108c6576040517f08c379a00000000000000000000000000000000000000000000000000000000081526004016108bd90612f20565b60405180910390fd5b5b600e60003373ffffffffffffffffffffffffffffffffffffffff1673ffffffffffffffffffffffffffffffffffffffff16815260200190815260200160002060009054906101000a900460ff166109a9576001600e60003373ffffffffffffffffffffffffffffffffffffffff1673ffffffffffffffffffffffffffffffffffffffff16815260200190815260200160002060006101000a81548160ff021916908315150217905550600d600181819054906101000a900460ff168092919061098f90612eab565b91906101000a81548160ff021916908360ff160217905550505b600960009054906101000a900460ff1660ff16600d60019054906101000a900460ff1660ff1610610a5f5780600960006101000a81548160ff021916908360ff1602179055506000600d60006101000a81548160ff021916908360ff1602179055506000600d60016101000a81548160ff021916908360ff1602179055507f971ed33ab126ac4c0a07a18b84ed2990cde2ae87b25cd5009c84e7e5c9c8cffd81604051610a569190612bdf565b60405180910390a15b50565b6000610a6f33848461246c565b6001905092915050565b610a833382612557565b6000620186a062ffffff166103e862ffffff1683610aa19190612f40565b610aab9190612fb1565b905080600f6000828254610abf9190612fe2565b92505081905550833373ffffffffffffffffffffffffffffffffffffffff167f87a89f1cee7e883b59eca58c135072a63ce587ee1e3f72279d6fd24f2bce25f8858486610b0c9190613016565b604051610b1a929190613059565b60405180910390a350505050565b60025481565b60078181548110610b3e57600080fd5b906000526020600020016000915054906101000a900473ffffffffffffffffffffffffffffffffffffffff1681565b600560009054906101000a900473ffffffffffffffffffffffffffffffffffffffff1673ffffffffffffffffffffffffffffffffffffffff163373ffffffffffffffffffffffffffffffffffffffff1614610bfd576040517f08c379a0000000000000000000000000000000000000000000000000000000008152600401610bf4906130ce565b60405180910390fd5b80600f6000828254610c0f9190613016565b9250508190555082600560009054906101000a900473ffffffffffffffffffffffffffffffffffffffff1673ffffffffffffffffffffffffffffffffffffffff167f87a89f1cee7e883b59eca58c135072a63ce587ee1e3f72279d6fd24f2bce25f88484604051610c81929190613059565b60405180910390a3505050565b60007fffffffffffffffffffffffffffffffffffffffffffffffffffffffffffffffff600460008673ffffffffffffffffffffffffffffffffffffffff1673ffffffffffffffffffffffffffffffffffffffff16815260200190815260200160002060003373ffffffffffffffffffffffffffffffffffffffff1673ffffffffffffffffffffffffffffffffffffffff1681526020019081526020016000205414610dc75781600460008673ffffffffffffffffffffffffffffffffffffffff1673ffffffffffffffffffffffffffffffffffffffff16815260200190815260200160002060003373ffffffffffffffffffffffffffffffffffffffff1673ffffffffffffffffffffffffffffffffffffffff1681526020019081526020016000206000828254610dbf9190613016565b925050819055505b610dd2848484612630565b600190509392505050565b600e6020528060005260406000206000915054906101000a900460ff1681565b7f000000000000000000000000000000000000000000000000000000000000000081565b600960019054906101000a900473ffffffffffffffffffffffffffffffffffffffff1681565b600d60009054906101000a900460ff1681565b600560009054906101000a900473ffffffffffffffffffffffffffffffffffffffff1673ffffffffffffffffffffffffffffffffffffffff163373ffffffffffffffffffffffffffffffffffffffff1614610eea576040517f08c379a0000000000000000000000000000000000000000000000000000000008152600401610ee1906130ce565b60405180910390fd5b80600660006101000a81548173ffffffffffffffffffffffffffffffffffffffff021916908373ffffffffffffffffffffffffffffffffffffffff16021790555050565b600b60009054906101000a900460ff1681565b600d60019054906101000a900460ff1681565b600660009054906101000a900473ffffffffffffffffffffffffffffffffffffffff1673ffffffffffffffffffffffffffffffffffffffff163373ffffffffffffffffffffffffffffffffffffffff1614610fe4576040517f08c379a0000000000000000000000000000000000000000000000000000000008152600401610fdb906130ce565b60405180910390fd5b600660009054906101000a900473ffffffffffffffffffffffffffffffffffffffff16600560006101000a81548173ffffffffffffffffffffffffffffffffffffffff021916908373ffffffffffffffffffffffffffffffffffffffff1602179055506000600660006101000a81548173ffffffffffffffffffffffffffffffffffffffff021916908373ffffffffffffffffffffffffffffffffffffffff160217905550565b600c6020528160005260406000206020528060005260406000206000915091509054906101000a900460ff1681565b600b60019054906101000a900460ff1681565b60036020528060005260406000206000915090505481565b600960009054906101000a900460ff1681565b600560009054906101000a900473ffffffffffffffffffffffffffffffffffffffff1681565b6001805461112b90612d73565b80601f016020809104026020016040519081016040528092919081815260200182805461115790612d73565b80156111a45780601f10611179576101008083540402835291602001916111a4565b820191906000526020600020905b81548152906001019060200180831161118757829003601f168201915b505050505081565b6103e881565b6000600860003373ffffffffffffffffffffffffffffffffffffffff1673ffffffffffffffffffffffffffffffffffffffff16815260200190815260200160002060009054906101000a900460ff1660ff1611611244576040517f08c379a000000000000000000000000000000000000000000000000000000000815260040161123b90612df0565b60405180910390fd5b6000600b60009054906101000a900460ff1660ff160361134d576007805490508160ff16106112a8576040517f08c379a000000000000000000000000000000000000000000000000000000000815260040161129f9061313a565b60405180910390fd5b8060ff16600b60009054906101000a9050505060005b6007805490508160ff16101561134757600c60003373ffffffffffffffffffffffffffffffffffffffff1673ffffffffffffffffffffffffffffffffffffffff16815260200190815260200160002060008260ff1660ff16815260200190815260200160002060006101000a81549060ff0219169055808061133f90612eab565b9150506112be565b506113a5565b8060ff16600b60009054906101000a900460ff1660ff16146113a4576040517f08c379a000000000000000000000000000000000000000000000000000000000815260040161139b906131a6565b60405180910390fd5b5b600c60003373ffffffffffffffffffffffffffffffffffffffff1673ffffffffffffffffffffffffffffffffffffffff16815260200190815260200160002060008260ff1660ff16815260200190815260200160002060009054906101000a900460ff166114b5576001600c60003373ffffffffffffffffffffffffffffffffffffffff1673ffffffffffffffffffffffffffffffffffffffff16815260200190815260200160002060008360ff1660ff16815260200190815260200160002060006101000a81548160ff021916908315150217905550600b600181819054906101000a900460ff168092919061149b90612eab565b91906101000a81548160ff021916908360ff160217905550505b600960009054906101000a900460ff1660ff16600b60019054906101000a900460ff1660ff161061175257600060078260ff16815481106114f9576114f86131c6565b5b9060005260206000200160009054906101000a900473ffffffffffffffffffffffffffffffffffffffff16905060006007600160078054905061153c9190613016565b8154811061154d5761154c6131c6565b5b9060005260206000200160009054906101000a900473ffffffffffffffffffffffffffffffffffffffff1690508060078460ff1681548110611592576115916131c6565b5b9060005260206000200160006101000a81548173ffffffffffffffffffffffffffffffffffffffff021916908373ffffffffffffffffffffffffffffffffffffffff1602179055506001836115e791906131f5565b600860008373ffffffffffffffffffffffffffffffffffffffff1673ffffffffffffffffffffffffffffffffffffffff16815260200190815260200160002060006101000a81548160ff021916908360ff160217905550600860008373ffffffffffffffffffffffffffffffffffffffff1673ffffffffffffffffffffffffffffffffffffffff16815260200190815260200160002060006101000a81549060ff0219169055600780548061169f5761169e61322a565b5b6001900381819060005260206000200160006101000a81549073ffffffffffffffffffffffffffffffffffffffff021916905590556000600b60006101000a81548160ff021916908360ff1602179055506000600b60016101000a81548160ff021916908360ff1602179055508173ffffffffffffffffffffffffffffffffffffffff167fa2a6e2b8f0cf0f627456034557b0149227a355af53f5bc8ce7e496bfbe73c0a960405160405180910390a250505b50565b620186a081565b600960159054906101000a900460ff1681565b600061177c338484612630565b6001905092915050565b600f5481565b6004602052816000526040600020602052806000526040600020600091509150505481565b6000600860003373ffffffffffffffffffffffffffffffffffffffff1673ffffffffffffffffffffffffffffffffffffffff16815260200190815260200160002060009054906101000a900460ff1660ff1611611843576040517f08c379a000000000000000000000000000000000000000000000000000000000815260040161183a90612df0565b60405180910390fd5b6010600084815260200190815260200160002060010160159054906101000a900460ff16156118a7576040517f08c379a000000000000000000000000000000000000000000000000000000000815260040161189e906132a5565b60405180910390fd5b601160003373ffffffffffffffffffffffffffffffffffffffff1673ffffffffffffffffffffffffffffffffffffffff168152602001908152602001600020600084815260200190815260200160002060009054906101000a900460ff1615611945576040517f08c379a000000000000000000000000000000000000000000000000000000000815260040161193c90613311565b60405180910390fd5b600073ffffffffffffffffffffffffffffffffffffffff166010600085815260200190815260200160002060010160009054906101000a900473ffffffffffffffffffffffffffffffffffffffff1673ffffffffffffffffffffffffffffffffffffffff1603611a9a5760405180608001604052808381526020018273ffffffffffffffffffffffffffffffffffffffff168152602001600060ff16815260200160001515815250601060008581526020019081526020016000206000820151816000015560208201518160010160006101000a81548173ffffffffffffffffffffffffffffffffffffffff021916908373ffffffffffffffffffffffffffffffffffffffff16021790555060408201518160010160146101000a81548160ff021916908360ff16021790555060608201518160010160156101000a81548160ff021916908315150217905550905050611b60565b816010600085815260200190815260200160002060000154148015611b2057508073ffffffffffffffffffffffffffffffffffffffff166010600085815260200190815260200160002060010160009054906101000a900473ffffffffffffffffffffffffffffffffffffffff1673ffffffffffffffffffffffffffffffffffffffff16145b611b5f576040517f08c379a0000000000000000000000000000000000000000000000000000000008152600401611b569061337d565b60405180910390fd5b5b601160003373ffffffffffffffffffffffffffffffffffffffff1673ffffffffffffffffffffffffffffffffffffffff168152602001908152602001600020600084815260200190815260200160002060009054906101000a900460ff16611c78576001601160003373ffffffffffffffffffffffffffffffffffffffff1673ffffffffffffffffffffffffffffffffffffffff168152602001908152602001600020600085815260200190815260200160002060006101000a81548160ff02191690831515021790555060106000848152602001908152602001600020600101601481819054906101000a900460ff1680929190611c5e90612eab565b91906101000a81548160ff021916908360ff160217905550505b600960009054906101000a900460ff1660ff166010600085815260200190815260200160002060010160149054906101000a900460ff1660ff1610611d915760016010600085815260200190815260200160002060010160156101000a81548160ff0219169083151502179055506000620186a062ffffff166103e862ffffff1684611d049190612f40565b611d0e9190612fb1565b905080600f6000828254611d229190612fe2565b925050819055508083611d359190613016565b9250611d418284612746565b8173ffffffffffffffffffffffffffffffffffffffff167fb61d00fdfee32467c7d81db64c811ae60c104c346debf36a14afe84b8fce59e584604051611d879190612ade565b60405180910390a2505b505050565b6000600860003373ffffffffffffffffffffffffffffffffffffffff1673ffffffffffffffffffffffffffffffffffffffff16815260200190815260200160002060009054906101000a900460ff1660ff1611611e28576040517f08c379a0000000000000000000000000000000000000000000000000000000008152600401611e1f90612df0565b60405180910390fd5b600073ffffffffffffffffffffffffffffffffffffffff16600960019054906101000a900473ffffffffffffffffffffffffffffffffffffffff1673ffffffffffffffffffffffffffffffffffffffff1603612009576000600860008373ffffffffffffffffffffffffffffffffffffffff1673ffffffffffffffffffffffffffffffffffffffff16815260200190815260200160002060009054906101000a900460ff1660ff1614611f10576040517f08c379a0000000000000000000000000000000000000000000000000000000008152600401611f07906133e9565b60405180910390fd5b80600960016101000a81548173ffffffffffffffffffffffffffffffffffffffff021916908373ffffffffffffffffffffffffffffffffffffffff16021790555060005b6007805490508160ff16101561200357600a60003373ffffffffffffffffffffffffffffffffffffffff1673ffffffffffffffffffffffffffffffffffffffff16815260200190815260200160002060008373ffffffffffffffffffffffffffffffffffffffff1673ffffffffffffffffffffffffffffffffffffffff16815260200190815260200160002060006101000a81549060ff02191690558080611ffb90612eab565b915050611f54565b5061209a565b8073ffffffffffffffffffffffffffffffffffffffff16600960019054906101000a900473ffffffffffffffffffffffffffffffffffffffff1673ffffffffffffffffffffffffffffffffffffffff1614612099576040517f08c379a000000000000000000000000000000000000000000000000000000000815260040161209090613455565b60405180910390fd5b5b600a60003373ffffffffffffffffffffffffffffffffffffffff1673ffffffffffffffffffffffffffffffffffffffff16815260200190815260200160002060008273ffffffffffffffffffffffffffffffffffffffff1673ffffffffffffffffffffffffffffffffffffffff16815260200190815260200160002060009054906101000a900460ff166121f6576001600a60003373ffffffffffffffffffffffffffffffffffffffff1673ffffffffffffffffffffffffffffffffffffffff16815260200190815260200160002060008373ffffffffffffffffffffffffffffffffffffffff1673ffffffffffffffffffffffffffffffffffffffff16815260200190815260200160002060006101000a81548160ff0219169083151502179055506009601581819054906101000a900460ff16809291906121dc90612eab565b91906101000a81548160ff021916908360ff160217905550505b600960009054906101000a900460ff1660ff16600960159054906101000a900460ff1660ff1610612383576007819080600181540180825580915050600190039060005260206000200160009091909190916101000a81548173ffffffffffffffffffffffffffffffffffffffff021916908373ffffffffffffffffffffffffffffffffffffffff160217905550600780549050600860008373ffffffffffffffffffffffffffffffffffffffff1673ffffffffffffffffffffffffffffffffffffffff16815260200190815260200160002060006101000a81548160ff021916908360ff1602179055506000600960016101000a81548173ffffffffffffffffffffffffffffffffffffffff021916908373ffffffffffffffffffffffffffffffffffffffff1602179055506000600960156101000a81548160ff021916908360ff1602179055508073ffffffffffffffffffffffffffffffffffffffff167f8191ca9d665b824fc53160f3727e7ec3a5330e4a67e1db6c4a86678956dfef1960405160405180910390a25b50565b600a6020528160005260406000206020528060005260406000206000915091509054906101000a900460ff1681565b600560009054906101000a900473ffffffffffffffffffffffffffffffffffffffff1673ffffffffffffffffffffffffffffffffffffffff163373ffffffffffffffffffffffffffffffffffffffff1614612445576040517f08c379a000000000000000000000000000000000000000000000000000000000815260040161243c906130ce565b60405180910390fd5b80600f60008282546124579190613016565b925050819055506124688282612746565b5050565b80600460008573ffffffffffffffffffffffffffffffffffffffff1673ffffffffffffffffffffffffffffffffffffffff16815260200190815260200160002060008473ffffffffffffffffffffffffffffffffffffffff1673ffffffffffffffffffffffffffffffffffffffff168152602001908152602001600020819055508173ffffffffffffffffffffffffffffffffffffffff168373ffffffffffffffffffffffffffffffffffffffff167f8c5be1e5ebec7d5bd14f71427d1e84f3dd0314c0f7b2291e5b200ac8c7c3b9258360405161254a9190612ade565b60405180910390a3505050565b80600360008473ffffffffffffffffffffffffffffffffffffffff1673ffffffffffffffffffffffffffffffffffffffff16815260200190815260200160002060008282546125a69190613016565b9250508190555080600260008282546125bf9190613016565b92505081905550600073ffffffffffffffffffffffffffffffffffffffff168273ffffffffffffffffffffffffffffffffffffffff167fddf252ad1be2c89b69c2b068fc378daa952ba7f163c4a11628f55a4df523b3ef836040516126249190612ade565b60405180910390a35050565b80600360008573ffffffffffffffffffffffffffffffffffffffff1673ffffffffffffffffffffffffffffffffffffffff168152602001908152602001600020600082825461267f9190613016565b9250508190555080600360008473ffffffffffffffffffffffffffffffffffffffff1673ffffffffffffffffffffffffffffffffffffffff16815260200190815260200160002060008282546126d59190612fe2565b925050819055508173ffffffffffffffffffffffffffffffffffffffff168373ffffffffffffffffffffffffffffffffffffffff167fddf252ad1be2c89b69c2b068fc378daa952ba7f163c4a11628f55a4df523b3ef836040516127399190612ade565b60405180910390a3505050565b80600260008282546127589190612fe2565b9250508190555080600360008473ffffffffffffffffffffffffffffffffffffffff1673ffffffffffffffffffffffffffffffffffffffff16815260200190815260200160002060008282546127ae9190612fe2565b925050819055508173ffffffffffffffffffffffffffffffffffffffff16600073ffffffffffffffffffffffffffffffffffffffff167fddf252ad1be2c89b69c2b068fc378daa952ba7f163c4a11628f55a4df523b3ef836040516128139190612ade565b60405180910390a35050565b600081519050919050565b600082825260208201905092915050565b60005b8381101561285957808201518184015260208101905061283e565b60008484015250505050565b6000601f19601f8301169050919050565b60006128818261281f565b61288b818561282a565b935061289b81856020860161283b565b6128a481612865565b840191505092915050565b600060208201905081810360008301526128c98184612876565b905092915050565b600080fd5b600060ff82169050919050565b6128ec816128d6565b81146128f757600080fd5b50565b600081359050612909816128e3565b92915050565b600060208284031215612925576129246128d1565b5b6000612933848285016128fa565b91505092915050565b600073ffffffffffffffffffffffffffffffffffffffff82169050919050565b60006129678261293c565b9050919050565b6129778161295c565b811461298257600080fd5b50565b6000813590506129948161296e565b92915050565b6000819050919050565b6129ad8161299a565b81146129b857600080fd5b50565b6000813590506129ca816129a4565b92915050565b600080604083850312156129e7576129e66128d1565b5b60006129f585828601612985565b9250506020612a06858286016129bb565b9150509250929050565b60008115159050919050565b612a2581612a10565b82525050565b6000602082019050612a406000830184612a1c565b92915050565b6000819050919050565b612a5981612a46565b8114612a6457600080fd5b50565b600081359050612a7681612a50565b92915050565b600080600060608486031215612a9557612a946128d1565b5b6000612aa386828701612a67565b9350506020612ab486828701612a67565b9250506040612ac5868287016129bb565b9150509250925092565b612ad88161299a565b82525050565b6000602082019050612af36000830184612acf565b92915050565b600060208284031215612b0f57612b0e6128d1565b5b6000612b1d848285016129bb565b91505092915050565b612b2f8161295c565b82525050565b6000602082019050612b4a6000830184612b26565b92915050565b600080600060608486031215612b6957612b686128d1565b5b6000612b7786828701612985565b9350506020612b8886828701612985565b9250506040612b99868287016129bb565b9150509250925092565b600060208284031215612bb957612bb86128d1565b5b6000612bc784828501612985565b91505092915050565b612bd9816128d6565b82525050565b6000602082019050612bf46000830184612bd0565b92915050565b60008060408385031215612c1157612c106128d1565b5b6000612c1f85828601612985565b9250506020612c30858286016128fa565b9150509250929050565b600062ffffff82169050919050565b612c5281612c3a565b82525050565b6000602082019050612c6d6000830184612c49565b92915050565b60008060408385031215612c8a57612c896128d1565b5b6000612c9885828601612985565b9250506020612ca985828601612985565b9150509250929050565b6000612cbe8261293c565b9050919050565b612cce81612cb3565b8114612cd957600080fd5b50565b600081359050612ceb81612cc5565b92915050565b600080600060608486031215612d0a57612d096128d1565b5b6000612d1886828701612a67565b9350506020612d29868287016129bb565b9250506040612d3a86828701612cdc565b9150509250925092565b7f4e487b7100000000000000000000000000000000000000000000000000000000600052602260045260246000fd5b60006002820490506001821680612d8b57607f821691505b602082108103612d9e57612d9d612d44565b5b50919050565b7f6e6f74207369676e657200000000000000000000000000000000000000000000600082015250565b6000612dda600a8361282a565b9150612de582612da4565b602082019050919050565b60006020820190508181036000830152612e0981612dcd565b9050919050565b7f77726f6e6720636f756e74000000000000000000000000000000000000000000600082015250565b6000612e46600b8361282a565b9150612e5182612e10565b602082019050919050565b60006020820190508181036000830152612e7581612e39565b9050919050565b7f4e487b7100000000000000000000000000000000000000000000000000000000600052601160045260246000fd5b6000612eb6826128d6565b915060ff8203612ec957612ec8612e7c565b5b600182019050919050565b7f6d69736d61746368656420636f756e7400000000000000000000000000000000600082015250565b6000612f0a60108361282a565b9150612f1582612ed4565b602082019050919050565b60006020820190508181036000830152612f3981612efd565b9050919050565b6000612f4b8261299a565b9150612f568361299a565b9250828202612f648161299a565b91508282048414831517612f7b57612f7a612e7c565b5b5092915050565b7f4e487b7100000000000000000000000000000000000000000000000000000000600052601260045260246000fd5b6000612fbc8261299a565b9150612fc78361299a565b925082612fd757612fd6612f82565b5b828204905092915050565b6000612fed8261299a565b9150612ff88361299a565b92508282019050808211156130105761300f612e7c565b5b92915050565b60006130218261299a565b915061302c8361299a565b925082820390508181111561304457613043612e7c565b5b92915050565b61305381612a46565b82525050565b600060408201905061306e600083018561304a565b61307b6020830184612acf565b9392505050565b7f666f7262696464656e0000000000000000000000000000000000000000000000600082015250565b60006130b860098361282a565b91506130c382613082565b602082019050919050565b600060208201905081810360008301526130e7816130ab565b9050919050565b7f77726f6e6720696e646578000000000000000000000000000000000000000000600082015250565b6000613124600b8361282a565b915061312f826130ee565b602082019050919050565b6000602082019050818103600083015261315381613117565b9050919050565b7f6d69736d61746368656420696e64657800000000000000000000000000000000600082015250565b600061319060108361282a565b915061319b8261315a565b602082019050919050565b600060208201905081810360008301526131bf81613183565b9050919050565b7f4e487b7100000000000000000000000000000000000000000000000000000000600052603260045260246000fd5b6000613200826128d6565b915061320b836128d6565b9250828201905060ff81111561322457613223612e7c565b5b92915050565b7f4e487b7100000000000000000000000000000000000000000000000000000000600052603160045260246000fd5b7f777261707065642066696e697368656400000000000000000000000000000000600082015250565b600061328f60108361282a565b915061329a82613259565b602082019050919050565b600060208201905081810360008301526132be81613282565b9050919050565b7f73656e6465722077726170706564000000000000000000000000000000000000600082015250565b60006132fb600e8361282a565b9150613306826132c5565b602082019050919050565b6000602082019050818103600083015261332a816132ee565b9050919050565b7f696e76616c696420777261700000000000000000000000000000000000000000600082015250565b6000613367600c8361282a565b915061337282613331565b602082019050919050565b600060208201905081810360008301526133968161335a565b9050919050565b7f616c726561647920657869737400000000000000000000000000000000000000600082015250565b60006133d3600d8361282a565b91506133de8261339d565b602082019050919050565b60006020820190508181036000830152613402816133c6565b9050919050565b7f77726f6e67207369676e65720000000000000000000000000000000000000000600082015250565b600061343f600c8361282a565b915061344a82613409565b602082019050919050565b6000602082019050818103600083015261346e81613432565b905091905056fea2646970667358221220eb029070b7074674f17b07610d66bfe991ed50643a3dab42996902333080cb8564736f6c63430008110033",
  "linkReferences": {},
  "deployedLinkReferences": {}
}