{
  "_format": "hh-sol-artifact-1",
  "contractName": "MultiSign",
  "sourceName": "contracts/multiSign.old.sol",
  "abi": [
    {
      "inputs": [
        {
          "internalType": "address[]",
          "name": "_signers",
          "type": "address[]"
        },
        {
          "internalType": "uint8",
          "name": "_requireCount",
          "type": "uint8"
        }
      ],
      "stateMutability": "nonpayable",
      "type": "constructor"
    },
    {
      "anonymous": false,
      "inputs": [
        {
          "indexed": false,
          "internalType": "uint8",
          "name": "changeRequireCount",
          "type": "uint8"
        }
      ],
      "name": "ChangeRequireCount",
      "type": "event"
    },
    {
      "anonymous": false,
      "inputs": [
        {
          "indexed": true,
          "internalType": "address",
          "name": "signer",
          "type": "address"
        }
      ],
      "name": "SignerAddition",
      "type": "event"
    },
    {
      "anonymous": false,
      "inputs": [
        {
          "indexed": true,
          "internalType": "address",
          "name": "signer",
          "type": "address"
        }
      ],
      "name": "SignerRemoval",
      "type": "event"
    },
    {
      "inputs": [
        {
          "internalType": "address",
          "name": "signer",
          "type": "address"
        }
      ],
      "name": "addSigner",
      "outputs": [],
      "stateMutability": "nonpayable",
      "type": "function"
    },
    {
      "inputs": [],
      "name": "addingCount",
      "outputs": [
        {
          "internalType": "uint8",
          "name": "",
          "type": "uint8"
        }
      ],
      "stateMutability": "view",
      "type": "function"
    },
    {
      "inputs": [],
      "name": "addingSigner",
      "outputs": [
        {
          "internalType": "address",
          "name": "",
          "type": "address"
        }
      ],
      "stateMutability": "view",
      "type": "function"
    },
    {
      "inputs": [
        {
          "internalType": "uint256",
          "name": "number",
          "type": "uint256"
        },
        {
          "internalType": "uint8",
          "name": "newCount",
          "type": "uint8"
        }
      ],
      "name": "agreeCountProposal",
      "outputs": [],
      "stateMutability": "nonpayable",
      "type": "function"
    },
    {
      "inputs": [
        {
          "internalType": "uint256",
          "name": "number",
          "type": "uint256"
        },
        {
          "internalType": "int8",
          "name": "d",
          "type": "int8"
        },
        {
          "internalType": "address",
          "name": "signer",
          "type": "address"
        }
      ],
      "name": "agreeSignerProposal",
      "outputs": [],
      "stateMutability": "nonpayable",
      "type": "function"
    },
    {
      "inputs": [
        {
          "internalType": "uint8",
          "name": "newCount",
          "type": "uint8"
        }
      ],
      "name": "changeRequireCount",
      "outputs": [],
      "stateMutability": "nonpayable",
      "type": "function"
    },
    {
      "inputs": [],
      "name": "changingCount",
      "outputs": [
        {
          "internalType": "uint8",
          "name": "",
          "type": "uint8"
        }
      ],
      "stateMutability": "view",
      "type": "function"
    },
    {
      "inputs": [
        {
          "internalType": "uint256",
          "name": "",
          "type": "uint256"
        }
      ],
      "name": "countProposals",
      "outputs": [
        {
          "internalType": "uint8",
          "name": "newCount",
          "type": "uint8"
        },
        {
          "internalType": "uint8",
          "name": "agreedCount",
          "type": "uint8"
        }
      ],
      "stateMutability": "view",
      "type": "function"
    },
    {
      "inputs": [
        {
          "internalType": "address",
          "name": "",
          "type": "address"
        },
        {
          "internalType": "address",
          "name": "",
          "type": "address"
        }
      ],
      "name": "isAdded",
      "outputs": [
        {
          "internalType": "bool",
          "name": "",
          "type": "bool"
        }
      ],
      "stateMutability": "view",
      "type": "function"
    },
    {
      "inputs": [
        {
          "internalType": "uint256",
          "name": "",
          "type": "uint256"
        },
        {
          "internalType": "address",
          "name": "",
          "type": "address"
        }
      ],
      "name": "isAgreed",
      "outputs": [
        {
          "internalType": "bool",
          "name": "",
          "type": "bool"
        }
      ],
      "stateMutability": "view",
      "type": "function"
    },
    {
      "inputs": [
        {
          "internalType": "address",
          "name": "",
          "type": "address"
        }
      ],
      "name": "isChangeCount",
      "outputs": [
        {
          "internalType": "bool",
          "name": "",
          "type": "bool"
        }
      ],
      "stateMutability": "view",
      "type": "function"
    },
    {
      "inputs": [
        {
          "internalType": "address",
          "name": "",
          "type": "address"
        },
        {
          "internalType": "uint8",
          "name": "",
          "type": "uint8"
        }
      ],
      "name": "isRemoved",
      "outputs": [
        {
          "internalType": "bool",
          "name": "",
          "type": "bool"
        }
      ],
      "stateMutability": "view",
      "type": "function"
    },
    {
      "inputs": [],
      "name": "newRequireCount",
      "outputs": [
        {
          "internalType": "uint8",
          "name": "",
          "type": "uint8"
        }
      ],
      "stateMutability": "view",
      "type": "function"
    },
    {
      "inputs": [],
      "name": "overTime",
      "outputs": [
        {
          "internalType": "uint256",
          "name": "",
          "type": "uint256"
        }
      ],
      "stateMutability": "view",
      "type": "function"
    },
    {
      "inputs": [
        {
          "internalType": "uint8",
          "name": "index",
          "type": "uint8"
        }
      ],
      "name": "removeSigner",
      "outputs": [],
      "stateMutability": "nonpayable",
      "type": "function"
    },
    {
      "inputs": [],
      "name": "removingCount",
      "outputs": [
        {
          "internalType": "uint8",
          "name": "",
          "type": "uint8"
        }
      ],
      "stateMutability": "view",
      "type": "function"
    },
    {
      "inputs": [],
      "name": "removingEndTime",
      "outputs": [
        {
          "internalType": "uint256",
          "name": "",
          "type": "uint256"
        }
      ],
      "stateMutability": "view",
      "type": "function"
    },
    {
      "inputs": [],
      "name": "removingIndex",
      "outputs": [
        {
          "internalType": "uint8",
          "name": "",
          "type": "uint8"
        }
      ],
      "stateMutability": "view",
      "type": "function"
    },
    {
      "inputs": [],
      "name": "requireCount",
      "outputs": [
        {
          "internalType": "uint8",
          "name": "",
          "type": "uint8"
        }
      ],
      "stateMutability": "view",
      "type": "function"
    },
    {
      "inputs": [
        {
          "internalType": "uint256",
          "name": "",
          "type": "uint256"
        }
      ],
      "name": "signers",
      "outputs": [
        {
          "internalType": "address",
          "name": "",
          "type": "address"
        }
      ],
      "stateMutability": "view",
      "type": "function"
    },
    {
      "inputs": [
        {
          "internalType": "uint256",
          "name": "",
          "type": "uint256"
        }
      ],
      "name": "singerProposals",
      "outputs": [
        {
          "internalType": "int8",
          "name": "d",
          "type": "int8"
        },
        {
          "internalType": "address",
          "name": "signer",
          "type": "address"
        },
        {
          "internalType": "uint8",
          "name": "agreedCount",
          "type": "uint8"
        }
      ],
      "stateMutability": "view",
      "type": "function"
    },
    {
      "inputs": [
        {
          "internalType": "uint8",
          "name": "newCount",
          "type": "uint8"
        }
      ],
      "name": "submitCountProposal",
      "outputs": [
        {
          "internalType": "uint256",
          "name": "",
          "type": "uint256"
        }
      ],
      "stateMutability": "nonpayable",
      "type": "function"
    },
    {
      "inputs": [
        {
          "internalType": "int8",
          "name": "d",
          "type": "int8"
        },
        {
          "internalType": "address",
          "name": "signer",
          "type": "address"
        }
      ],
      "name": "submitSignerProposal",
      "outputs": [
        {
          "internalType": "uint256",
          "name": "",
          "type": "uint256"
        }
      ],
      "stateMutability": "nonpayable",
      "type": "function"
    }
  ],
  "bytecode": "0x60806040523480156200001157600080fd5b506040516200370538038062003705833981810160405281019062000037919062000552565b60005b82518160ff161015620001f257600060016000858460ff1681518110620000665762000065620005b8565b5b602002602001015173ffffffffffffffffffffffffffffffffffffffff1673ffffffffffffffffffffffffffffffffffffffff16815260200190815260200160002060009054906101000a900460ff1660ff16148015620001145750600073ffffffffffffffffffffffffffffffffffffffff16838260ff1681518110620000f357620000f2620005b8565b5b602002602001015173ffffffffffffffffffffffffffffffffffffffff1614155b62000156576040517f08c379a00000000000000000000000000000000000000000000000000000000081526004016200014d9062000648565b60405180910390fd5b60018162000165919062000699565b60016000858460ff1681518110620001825762000181620005b8565b5b602002602001015173ffffffffffffffffffffffffffffffffffffffff1673ffffffffffffffffffffffffffffffffffffffff16815260200190815260200160002060006101000a81548160ff021916908360ff1602179055508080620001e990620006d5565b9150506200003a565b5081600090805190602001906200020b92919062000278565b5060018160ff161162000255576040517f08c379a00000000000000000000000000000000000000000000000000000000081526004016200024c9062000753565b60405180910390fd5b80600260006101000a81548160ff021916908360ff160217905550505062000775565b828054828255906000526020600020908101928215620002f4579160200282015b82811115620002f35782518260006101000a81548173ffffffffffffffffffffffffffffffffffffffff021916908373ffffffffffffffffffffffffffffffffffffffff1602179055509160200191906001019062000299565b5b50905062000303919062000307565b5090565b5b808211156200032257600081600090555060010162000308565b5090565b6000604051905090565b600080fd5b600080fd5b600080fd5b6000601f19601f8301169050919050565b7f4e487b7100000000000000000000000000000000000000000000000000000000600052604160045260246000fd5b6200038a826200033f565b810181811067ffffffffffffffff82111715620003ac57620003ab62000350565b5b80604052505050565b6000620003c162000326565b9050620003cf82826200037f565b919050565b600067ffffffffffffffff821115620003f257620003f162000350565b5b602082029050602081019050919050565b600080fd5b600073ffffffffffffffffffffffffffffffffffffffff82169050919050565b6000620004358262000408565b9050919050565b620004478162000428565b81146200045357600080fd5b50565b60008151905062000467816200043c565b92915050565b6000620004846200047e84620003d4565b620003b5565b90508083825260208201905060208402830185811115620004aa57620004a962000403565b5b835b81811015620004d75780620004c2888262000456565b845260208401935050602081019050620004ac565b5050509392505050565b600082601f830112620004f957620004f86200033a565b5b81516200050b8482602086016200046d565b91505092915050565b600060ff82169050919050565b6200052c8162000514565b81146200053857600080fd5b50565b6000815190506200054c8162000521565b92915050565b600080604083850312156200056c576200056b62000330565b5b600083015167ffffffffffffffff8111156200058d576200058c62000335565b5b6200059b85828601620004e1565b9250506020620005ae858286016200053b565b9150509250929050565b7f4e487b7100000000000000000000000000000000000000000000000000000000600052603260045260246000fd5b600082825260208201905092915050565b7f696e76616c6964206f72206475706c696361746564207369676e657200000000600082015250565b600062000630601c83620005e7565b91506200063d82620005f8565b602082019050919050565b60006020820190508181036000830152620006638162000621565b9050919050565b7f4e487b7100000000000000000000000000000000000000000000000000000000600052601160045260246000fd5b6000620006a68262000514565b9150620006b38362000514565b9250828201905060ff811115620006cf57620006ce6200066a565b5b92915050565b6000620006e28262000514565b915060ff8203620006f857620006f76200066a565b5b600182019050919050565b7f746f6f20736d616c6c2072657175697265436f756e7400000000000000000000600082015250565b60006200073b601683620005e7565b9150620007488262000703565b602082019050919050565b600060208201905081810360008301526200076e816200072c565b9050919050565b612f8080620007856000396000f3fe608060405234801561001057600080fd5b506004361061014d5760003560e01c80636561d53c116100c3578063bc2c1e771161007c578063bc2c1e77146103b8578063c34bc928146103d6578063eb12d61e14610406578063ee6c829b14610422578063f770a5db14610453578063fe6931b7146104835761014d565b80636561d53c146102f65780636647c2691461032657806368d024171461034257806383051fde146103605780639bc5362e1461037e578063a1ed637a1461039a5761014d565b80633d5655f8116101155780633d5655f814610230578063451349df1461024e578063458a3add1461026c5780635003b3331461028a57806353fbd60b146102a857806354ca4416146102d85761014d565b806307a4145b1461015257806318a922a71461016e5780631ce047831461019e5780632079fb9a146101d057806326fbcf9314610200575b600080fd5b61016c60048036038101906101679190612538565b61049f565b005b610188600480360381019061018391906125fc565b610826565b6040516101959190612655565b60405180910390f35b6101b860048036038101906101b3919061269c565b610b5d565b6040516101c7939291906126f6565b60405180910390f35b6101ea60048036038101906101e5919061269c565b610bc1565b6040516101f7919061272d565b60405180910390f35b61021a60048036038101906102159190612748565b610c00565b6040516102279190612790565b60405180910390f35b610238610c20565b604051610245919061272d565b60405180910390f35b610256610c46565b6040516102639190612655565b60405180910390f35b610274610c4c565b60405161028191906127ab565b60405180910390f35b610292610c5f565b60405161029f91906127ab565b60405180910390f35b6102c260048036038101906102bd91906127c6565b610c72565b6040516102cf9190612790565b60405180910390f35b6102e0610ca1565b6040516102ed91906127ab565b60405180910390f35b610310600480360381019061030b9190612806565b610cb4565b60405161031d9190612790565b60405180910390f35b610340600480360381019061033b9190612846565b610ce3565b005b61034a610f8e565b60405161035791906127ab565b60405180910390f35b610368610fa1565b60405161037591906127ab565b60405180910390f35b61039860048036038101906103939190612538565b610fb4565b005b6103a26115e1565b6040516103af91906127ab565b60405180910390f35b6103c06115f4565b6040516103cd9190612655565b60405180910390f35b6103f060048036038101906103eb9190612538565b6115fb565b6040516103fd9190612655565b60405180910390f35b610420600480360381019061041b9190612748565b611854565b005b61043c6004803603810190610437919061269c565b611e44565b60405161044a929190612886565b60405180910390f35b61046d600480360381019061046891906128af565b611e82565b60405161047a9190612790565b60405180910390f35b61049d600480360381019061049891906128ef565b611eb1565b005b6000600160003373ffffffffffffffffffffffffffffffffffffffff1673ffffffffffffffffffffffffffffffffffffffff16815260200190815260200160002060009054906101000a900460ff1660ff1611610531576040517f08c379a00000000000000000000000000000000000000000000000000000000081526004016105289061299f565b60405180910390fd5b6000600b60009054906101000a900460ff1660ff1603610633576000805490508160ff1611158015610566575060008160ff16115b6105a5576040517f08c379a000000000000000000000000000000000000000000000000000000000815260040161059c90612a0b565b60405180910390fd5b8060ff16600b60009054906101000a9050505060005b6000805490508160ff16101561062d57600c60003373ffffffffffffffffffffffffffffffffffffffff1673ffffffffffffffffffffffffffffffffffffffff16815260200190815260200160002060006101000a81549060ff0219169055808061062590612a5a565b9150506105bb565b5061068b565b600b60009054906101000a900460ff1660ff168160ff161461068a576040517f08c379a000000000000000000000000000000000000000000000000000000000815260040161068190612acf565b60405180910390fd5b5b600c60003373ffffffffffffffffffffffffffffffffffffffff1673ffffffffffffffffffffffffffffffffffffffff16815260200190815260200160002060009054906101000a900460ff1661076d576001600c60003373ffffffffffffffffffffffffffffffffffffffff1673ffffffffffffffffffffffffffffffffffffffff16815260200190815260200160002060006101000a81548160ff021916908315150217905550600b600181819054906101000a900460ff168092919061075390612a5a565b91906101000a81548160ff021916908360ff160217905550505b600260009054906101000a900460ff1660ff16600b60019054906101000a900460ff1660ff16106108235780600260006101000a81548160ff021916908360ff1602179055506000600b60006101000a81548160ff021916908360ff1602179055506000600b60016101000a81548160ff021916908360ff1602179055507f971ed33ab126ac4c0a07a18b84ed2990cde2ae87b25cd5009c84e7e5c9c8cffd8160405161081a91906127ab565b60405180910390a15b50565b600080600160003373ffffffffffffffffffffffffffffffffffffffff1673ffffffffffffffffffffffffffffffffffffffff16815260200190815260200160002060009054906101000a900460ff1660ff16116108b9576040517f08c379a00000000000000000000000000000000000000000000000000000000081526004016108b09061299f565b60405180910390fd5b60006003600043815260200190815260200160002060000160009054906101000a900460000b60000b148015610915575060006004600043815260200190815260200160002060000160009054906101000a900460ff1660ff16145b610954576040517f08c379a000000000000000000000000000000000000000000000000000000000815260040161094b90612b3b565b60405180910390fd5b7fffffffffffffffffffffffffffffffffffffffffffffffffffffffffffffffff8360000b03610a11576000600160008473ffffffffffffffffffffffffffffffffffffffff1673ffffffffffffffffffffffffffffffffffffffff16815260200190815260200160002060009054906101000a900460ff1660ff1611610a10576040517f08c379a0000000000000000000000000000000000000000000000000000000008152600401610a0790612ba7565b60405180910390fd5b5b60405180606001604052808460000b81526020018373ffffffffffffffffffffffffffffffffffffffff168152602001600160ff168152506003600043815260200190815260200160002060008201518160000160006101000a81548160ff021916908360000b60ff16021790555060208201518160000160016101000a81548173ffffffffffffffffffffffffffffffffffffffff021916908373ffffffffffffffffffffffffffffffffffffffff16021790555060408201518160000160156101000a81548160ff021916908360ff16021790555090505060016005600043815260200190815260200160002060003373ffffffffffffffffffffffffffffffffffffffff1673ffffffffffffffffffffffffffffffffffffffff16815260200190815260200160002060006101000a81548160ff02191690831515021790555043905092915050565b60036020528060005260406000206000915090508060000160009054906101000a900460000b908060000160019054906101000a900473ffffffffffffffffffffffffffffffffffffffff16908060000160159054906101000a900460ff16905083565b60008181548110610bd157600080fd5b906000526020600020016000915054906101000a900473ffffffffffffffffffffffffffffffffffffffff1681565b600c6020528060005260406000206000915054906101000a900460ff1681565b600660009054906101000a900473ffffffffffffffffffffffffffffffffffffffff1681565b60095481565b600b60009054906101000a900460ff1681565b600860009054906101000a900460ff1681565b60056020528160005260406000206020528060005260406000206000915091509054906101000a900460ff1681565b600b60019054906101000a900460ff1681565b600a6020528160005260406000206020528060005260406000206000915091509054906101000a900460ff1681565b6000600160003373ffffffffffffffffffffffffffffffffffffffff1673ffffffffffffffffffffffffffffffffffffffff16815260200190815260200160002060009054906101000a900460ff1660ff1611610d75576040517f08c379a0000000000000000000000000000000000000000000000000000000008152600401610d6c9061299f565b60405180910390fd5b8060ff166004600084815260200190815260200160002060000160009054906101000a900460ff1660ff1614610de0576040517f08c379a0000000000000000000000000000000000000000000000000000000008152600401610dd790612c13565b60405180910390fd5b6005600083815260200190815260200160002060003373ffffffffffffffffffffffffffffffffffffffff1673ffffffffffffffffffffffffffffffffffffffff16815260200190815260200160002060009054906101000a900460ff16610ef85760016005600084815260200190815260200160002060003373ffffffffffffffffffffffffffffffffffffffff1673ffffffffffffffffffffffffffffffffffffffff16815260200190815260200160002060006101000a81548160ff02191690831515021790555060046000838152602001908152602001600020600001600181819054906101000a900460ff1680929190610ede90612a5a565b91906101000a81548160ff021916908360ff160217905550505b600260009054906101000a900460ff1660ff166004600084815260200190815260200160002060000160019054906101000a900460ff1660ff1610610f8a5780600260006101000a81548160ff021916908360ff1602179055507f971ed33ab126ac4c0a07a18b84ed2990cde2ae87b25cd5009c84e7e5c9c8cffd81604051610f8191906127ab565b60405180910390a15b5050565b600860019054906101000a900460ff1681565b600260009054906101000a900460ff1681565b6000600160003373ffffffffffffffffffffffffffffffffffffffff1673ffffffffffffffffffffffffffffffffffffffff16815260200190815260200160002060009054906101000a900460ff1660ff1611611046576040517f08c379a000000000000000000000000000000000000000000000000000000000815260040161103d9061299f565b60405180910390fd5b6000600860009054906101000a900460ff1660ff1603611177576000805490508160ff161115801561107b575060008160ff16115b6110ba576040517f08c379a00000000000000000000000000000000000000000000000000000000081526004016110b190612c7f565b60405180910390fd5b8060ff16600860009054906101000a9050505062015180426110dc9190612c9f565b6009819055506000600190505b6000805490508160ff161161117157600a60003373ffffffffffffffffffffffffffffffffffffffff1673ffffffffffffffffffffffffffffffffffffffff16815260200190815260200160002060008260ff1660ff16815260200190815260200160002060006101000a81549060ff0219169055808061116990612a5a565b9150506110e9565b5061121e565b8060ff16600860009054906101000a900460ff1660ff16146111ce576040517f08c379a00000000000000000000000000000000000000000000000000000000081526004016111c590612d1f565b60405180910390fd5b60095442111561121d576000600860006101000a81548160ff021916908360ff1602179055506000600860016101000a81548160ff021916908360ff16021790555060006009819055506115de565b5b600a60003373ffffffffffffffffffffffffffffffffffffffff1673ffffffffffffffffffffffffffffffffffffffff16815260200190815260200160002060008260ff1660ff16815260200190815260200160002060009054906101000a900460ff1661132e576001600a60003373ffffffffffffffffffffffffffffffffffffffff1673ffffffffffffffffffffffffffffffffffffffff16815260200190815260200160002060008360ff1660ff16815260200190815260200160002060006101000a81548160ff0219169083151502179055506008600181819054906101000a900460ff168092919061131490612a5a565b91906101000a81548160ff021916908360ff160217905550505b600260009054906101000a900460ff1660ff16600860019054906101000a900460ff1660ff16106115dd576000806001836113699190612d3f565b60ff168154811061137d5761137c612d74565b5b9060005260206000200160009054906101000a900473ffffffffffffffffffffffffffffffffffffffff16905060008060016000805490506113bf9190612da3565b815481106113d0576113cf612d74565b5b9060005260206000200160009054906101000a900473ffffffffffffffffffffffffffffffffffffffff16905080600060018561140d9190612d3f565b60ff168154811061142157611420612d74565b5b9060005260206000200160006101000a81548173ffffffffffffffffffffffffffffffffffffffff021916908373ffffffffffffffffffffffffffffffffffffffff16021790555082600160008373ffffffffffffffffffffffffffffffffffffffff1673ffffffffffffffffffffffffffffffffffffffff16815260200190815260200160002060006101000a81548160ff021916908360ff160217905550600160008373ffffffffffffffffffffffffffffffffffffffff1673ffffffffffffffffffffffffffffffffffffffff16815260200190815260200160002060006101000a81549060ff0219169055600080548061152257611521612dd7565b5b6001900381819060005260206000200160006101000a81549073ffffffffffffffffffffffffffffffffffffffff021916905590556000600860006101000a81548160ff021916908360ff1602179055506000600860016101000a81548160ff021916908360ff16021790555060006009819055508173ffffffffffffffffffffffffffffffffffffffff167fa2a6e2b8f0cf0f627456034557b0149227a355af53f5bc8ce7e496bfbe73c0a960405160405180910390a250505b5b50565b600660149054906101000a900460ff1681565b6201518081565b600080600160003373ffffffffffffffffffffffffffffffffffffffff1673ffffffffffffffffffffffffffffffffffffffff16815260200190815260200160002060009054906101000a900460ff1660ff161161168e576040517f08c379a00000000000000000000000000000000000000000000000000000000081526004016116859061299f565b60405180910390fd5b60006003600043815260200190815260200160002060000160009054906101000a900460000b60000b1480156116ea575060006004600043815260200190815260200160002060000160009054906101000a900460ff1660ff16145b611729576040517f08c379a000000000000000000000000000000000000000000000000000000000815260040161172090612b3b565b60405180910390fd5b60018260ff161161176f576040517f08c379a000000000000000000000000000000000000000000000000000000000815260040161176690612e52565b60405180910390fd5b60405180604001604052808360ff168152602001600160ff168152506004600043815260200190815260200160002060008201518160000160006101000a81548160ff021916908360ff16021790555060208201518160000160016101000a81548160ff021916908360ff16021790555090505060016005600043815260200190815260200160002060003373ffffffffffffffffffffffffffffffffffffffff1673ffffffffffffffffffffffffffffffffffffffff16815260200190815260200160002060006101000a81548160ff021916908315150217905550439050919050565b6000600160003373ffffffffffffffffffffffffffffffffffffffff1673ffffffffffffffffffffffffffffffffffffffff16815260200190815260200160002060009054906101000a900460ff1660ff16116118e6576040517f08c379a00000000000000000000000000000000000000000000000000000000081526004016118dd9061299f565b60405180910390fd5b600073ffffffffffffffffffffffffffffffffffffffff16600660009054906101000a900473ffffffffffffffffffffffffffffffffffffffff1673ffffffffffffffffffffffffffffffffffffffff1603611ac7576000600160008373ffffffffffffffffffffffffffffffffffffffff1673ffffffffffffffffffffffffffffffffffffffff16815260200190815260200160002060009054906101000a900460ff1660ff16146119ce576040517f08c379a00000000000000000000000000000000000000000000000000000000081526004016119c590612ebe565b60405180910390fd5b80600660006101000a81548173ffffffffffffffffffffffffffffffffffffffff021916908373ffffffffffffffffffffffffffffffffffffffff16021790555060005b6000805490508160ff161015611ac157600760003373ffffffffffffffffffffffffffffffffffffffff1673ffffffffffffffffffffffffffffffffffffffff16815260200190815260200160002060008373ffffffffffffffffffffffffffffffffffffffff1673ffffffffffffffffffffffffffffffffffffffff16815260200190815260200160002060006101000a81549060ff02191690558080611ab990612a5a565b915050611a12565b50611b58565b8073ffffffffffffffffffffffffffffffffffffffff16600660009054906101000a900473ffffffffffffffffffffffffffffffffffffffff1673ffffffffffffffffffffffffffffffffffffffff1614611b57576040517f08c379a0000000000000000000000000000000000000000000000000000000008152600401611b4e90612f2a565b60405180910390fd5b5b600760003373ffffffffffffffffffffffffffffffffffffffff1673ffffffffffffffffffffffffffffffffffffffff16815260200190815260200160002060008273ffffffffffffffffffffffffffffffffffffffff1673ffffffffffffffffffffffffffffffffffffffff16815260200190815260200160002060009054906101000a900460ff16611cb4576001600760003373ffffffffffffffffffffffffffffffffffffffff1673ffffffffffffffffffffffffffffffffffffffff16815260200190815260200160002060008373ffffffffffffffffffffffffffffffffffffffff1673ffffffffffffffffffffffffffffffffffffffff16815260200190815260200160002060006101000a81548160ff0219169083151502179055506006601481819054906101000a900460ff1680929190611c9a90612a5a565b91906101000a81548160ff021916908360ff160217905550505b600260009054906101000a900460ff1660ff16600660149054906101000a900460ff1660ff1610611e41576000819080600181540180825580915050600190039060005260206000200160009091909190916101000a81548173ffffffffffffffffffffffffffffffffffffffff021916908373ffffffffffffffffffffffffffffffffffffffff160217905550600080549050600160008373ffffffffffffffffffffffffffffffffffffffff1673ffffffffffffffffffffffffffffffffffffffff16815260200190815260200160002060006101000a81548160ff021916908360ff1602179055506000600660006101000a81548173ffffffffffffffffffffffffffffffffffffffff021916908373ffffffffffffffffffffffffffffffffffffffff1602179055506000600660146101000a81548160ff021916908360ff1602179055508073ffffffffffffffffffffffffffffffffffffffff167f8191ca9d665b824fc53160f3727e7ec3a5330e4a67e1db6c4a86678956dfef1960405160405180910390a25b50565b60046020528060005260406000206000915090508060000160009054906101000a900460ff16908060000160019054906101000a900460ff16905082565b60076020528160005260406000206020528060005260406000206000915091509054906101000a900460ff1681565b6000600160003373ffffffffffffffffffffffffffffffffffffffff1673ffffffffffffffffffffffffffffffffffffffff16815260200190815260200160002060009054906101000a900460ff1660ff1611611f43576040517f08c379a0000000000000000000000000000000000000000000000000000000008152600401611f3a9061299f565b60405180910390fd5b8160000b6003600085815260200190815260200160002060000160009054906101000a900460000b60000b148015611fdc57508073ffffffffffffffffffffffffffffffffffffffff166003600085815260200190815260200160002060000160019054906101000a900473ffffffffffffffffffffffffffffffffffffffff1673ffffffffffffffffffffffffffffffffffffffff16145b61201b576040517f08c379a000000000000000000000000000000000000000000000000000000000815260040161201290612c13565b60405180910390fd5b6005600084815260200190815260200160002060003373ffffffffffffffffffffffffffffffffffffffff1673ffffffffffffffffffffffffffffffffffffffff16815260200190815260200160002060009054906101000a900460ff166121335760016005600085815260200190815260200160002060003373ffffffffffffffffffffffffffffffffffffffff1673ffffffffffffffffffffffffffffffffffffffff16815260200190815260200160002060006101000a81548160ff02191690831515021790555060036000848152602001908152602001600020600001601581819054906101000a900460ff168092919061211990612a5a565b91906101000a81548160ff021916908360ff160217905550505b600260009054906101000a900460ff1660ff166003600085815260200190815260200160002060000160159054906101000a900460ff1660ff16106124f55760018260000b03612285576000819080600181540180825580915050600190039060005260206000200160009091909190916101000a81548173ffffffffffffffffffffffffffffffffffffffff021916908373ffffffffffffffffffffffffffffffffffffffff160217905550600080549050600160008373ffffffffffffffffffffffffffffffffffffffff1673ffffffffffffffffffffffffffffffffffffffff16815260200190815260200160002060006101000a81548160ff021916908360ff1602179055508073ffffffffffffffffffffffffffffffffffffffff167f8191ca9d665b824fc53160f3727e7ec3a5330e4a67e1db6c4a86678956dfef1960405160405180910390a26124f4565b7fffffffffffffffffffffffffffffffffffffffffffffffffffffffffffffffff8260000b036124f3576000600160008373ffffffffffffffffffffffffffffffffffffffff1673ffffffffffffffffffffffffffffffffffffffff16815260200190815260200160002060009054906101000a900460ff16905060008060016000805490506123159190612da3565b8154811061232657612325612d74565b5b9060005260206000200160009054906101000a900473ffffffffffffffffffffffffffffffffffffffff1690508060006001846123639190612d3f565b60ff168154811061237757612376612d74565b5b9060005260206000200160006101000a81548173ffffffffffffffffffffffffffffffffffffffff021916908373ffffffffffffffffffffffffffffffffffffffff16021790555081600160008373ffffffffffffffffffffffffffffffffffffffff1673ffffffffffffffffffffffffffffffffffffffff16815260200190815260200160002060006101000a81548160ff021916908360ff160217905550600160008473ffffffffffffffffffffffffffffffffffffffff1673ffffffffffffffffffffffffffffffffffffffff16815260200190815260200160002060006101000a81549060ff0219169055600080548061247857612477612dd7565b5b6001900381819060005260206000200160006101000a81549073ffffffffffffffffffffffffffffffffffffffff021916905590558273ffffffffffffffffffffffffffffffffffffffff167fa2a6e2b8f0cf0f627456034557b0149227a355af53f5bc8ce7e496bfbe73c0a960405160405180910390a250505b5b5b505050565b600080fd5b600060ff82169050919050565b612515816124ff565b811461252057600080fd5b50565b6000813590506125328161250c565b92915050565b60006020828403121561254e5761254d6124fa565b5b600061255c84828501612523565b91505092915050565b60008160000b9050919050565b61257b81612565565b811461258657600080fd5b50565b60008135905061259881612572565b92915050565b600073ffffffffffffffffffffffffffffffffffffffff82169050919050565b60006125c98261259e565b9050919050565b6125d9816125be565b81146125e457600080fd5b50565b6000813590506125f6816125d0565b92915050565b60008060408385031215612613576126126124fa565b5b600061262185828601612589565b9250506020612632858286016125e7565b9150509250929050565b6000819050919050565b61264f8161263c565b82525050565b600060208201905061266a6000830184612646565b92915050565b6126798161263c565b811461268457600080fd5b50565b60008135905061269681612670565b92915050565b6000602082840312156126b2576126b16124fa565b5b60006126c084828501612687565b91505092915050565b6126d281612565565b82525050565b6126e1816125be565b82525050565b6126f0816124ff565b82525050565b600060608201905061270b60008301866126c9565b61271860208301856126d8565b61272560408301846126e7565b949350505050565b600060208201905061274260008301846126d8565b92915050565b60006020828403121561275e5761275d6124fa565b5b600061276c848285016125e7565b91505092915050565b60008115159050919050565b61278a81612775565b82525050565b60006020820190506127a56000830184612781565b92915050565b60006020820190506127c060008301846126e7565b92915050565b600080604083850312156127dd576127dc6124fa565b5b60006127eb85828601612687565b92505060206127fc858286016125e7565b9150509250929050565b6000806040838503121561281d5761281c6124fa565b5b600061282b858286016125e7565b925050602061283c85828601612523565b9150509250929050565b6000806040838503121561285d5761285c6124fa565b5b600061286b85828601612687565b925050602061287c85828601612523565b9150509250929050565b600060408201905061289b60008301856126e7565b6128a860208301846126e7565b9392505050565b600080604083850312156128c6576128c56124fa565b5b60006128d4858286016125e7565b92505060206128e5858286016125e7565b9150509250929050565b600080600060608486031215612908576129076124fa565b5b600061291686828701612687565b935050602061292786828701612589565b9250506040612938868287016125e7565b9150509250925092565b600082825260208201905092915050565b7f6e6f74207369676e657200000000000000000000000000000000000000000000600082015250565b6000612989600a83612942565b915061299482612953565b602082019050919050565b600060208201905081810360008301526129b88161297c565b9050919050565b7f77726f6e6720636f756e74000000000000000000000000000000000000000000600082015250565b60006129f5600b83612942565b9150612a00826129bf565b602082019050919050565b60006020820190508181036000830152612a24816129e8565b9050919050565b7f4e487b7100000000000000000000000000000000000000000000000000000000600052601160045260246000fd5b6000612a65826124ff565b915060ff8203612a7857612a77612a2b565b5b600182019050919050565b7f6d69736d61746368656420636f756e7400000000000000000000000000000000600082015250565b6000612ab9601083612942565b9150612ac482612a83565b602082019050919050565b60006020820190508181036000830152612ae881612aac565b9050919050565b7f65786973742070726f706f73616c000000000000000000000000000000000000600082015250565b6000612b25600e83612942565b9150612b3082612aef565b602082019050919050565b60006020820190508181036000830152612b5481612b18565b9050919050565b7f61646472657373206e6f74206578697374000000000000000000000000000000600082015250565b6000612b91601183612942565b9150612b9c82612b5b565b602082019050919050565b60006020820190508181036000830152612bc081612b84565b9050919050565b7f6d69736d61746368000000000000000000000000000000000000000000000000600082015250565b6000612bfd600883612942565b9150612c0882612bc7565b602082019050919050565b60006020820190508181036000830152612c2c81612bf0565b9050919050565b7f77726f6e6720696e646578000000000000000000000000000000000000000000600082015250565b6000612c69600b83612942565b9150612c7482612c33565b602082019050919050565b60006020820190508181036000830152612c9881612c5c565b9050919050565b6000612caa8261263c565b9150612cb58361263c565b9250828201905080821115612ccd57612ccc612a2b565b5b92915050565b7f6d69736d61746368656420696e64657800000000000000000000000000000000600082015250565b6000612d09601083612942565b9150612d1482612cd3565b602082019050919050565b60006020820190508181036000830152612d3881612cfc565b9050919050565b6000612d4a826124ff565b9150612d55836124ff565b9250828203905060ff811115612d6e57612d6d612a2b565b5b92915050565b7f4e487b7100000000000000000000000000000000000000000000000000000000600052603260045260246000fd5b6000612dae8261263c565b9150612db98361263c565b9250828203905081811115612dd157612dd0612a2b565b5b92915050565b7f4e487b7100000000000000000000000000000000000000000000000000000000600052603160045260246000fd5b7f636f756e7420746f6f20736d616c6c0000000000000000000000000000000000600082015250565b6000612e3c600f83612942565b9150612e4782612e06565b602082019050919050565b60006020820190508181036000830152612e6b81612e2f565b9050919050565b7f616c726561647920657869737400000000000000000000000000000000000000600082015250565b6000612ea8600d83612942565b9150612eb382612e72565b602082019050919050565b60006020820190508181036000830152612ed781612e9b565b9050919050565b7f77726f6e67207369676e65720000000000000000000000000000000000000000600082015250565b6000612f14600c83612942565b9150612f1f82612ede565b602082019050919050565b60006020820190508181036000830152612f4381612f07565b905091905056fea2646970667358221220522b2ee208e8c1a43dbaf48bd08f95600ecd2464f5a61636fabed5e01b75cac464736f6c63430008110033",
  "linkReferences": {},
  "deployedLinkReferences": {}
}